{
	"contracts/UniversalNFT.sol": {
		"ERC721": {
			"abi": [
				{
					"inputs": [
						{
							"internalType": "string",
							"name": "_name",
							"type": "string"
						},
						{
							"internalType": "string",
							"name": "_symbol",
							"type": "string"
						}
					],
					"stateMutability": "nonpayable",
					"type": "constructor"
				},
				{
					"anonymous": false,
					"inputs": [
						{
							"indexed": true,
							"internalType": "address",
							"name": "from",
							"type": "address"
						},
						{
							"indexed": true,
							"internalType": "address",
							"name": "to",
							"type": "address"
						},
						{
							"indexed": true,
							"internalType": "uint256",
							"name": "tokenId",
							"type": "uint256"
						}
					],
					"name": "Transfer",
					"type": "event"
				},
				{
					"inputs": [
						{
							"internalType": "address",
							"name": "owner",
							"type": "address"
						}
					],
					"name": "balanceOf",
					"outputs": [
						{
							"internalType": "uint256",
							"name": "",
							"type": "uint256"
						}
					],
					"stateMutability": "view",
					"type": "function"
				},
				{
					"inputs": [],
					"name": "name",
					"outputs": [
						{
							"internalType": "string",
							"name": "",
							"type": "string"
						}
					],
					"stateMutability": "view",
					"type": "function"
				},
				{
					"inputs": [
						{
							"internalType": "uint256",
							"name": "tokenId",
							"type": "uint256"
						}
					],
					"name": "ownerOf",
					"outputs": [
						{
							"internalType": "address",
							"name": "",
							"type": "address"
						}
					],
					"stateMutability": "view",
					"type": "function"
				},
				{
					"inputs": [],
					"name": "symbol",
					"outputs": [
						{
							"internalType": "string",
							"name": "",
							"type": "string"
						}
					],
					"stateMutability": "view",
					"type": "function"
				}
			],
			"devdoc": {
				"kind": "dev",
				"methods": {},
				"version": 1
			},
			"evm": {
				"assembly": "    /* \"contracts/UniversalNFT.sol\":1584:2973  contract ERC721 is Context {... */\n  mstore(0x40, 0x80)\n    /* \"contracts/UniversalNFT.sol\":1858:1979  constructor(string memory _name, string memory _symbol) Context() {... */\n  callvalue\n  dup1\n  iszero\n  tag_1\n  jumpi\n  0x00\n  dup1\n  revert\ntag_1:\n  pop\n  mload(0x40)\n  sub(codesize, bytecodeSize)\n  dup1\n  bytecodeSize\n  dup4\n  codecopy\n  dup2\n  dup2\n  add\n  0x40\n  mstore\n  dup2\n  add\n  swap1\n  tag_2\n  swap2\n  swap1\n  tag_3\n  jump\t// in\ntag_2:\n    /* \"contracts/UniversalNFT.sol\":1941:1946  _name */\n  dup2\n    /* \"contracts/UniversalNFT.sol\":1934:1938  name */\n  0x00\n    /* \"contracts/UniversalNFT.sol\":1934:1946  name = _name */\n  swap1\n  dup2\n  tag_6\n  swap2\n  swap1\n  tag_7\n  jump\t// in\ntag_6:\n  pop\n    /* \"contracts/UniversalNFT.sol\":1965:1972  _symbol */\n  dup1\n    /* \"contracts/UniversalNFT.sol\":1956:1962  symbol */\n  0x01\n    /* \"contracts/UniversalNFT.sol\":1956:1972  symbol = _symbol */\n  swap1\n  dup2\n  tag_8\n  swap2\n  swap1\n  tag_7\n  jump\t// in\ntag_8:\n  pop\n    /* \"contracts/UniversalNFT.sol\":1858:1979  constructor(string memory _name, string memory _symbol) Context() {... */\n  pop\n  pop\n    /* \"contracts/UniversalNFT.sol\":1584:2973  contract ERC721 is Context {... */\n  jump(tag_9)\n    /* \"#utility.yul\":7:82   */\ntag_10:\n    /* \"#utility.yul\":40:46   */\n  0x00\n    /* \"#utility.yul\":73:75   */\n  0x40\n    /* \"#utility.yul\":67:76   */\n  mload\n    /* \"#utility.yul\":57:76   */\n  swap1\n  pop\n    /* \"#utility.yul\":7:82   */\n  swap1\n  jump\t// out\n    /* \"#utility.yul\":88:205   */\ntag_11:\n    /* \"#utility.yul\":197:198   */\n  0x00\n    /* \"#utility.yul\":194:195   */\n  dup1\n    /* \"#utility.yul\":187:199   */\n  revert\n    /* \"#utility.yul\":211:328   */\ntag_12:\n    /* \"#utility.yul\":320:321   */\n  0x00\n    /* \"#utility.yul\":317:318   */\n  dup1\n    /* \"#utility.yul\":310:322   */\n  revert\n    /* \"#utility.yul\":334:451   */\ntag_13:\n    /* \"#utility.yul\":443:444   */\n  0x00\n    /* \"#utility.yul\":440:441   */\n  dup1\n    /* \"#utility.yul\":433:445   */\n  revert\n    /* \"#utility.yul\":457:574   */\ntag_14:\n    /* \"#utility.yul\":566:567   */\n  0x00\n    /* \"#utility.yul\":563:564   */\n  dup1\n    /* \"#utility.yul\":556:568   */\n  revert\n    /* \"#utility.yul\":580:682   */\ntag_15:\n    /* \"#utility.yul\":621:627   */\n  0x00\n    /* \"#utility.yul\":672:674   */\n  0x1f\n    /* \"#utility.yul\":668:675   */\n  not\n    /* \"#utility.yul\":663:665   */\n  0x1f\n    /* \"#utility.yul\":656:661   */\n  dup4\n    /* \"#utility.yul\":652:666   */\n  add\n    /* \"#utility.yul\":648:676   */\n  and\n    /* \"#utility.yul\":638:676   */\n  swap1\n  pop\n    /* \"#utility.yul\":580:682   */\n  swap2\n  swap1\n  pop\n  jump\t// out\n    /* \"#utility.yul\":688:868   */\ntag_16:\n    /* \"#utility.yul\":736:813   */\n  0x4e487b7100000000000000000000000000000000000000000000000000000000\n    /* \"#utility.yul\":733:734   */\n  0x00\n    /* \"#utility.yul\":726:814   */\n  mstore\n    /* \"#utility.yul\":833:837   */\n  0x41\n    /* \"#utility.yul\":830:831   */\n  0x04\n    /* \"#utility.yul\":823:838   */\n  mstore\n    /* \"#utility.yul\":857:861   */\n  0x24\n    /* \"#utility.yul\":854:855   */\n  0x00\n    /* \"#utility.yul\":847:862   */\n  revert\n    /* \"#utility.yul\":874:1155   */\ntag_17:\n    /* \"#utility.yul\":957:984   */\n  tag_51\n    /* \"#utility.yul\":979:983   */\n  dup3\n    /* \"#utility.yul\":957:984   */\n  tag_15\n  jump\t// in\ntag_51:\n    /* \"#utility.yul\":949:955   */\n  dup2\n    /* \"#utility.yul\":945:985   */\n  add\n    /* \"#utility.yul\":1087:1093   */\n  dup2\n    /* \"#utility.yul\":1075:1085   */\n  dup2\n    /* \"#utility.yul\":1072:1094   */\n  lt\n    /* \"#utility.yul\":1051:1069   */\n  0xffffffffffffffff\n    /* \"#utility.yul\":1039:1049   */\n  dup3\n    /* \"#utility.yul\":1036:1070   */\n  gt\n    /* \"#utility.yul\":1033:1095   */\n  or\n    /* \"#utility.yul\":1030:1118   */\n  iszero\n  tag_52\n  jumpi\n    /* \"#utility.yul\":1098:1116   */\n  tag_53\n  tag_16\n  jump\t// in\ntag_53:\n    /* \"#utility.yul\":1030:1118   */\ntag_52:\n    /* \"#utility.yul\":1138:1148   */\n  dup1\n    /* \"#utility.yul\":1134:1136   */\n  0x40\n    /* \"#utility.yul\":1127:1149   */\n  mstore\n    /* \"#utility.yul\":917:1155   */\n  pop\n    /* \"#utility.yul\":874:1155   */\n  pop\n  pop\n  jump\t// out\n    /* \"#utility.yul\":1161:1290   */\ntag_18:\n    /* \"#utility.yul\":1195:1201   */\n  0x00\n    /* \"#utility.yul\":1222:1242   */\n  tag_55\n  tag_10\n  jump\t// in\ntag_55:\n    /* \"#utility.yul\":1212:1242   */\n  swap1\n  pop\n    /* \"#utility.yul\":1251:1284   */\n  tag_56\n    /* \"#utility.yul\":1279:1283   */\n  dup3\n    /* \"#utility.yul\":1271:1277   */\n  dup3\n    /* \"#utility.yul\":1251:1284   */\n  tag_17\n  jump\t// in\ntag_56:\n    /* \"#utility.yul\":1161:1290   */\n  swap2\n  swap1\n  pop\n  jump\t// out\n    /* \"#utility.yul\":1296:1604   */\ntag_19:\n    /* \"#utility.yul\":1358:1362   */\n  0x00\n    /* \"#utility.yul\":1448:1466   */\n  0xffffffffffffffff\n    /* \"#utility.yul\":1440:1446   */\n  dup3\n    /* \"#utility.yul\":1437:1467   */\n  gt\n    /* \"#utility.yul\":1434:1490   */\n  iszero\n  tag_58\n  jumpi\n    /* \"#utility.yul\":1470:1488   */\n  tag_59\n  tag_16\n  jump\t// in\ntag_59:\n    /* \"#utility.yul\":1434:1490   */\ntag_58:\n    /* \"#utility.yul\":1508:1537   */\n  tag_60\n    /* \"#utility.yul\":1530:1536   */\n  dup3\n    /* \"#utility.yul\":1508:1537   */\n  tag_15\n  jump\t// in\ntag_60:\n    /* \"#utility.yul\":1500:1537   */\n  swap1\n  pop\n    /* \"#utility.yul\":1592:1596   */\n  0x20\n    /* \"#utility.yul\":1586:1590   */\n  dup2\n    /* \"#utility.yul\":1582:1597   */\n  add\n    /* \"#utility.yul\":1574:1597   */\n  swap1\n  pop\n    /* \"#utility.yul\":1296:1604   */\n  swap2\n  swap1\n  pop\n  jump\t// out\n    /* \"#utility.yul\":1610:1749   */\ntag_20:\n    /* \"#utility.yul\":1699:1705   */\n  dup3\n    /* \"#utility.yul\":1694:1697   */\n  dup2\n    /* \"#utility.yul\":1689:1692   */\n  dup4\n    /* \"#utility.yul\":1683:1706   */\n  mcopy\n    /* \"#utility.yul\":1740:1741   */\n  0x00\n    /* \"#utility.yul\":1731:1737   */\n  dup4\n    /* \"#utility.yul\":1726:1729   */\n  dup4\n    /* \"#utility.yul\":1722:1738   */\n  add\n    /* \"#utility.yul\":1715:1742   */\n  mstore\n    /* \"#utility.yul\":1610:1749   */\n  pop\n  pop\n  pop\n  jump\t// out\n    /* \"#utility.yul\":1755:2189   */\ntag_21:\n    /* \"#utility.yul\":1844:1849   */\n  0x00\n    /* \"#utility.yul\":1869:1935   */\n  tag_63\n    /* \"#utility.yul\":1885:1934   */\n  tag_64\n    /* \"#utility.yul\":1927:1933   */\n  dup5\n    /* \"#utility.yul\":1885:1934   */\n  tag_19\n  jump\t// in\ntag_64:\n    /* \"#utility.yul\":1869:1935   */\n  tag_18\n  jump\t// in\ntag_63:\n    /* \"#utility.yul\":1860:1935   */\n  swap1\n  pop\n    /* \"#utility.yul\":1958:1964   */\n  dup3\n    /* \"#utility.yul\":1951:1956   */\n  dup2\n    /* \"#utility.yul\":1944:1965   */\n  mstore\n    /* \"#utility.yul\":1996:2000   */\n  0x20\n    /* \"#utility.yul\":1989:1994   */\n  dup2\n    /* \"#utility.yul\":1985:2001   */\n  add\n    /* \"#utility.yul\":2034:2037   */\n  dup5\n    /* \"#utility.yul\":2025:2031   */\n  dup5\n    /* \"#utility.yul\":2020:2023   */\n  dup5\n    /* \"#utility.yul\":2016:2032   */\n  add\n    /* \"#utility.yul\":2013:2038   */\n  gt\n    /* \"#utility.yul\":2010:2122   */\n  iszero\n  tag_65\n  jumpi\n    /* \"#utility.yul\":2041:2120   */\n  tag_66\n  tag_14\n  jump\t// in\ntag_66:\n    /* \"#utility.yul\":2010:2122   */\ntag_65:\n    /* \"#utility.yul\":2131:2183   */\n  tag_67\n    /* \"#utility.yul\":2176:2182   */\n  dup5\n    /* \"#utility.yul\":2171:2174   */\n  dup3\n    /* \"#utility.yul\":2166:2169   */\n  dup6\n    /* \"#utility.yul\":2131:2183   */\n  tag_20\n  jump\t// in\ntag_67:\n    /* \"#utility.yul\":1850:2189   */\n  pop\n    /* \"#utility.yul\":1755:2189   */\n  swap4\n  swap3\n  pop\n  pop\n  pop\n  jump\t// out\n    /* \"#utility.yul\":2209:2564   */\ntag_22:\n    /* \"#utility.yul\":2276:2281   */\n  0x00\n    /* \"#utility.yul\":2325:2328   */\n  dup3\n    /* \"#utility.yul\":2318:2322   */\n  0x1f\n    /* \"#utility.yul\":2310:2316   */\n  dup4\n    /* \"#utility.yul\":2306:2323   */\n  add\n    /* \"#utility.yul\":2302:2329   */\n  slt\n    /* \"#utility.yul\":2292:2414   */\n  tag_69\n  jumpi\n    /* \"#utility.yul\":2333:2412   */\n  tag_70\n  tag_13\n  jump\t// in\ntag_70:\n    /* \"#utility.yul\":2292:2414   */\ntag_69:\n    /* \"#utility.yul\":2443:2449   */\n  dup2\n    /* \"#utility.yul\":2437:2450   */\n  mload\n    /* \"#utility.yul\":2468:2558   */\n  tag_71\n    /* \"#utility.yul\":2554:2557   */\n  dup5\n    /* \"#utility.yul\":2546:2552   */\n  dup3\n    /* \"#utility.yul\":2539:2543   */\n  0x20\n    /* \"#utility.yul\":2531:2537   */\n  dup7\n    /* \"#utility.yul\":2527:2544   */\n  add\n    /* \"#utility.yul\":2468:2558   */\n  tag_21\n  jump\t// in\ntag_71:\n    /* \"#utility.yul\":2459:2558   */\n  swap2\n  pop\n    /* \"#utility.yul\":2282:2564   */\n  pop\n    /* \"#utility.yul\":2209:2564   */\n  swap3\n  swap2\n  pop\n  pop\n  jump\t// out\n    /* \"#utility.yul\":2570:3423   */\ntag_3:\n    /* \"#utility.yul\":2669:2675   */\n  0x00\n    /* \"#utility.yul\":2677:2683   */\n  dup1\n    /* \"#utility.yul\":2726:2728   */\n  0x40\n    /* \"#utility.yul\":2714:2723   */\n  dup4\n    /* \"#utility.yul\":2705:2712   */\n  dup6\n    /* \"#utility.yul\":2701:2724   */\n  sub\n    /* \"#utility.yul\":2697:2729   */\n  slt\n    /* \"#utility.yul\":2694:2813   */\n  iszero\n  tag_73\n  jumpi\n    /* \"#utility.yul\":2732:2811   */\n  tag_74\n  tag_11\n  jump\t// in\ntag_74:\n    /* \"#utility.yul\":2694:2813   */\ntag_73:\n    /* \"#utility.yul\":2873:2874   */\n  0x00\n    /* \"#utility.yul\":2862:2871   */\n  dup4\n    /* \"#utility.yul\":2858:2875   */\n  add\n    /* \"#utility.yul\":2852:2876   */\n  mload\n    /* \"#utility.yul\":2903:2921   */\n  0xffffffffffffffff\n    /* \"#utility.yul\":2895:2901   */\n  dup2\n    /* \"#utility.yul\":2892:2922   */\n  gt\n    /* \"#utility.yul\":2889:3006   */\n  iszero\n  tag_75\n  jumpi\n    /* \"#utility.yul\":2925:3004   */\n  tag_76\n  tag_12\n  jump\t// in\ntag_76:\n    /* \"#utility.yul\":2889:3006   */\ntag_75:\n    /* \"#utility.yul\":3030:3104   */\n  tag_77\n    /* \"#utility.yul\":3096:3103   */\n  dup6\n    /* \"#utility.yul\":3087:3093   */\n  dup3\n    /* \"#utility.yul\":3076:3085   */\n  dup7\n    /* \"#utility.yul\":3072:3094   */\n  add\n    /* \"#utility.yul\":3030:3104   */\n  tag_22\n  jump\t// in\ntag_77:\n    /* \"#utility.yul\":3020:3104   */\n  swap3\n  pop\n    /* \"#utility.yul\":2823:3114   */\n  pop\n    /* \"#utility.yul\":3174:3176   */\n  0x20\n    /* \"#utility.yul\":3163:3172   */\n  dup4\n    /* \"#utility.yul\":3159:3177   */\n  add\n    /* \"#utility.yul\":3153:3178   */\n  mload\n    /* \"#utility.yul\":3205:3223   */\n  0xffffffffffffffff\n    /* \"#utility.yul\":3197:3203   */\n  dup2\n    /* \"#utility.yul\":3194:3224   */\n  gt\n    /* \"#utility.yul\":3191:3308   */\n  iszero\n  tag_78\n  jumpi\n    /* \"#utility.yul\":3227:3306   */\n  tag_79\n  tag_12\n  jump\t// in\ntag_79:\n    /* \"#utility.yul\":3191:3308   */\ntag_78:\n    /* \"#utility.yul\":3332:3406   */\n  tag_80\n    /* \"#utility.yul\":3398:3405   */\n  dup6\n    /* \"#utility.yul\":3389:3395   */\n  dup3\n    /* \"#utility.yul\":3378:3387   */\n  dup7\n    /* \"#utility.yul\":3374:3396   */\n  add\n    /* \"#utility.yul\":3332:3406   */\n  tag_22\n  jump\t// in\ntag_80:\n    /* \"#utility.yul\":3322:3406   */\n  swap2\n  pop\n    /* \"#utility.yul\":3124:3416   */\n  pop\n    /* \"#utility.yul\":2570:3423   */\n  swap3\n  pop\n  swap3\n  swap1\n  pop\n  jump\t// out\n    /* \"#utility.yul\":3429:3528   */\ntag_23:\n    /* \"#utility.yul\":3481:3487   */\n  0x00\n    /* \"#utility.yul\":3515:3520   */\n  dup2\n    /* \"#utility.yul\":3509:3521   */\n  mload\n    /* \"#utility.yul\":3499:3521   */\n  swap1\n  pop\n    /* \"#utility.yul\":3429:3528   */\n  swap2\n  swap1\n  pop\n  jump\t// out\n    /* \"#utility.yul\":3534:3714   */\ntag_24:\n    /* \"#utility.yul\":3582:3659   */\n  0x4e487b7100000000000000000000000000000000000000000000000000000000\n    /* \"#utility.yul\":3579:3580   */\n  0x00\n    /* \"#utility.yul\":3572:3660   */\n  mstore\n    /* \"#utility.yul\":3679:3683   */\n  0x22\n    /* \"#utility.yul\":3676:3677   */\n  0x04\n    /* \"#utility.yul\":3669:3684   */\n  mstore\n    /* \"#utility.yul\":3703:3707   */\n  0x24\n    /* \"#utility.yul\":3700:3701   */\n  0x00\n    /* \"#utility.yul\":3693:3708   */\n  revert\n    /* \"#utility.yul\":3720:4040   */\ntag_25:\n    /* \"#utility.yul\":3764:3770   */\n  0x00\n    /* \"#utility.yul\":3801:3802   */\n  0x02\n    /* \"#utility.yul\":3795:3799   */\n  dup3\n    /* \"#utility.yul\":3791:3803   */\n  div\n    /* \"#utility.yul\":3781:3803   */\n  swap1\n  pop\n    /* \"#utility.yul\":3848:3849   */\n  0x01\n    /* \"#utility.yul\":3842:3846   */\n  dup3\n    /* \"#utility.yul\":3838:3850   */\n  and\n    /* \"#utility.yul\":3869:3887   */\n  dup1\n    /* \"#utility.yul\":3859:3940   */\n  tag_84\n  jumpi\n    /* \"#utility.yul\":3925:3929   */\n  0x7f\n    /* \"#utility.yul\":3917:3923   */\n  dup3\n    /* \"#utility.yul\":3913:3930   */\n  and\n    /* \"#utility.yul\":3903:3930   */\n  swap2\n  pop\n    /* \"#utility.yul\":3859:3940   */\ntag_84:\n    /* \"#utility.yul\":3987:3989   */\n  0x20\n    /* \"#utility.yul\":3979:3985   */\n  dup3\n    /* \"#utility.yul\":3976:3990   */\n  lt\n    /* \"#utility.yul\":3956:3974   */\n  dup2\n    /* \"#utility.yul\":3953:3991   */\n  sub\n    /* \"#utility.yul\":3950:4034   */\n  tag_85\n  jumpi\n    /* \"#utility.yul\":4006:4024   */\n  tag_86\n  tag_24\n  jump\t// in\ntag_86:\n    /* \"#utility.yul\":3950:4034   */\ntag_85:\n    /* \"#utility.yul\":3771:4040   */\n  pop\n    /* \"#utility.yul\":3720:4040   */\n  swap2\n  swap1\n  pop\n  jump\t// out\n    /* \"#utility.yul\":4046:4187   */\ntag_26:\n    /* \"#utility.yul\":4095:4099   */\n  0x00\n    /* \"#utility.yul\":4118:4121   */\n  dup2\n    /* \"#utility.yul\":4110:4121   */\n  swap1\n  pop\n    /* \"#utility.yul\":4141:4144   */\n  dup2\n    /* \"#utility.yul\":4138:4139   */\n  0x00\n    /* \"#utility.yul\":4131:4145   */\n  mstore\n    /* \"#utility.yul\":4175:4179   */\n  0x20\n    /* \"#utility.yul\":4172:4173   */\n  0x00\n    /* \"#utility.yul\":4162:4180   */\n  keccak256\n    /* \"#utility.yul\":4154:4180   */\n  swap1\n  pop\n    /* \"#utility.yul\":4046:4187   */\n  swap2\n  swap1\n  pop\n  jump\t// out\n    /* \"#utility.yul\":4193:4286   */\ntag_27:\n    /* \"#utility.yul\":4230:4236   */\n  0x00\n    /* \"#utility.yul\":4277:4279   */\n  0x20\n    /* \"#utility.yul\":4272:4274   */\n  0x1f\n    /* \"#utility.yul\":4265:4270   */\n  dup4\n    /* \"#utility.yul\":4261:4275   */\n  add\n    /* \"#utility.yul\":4257:4280   */\n  div\n    /* \"#utility.yul\":4247:4280   */\n  swap1\n  pop\n    /* \"#utility.yul\":4193:4286   */\n  swap2\n  swap1\n  pop\n  jump\t// out\n    /* \"#utility.yul\":4292:4399   */\ntag_28:\n    /* \"#utility.yul\":4336:4344   */\n  0x00\n    /* \"#utility.yul\":4386:4391   */\n  dup3\n    /* \"#utility.yul\":4380:4384   */\n  dup3\n    /* \"#utility.yul\":4376:4392   */\n  shl\n    /* \"#utility.yul\":4355:4392   */\n  swap1\n  pop\n    /* \"#utility.yul\":4292:4399   */\n  swap3\n  swap2\n  pop\n  pop\n  jump\t// out\n    /* \"#utility.yul\":4405:4798   */\ntag_29:\n    /* \"#utility.yul\":4474:4480   */\n  0x00\n    /* \"#utility.yul\":4524:4525   */\n  0x08\n    /* \"#utility.yul\":4512:4522   */\n  dup4\n    /* \"#utility.yul\":4508:4526   */\n  mul\n    /* \"#utility.yul\":4547:4644   */\n  tag_91\n    /* \"#utility.yul\":4577:4643   */\n  0xffffffffffffffffffffffffffffffffffffffffffffffffffffffffffffffff\n    /* \"#utility.yul\":4566:4575   */\n  dup3\n    /* \"#utility.yul\":4547:4644   */\n  tag_28\n  jump\t// in\ntag_91:\n    /* \"#utility.yul\":4665:4704   */\n  tag_92\n    /* \"#utility.yul\":4695:4703   */\n  dup7\n    /* \"#utility.yul\":4684:4693   */\n  dup4\n    /* \"#utility.yul\":4665:4704   */\n  tag_28\n  jump\t// in\ntag_92:\n    /* \"#utility.yul\":4653:4704   */\n  swap6\n  pop\n    /* \"#utility.yul\":4737:4741   */\n  dup1\n    /* \"#utility.yul\":4733:4742   */\n  not\n    /* \"#utility.yul\":4726:4731   */\n  dup5\n    /* \"#utility.yul\":4722:4743   */\n  and\n    /* \"#utility.yul\":4713:4743   */\n  swap4\n  pop\n    /* \"#utility.yul\":4786:4790   */\n  dup1\n    /* \"#utility.yul\":4776:4784   */\n  dup7\n    /* \"#utility.yul\":4772:4791   */\n  and\n    /* \"#utility.yul\":4765:4770   */\n  dup5\n    /* \"#utility.yul\":4762:4792   */\n  or\n    /* \"#utility.yul\":4752:4792   */\n  swap3\n  pop\n    /* \"#utility.yul\":4481:4798   */\n  pop\n  pop\n    /* \"#utility.yul\":4405:4798   */\n  swap4\n  swap3\n  pop\n  pop\n  pop\n  jump\t// out\n    /* \"#utility.yul\":4804:4881   */\ntag_30:\n    /* \"#utility.yul\":4841:4848   */\n  0x00\n    /* \"#utility.yul\":4870:4875   */\n  dup2\n    /* \"#utility.yul\":4859:4875   */\n  swap1\n  pop\n    /* \"#utility.yul\":4804:4881   */\n  swap2\n  swap1\n  pop\n  jump\t// out\n    /* \"#utility.yul\":4887:4947   */\ntag_31:\n    /* \"#utility.yul\":4915:4918   */\n  0x00\n    /* \"#utility.yul\":4936:4941   */\n  dup2\n    /* \"#utility.yul\":4929:4941   */\n  swap1\n  pop\n    /* \"#utility.yul\":4887:4947   */\n  swap2\n  swap1\n  pop\n  jump\t// out\n    /* \"#utility.yul\":4953:5095   */\ntag_32:\n    /* \"#utility.yul\":5003:5012   */\n  0x00\n    /* \"#utility.yul\":5036:5089   */\n  tag_96\n    /* \"#utility.yul\":5054:5088   */\n  tag_97\n    /* \"#utility.yul\":5063:5087   */\n  tag_98\n    /* \"#utility.yul\":5081:5086   */\n  dup5\n    /* \"#utility.yul\":5063:5087   */\n  tag_30\n  jump\t// in\ntag_98:\n    /* \"#utility.yul\":5054:5088   */\n  tag_31\n  jump\t// in\ntag_97:\n    /* \"#utility.yul\":5036:5089   */\n  tag_30\n  jump\t// in\ntag_96:\n    /* \"#utility.yul\":5023:5089   */\n  swap1\n  pop\n    /* \"#utility.yul\":4953:5095   */\n  swap2\n  swap1\n  pop\n  jump\t// out\n    /* \"#utility.yul\":5101:5176   */\ntag_33:\n    /* \"#utility.yul\":5144:5147   */\n  0x00\n    /* \"#utility.yul\":5165:5170   */\n  dup2\n    /* \"#utility.yul\":5158:5170   */\n  swap1\n  pop\n    /* \"#utility.yul\":5101:5176   */\n  swap2\n  swap1\n  pop\n  jump\t// out\n    /* \"#utility.yul\":5182:5451   */\ntag_34:\n    /* \"#utility.yul\":5292:5331   */\n  tag_101\n    /* \"#utility.yul\":5323:5330   */\n  dup4\n    /* \"#utility.yul\":5292:5331   */\n  tag_32\n  jump\t// in\ntag_101:\n    /* \"#utility.yul\":5353:5444   */\n  tag_102\n    /* \"#utility.yul\":5402:5443   */\n  tag_103\n    /* \"#utility.yul\":5426:5442   */\n  dup3\n    /* \"#utility.yul\":5402:5443   */\n  tag_33\n  jump\t// in\ntag_103:\n    /* \"#utility.yul\":5394:5400   */\n  dup5\n    /* \"#utility.yul\":5387:5391   */\n  dup5\n    /* \"#utility.yul\":5381:5392   */\n  sload\n    /* \"#utility.yul\":5353:5444   */\n  tag_29\n  jump\t// in\ntag_102:\n    /* \"#utility.yul\":5347:5351   */\n  dup3\n    /* \"#utility.yul\":5340:5445   */\n  sstore\n    /* \"#utility.yul\":5258:5451   */\n  pop\n    /* \"#utility.yul\":5182:5451   */\n  pop\n  pop\n  pop\n  jump\t// out\n    /* \"#utility.yul\":5457:5530   */\ntag_35:\n    /* \"#utility.yul\":5502:5505   */\n  0x00\n    /* \"#utility.yul\":5457:5530   */\n  swap1\n  jump\t// out\n    /* \"#utility.yul\":5536:5725   */\ntag_36:\n    /* \"#utility.yul\":5613:5645   */\n  tag_106\n  tag_35\n  jump\t// in\ntag_106:\n    /* \"#utility.yul\":5654:5719   */\n  tag_107\n    /* \"#utility.yul\":5712:5718   */\n  dup2\n    /* \"#utility.yul\":5704:5710   */\n  dup5\n    /* \"#utility.yul\":5698:5702   */\n  dup5\n    /* \"#utility.yul\":5654:5719   */\n  tag_34\n  jump\t// in\ntag_107:\n    /* \"#utility.yul\":5589:5725   */\n  pop\n    /* \"#utility.yul\":5536:5725   */\n  pop\n  pop\n  jump\t// out\n    /* \"#utility.yul\":5731:5917   */\ntag_37:\n    /* \"#utility.yul\":5791:5911   */\ntag_109:\n    /* \"#utility.yul\":5808:5811   */\n  dup2\n    /* \"#utility.yul\":5801:5806   */\n  dup2\n    /* \"#utility.yul\":5798:5812   */\n  lt\n    /* \"#utility.yul\":5791:5911   */\n  iszero\n  tag_111\n  jumpi\n    /* \"#utility.yul\":5862:5901   */\n  tag_112\n    /* \"#utility.yul\":5899:5900   */\n  0x00\n    /* \"#utility.yul\":5892:5897   */\n  dup3\n    /* \"#utility.yul\":5862:5901   */\n  tag_36\n  jump\t// in\ntag_112:\n    /* \"#utility.yul\":5835:5836   */\n  0x01\n    /* \"#utility.yul\":5828:5833   */\n  dup2\n    /* \"#utility.yul\":5824:5837   */\n  add\n    /* \"#utility.yul\":5815:5837   */\n  swap1\n  pop\n    /* \"#utility.yul\":5791:5911   */\n  jump(tag_109)\ntag_111:\n    /* \"#utility.yul\":5731:5917   */\n  pop\n  pop\n  jump\t// out\n    /* \"#utility.yul\":5923:6466   */\ntag_38:\n    /* \"#utility.yul\":6024:6026   */\n  0x1f\n    /* \"#utility.yul\":6019:6022   */\n  dup3\n    /* \"#utility.yul\":6016:6027   */\n  gt\n    /* \"#utility.yul\":6013:6459   */\n  iszero\n  tag_114\n  jumpi\n    /* \"#utility.yul\":6058:6096   */\n  tag_115\n    /* \"#utility.yul\":6090:6095   */\n  dup2\n    /* \"#utility.yul\":6058:6096   */\n  tag_26\n  jump\t// in\ntag_115:\n    /* \"#utility.yul\":6142:6171   */\n  tag_116\n    /* \"#utility.yul\":6160:6170   */\n  dup5\n    /* \"#utility.yul\":6142:6171   */\n  tag_27\n  jump\t// in\ntag_116:\n    /* \"#utility.yul\":6132:6140   */\n  dup2\n    /* \"#utility.yul\":6128:6172   */\n  add\n    /* \"#utility.yul\":6325:6327   */\n  0x20\n    /* \"#utility.yul\":6313:6323   */\n  dup6\n    /* \"#utility.yul\":6310:6328   */\n  lt\n    /* \"#utility.yul\":6307:6356   */\n  iszero\n  tag_117\n  jumpi\n    /* \"#utility.yul\":6346:6354   */\n  dup2\n    /* \"#utility.yul\":6331:6354   */\n  swap1\n  pop\n    /* \"#utility.yul\":6307:6356   */\ntag_117:\n    /* \"#utility.yul\":6369:6449   */\n  tag_118\n    /* \"#utility.yul\":6425:6447   */\n  tag_119\n    /* \"#utility.yul\":6443:6446   */\n  dup6\n    /* \"#utility.yul\":6425:6447   */\n  tag_27\n  jump\t// in\ntag_119:\n    /* \"#utility.yul\":6415:6423   */\n  dup4\n    /* \"#utility.yul\":6411:6448   */\n  add\n    /* \"#utility.yul\":6398:6409   */\n  dup3\n    /* \"#utility.yul\":6369:6449   */\n  tag_37\n  jump\t// in\ntag_118:\n    /* \"#utility.yul\":6028:6459   */\n  pop\n  pop\n    /* \"#utility.yul\":6013:6459   */\ntag_114:\n    /* \"#utility.yul\":5923:6466   */\n  pop\n  pop\n  pop\n  jump\t// out\n    /* \"#utility.yul\":6472:6589   */\ntag_39:\n    /* \"#utility.yul\":6526:6534   */\n  0x00\n    /* \"#utility.yul\":6576:6581   */\n  dup3\n    /* \"#utility.yul\":6570:6574   */\n  dup3\n    /* \"#utility.yul\":6566:6582   */\n  shr\n    /* \"#utility.yul\":6545:6582   */\n  swap1\n  pop\n    /* \"#utility.yul\":6472:6589   */\n  swap3\n  swap2\n  pop\n  pop\n  jump\t// out\n    /* \"#utility.yul\":6595:6764   */\ntag_40:\n    /* \"#utility.yul\":6639:6645   */\n  0x00\n    /* \"#utility.yul\":6672:6723   */\n  tag_122\n    /* \"#utility.yul\":6720:6721   */\n  0x00\n    /* \"#utility.yul\":6716:6722   */\n  not\n    /* \"#utility.yul\":6708:6713   */\n  dup5\n    /* \"#utility.yul\":6705:6706   */\n  0x08\n    /* \"#utility.yul\":6701:6714   */\n  mul\n    /* \"#utility.yul\":6672:6723   */\n  tag_39\n  jump\t// in\ntag_122:\n    /* \"#utility.yul\":6668:6724   */\n  not\n    /* \"#utility.yul\":6753:6757   */\n  dup1\n    /* \"#utility.yul\":6747:6751   */\n  dup4\n    /* \"#utility.yul\":6743:6758   */\n  and\n    /* \"#utility.yul\":6733:6758   */\n  swap2\n  pop\n    /* \"#utility.yul\":6646:6764   */\n  pop\n    /* \"#utility.yul\":6595:6764   */\n  swap3\n  swap2\n  pop\n  pop\n  jump\t// out\n    /* \"#utility.yul\":6769:7064   */\ntag_41:\n    /* \"#utility.yul\":6845:6849   */\n  0x00\n    /* \"#utility.yul\":6991:7020   */\n  tag_124\n    /* \"#utility.yul\":7016:7019   */\n  dup4\n    /* \"#utility.yul\":7010:7014   */\n  dup4\n    /* \"#utility.yul\":6991:7020   */\n  tag_40\n  jump\t// in\ntag_124:\n    /* \"#utility.yul\":6983:7020   */\n  swap2\n  pop\n    /* \"#utility.yul\":7053:7056   */\n  dup3\n    /* \"#utility.yul\":7050:7051   */\n  0x02\n    /* \"#utility.yul\":7046:7057   */\n  mul\n    /* \"#utility.yul\":7040:7044   */\n  dup3\n    /* \"#utility.yul\":7037:7058   */\n  or\n    /* \"#utility.yul\":7029:7058   */\n  swap1\n  pop\n    /* \"#utility.yul\":6769:7064   */\n  swap3\n  swap2\n  pop\n  pop\n  jump\t// out\n    /* \"#utility.yul\":7069:8464   */\ntag_7:\n    /* \"#utility.yul\":7186:7223   */\n  tag_126\n    /* \"#utility.yul\":7219:7222   */\n  dup3\n    /* \"#utility.yul\":7186:7223   */\n  tag_23\n  jump\t// in\ntag_126:\n    /* \"#utility.yul\":7288:7306   */\n  0xffffffffffffffff\n    /* \"#utility.yul\":7280:7286   */\n  dup2\n    /* \"#utility.yul\":7277:7307   */\n  gt\n    /* \"#utility.yul\":7274:7330   */\n  iszero\n  tag_127\n  jumpi\n    /* \"#utility.yul\":7310:7328   */\n  tag_128\n  tag_16\n  jump\t// in\ntag_128:\n    /* \"#utility.yul\":7274:7330   */\ntag_127:\n    /* \"#utility.yul\":7354:7392   */\n  tag_129\n    /* \"#utility.yul\":7386:7390   */\n  dup3\n    /* \"#utility.yul\":7380:7391   */\n  sload\n    /* \"#utility.yul\":7354:7392   */\n  tag_25\n  jump\t// in\ntag_129:\n    /* \"#utility.yul\":7439:7506   */\n  tag_130\n    /* \"#utility.yul\":7499:7505   */\n  dup3\n    /* \"#utility.yul\":7491:7497   */\n  dup3\n    /* \"#utility.yul\":7485:7489   */\n  dup6\n    /* \"#utility.yul\":7439:7506   */\n  tag_38\n  jump\t// in\ntag_130:\n    /* \"#utility.yul\":7533:7534   */\n  0x00\n    /* \"#utility.yul\":7557:7561   */\n  0x20\n    /* \"#utility.yul\":7544:7561   */\n  swap1\n  pop\n    /* \"#utility.yul\":7589:7591   */\n  0x1f\n    /* \"#utility.yul\":7581:7587   */\n  dup4\n    /* \"#utility.yul\":7578:7592   */\n  gt\n    /* \"#utility.yul\":7606:7607   */\n  0x01\n    /* \"#utility.yul\":7601:8219   */\n  dup2\n  eq\n  tag_132\n  jumpi\n    /* \"#utility.yul\":8263:8264   */\n  0x00\n    /* \"#utility.yul\":8280:8286   */\n  dup5\n    /* \"#utility.yul\":8277:8354   */\n  iszero\n  tag_133\n  jumpi\n    /* \"#utility.yul\":8329:8338   */\n  dup3\n    /* \"#utility.yul\":8324:8327   */\n  dup8\n    /* \"#utility.yul\":8320:8339   */\n  add\n    /* \"#utility.yul\":8314:8340   */\n  mload\n    /* \"#utility.yul\":8305:8340   */\n  swap1\n  pop\n    /* \"#utility.yul\":8277:8354   */\ntag_133:\n    /* \"#utility.yul\":8380:8447   */\n  tag_134\n    /* \"#utility.yul\":8440:8446   */\n  dup6\n    /* \"#utility.yul\":8433:8438   */\n  dup3\n    /* \"#utility.yul\":8380:8447   */\n  tag_41\n  jump\t// in\ntag_134:\n    /* \"#utility.yul\":8374:8378   */\n  dup7\n    /* \"#utility.yul\":8367:8448   */\n  sstore\n    /* \"#utility.yul\":8236:8458   */\n  pop\n    /* \"#utility.yul\":7571:8458   */\n  jump(tag_131)\n    /* \"#utility.yul\":7601:8219   */\ntag_132:\n    /* \"#utility.yul\":7653:7657   */\n  0x1f\n    /* \"#utility.yul\":7649:7658   */\n  not\n    /* \"#utility.yul\":7641:7647   */\n  dup5\n    /* \"#utility.yul\":7637:7659   */\n  and\n    /* \"#utility.yul\":7687:7724   */\n  tag_135\n    /* \"#utility.yul\":7719:7723   */\n  dup7\n    /* \"#utility.yul\":7687:7724   */\n  tag_26\n  jump\t// in\ntag_135:\n    /* \"#utility.yul\":7746:7747   */\n  0x00\n    /* \"#utility.yul\":7760:7968   */\ntag_136:\n    /* \"#utility.yul\":7774:7781   */\n  dup3\n    /* \"#utility.yul\":7771:7772   */\n  dup2\n    /* \"#utility.yul\":7768:7782   */\n  lt\n    /* \"#utility.yul\":7760:7968   */\n  iszero\n  tag_138\n  jumpi\n    /* \"#utility.yul\":7853:7862   */\n  dup5\n    /* \"#utility.yul\":7848:7851   */\n  dup10\n    /* \"#utility.yul\":7844:7863   */\n  add\n    /* \"#utility.yul\":7838:7864   */\n  mload\n    /* \"#utility.yul\":7830:7836   */\n  dup3\n    /* \"#utility.yul\":7823:7865   */\n  sstore\n    /* \"#utility.yul\":7904:7905   */\n  0x01\n    /* \"#utility.yul\":7896:7902   */\n  dup3\n    /* \"#utility.yul\":7892:7906   */\n  add\n    /* \"#utility.yul\":7882:7906   */\n  swap2\n  pop\n    /* \"#utility.yul\":7951:7953   */\n  0x20\n    /* \"#utility.yul\":7940:7949   */\n  dup6\n    /* \"#utility.yul\":7936:7954   */\n  add\n    /* \"#utility.yul\":7923:7954   */\n  swap5\n  pop\n    /* \"#utility.yul\":7797:7801   */\n  0x20\n    /* \"#utility.yul\":7794:7795   */\n  dup2\n    /* \"#utility.yul\":7790:7802   */\n  add\n    /* \"#utility.yul\":7785:7802   */\n  swap1\n  pop\n    /* \"#utility.yul\":7760:7968   */\n  jump(tag_136)\ntag_138:\n    /* \"#utility.yul\":7996:8002   */\n  dup7\n    /* \"#utility.yul\":7987:7994   */\n  dup4\n    /* \"#utility.yul\":7984:8003   */\n  lt\n    /* \"#utility.yul\":7981:8160   */\n  iszero\n  tag_139\n  jumpi\n    /* \"#utility.yul\":8054:8063   */\n  dup5\n    /* \"#utility.yul\":8049:8052   */\n  dup10\n    /* \"#utility.yul\":8045:8064   */\n  add\n    /* \"#utility.yul\":8039:8065   */\n  mload\n    /* \"#utility.yul\":8097:8145   */\n  tag_140\n    /* \"#utility.yul\":8139:8143   */\n  0x1f\n    /* \"#utility.yul\":8131:8137   */\n  dup10\n    /* \"#utility.yul\":8127:8144   */\n  and\n    /* \"#utility.yul\":8116:8125   */\n  dup3\n    /* \"#utility.yul\":8097:8145   */\n  tag_40\n  jump\t// in\ntag_140:\n    /* \"#utility.yul\":8089:8095   */\n  dup4\n    /* \"#utility.yul\":8082:8146   */\n  sstore\n    /* \"#utility.yul\":8004:8160   */\n  pop\n    /* \"#utility.yul\":7981:8160   */\ntag_139:\n    /* \"#utility.yul\":8206:8207   */\n  0x01\n    /* \"#utility.yul\":8202:8203   */\n  0x02\n    /* \"#utility.yul\":8194:8200   */\n  dup9\n    /* \"#utility.yul\":8190:8204   */\n  mul\n    /* \"#utility.yul\":8186:8208   */\n  add\n    /* \"#utility.yul\":8180:8184   */\n  dup9\n    /* \"#utility.yul\":8173:8209   */\n  sstore\n    /* \"#utility.yul\":7608:8219   */\n  pop\n  pop\n  pop\n    /* \"#utility.yul\":7571:8458   */\ntag_131:\n  pop\n    /* \"#utility.yul\":7161:8464   */\n  pop\n  pop\n  pop\n    /* \"#utility.yul\":7069:8464   */\n  pop\n  pop\n  jump\t// out\n    /* \"contracts/UniversalNFT.sol\":1584:2973  contract ERC721 is Context {... */\ntag_9:\n  dataSize(sub_0)\n  dup1\n  dataOffset(sub_0)\n  0x00\n  codecopy\n  0x00\n  return\nstop\n\nsub_0: assembly {\n        /* \"contracts/UniversalNFT.sol\":1584:2973  contract ERC721 is Context {... */\n      mstore(0x40, 0x80)\n      callvalue\n      dup1\n      iszero\n      tag_1\n      jumpi\n      0x00\n      dup1\n      revert\n    tag_1:\n      pop\n      jumpi(tag_2, lt(calldatasize, 0x04))\n      shr(0xe0, calldataload(0x00))\n      dup1\n      0x06fdde03\n      eq\n      tag_3\n      jumpi\n      dup1\n      0x6352211e\n      eq\n      tag_4\n      jumpi\n      dup1\n      0x70a08231\n      eq\n      tag_5\n      jumpi\n      dup1\n      0x95d89b41\n      eq\n      tag_6\n      jumpi\n    tag_2:\n      0x00\n      dup1\n      revert\n        /* \"contracts/UniversalNFT.sol\":1705:1723  string public name */\n    tag_3:\n      tag_7\n      tag_8\n      jump\t// in\n    tag_7:\n      mload(0x40)\n      tag_9\n      swap2\n      swap1\n      tag_10\n      jump\t// in\n    tag_9:\n      mload(0x40)\n      dup1\n      swap2\n      sub\n      swap1\n      return\n        /* \"contracts/UniversalNFT.sol\":2149:2336  function ownerOf(uint256 tokenId) public view returns (address) {... */\n    tag_4:\n      tag_11\n      0x04\n      dup1\n      calldatasize\n      sub\n      dup2\n      add\n      swap1\n      tag_12\n      swap2\n      swap1\n      tag_13\n      jump\t// in\n    tag_12:\n      tag_14\n      jump\t// in\n    tag_11:\n      mload(0x40)\n      tag_15\n      swap2\n      swap1\n      tag_16\n      jump\t// in\n    tag_15:\n      mload(0x40)\n      dup1\n      swap2\n      sub\n      swap1\n      return\n        /* \"contracts/UniversalNFT.sol\":1985:2143  function balanceOf(address owner) public view returns (uint256) {... */\n    tag_5:\n      tag_17\n      0x04\n      dup1\n      calldatasize\n      sub\n      dup2\n      add\n      swap1\n      tag_18\n      swap2\n      swap1\n      tag_19\n      jump\t// in\n    tag_18:\n      tag_20\n      jump\t// in\n    tag_17:\n      mload(0x40)\n      tag_21\n      swap2\n      swap1\n      tag_22\n      jump\t// in\n    tag_21:\n      mload(0x40)\n      dup1\n      swap2\n      sub\n      swap1\n      return\n        /* \"contracts/UniversalNFT.sol\":1729:1749  string public symbol */\n    tag_6:\n      tag_23\n      tag_24\n      jump\t// in\n    tag_23:\n      mload(0x40)\n      tag_25\n      swap2\n      swap1\n      tag_10\n      jump\t// in\n    tag_25:\n      mload(0x40)\n      dup1\n      swap2\n      sub\n      swap1\n      return\n        /* \"contracts/UniversalNFT.sol\":1705:1723  string public name */\n    tag_8:\n      0x00\n      dup1\n      sload\n      tag_26\n      swap1\n      tag_27\n      jump\t// in\n    tag_26:\n      dup1\n      0x1f\n      add\n      0x20\n      dup1\n      swap2\n      div\n      mul\n      0x20\n      add\n      mload(0x40)\n      swap1\n      dup2\n      add\n      0x40\n      mstore\n      dup1\n      swap3\n      swap2\n      swap1\n      dup2\n      dup2\n      mstore\n      0x20\n      add\n      dup3\n      dup1\n      sload\n      tag_28\n      swap1\n      tag_27\n      jump\t// in\n    tag_28:\n      dup1\n      iszero\n      tag_29\n      jumpi\n      dup1\n      0x1f\n      lt\n      tag_30\n      jumpi\n      0x0100\n      dup1\n      dup4\n      sload\n      div\n      mul\n      dup4\n      mstore\n      swap2\n      0x20\n      add\n      swap2\n      jump(tag_29)\n    tag_30:\n      dup3\n      add\n      swap2\n      swap1\n      0x00\n      mstore\n      keccak256(0x00, 0x20)\n      swap1\n    tag_31:\n      dup2\n      sload\n      dup2\n      mstore\n      swap1\n      0x01\n      add\n      swap1\n      0x20\n      add\n      dup1\n      dup4\n      gt\n      tag_31\n      jumpi\n      dup3\n      swap1\n      sub\n      0x1f\n      and\n      dup3\n      add\n      swap2\n    tag_29:\n      pop\n      pop\n      pop\n      pop\n      pop\n      dup2\n      jump\t// out\n        /* \"contracts/UniversalNFT.sol\":2149:2336  function ownerOf(uint256 tokenId) public view returns (address) {... */\n    tag_14:\n        /* \"contracts/UniversalNFT.sol\":2204:2211  address */\n      0x00\n        /* \"contracts/UniversalNFT.sol\":2223:2236  address owner */\n      dup1\n        /* \"contracts/UniversalNFT.sol\":2239:2246  _owners */\n      0x02\n        /* \"contracts/UniversalNFT.sol\":2239:2255  _owners[tokenId] */\n      0x00\n        /* \"contracts/UniversalNFT.sol\":2247:2254  tokenId */\n      dup5\n        /* \"contracts/UniversalNFT.sol\":2239:2255  _owners[tokenId] */\n      dup2\n      mstore\n      0x20\n      add\n      swap1\n      dup2\n      mstore\n      0x20\n      add\n      0x00\n      keccak256\n      0x00\n      swap1\n      sload\n      swap1\n      0x0100\n      exp\n      swap1\n      div\n      0xffffffffffffffffffffffffffffffffffffffff\n      and\n        /* \"contracts/UniversalNFT.sol\":2223:2255  address owner = _owners[tokenId] */\n      swap1\n      pop\n        /* \"contracts/UniversalNFT.sol\":2290:2291  0 */\n      0x00\n        /* \"contracts/UniversalNFT.sol\":2273:2292  owner != address(0) */\n      0xffffffffffffffffffffffffffffffffffffffff\n      and\n        /* \"contracts/UniversalNFT.sol\":2273:2278  owner */\n      dup2\n        /* \"contracts/UniversalNFT.sol\":2273:2292  owner != address(0) */\n      0xffffffffffffffffffffffffffffffffffffffff\n      and\n      sub\n        /* \"contracts/UniversalNFT.sol\":2265:2307  require(owner != address(0), \"Not minted\") */\n      tag_33\n      jumpi\n      mload(0x40)\n      0x08c379a000000000000000000000000000000000000000000000000000000000\n      dup2\n      mstore\n      0x04\n      add\n      tag_34\n      swap1\n      tag_35\n      jump\t// in\n    tag_34:\n      mload(0x40)\n      dup1\n      swap2\n      sub\n      swap1\n      revert\n    tag_33:\n        /* \"contracts/UniversalNFT.sol\":2324:2329  owner */\n      dup1\n        /* \"contracts/UniversalNFT.sol\":2317:2329  return owner */\n      swap2\n      pop\n      pop\n        /* \"contracts/UniversalNFT.sol\":2149:2336  function ownerOf(uint256 tokenId) public view returns (address) {... */\n      swap2\n      swap1\n      pop\n      jump\t// out\n        /* \"contracts/UniversalNFT.sol\":1985:2143  function balanceOf(address owner) public view returns (uint256) {... */\n    tag_20:\n        /* \"contracts/UniversalNFT.sol\":2040:2047  uint256 */\n      0x00\n        /* \"contracts/UniversalNFT.sol\":2084:2085  0 */\n      dup1\n        /* \"contracts/UniversalNFT.sol\":2067:2086  owner != address(0) */\n      0xffffffffffffffffffffffffffffffffffffffff\n      and\n        /* \"contracts/UniversalNFT.sol\":2067:2072  owner */\n      dup3\n        /* \"contracts/UniversalNFT.sol\":2067:2086  owner != address(0) */\n      0xffffffffffffffffffffffffffffffffffffffff\n      and\n      sub\n        /* \"contracts/UniversalNFT.sol\":2059:2103  require(owner != address(0), \"Zero address\") */\n      tag_37\n      jumpi\n      mload(0x40)\n      0x08c379a000000000000000000000000000000000000000000000000000000000\n      dup2\n      mstore\n      0x04\n      add\n      tag_38\n      swap1\n      tag_39\n      jump\t// in\n    tag_38:\n      mload(0x40)\n      dup1\n      swap2\n      sub\n      swap1\n      revert\n    tag_37:\n        /* \"contracts/UniversalNFT.sol\":2120:2129  _balances */\n      0x03\n        /* \"contracts/UniversalNFT.sol\":2120:2136  _balances[owner] */\n      0x00\n        /* \"contracts/UniversalNFT.sol\":2130:2135  owner */\n      dup4\n        /* \"contracts/UniversalNFT.sol\":2120:2136  _balances[owner] */\n      0xffffffffffffffffffffffffffffffffffffffff\n      and\n      0xffffffffffffffffffffffffffffffffffffffff\n      and\n      dup2\n      mstore\n      0x20\n      add\n      swap1\n      dup2\n      mstore\n      0x20\n      add\n      0x00\n      keccak256\n      sload\n        /* \"contracts/UniversalNFT.sol\":2113:2136  return _balances[owner] */\n      swap1\n      pop\n        /* \"contracts/UniversalNFT.sol\":1985:2143  function balanceOf(address owner) public view returns (uint256) {... */\n      swap2\n      swap1\n      pop\n      jump\t// out\n        /* \"contracts/UniversalNFT.sol\":1729:1749  string public symbol */\n    tag_24:\n      0x01\n      dup1\n      sload\n      tag_40\n      swap1\n      tag_27\n      jump\t// in\n    tag_40:\n      dup1\n      0x1f\n      add\n      0x20\n      dup1\n      swap2\n      div\n      mul\n      0x20\n      add\n      mload(0x40)\n      swap1\n      dup2\n      add\n      0x40\n      mstore\n      dup1\n      swap3\n      swap2\n      swap1\n      dup2\n      dup2\n      mstore\n      0x20\n      add\n      dup3\n      dup1\n      sload\n      tag_41\n      swap1\n      tag_27\n      jump\t// in\n    tag_41:\n      dup1\n      iszero\n      tag_42\n      jumpi\n      dup1\n      0x1f\n      lt\n      tag_43\n      jumpi\n      0x0100\n      dup1\n      dup4\n      sload\n      div\n      mul\n      dup4\n      mstore\n      swap2\n      0x20\n      add\n      swap2\n      jump(tag_42)\n    tag_43:\n      dup3\n      add\n      swap2\n      swap1\n      0x00\n      mstore\n      keccak256(0x00, 0x20)\n      swap1\n    tag_44:\n      dup2\n      sload\n      dup2\n      mstore\n      swap1\n      0x01\n      add\n      swap1\n      0x20\n      add\n      dup1\n      dup4\n      gt\n      tag_44\n      jumpi\n      dup3\n      swap1\n      sub\n      0x1f\n      and\n      dup3\n      add\n      swap2\n    tag_42:\n      pop\n      pop\n      pop\n      pop\n      pop\n      dup2\n      jump\t// out\n        /* \"#utility.yul\":7:106   */\n    tag_45:\n        /* \"#utility.yul\":59:65   */\n      0x00\n        /* \"#utility.yul\":93:98   */\n      dup2\n        /* \"#utility.yul\":87:99   */\n      mload\n        /* \"#utility.yul\":77:99   */\n      swap1\n      pop\n        /* \"#utility.yul\":7:106   */\n      swap2\n      swap1\n      pop\n      jump\t// out\n        /* \"#utility.yul\":112:281   */\n    tag_46:\n        /* \"#utility.yul\":196:207   */\n      0x00\n        /* \"#utility.yul\":230:236   */\n      dup3\n        /* \"#utility.yul\":225:228   */\n      dup3\n        /* \"#utility.yul\":218:237   */\n      mstore\n        /* \"#utility.yul\":270:274   */\n      0x20\n        /* \"#utility.yul\":265:268   */\n      dup3\n        /* \"#utility.yul\":261:275   */\n      add\n        /* \"#utility.yul\":246:275   */\n      swap1\n      pop\n        /* \"#utility.yul\":112:281   */\n      swap3\n      swap2\n      pop\n      pop\n      jump\t// out\n        /* \"#utility.yul\":287:426   */\n    tag_47:\n        /* \"#utility.yul\":376:382   */\n      dup3\n        /* \"#utility.yul\":371:374   */\n      dup2\n        /* \"#utility.yul\":366:369   */\n      dup4\n        /* \"#utility.yul\":360:383   */\n      mcopy\n        /* \"#utility.yul\":417:418   */\n      0x00\n        /* \"#utility.yul\":408:414   */\n      dup4\n        /* \"#utility.yul\":403:406   */\n      dup4\n        /* \"#utility.yul\":399:415   */\n      add\n        /* \"#utility.yul\":392:419   */\n      mstore\n        /* \"#utility.yul\":287:426   */\n      pop\n      pop\n      pop\n      jump\t// out\n        /* \"#utility.yul\":432:534   */\n    tag_48:\n        /* \"#utility.yul\":473:479   */\n      0x00\n        /* \"#utility.yul\":524:526   */\n      0x1f\n        /* \"#utility.yul\":520:527   */\n      not\n        /* \"#utility.yul\":515:517   */\n      0x1f\n        /* \"#utility.yul\":508:513   */\n      dup4\n        /* \"#utility.yul\":504:518   */\n      add\n        /* \"#utility.yul\":500:528   */\n      and\n        /* \"#utility.yul\":490:528   */\n      swap1\n      pop\n        /* \"#utility.yul\":432:534   */\n      swap2\n      swap1\n      pop\n      jump\t// out\n        /* \"#utility.yul\":540:917   */\n    tag_49:\n        /* \"#utility.yul\":628:631   */\n      0x00\n        /* \"#utility.yul\":656:695   */\n      tag_73\n        /* \"#utility.yul\":689:694   */\n      dup3\n        /* \"#utility.yul\":656:695   */\n      tag_45\n      jump\t// in\n    tag_73:\n        /* \"#utility.yul\":711:782   */\n      tag_74\n        /* \"#utility.yul\":775:781   */\n      dup2\n        /* \"#utility.yul\":770:773   */\n      dup6\n        /* \"#utility.yul\":711:782   */\n      tag_46\n      jump\t// in\n    tag_74:\n        /* \"#utility.yul\":704:782   */\n      swap4\n      pop\n        /* \"#utility.yul\":791:856   */\n      tag_75\n        /* \"#utility.yul\":849:855   */\n      dup2\n        /* \"#utility.yul\":844:847   */\n      dup6\n        /* \"#utility.yul\":837:841   */\n      0x20\n        /* \"#utility.yul\":830:835   */\n      dup7\n        /* \"#utility.yul\":826:842   */\n      add\n        /* \"#utility.yul\":791:856   */\n      tag_47\n      jump\t// in\n    tag_75:\n        /* \"#utility.yul\":881:910   */\n      tag_76\n        /* \"#utility.yul\":903:909   */\n      dup2\n        /* \"#utility.yul\":881:910   */\n      tag_48\n      jump\t// in\n    tag_76:\n        /* \"#utility.yul\":876:879   */\n      dup5\n        /* \"#utility.yul\":872:911   */\n      add\n        /* \"#utility.yul\":865:911   */\n      swap2\n      pop\n        /* \"#utility.yul\":632:917   */\n      pop\n        /* \"#utility.yul\":540:917   */\n      swap3\n      swap2\n      pop\n      pop\n      jump\t// out\n        /* \"#utility.yul\":923:1236   */\n    tag_10:\n        /* \"#utility.yul\":1036:1040   */\n      0x00\n        /* \"#utility.yul\":1074:1076   */\n      0x20\n        /* \"#utility.yul\":1063:1072   */\n      dup3\n        /* \"#utility.yul\":1059:1077   */\n      add\n        /* \"#utility.yul\":1051:1077   */\n      swap1\n      pop\n        /* \"#utility.yul\":1123:1132   */\n      dup2\n        /* \"#utility.yul\":1117:1121   */\n      dup2\n        /* \"#utility.yul\":1113:1133   */\n      sub\n        /* \"#utility.yul\":1109:1110   */\n      0x00\n        /* \"#utility.yul\":1098:1107   */\n      dup4\n        /* \"#utility.yul\":1094:1111   */\n      add\n        /* \"#utility.yul\":1087:1134   */\n      mstore\n        /* \"#utility.yul\":1151:1229   */\n      tag_78\n        /* \"#utility.yul\":1224:1228   */\n      dup2\n        /* \"#utility.yul\":1215:1221   */\n      dup5\n        /* \"#utility.yul\":1151:1229   */\n      tag_49\n      jump\t// in\n    tag_78:\n        /* \"#utility.yul\":1143:1229   */\n      swap1\n      pop\n        /* \"#utility.yul\":923:1236   */\n      swap3\n      swap2\n      pop\n      pop\n      jump\t// out\n        /* \"#utility.yul\":1323:1440   */\n    tag_51:\n        /* \"#utility.yul\":1432:1433   */\n      0x00\n        /* \"#utility.yul\":1429:1430   */\n      dup1\n        /* \"#utility.yul\":1422:1434   */\n      revert\n        /* \"#utility.yul\":1569:1646   */\n    tag_53:\n        /* \"#utility.yul\":1606:1613   */\n      0x00\n        /* \"#utility.yul\":1635:1640   */\n      dup2\n        /* \"#utility.yul\":1624:1640   */\n      swap1\n      pop\n        /* \"#utility.yul\":1569:1646   */\n      swap2\n      swap1\n      pop\n      jump\t// out\n        /* \"#utility.yul\":1652:1774   */\n    tag_54:\n        /* \"#utility.yul\":1725:1749   */\n      tag_84\n        /* \"#utility.yul\":1743:1748   */\n      dup2\n        /* \"#utility.yul\":1725:1749   */\n      tag_53\n      jump\t// in\n    tag_84:\n        /* \"#utility.yul\":1718:1723   */\n      dup2\n        /* \"#utility.yul\":1715:1750   */\n      eq\n        /* \"#utility.yul\":1705:1768   */\n      tag_85\n      jumpi\n        /* \"#utility.yul\":1764:1765   */\n      0x00\n        /* \"#utility.yul\":1761:1762   */\n      dup1\n        /* \"#utility.yul\":1754:1766   */\n      revert\n        /* \"#utility.yul\":1705:1768   */\n    tag_85:\n        /* \"#utility.yul\":1652:1774   */\n      pop\n      jump\t// out\n        /* \"#utility.yul\":1780:1919   */\n    tag_55:\n        /* \"#utility.yul\":1826:1831   */\n      0x00\n        /* \"#utility.yul\":1864:1870   */\n      dup2\n        /* \"#utility.yul\":1851:1871   */\n      calldataload\n        /* \"#utility.yul\":1842:1871   */\n      swap1\n      pop\n        /* \"#utility.yul\":1880:1913   */\n      tag_87\n        /* \"#utility.yul\":1907:1912   */\n      dup2\n        /* \"#utility.yul\":1880:1913   */\n      tag_54\n      jump\t// in\n    tag_87:\n        /* \"#utility.yul\":1780:1919   */\n      swap3\n      swap2\n      pop\n      pop\n      jump\t// out\n        /* \"#utility.yul\":1925:2254   */\n    tag_13:\n        /* \"#utility.yul\":1984:1990   */\n      0x00\n        /* \"#utility.yul\":2033:2035   */\n      0x20\n        /* \"#utility.yul\":2021:2030   */\n      dup3\n        /* \"#utility.yul\":2012:2019   */\n      dup5\n        /* \"#utility.yul\":2008:2031   */\n      sub\n        /* \"#utility.yul\":2004:2036   */\n      slt\n        /* \"#utility.yul\":2001:2120   */\n      iszero\n      tag_89\n      jumpi\n        /* \"#utility.yul\":2039:2118   */\n      tag_90\n      tag_51\n      jump\t// in\n    tag_90:\n        /* \"#utility.yul\":2001:2120   */\n    tag_89:\n        /* \"#utility.yul\":2159:2160   */\n      0x00\n        /* \"#utility.yul\":2184:2237   */\n      tag_91\n        /* \"#utility.yul\":2229:2236   */\n      dup5\n        /* \"#utility.yul\":2220:2226   */\n      dup3\n        /* \"#utility.yul\":2209:2218   */\n      dup6\n        /* \"#utility.yul\":2205:2227   */\n      add\n        /* \"#utility.yul\":2184:2237   */\n      tag_55\n      jump\t// in\n    tag_91:\n        /* \"#utility.yul\":2174:2237   */\n      swap2\n      pop\n        /* \"#utility.yul\":2130:2247   */\n      pop\n        /* \"#utility.yul\":1925:2254   */\n      swap3\n      swap2\n      pop\n      pop\n      jump\t// out\n        /* \"#utility.yul\":2260:2386   */\n    tag_56:\n        /* \"#utility.yul\":2297:2304   */\n      0x00\n        /* \"#utility.yul\":2337:2379   */\n      0xffffffffffffffffffffffffffffffffffffffff\n        /* \"#utility.yul\":2330:2335   */\n      dup3\n        /* \"#utility.yul\":2326:2380   */\n      and\n        /* \"#utility.yul\":2315:2380   */\n      swap1\n      pop\n        /* \"#utility.yul\":2260:2386   */\n      swap2\n      swap1\n      pop\n      jump\t// out\n        /* \"#utility.yul\":2392:2488   */\n    tag_57:\n        /* \"#utility.yul\":2429:2436   */\n      0x00\n        /* \"#utility.yul\":2458:2482   */\n      tag_94\n        /* \"#utility.yul\":2476:2481   */\n      dup3\n        /* \"#utility.yul\":2458:2482   */\n      tag_56\n      jump\t// in\n    tag_94:\n        /* \"#utility.yul\":2447:2482   */\n      swap1\n      pop\n        /* \"#utility.yul\":2392:2488   */\n      swap2\n      swap1\n      pop\n      jump\t// out\n        /* \"#utility.yul\":2494:2612   */\n    tag_58:\n        /* \"#utility.yul\":2581:2605   */\n      tag_96\n        /* \"#utility.yul\":2599:2604   */\n      dup2\n        /* \"#utility.yul\":2581:2605   */\n      tag_57\n      jump\t// in\n    tag_96:\n        /* \"#utility.yul\":2576:2579   */\n      dup3\n        /* \"#utility.yul\":2569:2606   */\n      mstore\n        /* \"#utility.yul\":2494:2612   */\n      pop\n      pop\n      jump\t// out\n        /* \"#utility.yul\":2618:2840   */\n    tag_16:\n        /* \"#utility.yul\":2711:2715   */\n      0x00\n        /* \"#utility.yul\":2749:2751   */\n      0x20\n        /* \"#utility.yul\":2738:2747   */\n      dup3\n        /* \"#utility.yul\":2734:2752   */\n      add\n        /* \"#utility.yul\":2726:2752   */\n      swap1\n      pop\n        /* \"#utility.yul\":2762:2833   */\n      tag_98\n        /* \"#utility.yul\":2830:2831   */\n      0x00\n        /* \"#utility.yul\":2819:2828   */\n      dup4\n        /* \"#utility.yul\":2815:2832   */\n      add\n        /* \"#utility.yul\":2806:2812   */\n      dup5\n        /* \"#utility.yul\":2762:2833   */\n      tag_58\n      jump\t// in\n    tag_98:\n        /* \"#utility.yul\":2618:2840   */\n      swap3\n      swap2\n      pop\n      pop\n      jump\t// out\n        /* \"#utility.yul\":2846:2968   */\n    tag_59:\n        /* \"#utility.yul\":2919:2943   */\n      tag_100\n        /* \"#utility.yul\":2937:2942   */\n      dup2\n        /* \"#utility.yul\":2919:2943   */\n      tag_57\n      jump\t// in\n    tag_100:\n        /* \"#utility.yul\":2912:2917   */\n      dup2\n        /* \"#utility.yul\":2909:2944   */\n      eq\n        /* \"#utility.yul\":2899:2962   */\n      tag_101\n      jumpi\n        /* \"#utility.yul\":2958:2959   */\n      0x00\n        /* \"#utility.yul\":2955:2956   */\n      dup1\n        /* \"#utility.yul\":2948:2960   */\n      revert\n        /* \"#utility.yul\":2899:2962   */\n    tag_101:\n        /* \"#utility.yul\":2846:2968   */\n      pop\n      jump\t// out\n        /* \"#utility.yul\":2974:3113   */\n    tag_60:\n        /* \"#utility.yul\":3020:3025   */\n      0x00\n        /* \"#utility.yul\":3058:3064   */\n      dup2\n        /* \"#utility.yul\":3045:3065   */\n      calldataload\n        /* \"#utility.yul\":3036:3065   */\n      swap1\n      pop\n        /* \"#utility.yul\":3074:3107   */\n      tag_103\n        /* \"#utility.yul\":3101:3106   */\n      dup2\n        /* \"#utility.yul\":3074:3107   */\n      tag_59\n      jump\t// in\n    tag_103:\n        /* \"#utility.yul\":2974:3113   */\n      swap3\n      swap2\n      pop\n      pop\n      jump\t// out\n        /* \"#utility.yul\":3119:3448   */\n    tag_19:\n        /* \"#utility.yul\":3178:3184   */\n      0x00\n        /* \"#utility.yul\":3227:3229   */\n      0x20\n        /* \"#utility.yul\":3215:3224   */\n      dup3\n        /* \"#utility.yul\":3206:3213   */\n      dup5\n        /* \"#utility.yul\":3202:3225   */\n      sub\n        /* \"#utility.yul\":3198:3230   */\n      slt\n        /* \"#utility.yul\":3195:3314   */\n      iszero\n      tag_105\n      jumpi\n        /* \"#utility.yul\":3233:3312   */\n      tag_106\n      tag_51\n      jump\t// in\n    tag_106:\n        /* \"#utility.yul\":3195:3314   */\n    tag_105:\n        /* \"#utility.yul\":3353:3354   */\n      0x00\n        /* \"#utility.yul\":3378:3431   */\n      tag_107\n        /* \"#utility.yul\":3423:3430   */\n      dup5\n        /* \"#utility.yul\":3414:3420   */\n      dup3\n        /* \"#utility.yul\":3403:3412   */\n      dup6\n        /* \"#utility.yul\":3399:3421   */\n      add\n        /* \"#utility.yul\":3378:3431   */\n      tag_60\n      jump\t// in\n    tag_107:\n        /* \"#utility.yul\":3368:3431   */\n      swap2\n      pop\n        /* \"#utility.yul\":3324:3441   */\n      pop\n        /* \"#utility.yul\":3119:3448   */\n      swap3\n      swap2\n      pop\n      pop\n      jump\t// out\n        /* \"#utility.yul\":3454:3572   */\n    tag_61:\n        /* \"#utility.yul\":3541:3565   */\n      tag_109\n        /* \"#utility.yul\":3559:3564   */\n      dup2\n        /* \"#utility.yul\":3541:3565   */\n      tag_53\n      jump\t// in\n    tag_109:\n        /* \"#utility.yul\":3536:3539   */\n      dup3\n        /* \"#utility.yul\":3529:3566   */\n      mstore\n        /* \"#utility.yul\":3454:3572   */\n      pop\n      pop\n      jump\t// out\n        /* \"#utility.yul\":3578:3800   */\n    tag_22:\n        /* \"#utility.yul\":3671:3675   */\n      0x00\n        /* \"#utility.yul\":3709:3711   */\n      0x20\n        /* \"#utility.yul\":3698:3707   */\n      dup3\n        /* \"#utility.yul\":3694:3712   */\n      add\n        /* \"#utility.yul\":3686:3712   */\n      swap1\n      pop\n        /* \"#utility.yul\":3722:3793   */\n      tag_111\n        /* \"#utility.yul\":3790:3791   */\n      0x00\n        /* \"#utility.yul\":3779:3788   */\n      dup4\n        /* \"#utility.yul\":3775:3792   */\n      add\n        /* \"#utility.yul\":3766:3772   */\n      dup5\n        /* \"#utility.yul\":3722:3793   */\n      tag_61\n      jump\t// in\n    tag_111:\n        /* \"#utility.yul\":3578:3800   */\n      swap3\n      swap2\n      pop\n      pop\n      jump\t// out\n        /* \"#utility.yul\":3806:3986   */\n    tag_62:\n        /* \"#utility.yul\":3854:3931   */\n      0x4e487b7100000000000000000000000000000000000000000000000000000000\n        /* \"#utility.yul\":3851:3852   */\n      0x00\n        /* \"#utility.yul\":3844:3932   */\n      mstore\n        /* \"#utility.yul\":3951:3955   */\n      0x22\n        /* \"#utility.yul\":3948:3949   */\n      0x04\n        /* \"#utility.yul\":3941:3956   */\n      mstore\n        /* \"#utility.yul\":3975:3979   */\n      0x24\n        /* \"#utility.yul\":3972:3973   */\n      0x00\n        /* \"#utility.yul\":3965:3980   */\n      revert\n        /* \"#utility.yul\":3992:4312   */\n    tag_27:\n        /* \"#utility.yul\":4036:4042   */\n      0x00\n        /* \"#utility.yul\":4073:4074   */\n      0x02\n        /* \"#utility.yul\":4067:4071   */\n      dup3\n        /* \"#utility.yul\":4063:4075   */\n      div\n        /* \"#utility.yul\":4053:4075   */\n      swap1\n      pop\n        /* \"#utility.yul\":4120:4121   */\n      0x01\n        /* \"#utility.yul\":4114:4118   */\n      dup3\n        /* \"#utility.yul\":4110:4122   */\n      and\n        /* \"#utility.yul\":4141:4159   */\n      dup1\n        /* \"#utility.yul\":4131:4212   */\n      tag_114\n      jumpi\n        /* \"#utility.yul\":4197:4201   */\n      0x7f\n        /* \"#utility.yul\":4189:4195   */\n      dup3\n        /* \"#utility.yul\":4185:4202   */\n      and\n        /* \"#utility.yul\":4175:4202   */\n      swap2\n      pop\n        /* \"#utility.yul\":4131:4212   */\n    tag_114:\n        /* \"#utility.yul\":4259:4261   */\n      0x20\n        /* \"#utility.yul\":4251:4257   */\n      dup3\n        /* \"#utility.yul\":4248:4262   */\n      lt\n        /* \"#utility.yul\":4228:4246   */\n      dup2\n        /* \"#utility.yul\":4225:4263   */\n      sub\n        /* \"#utility.yul\":4222:4306   */\n      tag_115\n      jumpi\n        /* \"#utility.yul\":4278:4296   */\n      tag_116\n      tag_62\n      jump\t// in\n    tag_116:\n        /* \"#utility.yul\":4222:4306   */\n    tag_115:\n        /* \"#utility.yul\":4043:4312   */\n      pop\n        /* \"#utility.yul\":3992:4312   */\n      swap2\n      swap1\n      pop\n      jump\t// out\n        /* \"#utility.yul\":4318:4478   */\n    tag_63:\n        /* \"#utility.yul\":4458:4470   */\n      0x4e6f74206d696e74656400000000000000000000000000000000000000000000\n        /* \"#utility.yul\":4454:4455   */\n      0x00\n        /* \"#utility.yul\":4446:4452   */\n      dup3\n        /* \"#utility.yul\":4442:4456   */\n      add\n        /* \"#utility.yul\":4435:4471   */\n      mstore\n        /* \"#utility.yul\":4318:4478   */\n      pop\n      jump\t// out\n        /* \"#utility.yul\":4484:4850   */\n    tag_64:\n        /* \"#utility.yul\":4626:4629   */\n      0x00\n        /* \"#utility.yul\":4647:4714   */\n      tag_119\n        /* \"#utility.yul\":4711:4713   */\n      0x0a\n        /* \"#utility.yul\":4706:4709   */\n      dup4\n        /* \"#utility.yul\":4647:4714   */\n      tag_46\n      jump\t// in\n    tag_119:\n        /* \"#utility.yul\":4640:4714   */\n      swap2\n      pop\n        /* \"#utility.yul\":4723:4816   */\n      tag_120\n        /* \"#utility.yul\":4812:4815   */\n      dup3\n        /* \"#utility.yul\":4723:4816   */\n      tag_63\n      jump\t// in\n    tag_120:\n        /* \"#utility.yul\":4841:4843   */\n      0x20\n        /* \"#utility.yul\":4836:4839   */\n      dup3\n        /* \"#utility.yul\":4832:4844   */\n      add\n        /* \"#utility.yul\":4825:4844   */\n      swap1\n      pop\n        /* \"#utility.yul\":4484:4850   */\n      swap2\n      swap1\n      pop\n      jump\t// out\n        /* \"#utility.yul\":4856:5275   */\n    tag_35:\n        /* \"#utility.yul\":5022:5026   */\n      0x00\n        /* \"#utility.yul\":5060:5062   */\n      0x20\n        /* \"#utility.yul\":5049:5058   */\n      dup3\n        /* \"#utility.yul\":5045:5063   */\n      add\n        /* \"#utility.yul\":5037:5063   */\n      swap1\n      pop\n        /* \"#utility.yul\":5109:5118   */\n      dup2\n        /* \"#utility.yul\":5103:5107   */\n      dup2\n        /* \"#utility.yul\":5099:5119   */\n      sub\n        /* \"#utility.yul\":5095:5096   */\n      0x00\n        /* \"#utility.yul\":5084:5093   */\n      dup4\n        /* \"#utility.yul\":5080:5097   */\n      add\n        /* \"#utility.yul\":5073:5120   */\n      mstore\n        /* \"#utility.yul\":5137:5268   */\n      tag_122\n        /* \"#utility.yul\":5263:5267   */\n      dup2\n        /* \"#utility.yul\":5137:5268   */\n      tag_64\n      jump\t// in\n    tag_122:\n        /* \"#utility.yul\":5129:5268   */\n      swap1\n      pop\n        /* \"#utility.yul\":4856:5275   */\n      swap2\n      swap1\n      pop\n      jump\t// out\n        /* \"#utility.yul\":5281:5443   */\n    tag_65:\n        /* \"#utility.yul\":5421:5435   */\n      0x5a65726f20616464726573730000000000000000000000000000000000000000\n        /* \"#utility.yul\":5417:5418   */\n      0x00\n        /* \"#utility.yul\":5409:5415   */\n      dup3\n        /* \"#utility.yul\":5405:5419   */\n      add\n        /* \"#utility.yul\":5398:5436   */\n      mstore\n        /* \"#utility.yul\":5281:5443   */\n      pop\n      jump\t// out\n        /* \"#utility.yul\":5449:5815   */\n    tag_66:\n        /* \"#utility.yul\":5591:5594   */\n      0x00\n        /* \"#utility.yul\":5612:5679   */\n      tag_125\n        /* \"#utility.yul\":5676:5678   */\n      0x0c\n        /* \"#utility.yul\":5671:5674   */\n      dup4\n        /* \"#utility.yul\":5612:5679   */\n      tag_46\n      jump\t// in\n    tag_125:\n        /* \"#utility.yul\":5605:5679   */\n      swap2\n      pop\n        /* \"#utility.yul\":5688:5781   */\n      tag_126\n        /* \"#utility.yul\":5777:5780   */\n      dup3\n        /* \"#utility.yul\":5688:5781   */\n      tag_65\n      jump\t// in\n    tag_126:\n        /* \"#utility.yul\":5806:5808   */\n      0x20\n        /* \"#utility.yul\":5801:5804   */\n      dup3\n        /* \"#utility.yul\":5797:5809   */\n      add\n        /* \"#utility.yul\":5790:5809   */\n      swap1\n      pop\n        /* \"#utility.yul\":5449:5815   */\n      swap2\n      swap1\n      pop\n      jump\t// out\n        /* \"#utility.yul\":5821:6240   */\n    tag_39:\n        /* \"#utility.yul\":5987:5991   */\n      0x00\n        /* \"#utility.yul\":6025:6027   */\n      0x20\n        /* \"#utility.yul\":6014:6023   */\n      dup3\n        /* \"#utility.yul\":6010:6028   */\n      add\n        /* \"#utility.yul\":6002:6028   */\n      swap1\n      pop\n        /* \"#utility.yul\":6074:6083   */\n      dup2\n        /* \"#utility.yul\":6068:6072   */\n      dup2\n        /* \"#utility.yul\":6064:6084   */\n      sub\n        /* \"#utility.yul\":6060:6061   */\n      0x00\n        /* \"#utility.yul\":6049:6058   */\n      dup4\n        /* \"#utility.yul\":6045:6062   */\n      add\n        /* \"#utility.yul\":6038:6085   */\n      mstore\n        /* \"#utility.yul\":6102:6233   */\n      tag_128\n        /* \"#utility.yul\":6228:6232   */\n      dup2\n        /* \"#utility.yul\":6102:6233   */\n      tag_66\n      jump\t// in\n    tag_128:\n        /* \"#utility.yul\":6094:6233   */\n      swap1\n      pop\n        /* \"#utility.yul\":5821:6240   */\n      swap2\n      swap1\n      pop\n      jump\t// out\n\n    auxdata: 0xa26469706673582212205a39f17471f6b2a869af8b6726cef9fa14d52bd69542238378ebc19f659a089a64736f6c634300081a0033\n}\n",
				"bytecode": {
					"linkReferences": {},
					"object": "608060405234801561000f575f80fd5b50604051610b8e380380610b8e833981810160405281019061003191906101a4565b815f908161003f9190610427565b50806001908161004f9190610427565b5050506104f6565b5f604051905090565b5f80fd5b5f80fd5b5f80fd5b5f80fd5b5f601f19601f8301169050919050565b7f4e487b71000000000000000000000000000000000000000000000000000000005f52604160045260245ffd5b6100b682610070565b810181811067ffffffffffffffff821117156100d5576100d4610080565b5b80604052505050565b5f6100e7610057565b90506100f382826100ad565b919050565b5f67ffffffffffffffff82111561011257610111610080565b5b61011b82610070565b9050602081019050919050565b8281835e5f83830152505050565b5f610148610143846100f8565b6100de565b9050828152602081018484840111156101645761016361006c565b5b61016f848285610128565b509392505050565b5f82601f83011261018b5761018a610068565b5b815161019b848260208601610136565b91505092915050565b5f80604083850312156101ba576101b9610060565b5b5f83015167ffffffffffffffff8111156101d7576101d6610064565b5b6101e385828601610177565b925050602083015167ffffffffffffffff81111561020457610203610064565b5b61021085828601610177565b9150509250929050565b5f81519050919050565b7f4e487b71000000000000000000000000000000000000000000000000000000005f52602260045260245ffd5b5f600282049050600182168061026857607f821691505b60208210810361027b5761027a610224565b5b50919050565b5f819050815f5260205f209050919050565b5f6020601f8301049050919050565b5f82821b905092915050565b5f600883026102dd7fffffffffffffffffffffffffffffffffffffffffffffffffffffffffffffffff826102a2565b6102e786836102a2565b95508019841693508086168417925050509392505050565b5f819050919050565b5f819050919050565b5f61032b610326610321846102ff565b610308565b6102ff565b9050919050565b5f819050919050565b61034483610311565b61035861035082610332565b8484546102ae565b825550505050565b5f90565b61036c610360565b61037781848461033b565b505050565b5b8181101561039a5761038f5f82610364565b60018101905061037d565b5050565b601f8211156103df576103b081610281565b6103b984610293565b810160208510156103c8578190505b6103dc6103d485610293565b83018261037c565b50505b505050565b5f82821c905092915050565b5f6103ff5f19846008026103e4565b1980831691505092915050565b5f61041783836103f0565b9150826002028217905092915050565b6104308261021a565b67ffffffffffffffff81111561044957610448610080565b5b6104538254610251565b61045e82828561039e565b5f60209050601f83116001811461048f575f841561047d578287015190505b610487858261040c565b8655506104ee565b601f19841661049d86610281565b5f5b828110156104c45784890151825560018201915060208501945060208101905061049f565b868310156104e157848901516104dd601f8916826103f0565b8355505b6001600288020188555050505b505050505050565b61068b806105035f395ff3fe608060405234801561000f575f80fd5b506004361061004a575f3560e01c806306fdde031461004e5780636352211e1461006c57806370a082311461009c57806395d89b41146100cc575b5f80fd5b6100566100ea565b60405161006391906103d1565b60405180910390f35b61008660048036038101906100819190610428565b610175565b6040516100939190610492565b60405180910390f35b6100b660048036038101906100b191906104d5565b610221565b6040516100c3919061050f565b60405180910390f35b6100d46102d5565b6040516100e191906103d1565b60405180910390f35b5f80546100f690610555565b80601f016020809104026020016040519081016040528092919081815260200182805461012290610555565b801561016d5780601f106101445761010080835404028352916020019161016d565b820191905f5260205f20905b81548152906001019060200180831161015057829003601f168201915b505050505081565b5f8060025f8481526020019081526020015f205f9054906101000a900473ffffffffffffffffffffffffffffffffffffffff1690505f73ffffffffffffffffffffffffffffffffffffffff168173ffffffffffffffffffffffffffffffffffffffff1603610218576040517f08c379a000000000000000000000000000000000000000000000000000000000815260040161020f906105cf565b60405180910390fd5b80915050919050565b5f8073ffffffffffffffffffffffffffffffffffffffff168273ffffffffffffffffffffffffffffffffffffffff1603610290576040517f08c379a000000000000000000000000000000000000000000000000000000000815260040161028790610637565b60405180910390fd5b60035f8373ffffffffffffffffffffffffffffffffffffffff1673ffffffffffffffffffffffffffffffffffffffff1681526020019081526020015f20549050919050565b600180546102e290610555565b80601f016020809104026020016040519081016040528092919081815260200182805461030e90610555565b80156103595780601f1061033057610100808354040283529160200191610359565b820191905f5260205f20905b81548152906001019060200180831161033c57829003601f168201915b505050505081565b5f81519050919050565b5f82825260208201905092915050565b8281835e5f83830152505050565b5f601f19601f8301169050919050565b5f6103a382610361565b6103ad818561036b565b93506103bd81856020860161037b565b6103c681610389565b840191505092915050565b5f6020820190508181035f8301526103e98184610399565b905092915050565b5f80fd5b5f819050919050565b610407816103f5565b8114610411575f80fd5b50565b5f81359050610422816103fe565b92915050565b5f6020828403121561043d5761043c6103f1565b5b5f61044a84828501610414565b91505092915050565b5f73ffffffffffffffffffffffffffffffffffffffff82169050919050565b5f61047c82610453565b9050919050565b61048c81610472565b82525050565b5f6020820190506104a55f830184610483565b92915050565b6104b481610472565b81146104be575f80fd5b50565b5f813590506104cf816104ab565b92915050565b5f602082840312156104ea576104e96103f1565b5b5f6104f7848285016104c1565b91505092915050565b610509816103f5565b82525050565b5f6020820190506105225f830184610500565b92915050565b7f4e487b71000000000000000000000000000000000000000000000000000000005f52602260045260245ffd5b5f600282049050600182168061056c57607f821691505b60208210810361057f5761057e610528565b5b50919050565b7f4e6f74206d696e746564000000000000000000000000000000000000000000005f82015250565b5f6105b9600a8361036b565b91506105c482610585565b602082019050919050565b5f6020820190508181035f8301526105e6816105ad565b9050919050565b7f5a65726f206164647265737300000000000000000000000000000000000000005f82015250565b5f610621600c8361036b565b915061062c826105ed565b602082019050919050565b5f6020820190508181035f83015261064e81610615565b905091905056fea26469706673582212205a39f17471f6b2a869af8b6726cef9fa14d52bd69542238378ebc19f659a089a64736f6c634300081a0033",
					"opcodes": "PUSH1 0x80 PUSH1 0x40 MSTORE CALLVALUE DUP1 ISZERO PUSH2 0xF JUMPI PUSH0 DUP1 REVERT JUMPDEST POP PUSH1 0x40 MLOAD PUSH2 0xB8E CODESIZE SUB DUP1 PUSH2 0xB8E DUP4 CODECOPY DUP2 DUP2 ADD PUSH1 0x40 MSTORE DUP2 ADD SWAP1 PUSH2 0x31 SWAP2 SWAP1 PUSH2 0x1A4 JUMP JUMPDEST DUP2 PUSH0 SWAP1 DUP2 PUSH2 0x3F SWAP2 SWAP1 PUSH2 0x427 JUMP JUMPDEST POP DUP1 PUSH1 0x1 SWAP1 DUP2 PUSH2 0x4F SWAP2 SWAP1 PUSH2 0x427 JUMP JUMPDEST POP POP POP PUSH2 0x4F6 JUMP JUMPDEST PUSH0 PUSH1 0x40 MLOAD SWAP1 POP SWAP1 JUMP JUMPDEST PUSH0 DUP1 REVERT JUMPDEST PUSH0 DUP1 REVERT JUMPDEST PUSH0 DUP1 REVERT JUMPDEST PUSH0 DUP1 REVERT JUMPDEST PUSH0 PUSH1 0x1F NOT PUSH1 0x1F DUP4 ADD AND SWAP1 POP SWAP2 SWAP1 POP JUMP JUMPDEST PUSH32 0x4E487B7100000000000000000000000000000000000000000000000000000000 PUSH0 MSTORE PUSH1 0x41 PUSH1 0x4 MSTORE PUSH1 0x24 PUSH0 REVERT JUMPDEST PUSH2 0xB6 DUP3 PUSH2 0x70 JUMP JUMPDEST DUP2 ADD DUP2 DUP2 LT PUSH8 0xFFFFFFFFFFFFFFFF DUP3 GT OR ISZERO PUSH2 0xD5 JUMPI PUSH2 0xD4 PUSH2 0x80 JUMP JUMPDEST JUMPDEST DUP1 PUSH1 0x40 MSTORE POP POP POP JUMP JUMPDEST PUSH0 PUSH2 0xE7 PUSH2 0x57 JUMP JUMPDEST SWAP1 POP PUSH2 0xF3 DUP3 DUP3 PUSH2 0xAD JUMP JUMPDEST SWAP2 SWAP1 POP JUMP JUMPDEST PUSH0 PUSH8 0xFFFFFFFFFFFFFFFF DUP3 GT ISZERO PUSH2 0x112 JUMPI PUSH2 0x111 PUSH2 0x80 JUMP JUMPDEST JUMPDEST PUSH2 0x11B DUP3 PUSH2 0x70 JUMP JUMPDEST SWAP1 POP PUSH1 0x20 DUP2 ADD SWAP1 POP SWAP2 SWAP1 POP JUMP JUMPDEST DUP3 DUP2 DUP4 MCOPY PUSH0 DUP4 DUP4 ADD MSTORE POP POP POP JUMP JUMPDEST PUSH0 PUSH2 0x148 PUSH2 0x143 DUP5 PUSH2 0xF8 JUMP JUMPDEST PUSH2 0xDE JUMP JUMPDEST SWAP1 POP DUP3 DUP2 MSTORE PUSH1 0x20 DUP2 ADD DUP5 DUP5 DUP5 ADD GT ISZERO PUSH2 0x164 JUMPI PUSH2 0x163 PUSH2 0x6C JUMP JUMPDEST JUMPDEST PUSH2 0x16F DUP5 DUP3 DUP6 PUSH2 0x128 JUMP JUMPDEST POP SWAP4 SWAP3 POP POP POP JUMP JUMPDEST PUSH0 DUP3 PUSH1 0x1F DUP4 ADD SLT PUSH2 0x18B JUMPI PUSH2 0x18A PUSH2 0x68 JUMP JUMPDEST JUMPDEST DUP2 MLOAD PUSH2 0x19B DUP5 DUP3 PUSH1 0x20 DUP7 ADD PUSH2 0x136 JUMP JUMPDEST SWAP2 POP POP SWAP3 SWAP2 POP POP JUMP JUMPDEST PUSH0 DUP1 PUSH1 0x40 DUP4 DUP6 SUB SLT ISZERO PUSH2 0x1BA JUMPI PUSH2 0x1B9 PUSH2 0x60 JUMP JUMPDEST JUMPDEST PUSH0 DUP4 ADD MLOAD PUSH8 0xFFFFFFFFFFFFFFFF DUP2 GT ISZERO PUSH2 0x1D7 JUMPI PUSH2 0x1D6 PUSH2 0x64 JUMP JUMPDEST JUMPDEST PUSH2 0x1E3 DUP6 DUP3 DUP7 ADD PUSH2 0x177 JUMP JUMPDEST SWAP3 POP POP PUSH1 0x20 DUP4 ADD MLOAD PUSH8 0xFFFFFFFFFFFFFFFF DUP2 GT ISZERO PUSH2 0x204 JUMPI PUSH2 0x203 PUSH2 0x64 JUMP JUMPDEST JUMPDEST PUSH2 0x210 DUP6 DUP3 DUP7 ADD PUSH2 0x177 JUMP JUMPDEST SWAP2 POP POP SWAP3 POP SWAP3 SWAP1 POP JUMP JUMPDEST PUSH0 DUP2 MLOAD SWAP1 POP SWAP2 SWAP1 POP JUMP JUMPDEST PUSH32 0x4E487B7100000000000000000000000000000000000000000000000000000000 PUSH0 MSTORE PUSH1 0x22 PUSH1 0x4 MSTORE PUSH1 0x24 PUSH0 REVERT JUMPDEST PUSH0 PUSH1 0x2 DUP3 DIV SWAP1 POP PUSH1 0x1 DUP3 AND DUP1 PUSH2 0x268 JUMPI PUSH1 0x7F DUP3 AND SWAP2 POP JUMPDEST PUSH1 0x20 DUP3 LT DUP2 SUB PUSH2 0x27B JUMPI PUSH2 0x27A PUSH2 0x224 JUMP JUMPDEST JUMPDEST POP SWAP2 SWAP1 POP JUMP JUMPDEST PUSH0 DUP2 SWAP1 POP DUP2 PUSH0 MSTORE PUSH1 0x20 PUSH0 KECCAK256 SWAP1 POP SWAP2 SWAP1 POP JUMP JUMPDEST PUSH0 PUSH1 0x20 PUSH1 0x1F DUP4 ADD DIV SWAP1 POP SWAP2 SWAP1 POP JUMP JUMPDEST PUSH0 DUP3 DUP3 SHL SWAP1 POP SWAP3 SWAP2 POP POP JUMP JUMPDEST PUSH0 PUSH1 0x8 DUP4 MUL PUSH2 0x2DD PUSH32 0xFFFFFFFFFFFFFFFFFFFFFFFFFFFFFFFFFFFFFFFFFFFFFFFFFFFFFFFFFFFFFFFF DUP3 PUSH2 0x2A2 JUMP JUMPDEST PUSH2 0x2E7 DUP7 DUP4 PUSH2 0x2A2 JUMP JUMPDEST SWAP6 POP DUP1 NOT DUP5 AND SWAP4 POP DUP1 DUP7 AND DUP5 OR SWAP3 POP POP POP SWAP4 SWAP3 POP POP POP JUMP JUMPDEST PUSH0 DUP2 SWAP1 POP SWAP2 SWAP1 POP JUMP JUMPDEST PUSH0 DUP2 SWAP1 POP SWAP2 SWAP1 POP JUMP JUMPDEST PUSH0 PUSH2 0x32B PUSH2 0x326 PUSH2 0x321 DUP5 PUSH2 0x2FF JUMP JUMPDEST PUSH2 0x308 JUMP JUMPDEST PUSH2 0x2FF JUMP JUMPDEST SWAP1 POP SWAP2 SWAP1 POP JUMP JUMPDEST PUSH0 DUP2 SWAP1 POP SWAP2 SWAP1 POP JUMP JUMPDEST PUSH2 0x344 DUP4 PUSH2 0x311 JUMP JUMPDEST PUSH2 0x358 PUSH2 0x350 DUP3 PUSH2 0x332 JUMP JUMPDEST DUP5 DUP5 SLOAD PUSH2 0x2AE JUMP JUMPDEST DUP3 SSTORE POP POP POP POP JUMP JUMPDEST PUSH0 SWAP1 JUMP JUMPDEST PUSH2 0x36C PUSH2 0x360 JUMP JUMPDEST PUSH2 0x377 DUP2 DUP5 DUP5 PUSH2 0x33B JUMP JUMPDEST POP POP POP JUMP JUMPDEST JUMPDEST DUP2 DUP2 LT ISZERO PUSH2 0x39A JUMPI PUSH2 0x38F PUSH0 DUP3 PUSH2 0x364 JUMP JUMPDEST PUSH1 0x1 DUP2 ADD SWAP1 POP PUSH2 0x37D JUMP JUMPDEST POP POP JUMP JUMPDEST PUSH1 0x1F DUP3 GT ISZERO PUSH2 0x3DF JUMPI PUSH2 0x3B0 DUP2 PUSH2 0x281 JUMP JUMPDEST PUSH2 0x3B9 DUP5 PUSH2 0x293 JUMP JUMPDEST DUP2 ADD PUSH1 0x20 DUP6 LT ISZERO PUSH2 0x3C8 JUMPI DUP2 SWAP1 POP JUMPDEST PUSH2 0x3DC PUSH2 0x3D4 DUP6 PUSH2 0x293 JUMP JUMPDEST DUP4 ADD DUP3 PUSH2 0x37C JUMP JUMPDEST POP POP JUMPDEST POP POP POP JUMP JUMPDEST PUSH0 DUP3 DUP3 SHR SWAP1 POP SWAP3 SWAP2 POP POP JUMP JUMPDEST PUSH0 PUSH2 0x3FF PUSH0 NOT DUP5 PUSH1 0x8 MUL PUSH2 0x3E4 JUMP JUMPDEST NOT DUP1 DUP4 AND SWAP2 POP POP SWAP3 SWAP2 POP POP JUMP JUMPDEST PUSH0 PUSH2 0x417 DUP4 DUP4 PUSH2 0x3F0 JUMP JUMPDEST SWAP2 POP DUP3 PUSH1 0x2 MUL DUP3 OR SWAP1 POP SWAP3 SWAP2 POP POP JUMP JUMPDEST PUSH2 0x430 DUP3 PUSH2 0x21A JUMP JUMPDEST PUSH8 0xFFFFFFFFFFFFFFFF DUP2 GT ISZERO PUSH2 0x449 JUMPI PUSH2 0x448 PUSH2 0x80 JUMP JUMPDEST JUMPDEST PUSH2 0x453 DUP3 SLOAD PUSH2 0x251 JUMP JUMPDEST PUSH2 0x45E DUP3 DUP3 DUP6 PUSH2 0x39E JUMP JUMPDEST PUSH0 PUSH1 0x20 SWAP1 POP PUSH1 0x1F DUP4 GT PUSH1 0x1 DUP2 EQ PUSH2 0x48F JUMPI PUSH0 DUP5 ISZERO PUSH2 0x47D JUMPI DUP3 DUP8 ADD MLOAD SWAP1 POP JUMPDEST PUSH2 0x487 DUP6 DUP3 PUSH2 0x40C JUMP JUMPDEST DUP7 SSTORE POP PUSH2 0x4EE JUMP JUMPDEST PUSH1 0x1F NOT DUP5 AND PUSH2 0x49D DUP7 PUSH2 0x281 JUMP JUMPDEST PUSH0 JUMPDEST DUP3 DUP2 LT ISZERO PUSH2 0x4C4 JUMPI DUP5 DUP10 ADD MLOAD DUP3 SSTORE PUSH1 0x1 DUP3 ADD SWAP2 POP PUSH1 0x20 DUP6 ADD SWAP5 POP PUSH1 0x20 DUP2 ADD SWAP1 POP PUSH2 0x49F JUMP JUMPDEST DUP7 DUP4 LT ISZERO PUSH2 0x4E1 JUMPI DUP5 DUP10 ADD MLOAD PUSH2 0x4DD PUSH1 0x1F DUP10 AND DUP3 PUSH2 0x3F0 JUMP JUMPDEST DUP4 SSTORE POP JUMPDEST PUSH1 0x1 PUSH1 0x2 DUP9 MUL ADD DUP9 SSTORE POP POP POP JUMPDEST POP POP POP POP POP POP JUMP JUMPDEST PUSH2 0x68B DUP1 PUSH2 0x503 PUSH0 CODECOPY PUSH0 RETURN INVALID PUSH1 0x80 PUSH1 0x40 MSTORE CALLVALUE DUP1 ISZERO PUSH2 0xF JUMPI PUSH0 DUP1 REVERT JUMPDEST POP PUSH1 0x4 CALLDATASIZE LT PUSH2 0x4A JUMPI PUSH0 CALLDATALOAD PUSH1 0xE0 SHR DUP1 PUSH4 0x6FDDE03 EQ PUSH2 0x4E JUMPI DUP1 PUSH4 0x6352211E EQ PUSH2 0x6C JUMPI DUP1 PUSH4 0x70A08231 EQ PUSH2 0x9C JUMPI DUP1 PUSH4 0x95D89B41 EQ PUSH2 0xCC JUMPI JUMPDEST PUSH0 DUP1 REVERT JUMPDEST PUSH2 0x56 PUSH2 0xEA JUMP JUMPDEST PUSH1 0x40 MLOAD PUSH2 0x63 SWAP2 SWAP1 PUSH2 0x3D1 JUMP JUMPDEST PUSH1 0x40 MLOAD DUP1 SWAP2 SUB SWAP1 RETURN JUMPDEST PUSH2 0x86 PUSH1 0x4 DUP1 CALLDATASIZE SUB DUP2 ADD SWAP1 PUSH2 0x81 SWAP2 SWAP1 PUSH2 0x428 JUMP JUMPDEST PUSH2 0x175 JUMP JUMPDEST PUSH1 0x40 MLOAD PUSH2 0x93 SWAP2 SWAP1 PUSH2 0x492 JUMP JUMPDEST PUSH1 0x40 MLOAD DUP1 SWAP2 SUB SWAP1 RETURN JUMPDEST PUSH2 0xB6 PUSH1 0x4 DUP1 CALLDATASIZE SUB DUP2 ADD SWAP1 PUSH2 0xB1 SWAP2 SWAP1 PUSH2 0x4D5 JUMP JUMPDEST PUSH2 0x221 JUMP JUMPDEST PUSH1 0x40 MLOAD PUSH2 0xC3 SWAP2 SWAP1 PUSH2 0x50F JUMP JUMPDEST PUSH1 0x40 MLOAD DUP1 SWAP2 SUB SWAP1 RETURN JUMPDEST PUSH2 0xD4 PUSH2 0x2D5 JUMP JUMPDEST PUSH1 0x40 MLOAD PUSH2 0xE1 SWAP2 SWAP1 PUSH2 0x3D1 JUMP JUMPDEST PUSH1 0x40 MLOAD DUP1 SWAP2 SUB SWAP1 RETURN JUMPDEST PUSH0 DUP1 SLOAD PUSH2 0xF6 SWAP1 PUSH2 0x555 JUMP JUMPDEST DUP1 PUSH1 0x1F ADD PUSH1 0x20 DUP1 SWAP2 DIV MUL PUSH1 0x20 ADD PUSH1 0x40 MLOAD SWAP1 DUP2 ADD PUSH1 0x40 MSTORE DUP1 SWAP3 SWAP2 SWAP1 DUP2 DUP2 MSTORE PUSH1 0x20 ADD DUP3 DUP1 SLOAD PUSH2 0x122 SWAP1 PUSH2 0x555 JUMP JUMPDEST DUP1 ISZERO PUSH2 0x16D JUMPI DUP1 PUSH1 0x1F LT PUSH2 0x144 JUMPI PUSH2 0x100 DUP1 DUP4 SLOAD DIV MUL DUP4 MSTORE SWAP2 PUSH1 0x20 ADD SWAP2 PUSH2 0x16D JUMP JUMPDEST DUP3 ADD SWAP2 SWAP1 PUSH0 MSTORE PUSH1 0x20 PUSH0 KECCAK256 SWAP1 JUMPDEST DUP2 SLOAD DUP2 MSTORE SWAP1 PUSH1 0x1 ADD SWAP1 PUSH1 0x20 ADD DUP1 DUP4 GT PUSH2 0x150 JUMPI DUP3 SWAP1 SUB PUSH1 0x1F AND DUP3 ADD SWAP2 JUMPDEST POP POP POP POP POP DUP2 JUMP JUMPDEST PUSH0 DUP1 PUSH1 0x2 PUSH0 DUP5 DUP2 MSTORE PUSH1 0x20 ADD SWAP1 DUP2 MSTORE PUSH1 0x20 ADD PUSH0 KECCAK256 PUSH0 SWAP1 SLOAD SWAP1 PUSH2 0x100 EXP SWAP1 DIV PUSH20 0xFFFFFFFFFFFFFFFFFFFFFFFFFFFFFFFFFFFFFFFF AND SWAP1 POP PUSH0 PUSH20 0xFFFFFFFFFFFFFFFFFFFFFFFFFFFFFFFFFFFFFFFF AND DUP2 PUSH20 0xFFFFFFFFFFFFFFFFFFFFFFFFFFFFFFFFFFFFFFFF AND SUB PUSH2 0x218 JUMPI PUSH1 0x40 MLOAD PUSH32 0x8C379A000000000000000000000000000000000000000000000000000000000 DUP2 MSTORE PUSH1 0x4 ADD PUSH2 0x20F SWAP1 PUSH2 0x5CF JUMP JUMPDEST PUSH1 0x40 MLOAD DUP1 SWAP2 SUB SWAP1 REVERT JUMPDEST DUP1 SWAP2 POP POP SWAP2 SWAP1 POP JUMP JUMPDEST PUSH0 DUP1 PUSH20 0xFFFFFFFFFFFFFFFFFFFFFFFFFFFFFFFFFFFFFFFF AND DUP3 PUSH20 0xFFFFFFFFFFFFFFFFFFFFFFFFFFFFFFFFFFFFFFFF AND SUB PUSH2 0x290 JUMPI PUSH1 0x40 MLOAD PUSH32 0x8C379A000000000000000000000000000000000000000000000000000000000 DUP2 MSTORE PUSH1 0x4 ADD PUSH2 0x287 SWAP1 PUSH2 0x637 JUMP JUMPDEST PUSH1 0x40 MLOAD DUP1 SWAP2 SUB SWAP1 REVERT JUMPDEST PUSH1 0x3 PUSH0 DUP4 PUSH20 0xFFFFFFFFFFFFFFFFFFFFFFFFFFFFFFFFFFFFFFFF AND PUSH20 0xFFFFFFFFFFFFFFFFFFFFFFFFFFFFFFFFFFFFFFFF AND DUP2 MSTORE PUSH1 0x20 ADD SWAP1 DUP2 MSTORE PUSH1 0x20 ADD PUSH0 KECCAK256 SLOAD SWAP1 POP SWAP2 SWAP1 POP JUMP JUMPDEST PUSH1 0x1 DUP1 SLOAD PUSH2 0x2E2 SWAP1 PUSH2 0x555 JUMP JUMPDEST DUP1 PUSH1 0x1F ADD PUSH1 0x20 DUP1 SWAP2 DIV MUL PUSH1 0x20 ADD PUSH1 0x40 MLOAD SWAP1 DUP2 ADD PUSH1 0x40 MSTORE DUP1 SWAP3 SWAP2 SWAP1 DUP2 DUP2 MSTORE PUSH1 0x20 ADD DUP3 DUP1 SLOAD PUSH2 0x30E SWAP1 PUSH2 0x555 JUMP JUMPDEST DUP1 ISZERO PUSH2 0x359 JUMPI DUP1 PUSH1 0x1F LT PUSH2 0x330 JUMPI PUSH2 0x100 DUP1 DUP4 SLOAD DIV MUL DUP4 MSTORE SWAP2 PUSH1 0x20 ADD SWAP2 PUSH2 0x359 JUMP JUMPDEST DUP3 ADD SWAP2 SWAP1 PUSH0 MSTORE PUSH1 0x20 PUSH0 KECCAK256 SWAP1 JUMPDEST DUP2 SLOAD DUP2 MSTORE SWAP1 PUSH1 0x1 ADD SWAP1 PUSH1 0x20 ADD DUP1 DUP4 GT PUSH2 0x33C JUMPI DUP3 SWAP1 SUB PUSH1 0x1F AND DUP3 ADD SWAP2 JUMPDEST POP POP POP POP POP DUP2 JUMP JUMPDEST PUSH0 DUP2 MLOAD SWAP1 POP SWAP2 SWAP1 POP JUMP JUMPDEST PUSH0 DUP3 DUP3 MSTORE PUSH1 0x20 DUP3 ADD SWAP1 POP SWAP3 SWAP2 POP POP JUMP JUMPDEST DUP3 DUP2 DUP4 MCOPY PUSH0 DUP4 DUP4 ADD MSTORE POP POP POP JUMP JUMPDEST PUSH0 PUSH1 0x1F NOT PUSH1 0x1F DUP4 ADD AND SWAP1 POP SWAP2 SWAP1 POP JUMP JUMPDEST PUSH0 PUSH2 0x3A3 DUP3 PUSH2 0x361 JUMP JUMPDEST PUSH2 0x3AD DUP2 DUP6 PUSH2 0x36B JUMP JUMPDEST SWAP4 POP PUSH2 0x3BD DUP2 DUP6 PUSH1 0x20 DUP7 ADD PUSH2 0x37B JUMP JUMPDEST PUSH2 0x3C6 DUP2 PUSH2 0x389 JUMP JUMPDEST DUP5 ADD SWAP2 POP POP SWAP3 SWAP2 POP POP JUMP JUMPDEST PUSH0 PUSH1 0x20 DUP3 ADD SWAP1 POP DUP2 DUP2 SUB PUSH0 DUP4 ADD MSTORE PUSH2 0x3E9 DUP2 DUP5 PUSH2 0x399 JUMP JUMPDEST SWAP1 POP SWAP3 SWAP2 POP POP JUMP JUMPDEST PUSH0 DUP1 REVERT JUMPDEST PUSH0 DUP2 SWAP1 POP SWAP2 SWAP1 POP JUMP JUMPDEST PUSH2 0x407 DUP2 PUSH2 0x3F5 JUMP JUMPDEST DUP2 EQ PUSH2 0x411 JUMPI PUSH0 DUP1 REVERT JUMPDEST POP JUMP JUMPDEST PUSH0 DUP2 CALLDATALOAD SWAP1 POP PUSH2 0x422 DUP2 PUSH2 0x3FE JUMP JUMPDEST SWAP3 SWAP2 POP POP JUMP JUMPDEST PUSH0 PUSH1 0x20 DUP3 DUP5 SUB SLT ISZERO PUSH2 0x43D JUMPI PUSH2 0x43C PUSH2 0x3F1 JUMP JUMPDEST JUMPDEST PUSH0 PUSH2 0x44A DUP5 DUP3 DUP6 ADD PUSH2 0x414 JUMP JUMPDEST SWAP2 POP POP SWAP3 SWAP2 POP POP JUMP JUMPDEST PUSH0 PUSH20 0xFFFFFFFFFFFFFFFFFFFFFFFFFFFFFFFFFFFFFFFF DUP3 AND SWAP1 POP SWAP2 SWAP1 POP JUMP JUMPDEST PUSH0 PUSH2 0x47C DUP3 PUSH2 0x453 JUMP JUMPDEST SWAP1 POP SWAP2 SWAP1 POP JUMP JUMPDEST PUSH2 0x48C DUP2 PUSH2 0x472 JUMP JUMPDEST DUP3 MSTORE POP POP JUMP JUMPDEST PUSH0 PUSH1 0x20 DUP3 ADD SWAP1 POP PUSH2 0x4A5 PUSH0 DUP4 ADD DUP5 PUSH2 0x483 JUMP JUMPDEST SWAP3 SWAP2 POP POP JUMP JUMPDEST PUSH2 0x4B4 DUP2 PUSH2 0x472 JUMP JUMPDEST DUP2 EQ PUSH2 0x4BE JUMPI PUSH0 DUP1 REVERT JUMPDEST POP JUMP JUMPDEST PUSH0 DUP2 CALLDATALOAD SWAP1 POP PUSH2 0x4CF DUP2 PUSH2 0x4AB JUMP JUMPDEST SWAP3 SWAP2 POP POP JUMP JUMPDEST PUSH0 PUSH1 0x20 DUP3 DUP5 SUB SLT ISZERO PUSH2 0x4EA JUMPI PUSH2 0x4E9 PUSH2 0x3F1 JUMP JUMPDEST JUMPDEST PUSH0 PUSH2 0x4F7 DUP5 DUP3 DUP6 ADD PUSH2 0x4C1 JUMP JUMPDEST SWAP2 POP POP SWAP3 SWAP2 POP POP JUMP JUMPDEST PUSH2 0x509 DUP2 PUSH2 0x3F5 JUMP JUMPDEST DUP3 MSTORE POP POP JUMP JUMPDEST PUSH0 PUSH1 0x20 DUP3 ADD SWAP1 POP PUSH2 0x522 PUSH0 DUP4 ADD DUP5 PUSH2 0x500 JUMP JUMPDEST SWAP3 SWAP2 POP POP JUMP JUMPDEST PUSH32 0x4E487B7100000000000000000000000000000000000000000000000000000000 PUSH0 MSTORE PUSH1 0x22 PUSH1 0x4 MSTORE PUSH1 0x24 PUSH0 REVERT JUMPDEST PUSH0 PUSH1 0x2 DUP3 DIV SWAP1 POP PUSH1 0x1 DUP3 AND DUP1 PUSH2 0x56C JUMPI PUSH1 0x7F DUP3 AND SWAP2 POP JUMPDEST PUSH1 0x20 DUP3 LT DUP2 SUB PUSH2 0x57F JUMPI PUSH2 0x57E PUSH2 0x528 JUMP JUMPDEST JUMPDEST POP SWAP2 SWAP1 POP JUMP JUMPDEST PUSH32 0x4E6F74206D696E74656400000000000000000000000000000000000000000000 PUSH0 DUP3 ADD MSTORE POP JUMP JUMPDEST PUSH0 PUSH2 0x5B9 PUSH1 0xA DUP4 PUSH2 0x36B JUMP JUMPDEST SWAP2 POP PUSH2 0x5C4 DUP3 PUSH2 0x585 JUMP JUMPDEST PUSH1 0x20 DUP3 ADD SWAP1 POP SWAP2 SWAP1 POP JUMP JUMPDEST PUSH0 PUSH1 0x20 DUP3 ADD SWAP1 POP DUP2 DUP2 SUB PUSH0 DUP4 ADD MSTORE PUSH2 0x5E6 DUP2 PUSH2 0x5AD JUMP JUMPDEST SWAP1 POP SWAP2 SWAP1 POP JUMP JUMPDEST PUSH32 0x5A65726F20616464726573730000000000000000000000000000000000000000 PUSH0 DUP3 ADD MSTORE POP JUMP JUMPDEST PUSH0 PUSH2 0x621 PUSH1 0xC DUP4 PUSH2 0x36B JUMP JUMPDEST SWAP2 POP PUSH2 0x62C DUP3 PUSH2 0x5ED JUMP JUMPDEST PUSH1 0x20 DUP3 ADD SWAP1 POP SWAP2 SWAP1 POP JUMP JUMPDEST PUSH0 PUSH1 0x20 DUP3 ADD SWAP1 POP DUP2 DUP2 SUB PUSH0 DUP4 ADD MSTORE PUSH2 0x64E DUP2 PUSH2 0x615 JUMP JUMPDEST SWAP1 POP SWAP2 SWAP1 POP JUMP INVALID LOG2 PUSH5 0x6970667358 0x22 SLT KECCAK256 GAS CODECOPY CALL PUSH21 0x71F6B2A869AF8B6726CEF9FA14D52BD69542238378 0xEB 0xC1 SWAP16 PUSH6 0x9A089A64736F PUSH13 0x634300081A0033000000000000 "
				},
				"gasEstimates": {
					"creation": {
						"codeDepositCost": "335000",
						"executionCost": "infinite",
						"totalCost": "infinite"
					},
					"external": {
						"balanceOf(address)": "2886",
						"name()": "infinite",
						"ownerOf(uint256)": "2941",
						"symbol()": "infinite"
					},
					"internal": {
						"_burn(uint256)": "infinite",
						"_ownerOf(uint256)": "infinite",
						"_safeMint(address,uint256)": "infinite"
					}
				},
				"methodIdentifiers": {
					"balanceOf(address)": "70a08231",
					"name()": "06fdde03",
					"ownerOf(uint256)": "6352211e",
					"symbol()": "95d89b41"
				}
			},
			"storageLayout": {
				"storage": [
					{
						"astId": 131,
						"contract": "contracts/UniversalNFT.sol:ERC721",
						"label": "name",
						"offset": 0,
						"slot": "0",
						"type": "t_string_storage"
					},
					{
						"astId": 133,
						"contract": "contracts/UniversalNFT.sol:ERC721",
						"label": "symbol",
						"offset": 0,
						"slot": "1",
						"type": "t_string_storage"
					},
					{
						"astId": 137,
						"contract": "contracts/UniversalNFT.sol:ERC721",
						"label": "_owners",
						"offset": 0,
						"slot": "2",
						"type": "t_mapping(t_uint256,t_address)"
					},
					{
						"astId": 141,
						"contract": "contracts/UniversalNFT.sol:ERC721",
						"label": "_balances",
						"offset": 0,
						"slot": "3",
						"type": "t_mapping(t_address,t_uint256)"
					}
				],
				"types": {
					"t_address": {
						"encoding": "inplace",
						"label": "address",
						"numberOfBytes": "20"
					},
					"t_mapping(t_address,t_uint256)": {
						"encoding": "mapping",
						"key": "t_address",
						"label": "mapping(address => uint256)",
						"numberOfBytes": "32",
						"value": "t_uint256"
					},
					"t_mapping(t_uint256,t_address)": {
						"encoding": "mapping",
						"key": "t_uint256",
						"label": "mapping(uint256 => address)",
						"numberOfBytes": "32",
						"value": "t_address"
					},
					"t_string_storage": {
						"encoding": "bytes",
						"label": "string",
						"numberOfBytes": "32"
					},
					"t_uint256": {
						"encoding": "inplace",
						"label": "uint256",
						"numberOfBytes": "32"
					}
				}
			},
			"userdoc": {
				"kind": "user",
				"methods": {},
				"version": 1
			}
		}
	}
}