{
	"contracts/UniversalNFT.sol": {
		"UniversalNFT": {
			"abi": [
				{
					"inputs": [
						{
							"internalType": "address",
							"name": "_gateway",
							"type": "address"
						}
					],
					"stateMutability": "nonpayable",
					"type": "constructor"
				},
				{
					"anonymous": false,
					"inputs": [
						{
							"indexed": true,
							"internalType": "uint16",
							"name": "chainId",
							"type": "uint16"
						},
						{
							"indexed": true,
							"internalType": "address",
							"name": "contractAddress",
							"type": "address"
						}
					],
					"name": "ConnectedContractSet",
					"type": "event"
				},
				{
					"anonymous": false,
					"inputs": [
						{
							"indexed": true,
							"internalType": "uint256",
							"name": "tokenId",
							"type": "uint256"
						},
						{
							"indexed": true,
							"internalType": "uint16",
							"name": "destinationChain",
							"type": "uint16"
						},
						{
							"indexed": true,
							"internalType": "address",
							"name": "recipient",
							"type": "address"
						}
					],
					"name": "NFTBridged",
					"type": "event"
				},
				{
					"anonymous": false,
					"inputs": [
						{
							"indexed": true,
							"internalType": "uint256",
							"name": "tokenId",
							"type": "uint256"
						},
						{
							"indexed": true,
							"internalType": "address",
							"name": "to",
							"type": "address"
						},
						{
							"indexed": false,
							"internalType": "string",
							"name": "metadataURI",
							"type": "string"
						}
					],
					"name": "NFTMinted",
					"type": "event"
				},
				{
					"anonymous": false,
					"inputs": [
						{
							"indexed": true,
							"internalType": "address",
							"name": "previousOwner",
							"type": "address"
						},
						{
							"indexed": true,
							"internalType": "address",
							"name": "newOwner",
							"type": "address"
						}
					],
					"name": "OwnershipTransferred",
					"type": "event"
				},
				{
					"anonymous": false,
					"inputs": [
						{
							"indexed": true,
							"internalType": "address",
							"name": "from",
							"type": "address"
						},
						{
							"indexed": true,
							"internalType": "address",
							"name": "to",
							"type": "address"
						},
						{
							"indexed": true,
							"internalType": "uint256",
							"name": "tokenId",
							"type": "uint256"
						}
					],
					"name": "Transfer",
					"type": "event"
				},
				{
					"inputs": [
						{
							"internalType": "address",
							"name": "owner",
							"type": "address"
						}
					],
					"name": "balanceOf",
					"outputs": [
						{
							"internalType": "uint256",
							"name": "",
							"type": "uint256"
						}
					],
					"stateMutability": "view",
					"type": "function"
				},
				{
					"inputs": [
						{
							"internalType": "uint256",
							"name": "tokenId",
							"type": "uint256"
						},
						{
							"internalType": "uint16",
							"name": "destinationChain",
							"type": "uint16"
						},
						{
							"internalType": "address",
							"name": "recipient",
							"type": "address"
						},
						{
							"internalType": "bytes",
							"name": "message",
							"type": "bytes"
						}
					],
					"name": "bridgeNFT",
					"outputs": [],
					"stateMutability": "payable",
					"type": "function"
				},
				{
					"inputs": [
						{
							"internalType": "uint16",
							"name": "",
							"type": "uint16"
						}
					],
					"name": "connectedContracts",
					"outputs": [
						{
							"internalType": "address",
							"name": "",
							"type": "address"
						}
					],
					"stateMutability": "view",
					"type": "function"
				},
				{
					"inputs": [],
					"name": "gateway",
					"outputs": [
						{
							"internalType": "contract IGateway",
							"name": "",
							"type": "address"
						}
					],
					"stateMutability": "view",
					"type": "function"
				},
				{
					"inputs": [
						{
							"internalType": "uint256",
							"name": "tokenId",
							"type": "uint256"
						},
						{
							"internalType": "uint16",
							"name": "chainId",
							"type": "uint16"
						}
					],
					"name": "isTokenOnChain",
					"outputs": [
						{
							"internalType": "bool",
							"name": "",
							"type": "bool"
						}
					],
					"stateMutability": "view",
					"type": "function"
				},
				{
					"inputs": [
						{
							"internalType": "address",
							"name": "to",
							"type": "address"
						},
						{
							"internalType": "string",
							"name": "metadataURI",
							"type": "string"
						}
					],
					"name": "mint",
					"outputs": [
						{
							"internalType": "uint256",
							"name": "",
							"type": "uint256"
						}
					],
					"stateMutability": "nonpayable",
					"type": "function"
				},
				{
					"inputs": [],
					"name": "name",
					"outputs": [
						{
							"internalType": "string",
							"name": "",
							"type": "string"
						}
					],
					"stateMutability": "view",
					"type": "function"
				},
				{
					"inputs": [],
					"name": "owner",
					"outputs": [
						{
							"internalType": "address",
							"name": "",
							"type": "address"
						}
					],
					"stateMutability": "view",
					"type": "function"
				},
				{
					"inputs": [
						{
							"internalType": "uint256",
							"name": "tokenId",
							"type": "uint256"
						}
					],
					"name": "ownerOf",
					"outputs": [
						{
							"internalType": "address",
							"name": "",
							"type": "address"
						}
					],
					"stateMutability": "view",
					"type": "function"
				},
				{
					"inputs": [
						{
							"internalType": "uint256",
							"name": "tokenId",
							"type": "uint256"
						},
						{
							"internalType": "address",
							"name": "recipient",
							"type": "address"
						},
						{
							"internalType": "string",
							"name": "metadataURI",
							"type": "string"
						}
					],
					"name": "receiveMintedNFT",
					"outputs": [],
					"stateMutability": "nonpayable",
					"type": "function"
				},
				{
					"inputs": [
						{
							"internalType": "uint16",
							"name": "chainId",
							"type": "uint16"
						},
						{
							"internalType": "address",
							"name": "contractAddress",
							"type": "address"
						}
					],
					"name": "setConnected",
					"outputs": [],
					"stateMutability": "nonpayable",
					"type": "function"
				},
				{
					"inputs": [
						{
							"internalType": "address",
							"name": "_bridge",
							"type": "address"
						}
					],
					"name": "setUniversalNFTBridge",
					"outputs": [],
					"stateMutability": "nonpayable",
					"type": "function"
				},
				{
					"inputs": [],
					"name": "symbol",
					"outputs": [
						{
							"internalType": "string",
							"name": "",
							"type": "string"
						}
					],
					"stateMutability": "view",
					"type": "function"
				},
				{
					"inputs": [
						{
							"internalType": "uint256",
							"name": "",
							"type": "uint256"
						},
						{
							"internalType": "uint16",
							"name": "",
							"type": "uint16"
						}
					],
					"name": "tokenOnChain",
					"outputs": [
						{
							"internalType": "bool",
							"name": "",
							"type": "bool"
						}
					],
					"stateMutability": "view",
					"type": "function"
				},
				{
					"inputs": [
						{
							"internalType": "uint256",
							"name": "tokenId",
							"type": "uint256"
						}
					],
					"name": "tokenURI",
					"outputs": [
						{
							"internalType": "string",
							"name": "",
							"type": "string"
						}
					],
					"stateMutability": "view",
					"type": "function"
				},
				{
					"inputs": [
						{
							"internalType": "uint256",
							"name": "",
							"type": "uint256"
						}
					],
					"name": "tokenURIs",
					"outputs": [
						{
							"internalType": "string",
							"name": "",
							"type": "string"
						}
					],
					"stateMutability": "view",
					"type": "function"
				},
				{
					"inputs": [
						{
							"internalType": "address",
							"name": "newOwner",
							"type": "address"
						}
					],
					"name": "transferOwnership",
					"outputs": [],
					"stateMutability": "nonpayable",
					"type": "function"
				},
				{
					"inputs": [],
					"name": "universalNFTBridge",
					"outputs": [
						{
							"internalType": "address",
							"name": "",
							"type": "address"
						}
					],
					"stateMutability": "view",
					"type": "function"
				}
			],
			"devdoc": {
				"kind": "dev",
				"methods": {},
				"version": 1
			},
			"evm": {
				"assembly": "    /* \"contracts/UniversalNFT.sol\":3347:6370  contract UniversalNFT is ERC721, Ownable, IUniversalNFT {... */\n  mstore(0x40, 0x80)\n    /* \"contracts/UniversalNFT.sol\":4026:4164  constructor(address _gateway)... */\n  callvalue\n  dup1\n  iszero\n  tag_1\n  jumpi\n  0x00\n  dup1\n  revert\ntag_1:\n  pop\n  mload(0x40)\n  sub(codesize, bytecodeSize)\n  dup1\n  bytecodeSize\n  dup4\n  codecopy\n  dup2\n  dup2\n  add\n  0x40\n  mstore\n  dup2\n  add\n  swap1\n  tag_2\n  swap2\n  swap1\n  tag_3\n  jump\t// in\ntag_2:\n    /* \"contracts/UniversalNFT.sol\":1858:1979  constructor(string memory _name, string memory _symbol) Context() {... */\n  mload(0x40)\n  dup1\n  0x40\n  add\n  0x40\n  mstore\n  dup1\n  0x0d\n  dup2\n  mstore\n  0x20\n  add\n  0x4d696e74204f6e6365204e465400000000000000000000000000000000000000\n  dup2\n  mstore\n  pop\n  mload(0x40)\n  dup1\n  0x40\n  add\n  0x40\n  mstore\n  dup1\n  0x05\n  dup2\n  mstore\n  0x20\n  add\n  0x4d4f4e4654000000000000000000000000000000000000000000000000000000\n  dup2\n  mstore\n  pop\n    /* \"contracts/UniversalNFT.sol\":1941:1946  _name */\n  dup2\n    /* \"contracts/UniversalNFT.sol\":1934:1938  name */\n  0x00\n    /* \"contracts/UniversalNFT.sol\":1934:1946  name = _name */\n  swap1\n  dup2\n  tag_8\n  swap2\n  swap1\n  tag_9\n  jump\t// in\ntag_8:\n  pop\n    /* \"contracts/UniversalNFT.sol\":1965:1972  _symbol */\n  dup1\n    /* \"contracts/UniversalNFT.sol\":1956:1962  symbol */\n  0x01\n    /* \"contracts/UniversalNFT.sol\":1956:1972  symbol = _symbol */\n  swap1\n  dup2\n  tag_10\n  swap2\n  swap1\n  tag_9\n  jump\t// in\ntag_10:\n  pop\n    /* \"contracts/UniversalNFT.sol\":1858:1979  constructor(string memory _name, string memory _symbol) Context() {... */\n  pop\n  pop\n    /* \"contracts/UniversalNFT.sol\":880:912  _transferOwnership(_msgSender()) */\n  tag_12\n    /* \"contracts/UniversalNFT.sol\":899:911  _msgSender() */\n  tag_13\n    /* \"contracts/UniversalNFT.sol\":899:909  _msgSender */\n  shl(0x20, tag_14)\n    /* \"contracts/UniversalNFT.sol\":899:911  _msgSender() */\n  0x20\n  shr\n  jump\t// in\ntag_13:\n    /* \"contracts/UniversalNFT.sol\":880:898  _transferOwnership */\n  shl(0x20, tag_15)\n    /* \"contracts/UniversalNFT.sol\":880:912  _transferOwnership(_msgSender()) */\n  0x20\n  shr\n  jump\t// in\ntag_12:\n    /* \"contracts/UniversalNFT.sol\":4148:4156  _gateway */\n  dup1\n    /* \"contracts/UniversalNFT.sol\":4129:4136  gateway */\n  0x06\n  0x00\n    /* \"contracts/UniversalNFT.sol\":4129:4157  gateway = IGateway(_gateway) */\n  0x0100\n  exp\n  dup2\n  sload\n  dup2\n  0xffffffffffffffffffffffffffffffffffffffff\n  mul\n  not\n  and\n  swap1\n  dup4\n  0xffffffffffffffffffffffffffffffffffffffff\n  and\n  mul\n  or\n  swap1\n  sstore\n  pop\n    /* \"contracts/UniversalNFT.sol\":4026:4164  constructor(address _gateway)... */\n  pop\n    /* \"contracts/UniversalNFT.sol\":3347:6370  contract UniversalNFT is ERC721, Ownable, IUniversalNFT {... */\n  jump(tag_17)\n    /* \"contracts/UniversalNFT.sol\":585:681  function _msgSender() internal view virtual returns (address) {... */\ntag_14:\n    /* \"contracts/UniversalNFT.sol\":638:645  address */\n  0x00\n    /* \"contracts/UniversalNFT.sol\":664:674  msg.sender */\n  caller\n    /* \"contracts/UniversalNFT.sol\":657:674  return msg.sender */\n  swap1\n  pop\n    /* \"contracts/UniversalNFT.sol\":585:681  function _msgSender() internal view virtual returns (address) {... */\n  swap1\n  jump\t// out\n    /* \"contracts/UniversalNFT.sol\":1339:1526  function _transferOwnership(address newOwner) internal virtual {... */\ntag_15:\n    /* \"contracts/UniversalNFT.sol\":1412:1428  address oldOwner */\n  0x00\n    /* \"contracts/UniversalNFT.sol\":1431:1437  _owner */\n  0x04\n  0x00\n  swap1\n  sload\n  swap1\n  0x0100\n  exp\n  swap1\n  div\n  0xffffffffffffffffffffffffffffffffffffffff\n  and\n    /* \"contracts/UniversalNFT.sol\":1412:1437  address oldOwner = _owner */\n  swap1\n  pop\n    /* \"contracts/UniversalNFT.sol\":1456:1464  newOwner */\n  dup2\n    /* \"contracts/UniversalNFT.sol\":1447:1453  _owner */\n  0x04\n  0x00\n    /* \"contracts/UniversalNFT.sol\":1447:1464  _owner = newOwner */\n  0x0100\n  exp\n  dup2\n  sload\n  dup2\n  0xffffffffffffffffffffffffffffffffffffffff\n  mul\n  not\n  and\n  swap1\n  dup4\n  0xffffffffffffffffffffffffffffffffffffffff\n  and\n  mul\n  or\n  swap1\n  sstore\n  pop\n    /* \"contracts/UniversalNFT.sol\":1510:1518  newOwner */\n  dup2\n    /* \"contracts/UniversalNFT.sol\":1479:1519  OwnershipTransferred(oldOwner, newOwner) */\n  0xffffffffffffffffffffffffffffffffffffffff\n  and\n    /* \"contracts/UniversalNFT.sol\":1500:1508  oldOwner */\n  dup2\n    /* \"contracts/UniversalNFT.sol\":1479:1519  OwnershipTransferred(oldOwner, newOwner) */\n  0xffffffffffffffffffffffffffffffffffffffff\n  and\n  0x8be0079c531659141344cd1fd0a4f28419497f9722a3daafe3b4186f6b6457e0\n  mload(0x40)\n  mload(0x40)\n  dup1\n  swap2\n  sub\n  swap1\n  log3\n    /* \"contracts/UniversalNFT.sol\":1402:1526  {... */\n  pop\n    /* \"contracts/UniversalNFT.sol\":1339:1526  function _transferOwnership(address newOwner) internal virtual {... */\n  pop\n  jump\t// out\n    /* \"#utility.yul\":88:205   */\ntag_21:\n    /* \"#utility.yul\":197:198   */\n  0x00\n    /* \"#utility.yul\":194:195   */\n  dup1\n    /* \"#utility.yul\":187:199   */\n  revert\n    /* \"#utility.yul\":334:460   */\ntag_23:\n    /* \"#utility.yul\":371:378   */\n  0x00\n    /* \"#utility.yul\":411:453   */\n  0xffffffffffffffffffffffffffffffffffffffff\n    /* \"#utility.yul\":404:409   */\n  dup3\n    /* \"#utility.yul\":400:454   */\n  and\n    /* \"#utility.yul\":389:454   */\n  swap1\n  pop\n    /* \"#utility.yul\":334:460   */\n  swap2\n  swap1\n  pop\n  jump\t// out\n    /* \"#utility.yul\":466:562   */\ntag_24:\n    /* \"#utility.yul\":503:510   */\n  0x00\n    /* \"#utility.yul\":532:556   */\n  tag_53\n    /* \"#utility.yul\":550:555   */\n  dup3\n    /* \"#utility.yul\":532:556   */\n  tag_23\n  jump\t// in\ntag_53:\n    /* \"#utility.yul\":521:556   */\n  swap1\n  pop\n    /* \"#utility.yul\":466:562   */\n  swap2\n  swap1\n  pop\n  jump\t// out\n    /* \"#utility.yul\":568:690   */\ntag_25:\n    /* \"#utility.yul\":641:665   */\n  tag_55\n    /* \"#utility.yul\":659:664   */\n  dup2\n    /* \"#utility.yul\":641:665   */\n  tag_24\n  jump\t// in\ntag_55:\n    /* \"#utility.yul\":634:639   */\n  dup2\n    /* \"#utility.yul\":631:666   */\n  eq\n    /* \"#utility.yul\":621:684   */\n  tag_56\n  jumpi\n    /* \"#utility.yul\":680:681   */\n  0x00\n    /* \"#utility.yul\":677:678   */\n  dup1\n    /* \"#utility.yul\":670:682   */\n  revert\n    /* \"#utility.yul\":621:684   */\ntag_56:\n    /* \"#utility.yul\":568:690   */\n  pop\n  jump\t// out\n    /* \"#utility.yul\":696:839   */\ntag_26:\n    /* \"#utility.yul\":753:758   */\n  0x00\n    /* \"#utility.yul\":784:790   */\n  dup2\n    /* \"#utility.yul\":778:791   */\n  mload\n    /* \"#utility.yul\":769:791   */\n  swap1\n  pop\n    /* \"#utility.yul\":800:833   */\n  tag_58\n    /* \"#utility.yul\":827:832   */\n  dup2\n    /* \"#utility.yul\":800:833   */\n  tag_25\n  jump\t// in\ntag_58:\n    /* \"#utility.yul\":696:839   */\n  swap3\n  swap2\n  pop\n  pop\n  jump\t// out\n    /* \"#utility.yul\":845:1196   */\ntag_3:\n    /* \"#utility.yul\":915:921   */\n  0x00\n    /* \"#utility.yul\":964:966   */\n  0x20\n    /* \"#utility.yul\":952:961   */\n  dup3\n    /* \"#utility.yul\":943:950   */\n  dup5\n    /* \"#utility.yul\":939:962   */\n  sub\n    /* \"#utility.yul\":935:967   */\n  slt\n    /* \"#utility.yul\":932:1051   */\n  iszero\n  tag_60\n  jumpi\n    /* \"#utility.yul\":970:1049   */\n  tag_61\n  tag_21\n  jump\t// in\ntag_61:\n    /* \"#utility.yul\":932:1051   */\ntag_60:\n    /* \"#utility.yul\":1090:1091   */\n  0x00\n    /* \"#utility.yul\":1115:1179   */\n  tag_62\n    /* \"#utility.yul\":1171:1178   */\n  dup5\n    /* \"#utility.yul\":1162:1168   */\n  dup3\n    /* \"#utility.yul\":1151:1160   */\n  dup6\n    /* \"#utility.yul\":1147:1169   */\n  add\n    /* \"#utility.yul\":1115:1179   */\n  tag_26\n  jump\t// in\ntag_62:\n    /* \"#utility.yul\":1105:1179   */\n  swap2\n  pop\n    /* \"#utility.yul\":1061:1189   */\n  pop\n    /* \"#utility.yul\":845:1196   */\n  swap3\n  swap2\n  pop\n  pop\n  jump\t// out\n    /* \"#utility.yul\":1202:1301   */\ntag_27:\n    /* \"#utility.yul\":1254:1260   */\n  0x00\n    /* \"#utility.yul\":1288:1293   */\n  dup2\n    /* \"#utility.yul\":1282:1294   */\n  mload\n    /* \"#utility.yul\":1272:1294   */\n  swap1\n  pop\n    /* \"#utility.yul\":1202:1301   */\n  swap2\n  swap1\n  pop\n  jump\t// out\n    /* \"#utility.yul\":1307:1487   */\ntag_28:\n    /* \"#utility.yul\":1355:1432   */\n  0x4e487b7100000000000000000000000000000000000000000000000000000000\n    /* \"#utility.yul\":1352:1353   */\n  0x00\n    /* \"#utility.yul\":1345:1433   */\n  mstore\n    /* \"#utility.yul\":1452:1456   */\n  0x41\n    /* \"#utility.yul\":1449:1450   */\n  0x04\n    /* \"#utility.yul\":1442:1457   */\n  mstore\n    /* \"#utility.yul\":1476:1480   */\n  0x24\n    /* \"#utility.yul\":1473:1474   */\n  0x00\n    /* \"#utility.yul\":1466:1481   */\n  revert\n    /* \"#utility.yul\":1493:1673   */\ntag_29:\n    /* \"#utility.yul\":1541:1618   */\n  0x4e487b7100000000000000000000000000000000000000000000000000000000\n    /* \"#utility.yul\":1538:1539   */\n  0x00\n    /* \"#utility.yul\":1531:1619   */\n  mstore\n    /* \"#utility.yul\":1638:1642   */\n  0x22\n    /* \"#utility.yul\":1635:1636   */\n  0x04\n    /* \"#utility.yul\":1628:1643   */\n  mstore\n    /* \"#utility.yul\":1662:1666   */\n  0x24\n    /* \"#utility.yul\":1659:1660   */\n  0x00\n    /* \"#utility.yul\":1652:1667   */\n  revert\n    /* \"#utility.yul\":1679:1999   */\ntag_30:\n    /* \"#utility.yul\":1723:1729   */\n  0x00\n    /* \"#utility.yul\":1760:1761   */\n  0x02\n    /* \"#utility.yul\":1754:1758   */\n  dup3\n    /* \"#utility.yul\":1750:1762   */\n  div\n    /* \"#utility.yul\":1740:1762   */\n  swap1\n  pop\n    /* \"#utility.yul\":1807:1808   */\n  0x01\n    /* \"#utility.yul\":1801:1805   */\n  dup3\n    /* \"#utility.yul\":1797:1809   */\n  and\n    /* \"#utility.yul\":1828:1846   */\n  dup1\n    /* \"#utility.yul\":1818:1899   */\n  tag_67\n  jumpi\n    /* \"#utility.yul\":1884:1888   */\n  0x7f\n    /* \"#utility.yul\":1876:1882   */\n  dup3\n    /* \"#utility.yul\":1872:1889   */\n  and\n    /* \"#utility.yul\":1862:1889   */\n  swap2\n  pop\n    /* \"#utility.yul\":1818:1899   */\ntag_67:\n    /* \"#utility.yul\":1946:1948   */\n  0x20\n    /* \"#utility.yul\":1938:1944   */\n  dup3\n    /* \"#utility.yul\":1935:1949   */\n  lt\n    /* \"#utility.yul\":1915:1933   */\n  dup2\n    /* \"#utility.yul\":1912:1950   */\n  sub\n    /* \"#utility.yul\":1909:1993   */\n  tag_68\n  jumpi\n    /* \"#utility.yul\":1965:1983   */\n  tag_69\n  tag_29\n  jump\t// in\ntag_69:\n    /* \"#utility.yul\":1909:1993   */\ntag_68:\n    /* \"#utility.yul\":1730:1999   */\n  pop\n    /* \"#utility.yul\":1679:1999   */\n  swap2\n  swap1\n  pop\n  jump\t// out\n    /* \"#utility.yul\":2005:2146   */\ntag_31:\n    /* \"#utility.yul\":2054:2058   */\n  0x00\n    /* \"#utility.yul\":2077:2080   */\n  dup2\n    /* \"#utility.yul\":2069:2080   */\n  swap1\n  pop\n    /* \"#utility.yul\":2100:2103   */\n  dup2\n    /* \"#utility.yul\":2097:2098   */\n  0x00\n    /* \"#utility.yul\":2090:2104   */\n  mstore\n    /* \"#utility.yul\":2134:2138   */\n  0x20\n    /* \"#utility.yul\":2131:2132   */\n  0x00\n    /* \"#utility.yul\":2121:2139   */\n  keccak256\n    /* \"#utility.yul\":2113:2139   */\n  swap1\n  pop\n    /* \"#utility.yul\":2005:2146   */\n  swap2\n  swap1\n  pop\n  jump\t// out\n    /* \"#utility.yul\":2152:2245   */\ntag_32:\n    /* \"#utility.yul\":2189:2195   */\n  0x00\n    /* \"#utility.yul\":2236:2238   */\n  0x20\n    /* \"#utility.yul\":2231:2233   */\n  0x1f\n    /* \"#utility.yul\":2224:2229   */\n  dup4\n    /* \"#utility.yul\":2220:2234   */\n  add\n    /* \"#utility.yul\":2216:2239   */\n  div\n    /* \"#utility.yul\":2206:2239   */\n  swap1\n  pop\n    /* \"#utility.yul\":2152:2245   */\n  swap2\n  swap1\n  pop\n  jump\t// out\n    /* \"#utility.yul\":2251:2358   */\ntag_33:\n    /* \"#utility.yul\":2295:2303   */\n  0x00\n    /* \"#utility.yul\":2345:2350   */\n  dup3\n    /* \"#utility.yul\":2339:2343   */\n  dup3\n    /* \"#utility.yul\":2335:2351   */\n  shl\n    /* \"#utility.yul\":2314:2351   */\n  swap1\n  pop\n    /* \"#utility.yul\":2251:2358   */\n  swap3\n  swap2\n  pop\n  pop\n  jump\t// out\n    /* \"#utility.yul\":2364:2757   */\ntag_34:\n    /* \"#utility.yul\":2433:2439   */\n  0x00\n    /* \"#utility.yul\":2483:2484   */\n  0x08\n    /* \"#utility.yul\":2471:2481   */\n  dup4\n    /* \"#utility.yul\":2467:2485   */\n  mul\n    /* \"#utility.yul\":2506:2603   */\n  tag_74\n    /* \"#utility.yul\":2536:2602   */\n  0xffffffffffffffffffffffffffffffffffffffffffffffffffffffffffffffff\n    /* \"#utility.yul\":2525:2534   */\n  dup3\n    /* \"#utility.yul\":2506:2603   */\n  tag_33\n  jump\t// in\ntag_74:\n    /* \"#utility.yul\":2624:2663   */\n  tag_75\n    /* \"#utility.yul\":2654:2662   */\n  dup7\n    /* \"#utility.yul\":2643:2652   */\n  dup4\n    /* \"#utility.yul\":2624:2663   */\n  tag_33\n  jump\t// in\ntag_75:\n    /* \"#utility.yul\":2612:2663   */\n  swap6\n  pop\n    /* \"#utility.yul\":2696:2700   */\n  dup1\n    /* \"#utility.yul\":2692:2701   */\n  not\n    /* \"#utility.yul\":2685:2690   */\n  dup5\n    /* \"#utility.yul\":2681:2702   */\n  and\n    /* \"#utility.yul\":2672:2702   */\n  swap4\n  pop\n    /* \"#utility.yul\":2745:2749   */\n  dup1\n    /* \"#utility.yul\":2735:2743   */\n  dup7\n    /* \"#utility.yul\":2731:2750   */\n  and\n    /* \"#utility.yul\":2724:2729   */\n  dup5\n    /* \"#utility.yul\":2721:2751   */\n  or\n    /* \"#utility.yul\":2711:2751   */\n  swap3\n  pop\n    /* \"#utility.yul\":2440:2757   */\n  pop\n  pop\n    /* \"#utility.yul\":2364:2757   */\n  swap4\n  swap3\n  pop\n  pop\n  pop\n  jump\t// out\n    /* \"#utility.yul\":2763:2840   */\ntag_35:\n    /* \"#utility.yul\":2800:2807   */\n  0x00\n    /* \"#utility.yul\":2829:2834   */\n  dup2\n    /* \"#utility.yul\":2818:2834   */\n  swap1\n  pop\n    /* \"#utility.yul\":2763:2840   */\n  swap2\n  swap1\n  pop\n  jump\t// out\n    /* \"#utility.yul\":2846:2906   */\ntag_36:\n    /* \"#utility.yul\":2874:2877   */\n  0x00\n    /* \"#utility.yul\":2895:2900   */\n  dup2\n    /* \"#utility.yul\":2888:2900   */\n  swap1\n  pop\n    /* \"#utility.yul\":2846:2906   */\n  swap2\n  swap1\n  pop\n  jump\t// out\n    /* \"#utility.yul\":2912:3054   */\ntag_37:\n    /* \"#utility.yul\":2962:2971   */\n  0x00\n    /* \"#utility.yul\":2995:3048   */\n  tag_79\n    /* \"#utility.yul\":3013:3047   */\n  tag_80\n    /* \"#utility.yul\":3022:3046   */\n  tag_81\n    /* \"#utility.yul\":3040:3045   */\n  dup5\n    /* \"#utility.yul\":3022:3046   */\n  tag_35\n  jump\t// in\ntag_81:\n    /* \"#utility.yul\":3013:3047   */\n  tag_36\n  jump\t// in\ntag_80:\n    /* \"#utility.yul\":2995:3048   */\n  tag_35\n  jump\t// in\ntag_79:\n    /* \"#utility.yul\":2982:3048   */\n  swap1\n  pop\n    /* \"#utility.yul\":2912:3054   */\n  swap2\n  swap1\n  pop\n  jump\t// out\n    /* \"#utility.yul\":3060:3135   */\ntag_38:\n    /* \"#utility.yul\":3103:3106   */\n  0x00\n    /* \"#utility.yul\":3124:3129   */\n  dup2\n    /* \"#utility.yul\":3117:3129   */\n  swap1\n  pop\n    /* \"#utility.yul\":3060:3135   */\n  swap2\n  swap1\n  pop\n  jump\t// out\n    /* \"#utility.yul\":3141:3410   */\ntag_39:\n    /* \"#utility.yul\":3251:3290   */\n  tag_84\n    /* \"#utility.yul\":3282:3289   */\n  dup4\n    /* \"#utility.yul\":3251:3290   */\n  tag_37\n  jump\t// in\ntag_84:\n    /* \"#utility.yul\":3312:3403   */\n  tag_85\n    /* \"#utility.yul\":3361:3402   */\n  tag_86\n    /* \"#utility.yul\":3385:3401   */\n  dup3\n    /* \"#utility.yul\":3361:3402   */\n  tag_38\n  jump\t// in\ntag_86:\n    /* \"#utility.yul\":3353:3359   */\n  dup5\n    /* \"#utility.yul\":3346:3350   */\n  dup5\n    /* \"#utility.yul\":3340:3351   */\n  sload\n    /* \"#utility.yul\":3312:3403   */\n  tag_34\n  jump\t// in\ntag_85:\n    /* \"#utility.yul\":3306:3310   */\n  dup3\n    /* \"#utility.yul\":3299:3404   */\n  sstore\n    /* \"#utility.yul\":3217:3410   */\n  pop\n    /* \"#utility.yul\":3141:3410   */\n  pop\n  pop\n  pop\n  jump\t// out\n    /* \"#utility.yul\":3416:3489   */\ntag_40:\n    /* \"#utility.yul\":3461:3464   */\n  0x00\n    /* \"#utility.yul\":3416:3489   */\n  swap1\n  jump\t// out\n    /* \"#utility.yul\":3495:3684   */\ntag_41:\n    /* \"#utility.yul\":3572:3604   */\n  tag_89\n  tag_40\n  jump\t// in\ntag_89:\n    /* \"#utility.yul\":3613:3678   */\n  tag_90\n    /* \"#utility.yul\":3671:3677   */\n  dup2\n    /* \"#utility.yul\":3663:3669   */\n  dup5\n    /* \"#utility.yul\":3657:3661   */\n  dup5\n    /* \"#utility.yul\":3613:3678   */\n  tag_39\n  jump\t// in\ntag_90:\n    /* \"#utility.yul\":3548:3684   */\n  pop\n    /* \"#utility.yul\":3495:3684   */\n  pop\n  pop\n  jump\t// out\n    /* \"#utility.yul\":3690:3876   */\ntag_42:\n    /* \"#utility.yul\":3750:3870   */\ntag_92:\n    /* \"#utility.yul\":3767:3770   */\n  dup2\n    /* \"#utility.yul\":3760:3765   */\n  dup2\n    /* \"#utility.yul\":3757:3771   */\n  lt\n    /* \"#utility.yul\":3750:3870   */\n  iszero\n  tag_94\n  jumpi\n    /* \"#utility.yul\":3821:3860   */\n  tag_95\n    /* \"#utility.yul\":3858:3859   */\n  0x00\n    /* \"#utility.yul\":3851:3856   */\n  dup3\n    /* \"#utility.yul\":3821:3860   */\n  tag_41\n  jump\t// in\ntag_95:\n    /* \"#utility.yul\":3794:3795   */\n  0x01\n    /* \"#utility.yul\":3787:3792   */\n  dup2\n    /* \"#utility.yul\":3783:3796   */\n  add\n    /* \"#utility.yul\":3774:3796   */\n  swap1\n  pop\n    /* \"#utility.yul\":3750:3870   */\n  jump(tag_92)\ntag_94:\n    /* \"#utility.yul\":3690:3876   */\n  pop\n  pop\n  jump\t// out\n    /* \"#utility.yul\":3882:4425   */\ntag_43:\n    /* \"#utility.yul\":3983:3985   */\n  0x1f\n    /* \"#utility.yul\":3978:3981   */\n  dup3\n    /* \"#utility.yul\":3975:3986   */\n  gt\n    /* \"#utility.yul\":3972:4418   */\n  iszero\n  tag_97\n  jumpi\n    /* \"#utility.yul\":4017:4055   */\n  tag_98\n    /* \"#utility.yul\":4049:4054   */\n  dup2\n    /* \"#utility.yul\":4017:4055   */\n  tag_31\n  jump\t// in\ntag_98:\n    /* \"#utility.yul\":4101:4130   */\n  tag_99\n    /* \"#utility.yul\":4119:4129   */\n  dup5\n    /* \"#utility.yul\":4101:4130   */\n  tag_32\n  jump\t// in\ntag_99:\n    /* \"#utility.yul\":4091:4099   */\n  dup2\n    /* \"#utility.yul\":4087:4131   */\n  add\n    /* \"#utility.yul\":4284:4286   */\n  0x20\n    /* \"#utility.yul\":4272:4282   */\n  dup6\n    /* \"#utility.yul\":4269:4287   */\n  lt\n    /* \"#utility.yul\":4266:4315   */\n  iszero\n  tag_100\n  jumpi\n    /* \"#utility.yul\":4305:4313   */\n  dup2\n    /* \"#utility.yul\":4290:4313   */\n  swap1\n  pop\n    /* \"#utility.yul\":4266:4315   */\ntag_100:\n    /* \"#utility.yul\":4328:4408   */\n  tag_101\n    /* \"#utility.yul\":4384:4406   */\n  tag_102\n    /* \"#utility.yul\":4402:4405   */\n  dup6\n    /* \"#utility.yul\":4384:4406   */\n  tag_32\n  jump\t// in\ntag_102:\n    /* \"#utility.yul\":4374:4382   */\n  dup4\n    /* \"#utility.yul\":4370:4407   */\n  add\n    /* \"#utility.yul\":4357:4368   */\n  dup3\n    /* \"#utility.yul\":4328:4408   */\n  tag_42\n  jump\t// in\ntag_101:\n    /* \"#utility.yul\":3987:4418   */\n  pop\n  pop\n    /* \"#utility.yul\":3972:4418   */\ntag_97:\n    /* \"#utility.yul\":3882:4425   */\n  pop\n  pop\n  pop\n  jump\t// out\n    /* \"#utility.yul\":4431:4548   */\ntag_44:\n    /* \"#utility.yul\":4485:4493   */\n  0x00\n    /* \"#utility.yul\":4535:4540   */\n  dup3\n    /* \"#utility.yul\":4529:4533   */\n  dup3\n    /* \"#utility.yul\":4525:4541   */\n  shr\n    /* \"#utility.yul\":4504:4541   */\n  swap1\n  pop\n    /* \"#utility.yul\":4431:4548   */\n  swap3\n  swap2\n  pop\n  pop\n  jump\t// out\n    /* \"#utility.yul\":4554:4723   */\ntag_45:\n    /* \"#utility.yul\":4598:4604   */\n  0x00\n    /* \"#utility.yul\":4631:4682   */\n  tag_105\n    /* \"#utility.yul\":4679:4680   */\n  0x00\n    /* \"#utility.yul\":4675:4681   */\n  not\n    /* \"#utility.yul\":4667:4672   */\n  dup5\n    /* \"#utility.yul\":4664:4665   */\n  0x08\n    /* \"#utility.yul\":4660:4673   */\n  mul\n    /* \"#utility.yul\":4631:4682   */\n  tag_44\n  jump\t// in\ntag_105:\n    /* \"#utility.yul\":4627:4683   */\n  not\n    /* \"#utility.yul\":4712:4716   */\n  dup1\n    /* \"#utility.yul\":4706:4710   */\n  dup4\n    /* \"#utility.yul\":4702:4717   */\n  and\n    /* \"#utility.yul\":4692:4717   */\n  swap2\n  pop\n    /* \"#utility.yul\":4605:4723   */\n  pop\n    /* \"#utility.yul\":4554:4723   */\n  swap3\n  swap2\n  pop\n  pop\n  jump\t// out\n    /* \"#utility.yul\":4728:5023   */\ntag_46:\n    /* \"#utility.yul\":4804:4808   */\n  0x00\n    /* \"#utility.yul\":4950:4979   */\n  tag_107\n    /* \"#utility.yul\":4975:4978   */\n  dup4\n    /* \"#utility.yul\":4969:4973   */\n  dup4\n    /* \"#utility.yul\":4950:4979   */\n  tag_45\n  jump\t// in\ntag_107:\n    /* \"#utility.yul\":4942:4979   */\n  swap2\n  pop\n    /* \"#utility.yul\":5012:5015   */\n  dup3\n    /* \"#utility.yul\":5009:5010   */\n  0x02\n    /* \"#utility.yul\":5005:5016   */\n  mul\n    /* \"#utility.yul\":4999:5003   */\n  dup3\n    /* \"#utility.yul\":4996:5017   */\n  or\n    /* \"#utility.yul\":4988:5017   */\n  swap1\n  pop\n    /* \"#utility.yul\":4728:5023   */\n  swap3\n  swap2\n  pop\n  pop\n  jump\t// out\n    /* \"#utility.yul\":5028:6423   */\ntag_9:\n    /* \"#utility.yul\":5145:5182   */\n  tag_109\n    /* \"#utility.yul\":5178:5181   */\n  dup3\n    /* \"#utility.yul\":5145:5182   */\n  tag_27\n  jump\t// in\ntag_109:\n    /* \"#utility.yul\":5247:5265   */\n  0xffffffffffffffff\n    /* \"#utility.yul\":5239:5245   */\n  dup2\n    /* \"#utility.yul\":5236:5266   */\n  gt\n    /* \"#utility.yul\":5233:5289   */\n  iszero\n  tag_110\n  jumpi\n    /* \"#utility.yul\":5269:5287   */\n  tag_111\n  tag_28\n  jump\t// in\ntag_111:\n    /* \"#utility.yul\":5233:5289   */\ntag_110:\n    /* \"#utility.yul\":5313:5351   */\n  tag_112\n    /* \"#utility.yul\":5345:5349   */\n  dup3\n    /* \"#utility.yul\":5339:5350   */\n  sload\n    /* \"#utility.yul\":5313:5351   */\n  tag_30\n  jump\t// in\ntag_112:\n    /* \"#utility.yul\":5398:5465   */\n  tag_113\n    /* \"#utility.yul\":5458:5464   */\n  dup3\n    /* \"#utility.yul\":5450:5456   */\n  dup3\n    /* \"#utility.yul\":5444:5448   */\n  dup6\n    /* \"#utility.yul\":5398:5465   */\n  tag_43\n  jump\t// in\ntag_113:\n    /* \"#utility.yul\":5492:5493   */\n  0x00\n    /* \"#utility.yul\":5516:5520   */\n  0x20\n    /* \"#utility.yul\":5503:5520   */\n  swap1\n  pop\n    /* \"#utility.yul\":5548:5550   */\n  0x1f\n    /* \"#utility.yul\":5540:5546   */\n  dup4\n    /* \"#utility.yul\":5537:5551   */\n  gt\n    /* \"#utility.yul\":5565:5566   */\n  0x01\n    /* \"#utility.yul\":5560:6178   */\n  dup2\n  eq\n  tag_115\n  jumpi\n    /* \"#utility.yul\":6222:6223   */\n  0x00\n    /* \"#utility.yul\":6239:6245   */\n  dup5\n    /* \"#utility.yul\":6236:6313   */\n  iszero\n  tag_116\n  jumpi\n    /* \"#utility.yul\":6288:6297   */\n  dup3\n    /* \"#utility.yul\":6283:6286   */\n  dup8\n    /* \"#utility.yul\":6279:6298   */\n  add\n    /* \"#utility.yul\":6273:6299   */\n  mload\n    /* \"#utility.yul\":6264:6299   */\n  swap1\n  pop\n    /* \"#utility.yul\":6236:6313   */\ntag_116:\n    /* \"#utility.yul\":6339:6406   */\n  tag_117\n    /* \"#utility.yul\":6399:6405   */\n  dup6\n    /* \"#utility.yul\":6392:6397   */\n  dup3\n    /* \"#utility.yul\":6339:6406   */\n  tag_46\n  jump\t// in\ntag_117:\n    /* \"#utility.yul\":6333:6337   */\n  dup7\n    /* \"#utility.yul\":6326:6407   */\n  sstore\n    /* \"#utility.yul\":6195:6417   */\n  pop\n    /* \"#utility.yul\":5530:6417   */\n  jump(tag_114)\n    /* \"#utility.yul\":5560:6178   */\ntag_115:\n    /* \"#utility.yul\":5612:5616   */\n  0x1f\n    /* \"#utility.yul\":5608:5617   */\n  not\n    /* \"#utility.yul\":5600:5606   */\n  dup5\n    /* \"#utility.yul\":5596:5618   */\n  and\n    /* \"#utility.yul\":5646:5683   */\n  tag_118\n    /* \"#utility.yul\":5678:5682   */\n  dup7\n    /* \"#utility.yul\":5646:5683   */\n  tag_31\n  jump\t// in\ntag_118:\n    /* \"#utility.yul\":5705:5706   */\n  0x00\n    /* \"#utility.yul\":5719:5927   */\ntag_119:\n    /* \"#utility.yul\":5733:5740   */\n  dup3\n    /* \"#utility.yul\":5730:5731   */\n  dup2\n    /* \"#utility.yul\":5727:5741   */\n  lt\n    /* \"#utility.yul\":5719:5927   */\n  iszero\n  tag_121\n  jumpi\n    /* \"#utility.yul\":5812:5821   */\n  dup5\n    /* \"#utility.yul\":5807:5810   */\n  dup10\n    /* \"#utility.yul\":5803:5822   */\n  add\n    /* \"#utility.yul\":5797:5823   */\n  mload\n    /* \"#utility.yul\":5789:5795   */\n  dup3\n    /* \"#utility.yul\":5782:5824   */\n  sstore\n    /* \"#utility.yul\":5863:5864   */\n  0x01\n    /* \"#utility.yul\":5855:5861   */\n  dup3\n    /* \"#utility.yul\":5851:5865   */\n  add\n    /* \"#utility.yul\":5841:5865   */\n  swap2\n  pop\n    /* \"#utility.yul\":5910:5912   */\n  0x20\n    /* \"#utility.yul\":5899:5908   */\n  dup6\n    /* \"#utility.yul\":5895:5913   */\n  add\n    /* \"#utility.yul\":5882:5913   */\n  swap5\n  pop\n    /* \"#utility.yul\":5756:5760   */\n  0x20\n    /* \"#utility.yul\":5753:5754   */\n  dup2\n    /* \"#utility.yul\":5749:5761   */\n  add\n    /* \"#utility.yul\":5744:5761   */\n  swap1\n  pop\n    /* \"#utility.yul\":5719:5927   */\n  jump(tag_119)\ntag_121:\n    /* \"#utility.yul\":5955:5961   */\n  dup7\n    /* \"#utility.yul\":5946:5953   */\n  dup4\n    /* \"#utility.yul\":5943:5962   */\n  lt\n    /* \"#utility.yul\":5940:6119   */\n  iszero\n  tag_122\n  jumpi\n    /* \"#utility.yul\":6013:6022   */\n  dup5\n    /* \"#utility.yul\":6008:6011   */\n  dup10\n    /* \"#utility.yul\":6004:6023   */\n  add\n    /* \"#utility.yul\":5998:6024   */\n  mload\n    /* \"#utility.yul\":6056:6104   */\n  tag_123\n    /* \"#utility.yul\":6098:6102   */\n  0x1f\n    /* \"#utility.yul\":6090:6096   */\n  dup10\n    /* \"#utility.yul\":6086:6103   */\n  and\n    /* \"#utility.yul\":6075:6084   */\n  dup3\n    /* \"#utility.yul\":6056:6104   */\n  tag_45\n  jump\t// in\ntag_123:\n    /* \"#utility.yul\":6048:6054   */\n  dup4\n    /* \"#utility.yul\":6041:6105   */\n  sstore\n    /* \"#utility.yul\":5963:6119   */\n  pop\n    /* \"#utility.yul\":5940:6119   */\ntag_122:\n    /* \"#utility.yul\":6165:6166   */\n  0x01\n    /* \"#utility.yul\":6161:6162   */\n  0x02\n    /* \"#utility.yul\":6153:6159   */\n  dup9\n    /* \"#utility.yul\":6149:6163   */\n  mul\n    /* \"#utility.yul\":6145:6167   */\n  add\n    /* \"#utility.yul\":6139:6143   */\n  dup9\n    /* \"#utility.yul\":6132:6168   */\n  sstore\n    /* \"#utility.yul\":5567:6178   */\n  pop\n  pop\n  pop\n    /* \"#utility.yul\":5530:6417   */\ntag_114:\n  pop\n    /* \"#utility.yul\":5120:6423   */\n  pop\n  pop\n  pop\n    /* \"#utility.yul\":5028:6423   */\n  pop\n  pop\n  jump\t// out\n    /* \"contracts/UniversalNFT.sol\":3347:6370  contract UniversalNFT is ERC721, Ownable, IUniversalNFT {... */\ntag_17:\n  dataSize(sub_0)\n  dup1\n  dataOffset(sub_0)\n  0x00\n  codecopy\n  0x00\n  return\nstop\n\nsub_0: assembly {\n        /* \"contracts/UniversalNFT.sol\":3347:6370  contract UniversalNFT is ERC721, Ownable, IUniversalNFT {... */\n      mstore(0x40, 0x80)\n      jumpi(tag_1, lt(calldatasize, 0x04))\n      shr(0xe0, calldataload(0x00))\n      dup1\n      0xa5cecdc9\n      gt\n      tag_20\n      jumpi\n      dup1\n      0xc87b56dd\n      gt\n      tag_21\n      jumpi\n      dup1\n      0xc87b56dd\n      eq\n      tag_15\n      jumpi\n      dup1\n      0xd0def521\n      eq\n      tag_16\n      jumpi\n      dup1\n      0xd5021e5f\n      eq\n      tag_17\n      jumpi\n      dup1\n      0xf2fde38b\n      eq\n      tag_18\n      jumpi\n      dup1\n      0xf4edf36d\n      eq\n      tag_19\n      jumpi\n      jump(tag_1)\n    tag_21:\n      dup1\n      0xa5cecdc9\n      eq\n      tag_11\n      jumpi\n      dup1\n      0xa866365c\n      eq\n      tag_12\n      jumpi\n      dup1\n      0xb1d31d98\n      eq\n      tag_13\n      jumpi\n      dup1\n      0xc02169f2\n      eq\n      tag_14\n      jumpi\n      jump(tag_1)\n    tag_20:\n      dup1\n      0x6c8b703f\n      gt\n      tag_22\n      jumpi\n      dup1\n      0x6c8b703f\n      eq\n      tag_6\n      jumpi\n      dup1\n      0x6fafb558\n      eq\n      tag_7\n      jumpi\n      dup1\n      0x70a08231\n      eq\n      tag_8\n      jumpi\n      dup1\n      0x8da5cb5b\n      eq\n      tag_9\n      jumpi\n      dup1\n      0x95d89b41\n      eq\n      tag_10\n      jumpi\n      jump(tag_1)\n    tag_22:\n      dup1\n      0x06fdde03\n      eq\n      tag_2\n      jumpi\n      dup1\n      0x116191b6\n      eq\n      tag_3\n      jumpi\n      dup1\n      0x2e021620\n      eq\n      tag_4\n      jumpi\n      dup1\n      0x6352211e\n      eq\n      tag_5\n      jumpi\n    tag_1:\n      0x00\n      dup1\n      revert\n        /* \"contracts/UniversalNFT.sol\":1705:1723  string public name */\n    tag_2:\n      callvalue\n      dup1\n      iszero\n      tag_23\n      jumpi\n      0x00\n      dup1\n      revert\n    tag_23:\n      pop\n      tag_24\n      tag_25\n      jump\t// in\n    tag_24:\n      mload(0x40)\n      tag_26\n      swap2\n      swap1\n      tag_27\n      jump\t// in\n    tag_26:\n      mload(0x40)\n      dup1\n      swap2\n      sub\n      swap1\n      return\n        /* \"contracts/UniversalNFT.sol\":3497:3520  IGateway public gateway */\n    tag_3:\n      callvalue\n      dup1\n      iszero\n      tag_28\n      jumpi\n      0x00\n      dup1\n      revert\n    tag_28:\n      pop\n      tag_29\n      tag_30\n      jump\t// in\n    tag_29:\n      mload(0x40)\n      tag_31\n      swap2\n      swap1\n      tag_32\n      jump\t// in\n    tag_31:\n      mload(0x40)\n      dup1\n      swap2\n      sub\n      swap1\n      return\n        /* \"contracts/UniversalNFT.sol\":3615:3678  mapping(uint256 => mapping(uint16 => bool)) public tokenOnChain */\n    tag_4:\n      callvalue\n      dup1\n      iszero\n      tag_33\n      jumpi\n      0x00\n      dup1\n      revert\n    tag_33:\n      pop\n      tag_34\n      0x04\n      dup1\n      calldatasize\n      sub\n      dup2\n      add\n      swap1\n      tag_35\n      swap2\n      swap1\n      tag_36\n      jump\t// in\n    tag_35:\n      tag_37\n      jump\t// in\n    tag_34:\n      mload(0x40)\n      tag_38\n      swap2\n      swap1\n      tag_39\n      jump\t// in\n    tag_38:\n      mload(0x40)\n      dup1\n      swap2\n      sub\n      swap1\n      return\n        /* \"contracts/UniversalNFT.sol\":2149:2336  function ownerOf(uint256 tokenId) public view returns (address) {... */\n    tag_5:\n      callvalue\n      dup1\n      iszero\n      tag_40\n      jumpi\n      0x00\n      dup1\n      revert\n    tag_40:\n      pop\n      tag_41\n      0x04\n      dup1\n      calldatasize\n      sub\n      dup2\n      add\n      swap1\n      tag_42\n      swap2\n      swap1\n      tag_43\n      jump\t// in\n    tag_42:\n      tag_44\n      jump\t// in\n    tag_41:\n      mload(0x40)\n      tag_45\n      swap2\n      swap1\n      tag_46\n      jump\t// in\n    tag_45:\n      mload(0x40)\n      dup1\n      swap2\n      sub\n      swap1\n      return\n        /* \"contracts/UniversalNFT.sol\":3566:3609  mapping(uint256 => string) public tokenURIs */\n    tag_6:\n      callvalue\n      dup1\n      iszero\n      tag_47\n      jumpi\n      0x00\n      dup1\n      revert\n    tag_47:\n      pop\n      tag_48\n      0x04\n      dup1\n      calldatasize\n      sub\n      dup2\n      add\n      swap1\n      tag_49\n      swap2\n      swap1\n      tag_43\n      jump\t// in\n    tag_49:\n      tag_50\n      jump\t// in\n    tag_48:\n      mload(0x40)\n      tag_51\n      swap2\n      swap1\n      tag_27\n      jump\t// in\n    tag_51:\n      mload(0x40)\n      dup1\n      swap2\n      sub\n      swap1\n      return\n        /* \"contracts/UniversalNFT.sol\":6228:6368  function isTokenOnChain(uint256 tokenId, uint16 chainId) external view returns (bool) {... */\n    tag_7:\n      callvalue\n      dup1\n      iszero\n      tag_52\n      jumpi\n      0x00\n      dup1\n      revert\n    tag_52:\n      pop\n      tag_53\n      0x04\n      dup1\n      calldatasize\n      sub\n      dup2\n      add\n      swap1\n      tag_54\n      swap2\n      swap1\n      tag_36\n      jump\t// in\n    tag_54:\n      tag_55\n      jump\t// in\n    tag_53:\n      mload(0x40)\n      tag_56\n      swap2\n      swap1\n      tag_39\n      jump\t// in\n    tag_56:\n      mload(0x40)\n      dup1\n      swap2\n      sub\n      swap1\n      return\n        /* \"contracts/UniversalNFT.sol\":1985:2143  function balanceOf(address owner) public view returns (uint256) {... */\n    tag_8:\n      callvalue\n      dup1\n      iszero\n      tag_57\n      jumpi\n      0x00\n      dup1\n      revert\n    tag_57:\n      pop\n      tag_58\n      0x04\n      dup1\n      calldatasize\n      sub\n      dup2\n      add\n      swap1\n      tag_59\n      swap2\n      swap1\n      tag_60\n      jump\t// in\n    tag_59:\n      tag_61\n      jump\t// in\n    tag_58:\n      mload(0x40)\n      tag_62\n      swap2\n      swap1\n      tag_63\n      jump\t// in\n    tag_62:\n      mload(0x40)\n      dup1\n      swap2\n      sub\n      swap1\n      return\n        /* \"contracts/UniversalNFT.sol\":1048:1133  function owner() public view virtual returns (address) {... */\n    tag_9:\n      callvalue\n      dup1\n      iszero\n      tag_64\n      jumpi\n      0x00\n      dup1\n      revert\n    tag_64:\n      pop\n      tag_65\n      tag_66\n      jump\t// in\n    tag_65:\n      mload(0x40)\n      tag_67\n      swap2\n      swap1\n      tag_46\n      jump\t// in\n    tag_67:\n      mload(0x40)\n      dup1\n      swap2\n      sub\n      swap1\n      return\n        /* \"contracts/UniversalNFT.sol\":1729:1749  string public symbol */\n    tag_10:\n      callvalue\n      dup1\n      iszero\n      tag_68\n      jumpi\n      0x00\n      dup1\n      revert\n    tag_68:\n      pop\n      tag_69\n      tag_70\n      jump\t// in\n    tag_69:\n      mload(0x40)\n      tag_71\n      swap2\n      swap1\n      tag_27\n      jump\t// in\n    tag_71:\n      mload(0x40)\n      dup1\n      swap2\n      sub\n      swap1\n      return\n        /* \"contracts/UniversalNFT.sol\":3526:3559  address public universalNFTBridge */\n    tag_11:\n      callvalue\n      dup1\n      iszero\n      tag_72\n      jumpi\n      0x00\n      dup1\n      revert\n    tag_72:\n      pop\n      tag_73\n      tag_74\n      jump\t// in\n    tag_73:\n      mload(0x40)\n      tag_75\n      swap2\n      swap1\n      tag_46\n      jump\t// in\n    tag_75:\n      mload(0x40)\n      dup1\n      swap2\n      sub\n      swap1\n      return\n        /* \"contracts/UniversalNFT.sol\":4166:4270  function setUniversalNFTBridge(address _bridge) external onlyOwner {... */\n    tag_12:\n      callvalue\n      dup1\n      iszero\n      tag_76\n      jumpi\n      0x00\n      dup1\n      revert\n    tag_76:\n      pop\n      tag_77\n      0x04\n      dup1\n      calldatasize\n      sub\n      dup2\n      add\n      swap1\n      tag_78\n      swap2\n      swap1\n      tag_60\n      jump\t// in\n    tag_78:\n      tag_79\n      jump\t// in\n    tag_77:\n      stop\n        /* \"contracts/UniversalNFT.sol\":4859:5666  function bridgeNFT(... */\n    tag_13:\n      tag_80\n      0x04\n      dup1\n      calldatasize\n      sub\n      dup2\n      add\n      swap1\n      tag_81\n      swap2\n      swap1\n      tag_82\n      jump\t// in\n    tag_81:\n      tag_83\n      jump\t// in\n    tag_80:\n      stop\n        /* \"contracts/UniversalNFT.sol\":4276:4481  function setConnected(uint16 chainId, address contractAddress) external onlyOwner {... */\n    tag_14:\n      callvalue\n      dup1\n      iszero\n      tag_84\n      jumpi\n      0x00\n      dup1\n      revert\n    tag_84:\n      pop\n      tag_85\n      0x04\n      dup1\n      calldatasize\n      sub\n      dup2\n      add\n      swap1\n      tag_86\n      swap2\n      swap1\n      tag_87\n      jump\t// in\n    tag_86:\n      tag_88\n      jump\t// in\n    tag_85:\n      stop\n        /* \"contracts/UniversalNFT.sol\":6035:6222  function tokenURI(uint256 tokenId) public view returns (string memory) {... */\n    tag_15:\n      callvalue\n      dup1\n      iszero\n      tag_89\n      jumpi\n      0x00\n      dup1\n      revert\n    tag_89:\n      pop\n      tag_90\n      0x04\n      dup1\n      calldatasize\n      sub\n      dup2\n      add\n      swap1\n      tag_91\n      swap2\n      swap1\n      tag_43\n      jump\t// in\n    tag_91:\n      tag_92\n      jump\t// in\n    tag_90:\n      mload(0x40)\n      tag_93\n      swap2\n      swap1\n      tag_27\n      jump\t// in\n    tag_93:\n      mload(0x40)\n      dup1\n      swap2\n      sub\n      swap1\n      return\n        /* \"contracts/UniversalNFT.sol\":4487:4853  function mint(address to, string memory metadataURI) external returns (uint256) {... */\n    tag_16:\n      callvalue\n      dup1\n      iszero\n      tag_94\n      jumpi\n      0x00\n      dup1\n      revert\n    tag_94:\n      pop\n      tag_95\n      0x04\n      dup1\n      calldatasize\n      sub\n      dup2\n      add\n      swap1\n      tag_96\n      swap2\n      swap1\n      tag_97\n      jump\t// in\n    tag_96:\n      tag_98\n      jump\t// in\n    tag_95:\n      mload(0x40)\n      tag_99\n      swap2\n      swap1\n      tag_63\n      jump\t// in\n    tag_99:\n      mload(0x40)\n      dup1\n      swap2\n      sub\n      swap1\n      return\n        /* \"contracts/UniversalNFT.sol\":3684:3736  mapping(uint16 => address) public connectedContracts */\n    tag_17:\n      callvalue\n      dup1\n      iszero\n      tag_100\n      jumpi\n      0x00\n      dup1\n      revert\n    tag_100:\n      pop\n      tag_101\n      0x04\n      dup1\n      calldatasize\n      sub\n      dup2\n      add\n      swap1\n      tag_102\n      swap2\n      swap1\n      tag_103\n      jump\t// in\n    tag_102:\n      tag_104\n      jump\t// in\n    tag_101:\n      mload(0x40)\n      tag_105\n      swap2\n      swap1\n      tag_46\n      jump\t// in\n    tag_105:\n      mload(0x40)\n      dup1\n      swap2\n      sub\n      swap1\n      return\n        /* \"contracts/UniversalNFT.sol\":1139:1333  function transferOwnership(address newOwner) public virtual onlyOwner {... */\n    tag_18:\n      callvalue\n      dup1\n      iszero\n      tag_106\n      jumpi\n      0x00\n      dup1\n      revert\n    tag_106:\n      pop\n      tag_107\n      0x04\n      dup1\n      calldatasize\n      sub\n      dup2\n      add\n      swap1\n      tag_108\n      swap2\n      swap1\n      tag_60\n      jump\t// in\n    tag_108:\n      tag_109\n      jump\t// in\n    tag_107:\n      stop\n        /* \"contracts/UniversalNFT.sol\":5672:6029  function receiveMintedNFT(... */\n    tag_19:\n      callvalue\n      dup1\n      iszero\n      tag_110\n      jumpi\n      0x00\n      dup1\n      revert\n    tag_110:\n      pop\n      tag_111\n      0x04\n      dup1\n      calldatasize\n      sub\n      dup2\n      add\n      swap1\n      tag_112\n      swap2\n      swap1\n      tag_113\n      jump\t// in\n    tag_112:\n      tag_114\n      jump\t// in\n    tag_111:\n      stop\n        /* \"contracts/UniversalNFT.sol\":1705:1723  string public name */\n    tag_25:\n      0x00\n      dup1\n      sload\n      tag_115\n      swap1\n      tag_116\n      jump\t// in\n    tag_115:\n      dup1\n      0x1f\n      add\n      0x20\n      dup1\n      swap2\n      div\n      mul\n      0x20\n      add\n      mload(0x40)\n      swap1\n      dup2\n      add\n      0x40\n      mstore\n      dup1\n      swap3\n      swap2\n      swap1\n      dup2\n      dup2\n      mstore\n      0x20\n      add\n      dup3\n      dup1\n      sload\n      tag_117\n      swap1\n      tag_116\n      jump\t// in\n    tag_117:\n      dup1\n      iszero\n      tag_118\n      jumpi\n      dup1\n      0x1f\n      lt\n      tag_119\n      jumpi\n      0x0100\n      dup1\n      dup4\n      sload\n      div\n      mul\n      dup4\n      mstore\n      swap2\n      0x20\n      add\n      swap2\n      jump(tag_118)\n    tag_119:\n      dup3\n      add\n      swap2\n      swap1\n      0x00\n      mstore\n      keccak256(0x00, 0x20)\n      swap1\n    tag_120:\n      dup2\n      sload\n      dup2\n      mstore\n      swap1\n      0x01\n      add\n      swap1\n      0x20\n      add\n      dup1\n      dup4\n      gt\n      tag_120\n      jumpi\n      dup3\n      swap1\n      sub\n      0x1f\n      and\n      dup3\n      add\n      swap2\n    tag_118:\n      pop\n      pop\n      pop\n      pop\n      pop\n      dup2\n      jump\t// out\n        /* \"contracts/UniversalNFT.sol\":3497:3520  IGateway public gateway */\n    tag_30:\n      0x06\n      0x00\n      swap1\n      sload\n      swap1\n      0x0100\n      exp\n      swap1\n      div\n      0xffffffffffffffffffffffffffffffffffffffff\n      and\n      dup2\n      jump\t// out\n        /* \"contracts/UniversalNFT.sol\":3615:3678  mapping(uint256 => mapping(uint16 => bool)) public tokenOnChain */\n    tag_37:\n      mstore(0x20, 0x09)\n      dup2\n      0x00\n      mstore\n      mstore(0x20, keccak256(0x00, 0x40))\n      dup1\n      0x00\n      mstore\n      keccak256(0x00, 0x40)\n      0x00\n      swap2\n      pop\n      swap2\n      pop\n      swap1\n      sload\n      swap1\n      0x0100\n      exp\n      swap1\n      div\n      0xff\n      and\n      dup2\n      jump\t// out\n        /* \"contracts/UniversalNFT.sol\":2149:2336  function ownerOf(uint256 tokenId) public view returns (address) {... */\n    tag_44:\n        /* \"contracts/UniversalNFT.sol\":2204:2211  address */\n      0x00\n        /* \"contracts/UniversalNFT.sol\":2223:2236  address owner */\n      dup1\n        /* \"contracts/UniversalNFT.sol\":2239:2246  _owners */\n      0x02\n        /* \"contracts/UniversalNFT.sol\":2239:2255  _owners[tokenId] */\n      0x00\n        /* \"contracts/UniversalNFT.sol\":2247:2254  tokenId */\n      dup5\n        /* \"contracts/UniversalNFT.sol\":2239:2255  _owners[tokenId] */\n      dup2\n      mstore\n      0x20\n      add\n      swap1\n      dup2\n      mstore\n      0x20\n      add\n      0x00\n      keccak256\n      0x00\n      swap1\n      sload\n      swap1\n      0x0100\n      exp\n      swap1\n      div\n      0xffffffffffffffffffffffffffffffffffffffff\n      and\n        /* \"contracts/UniversalNFT.sol\":2223:2255  address owner = _owners[tokenId] */\n      swap1\n      pop\n        /* \"contracts/UniversalNFT.sol\":2290:2291  0 */\n      0x00\n        /* \"contracts/UniversalNFT.sol\":2273:2292  owner != address(0) */\n      0xffffffffffffffffffffffffffffffffffffffff\n      and\n        /* \"contracts/UniversalNFT.sol\":2273:2278  owner */\n      dup2\n        /* \"contracts/UniversalNFT.sol\":2273:2292  owner != address(0) */\n      0xffffffffffffffffffffffffffffffffffffffff\n      and\n      sub\n        /* \"contracts/UniversalNFT.sol\":2265:2307  require(owner != address(0), \"Not minted\") */\n      tag_122\n      jumpi\n      mload(0x40)\n      0x08c379a000000000000000000000000000000000000000000000000000000000\n      dup2\n      mstore\n      0x04\n      add\n      tag_123\n      swap1\n      tag_124\n      jump\t// in\n    tag_123:\n      mload(0x40)\n      dup1\n      swap2\n      sub\n      swap1\n      revert\n    tag_122:\n        /* \"contracts/UniversalNFT.sol\":2324:2329  owner */\n      dup1\n        /* \"contracts/UniversalNFT.sol\":2317:2329  return owner */\n      swap2\n      pop\n      pop\n        /* \"contracts/UniversalNFT.sol\":2149:2336  function ownerOf(uint256 tokenId) public view returns (address) {... */\n      swap2\n      swap1\n      pop\n      jump\t// out\n        /* \"contracts/UniversalNFT.sol\":3566:3609  mapping(uint256 => string) public tokenURIs */\n    tag_50:\n      mstore(0x20, 0x08)\n      dup1\n      0x00\n      mstore\n      keccak256(0x00, 0x40)\n      0x00\n      swap2\n      pop\n      swap1\n      pop\n      dup1\n      sload\n      tag_125\n      swap1\n      tag_116\n      jump\t// in\n    tag_125:\n      dup1\n      0x1f\n      add\n      0x20\n      dup1\n      swap2\n      div\n      mul\n      0x20\n      add\n      mload(0x40)\n      swap1\n      dup2\n      add\n      0x40\n      mstore\n      dup1\n      swap3\n      swap2\n      swap1\n      dup2\n      dup2\n      mstore\n      0x20\n      add\n      dup3\n      dup1\n      sload\n      tag_126\n      swap1\n      tag_116\n      jump\t// in\n    tag_126:\n      dup1\n      iszero\n      tag_127\n      jumpi\n      dup1\n      0x1f\n      lt\n      tag_128\n      jumpi\n      0x0100\n      dup1\n      dup4\n      sload\n      div\n      mul\n      dup4\n      mstore\n      swap2\n      0x20\n      add\n      swap2\n      jump(tag_127)\n    tag_128:\n      dup3\n      add\n      swap2\n      swap1\n      0x00\n      mstore\n      keccak256(0x00, 0x20)\n      swap1\n    tag_129:\n      dup2\n      sload\n      dup2\n      mstore\n      swap1\n      0x01\n      add\n      swap1\n      0x20\n      add\n      dup1\n      dup4\n      gt\n      tag_129\n      jumpi\n      dup3\n      swap1\n      sub\n      0x1f\n      and\n      dup3\n      add\n      swap2\n    tag_127:\n      pop\n      pop\n      pop\n      pop\n      pop\n      dup2\n      jump\t// out\n        /* \"contracts/UniversalNFT.sol\":6228:6368  function isTokenOnChain(uint256 tokenId, uint16 chainId) external view returns (bool) {... */\n    tag_55:\n        /* \"contracts/UniversalNFT.sol\":6308:6312  bool */\n      0x00\n        /* \"contracts/UniversalNFT.sol\":6331:6343  tokenOnChain */\n      0x09\n        /* \"contracts/UniversalNFT.sol\":6331:6352  tokenOnChain[tokenId] */\n      0x00\n        /* \"contracts/UniversalNFT.sol\":6344:6351  tokenId */\n      dup5\n        /* \"contracts/UniversalNFT.sol\":6331:6352  tokenOnChain[tokenId] */\n      dup2\n      mstore\n      0x20\n      add\n      swap1\n      dup2\n      mstore\n      0x20\n      add\n      0x00\n      keccak256\n        /* \"contracts/UniversalNFT.sol\":6331:6361  tokenOnChain[tokenId][chainId] */\n      0x00\n        /* \"contracts/UniversalNFT.sol\":6353:6360  chainId */\n      dup4\n        /* \"contracts/UniversalNFT.sol\":6331:6361  tokenOnChain[tokenId][chainId] */\n      0xffff\n      and\n      0xffff\n      and\n      dup2\n      mstore\n      0x20\n      add\n      swap1\n      dup2\n      mstore\n      0x20\n      add\n      0x00\n      keccak256\n      0x00\n      swap1\n      sload\n      swap1\n      0x0100\n      exp\n      swap1\n      div\n      0xff\n      and\n        /* \"contracts/UniversalNFT.sol\":6324:6361  return tokenOnChain[tokenId][chainId] */\n      swap1\n      pop\n        /* \"contracts/UniversalNFT.sol\":6228:6368  function isTokenOnChain(uint256 tokenId, uint16 chainId) external view returns (bool) {... */\n      swap3\n      swap2\n      pop\n      pop\n      jump\t// out\n        /* \"contracts/UniversalNFT.sol\":1985:2143  function balanceOf(address owner) public view returns (uint256) {... */\n    tag_61:\n        /* \"contracts/UniversalNFT.sol\":2040:2047  uint256 */\n      0x00\n        /* \"contracts/UniversalNFT.sol\":2084:2085  0 */\n      dup1\n        /* \"contracts/UniversalNFT.sol\":2067:2086  owner != address(0) */\n      0xffffffffffffffffffffffffffffffffffffffff\n      and\n        /* \"contracts/UniversalNFT.sol\":2067:2072  owner */\n      dup3\n        /* \"contracts/UniversalNFT.sol\":2067:2086  owner != address(0) */\n      0xffffffffffffffffffffffffffffffffffffffff\n      and\n      sub\n        /* \"contracts/UniversalNFT.sol\":2059:2103  require(owner != address(0), \"Zero address\") */\n      tag_132\n      jumpi\n      mload(0x40)\n      0x08c379a000000000000000000000000000000000000000000000000000000000\n      dup2\n      mstore\n      0x04\n      add\n      tag_133\n      swap1\n      tag_134\n      jump\t// in\n    tag_133:\n      mload(0x40)\n      dup1\n      swap2\n      sub\n      swap1\n      revert\n    tag_132:\n        /* \"contracts/UniversalNFT.sol\":2120:2129  _balances */\n      0x03\n        /* \"contracts/UniversalNFT.sol\":2120:2136  _balances[owner] */\n      0x00\n        /* \"contracts/UniversalNFT.sol\":2130:2135  owner */\n      dup4\n        /* \"contracts/UniversalNFT.sol\":2120:2136  _balances[owner] */\n      0xffffffffffffffffffffffffffffffffffffffff\n      and\n      0xffffffffffffffffffffffffffffffffffffffff\n      and\n      dup2\n      mstore\n      0x20\n      add\n      swap1\n      dup2\n      mstore\n      0x20\n      add\n      0x00\n      keccak256\n      sload\n        /* \"contracts/UniversalNFT.sol\":2113:2136  return _balances[owner] */\n      swap1\n      pop\n        /* \"contracts/UniversalNFT.sol\":1985:2143  function balanceOf(address owner) public view returns (uint256) {... */\n      swap2\n      swap1\n      pop\n      jump\t// out\n        /* \"contracts/UniversalNFT.sol\":1048:1133  function owner() public view virtual returns (address) {... */\n    tag_66:\n        /* \"contracts/UniversalNFT.sol\":1094:1101  address */\n      0x00\n        /* \"contracts/UniversalNFT.sol\":1120:1126  _owner */\n      0x04\n      0x00\n      swap1\n      sload\n      swap1\n      0x0100\n      exp\n      swap1\n      div\n      0xffffffffffffffffffffffffffffffffffffffff\n      and\n        /* \"contracts/UniversalNFT.sol\":1113:1126  return _owner */\n      swap1\n      pop\n        /* \"contracts/UniversalNFT.sol\":1048:1133  function owner() public view virtual returns (address) {... */\n      swap1\n      jump\t// out\n        /* \"contracts/UniversalNFT.sol\":1729:1749  string public symbol */\n    tag_70:\n      0x01\n      dup1\n      sload\n      tag_136\n      swap1\n      tag_116\n      jump\t// in\n    tag_136:\n      dup1\n      0x1f\n      add\n      0x20\n      dup1\n      swap2\n      div\n      mul\n      0x20\n      add\n      mload(0x40)\n      swap1\n      dup2\n      add\n      0x40\n      mstore\n      dup1\n      swap3\n      swap2\n      swap1\n      dup2\n      dup2\n      mstore\n      0x20\n      add\n      dup3\n      dup1\n      sload\n      tag_137\n      swap1\n      tag_116\n      jump\t// in\n    tag_137:\n      dup1\n      iszero\n      tag_138\n      jumpi\n      dup1\n      0x1f\n      lt\n      tag_139\n      jumpi\n      0x0100\n      dup1\n      dup4\n      sload\n      div\n      mul\n      dup4\n      mstore\n      swap2\n      0x20\n      add\n      swap2\n      jump(tag_138)\n    tag_139:\n      dup3\n      add\n      swap2\n      swap1\n      0x00\n      mstore\n      keccak256(0x00, 0x20)\n      swap1\n    tag_140:\n      dup2\n      sload\n      dup2\n      mstore\n      swap1\n      0x01\n      add\n      swap1\n      0x20\n      add\n      dup1\n      dup4\n      gt\n      tag_140\n      jumpi\n      dup3\n      swap1\n      sub\n      0x1f\n      and\n      dup3\n      add\n      swap2\n    tag_138:\n      pop\n      pop\n      pop\n      pop\n      pop\n      dup2\n      jump\t// out\n        /* \"contracts/UniversalNFT.sol\":3526:3559  address public universalNFTBridge */\n    tag_74:\n      0x07\n      0x00\n      swap1\n      sload\n      swap1\n      0x0100\n      exp\n      swap1\n      div\n      0xffffffffffffffffffffffffffffffffffffffff\n      and\n      dup2\n      jump\t// out\n        /* \"contracts/UniversalNFT.sol\":4166:4270  function setUniversalNFTBridge(address _bridge) external onlyOwner {... */\n    tag_79:\n        /* \"contracts/UniversalNFT.sol\":975:987  _msgSender() */\n      tag_142\n        /* \"contracts/UniversalNFT.sol\":975:985  _msgSender */\n      tag_143\n        /* \"contracts/UniversalNFT.sol\":975:987  _msgSender() */\n      jump\t// in\n    tag_142:\n        /* \"contracts/UniversalNFT.sol\":964:987  owner() == _msgSender() */\n      0xffffffffffffffffffffffffffffffffffffffff\n      and\n        /* \"contracts/UniversalNFT.sol\":964:971  owner() */\n      tag_144\n        /* \"contracts/UniversalNFT.sol\":964:969  owner */\n      tag_66\n        /* \"contracts/UniversalNFT.sol\":964:971  owner() */\n      jump\t// in\n    tag_144:\n        /* \"contracts/UniversalNFT.sol\":964:987  owner() == _msgSender() */\n      0xffffffffffffffffffffffffffffffffffffffff\n      and\n      eq\n        /* \"contracts/UniversalNFT.sol\":956:1024  require(owner() == _msgSender(), \"Ownable: caller is not the owner\") */\n      tag_145\n      jumpi\n      mload(0x40)\n      0x08c379a000000000000000000000000000000000000000000000000000000000\n      dup2\n      mstore\n      0x04\n      add\n      tag_146\n      swap1\n      tag_147\n      jump\t// in\n    tag_146:\n      mload(0x40)\n      dup1\n      swap2\n      sub\n      swap1\n      revert\n    tag_145:\n        /* \"contracts/UniversalNFT.sol\":4260:4267  _bridge */\n      dup1\n        /* \"contracts/UniversalNFT.sol\":4239:4257  universalNFTBridge */\n      0x07\n      0x00\n        /* \"contracts/UniversalNFT.sol\":4239:4267  universalNFTBridge = _bridge */\n      0x0100\n      exp\n      dup2\n      sload\n      dup2\n      0xffffffffffffffffffffffffffffffffffffffff\n      mul\n      not\n      and\n      swap1\n      dup4\n      0xffffffffffffffffffffffffffffffffffffffff\n      and\n      mul\n      or\n      swap1\n      sstore\n      pop\n        /* \"contracts/UniversalNFT.sol\":4166:4270  function setUniversalNFTBridge(address _bridge) external onlyOwner {... */\n      pop\n      jump\t// out\n        /* \"contracts/UniversalNFT.sol\":4859:5666  function bridgeNFT(... */\n    tag_83:\n        /* \"contracts/UniversalNFT.sol\":5056:5066  msg.sender */\n      caller\n        /* \"contracts/UniversalNFT.sol\":5036:5066  ownerOf(tokenId) == msg.sender */\n      0xffffffffffffffffffffffffffffffffffffffff\n      and\n        /* \"contracts/UniversalNFT.sol\":5036:5052  ownerOf(tokenId) */\n      tag_150\n        /* \"contracts/UniversalNFT.sol\":5044:5051  tokenId */\n      dup7\n        /* \"contracts/UniversalNFT.sol\":5036:5043  ownerOf */\n      tag_44\n        /* \"contracts/UniversalNFT.sol\":5036:5052  ownerOf(tokenId) */\n      jump\t// in\n    tag_150:\n        /* \"contracts/UniversalNFT.sol\":5036:5066  ownerOf(tokenId) == msg.sender */\n      0xffffffffffffffffffffffffffffffffffffffff\n      and\n      eq\n        /* \"contracts/UniversalNFT.sol\":5028:5086  require(ownerOf(tokenId) == msg.sender, \"Not token owner\") */\n      tag_151\n      jumpi\n      mload(0x40)\n      0x08c379a000000000000000000000000000000000000000000000000000000000\n      dup2\n      mstore\n      0x04\n      add\n      tag_152\n      swap1\n      tag_153\n      jump\t// in\n    tag_152:\n      mload(0x40)\n      dup1\n      swap2\n      sub\n      swap1\n      revert\n    tag_151:\n        /* \"contracts/UniversalNFT.sol\":5152:5153  0 */\n      0x00\n        /* \"contracts/UniversalNFT.sol\":5104:5154  connectedContracts[destinationChain] != address(0) */\n      0xffffffffffffffffffffffffffffffffffffffff\n      and\n        /* \"contracts/UniversalNFT.sol\":5104:5122  connectedContracts */\n      0x0a\n        /* \"contracts/UniversalNFT.sol\":5104:5140  connectedContracts[destinationChain] */\n      0x00\n        /* \"contracts/UniversalNFT.sol\":5123:5139  destinationChain */\n      dup7\n        /* \"contracts/UniversalNFT.sol\":5104:5140  connectedContracts[destinationChain] */\n      0xffff\n      and\n      0xffff\n      and\n      dup2\n      mstore\n      0x20\n      add\n      swap1\n      dup2\n      mstore\n      0x20\n      add\n      0x00\n      keccak256\n      0x00\n      swap1\n      sload\n      swap1\n      0x0100\n      exp\n      swap1\n      div\n      0xffffffffffffffffffffffffffffffffffffffff\n      and\n        /* \"contracts/UniversalNFT.sol\":5104:5154  connectedContracts[destinationChain] != address(0) */\n      0xffffffffffffffffffffffffffffffffffffffff\n      and\n      sub\n        /* \"contracts/UniversalNFT.sol\":5096:5178  require(connectedContracts[destinationChain] != address(0), \"Chain not connected\") */\n      tag_154\n      jumpi\n      mload(0x40)\n      0x08c379a000000000000000000000000000000000000000000000000000000000\n      dup2\n      mstore\n      0x04\n      add\n      tag_155\n      swap1\n      tag_156\n      jump\t// in\n    tag_155:\n      mload(0x40)\n      dup1\n      swap2\n      sub\n      swap1\n      revert\n    tag_154:\n        /* \"contracts/UniversalNFT.sol\":5189:5203  _burn(tokenId) */\n      tag_157\n        /* \"contracts/UniversalNFT.sol\":5195:5202  tokenId */\n      dup6\n        /* \"contracts/UniversalNFT.sol\":5189:5194  _burn */\n      tag_158\n        /* \"contracts/UniversalNFT.sol\":5189:5203  _burn(tokenId) */\n      jump\t// in\n    tag_157:\n        /* \"contracts/UniversalNFT.sol\":5240:5245  false */\n      0x00\n        /* \"contracts/UniversalNFT.sol\":5213:5225  tokenOnChain */\n      0x09\n        /* \"contracts/UniversalNFT.sol\":5213:5234  tokenOnChain[tokenId] */\n      0x00\n        /* \"contracts/UniversalNFT.sol\":5226:5233  tokenId */\n      dup8\n        /* \"contracts/UniversalNFT.sol\":5213:5234  tokenOnChain[tokenId] */\n      dup2\n      mstore\n      0x20\n      add\n      swap1\n      dup2\n      mstore\n      0x20\n      add\n      0x00\n      keccak256\n        /* \"contracts/UniversalNFT.sol\":5213:5237  tokenOnChain[tokenId][0] */\n      0x00\n        /* \"contracts/UniversalNFT.sol\":5235:5236  0 */\n      dup1\n        /* \"contracts/UniversalNFT.sol\":5213:5237  tokenOnChain[tokenId][0] */\n      0xffff\n      and\n      dup2\n      mstore\n      0x20\n      add\n      swap1\n      dup2\n      mstore\n      0x20\n      add\n      0x00\n      keccak256\n      0x00\n        /* \"contracts/UniversalNFT.sol\":5213:5245  tokenOnChain[tokenId][0] = false */\n      0x0100\n      exp\n      dup2\n      sload\n      dup2\n      0xff\n      mul\n      not\n      and\n      swap1\n      dup4\n      iszero\n      iszero\n      mul\n      or\n      swap1\n      sstore\n      pop\n        /* \"contracts/UniversalNFT.sol\":5257:5269  bool success */\n      0x00\n        /* \"contracts/UniversalNFT.sol\":5275:5293  universalNFTBridge */\n      0x07\n      0x00\n      swap1\n      sload\n      swap1\n      0x0100\n      exp\n      swap1\n      div\n      0xffffffffffffffffffffffffffffffffffffffff\n      and\n        /* \"contracts/UniversalNFT.sol\":5275:5298  universalNFTBridge.call */\n      0xffffffffffffffffffffffffffffffffffffffff\n      and\n        /* \"contracts/UniversalNFT.sol\":5306:5315  msg.value */\n      callvalue\n        /* \"contracts/UniversalNFT.sol\":5430:5437  tokenId */\n      dup8\n        /* \"contracts/UniversalNFT.sol\":5455:5471  destinationChain */\n      dup8\n        /* \"contracts/UniversalNFT.sol\":5489:5498  recipient */\n      dup8\n        /* \"contracts/UniversalNFT.sol\":5516:5523  message */\n      dup8\n      dup8\n        /* \"contracts/UniversalNFT.sol\":5330:5537  abi.encodeWithSignature(... */\n      add(0x24, mload(0x40))\n      tag_159\n      swap6\n      swap5\n      swap4\n      swap3\n      swap2\n      swap1\n      tag_160\n      jump\t// in\n    tag_159:\n      mload(0x40)\n      0x20\n      dup2\n      dup4\n      sub\n      sub\n      dup2\n      mstore\n      swap1\n      0x40\n      mstore\n      and(not(0xffffffffffffffffffffffffffffffffffffffffffffffffffffffff), 0xb1d31d9800000000000000000000000000000000000000000000000000000000)\n      0x20\n      dup3\n      add\n      dup1\n      mload\n      0xffffffffffffffffffffffffffffffffffffffffffffffffffffffff\n      dup4\n      dup2\n      dup4\n      and\n      or\n      dup4\n      mstore\n      pop\n      pop\n      pop\n      pop\n        /* \"contracts/UniversalNFT.sol\":5275:5547  universalNFTBridge.call{value: msg.value}(... */\n      mload(0x40)\n      tag_161\n      swap2\n      swap1\n      tag_162\n      jump\t// in\n    tag_161:\n      0x00\n      mload(0x40)\n      dup1\n      dup4\n      sub\n      dup2\n      dup6\n      dup8\n      gas\n      call\n      swap3\n      pop\n      pop\n      pop\n      returndatasize\n      dup1\n      0x00\n      dup2\n      eq\n      tag_165\n      jumpi\n      mload(0x40)\n      swap2\n      pop\n      and(add(returndatasize, 0x3f), not(0x1f))\n      dup3\n      add\n      0x40\n      mstore\n      returndatasize\n      dup3\n      mstore\n      returndatasize\n      0x00\n      0x20\n      dup5\n      add\n      returndatacopy\n      jump(tag_164)\n    tag_165:\n      0x60\n      swap2\n      pop\n    tag_164:\n      pop\n        /* \"contracts/UniversalNFT.sol\":5256:5547  (bool success, ) = universalNFTBridge.call{value: msg.value}(... */\n      pop\n      swap1\n      pop\n        /* \"contracts/UniversalNFT.sol\":5565:5572  success */\n      dup1\n        /* \"contracts/UniversalNFT.sol\":5557:5595  require(success, \"Bridge call failed\") */\n      tag_166\n      jumpi\n      mload(0x40)\n      0x08c379a000000000000000000000000000000000000000000000000000000000\n      dup2\n      mstore\n      0x04\n      add\n      tag_167\n      swap1\n      tag_168\n      jump\t// in\n    tag_167:\n      mload(0x40)\n      dup1\n      swap2\n      sub\n      swap1\n      revert\n    tag_166:\n        /* \"contracts/UniversalNFT.sol\":5649:5658  recipient */\n      dup4\n        /* \"contracts/UniversalNFT.sol\":5611:5659  NFTBridged(tokenId, destinationChain, recipient) */\n      0xffffffffffffffffffffffffffffffffffffffff\n      and\n        /* \"contracts/UniversalNFT.sol\":5631:5647  destinationChain */\n      dup6\n        /* \"contracts/UniversalNFT.sol\":5611:5659  NFTBridged(tokenId, destinationChain, recipient) */\n      0xffff\n      and\n        /* \"contracts/UniversalNFT.sol\":5622:5629  tokenId */\n      dup8\n        /* \"contracts/UniversalNFT.sol\":5611:5659  NFTBridged(tokenId, destinationChain, recipient) */\n      0xa56c1c782bbc87cbabded955a12158699c1b27917e82fbb40f468644bf1b83fe\n      mload(0x40)\n      mload(0x40)\n      dup1\n      swap2\n      sub\n      swap1\n      log4\n        /* \"contracts/UniversalNFT.sol\":5018:5666  {... */\n      pop\n        /* \"contracts/UniversalNFT.sol\":4859:5666  function bridgeNFT(... */\n      pop\n      pop\n      pop\n      pop\n      pop\n      jump\t// out\n        /* \"contracts/UniversalNFT.sol\":4276:4481  function setConnected(uint16 chainId, address contractAddress) external onlyOwner {... */\n    tag_88:\n        /* \"contracts/UniversalNFT.sol\":975:987  _msgSender() */\n      tag_170\n        /* \"contracts/UniversalNFT.sol\":975:985  _msgSender */\n      tag_143\n        /* \"contracts/UniversalNFT.sol\":975:987  _msgSender() */\n      jump\t// in\n    tag_170:\n        /* \"contracts/UniversalNFT.sol\":964:987  owner() == _msgSender() */\n      0xffffffffffffffffffffffffffffffffffffffff\n      and\n        /* \"contracts/UniversalNFT.sol\":964:971  owner() */\n      tag_171\n        /* \"contracts/UniversalNFT.sol\":964:969  owner */\n      tag_66\n        /* \"contracts/UniversalNFT.sol\":964:971  owner() */\n      jump\t// in\n    tag_171:\n        /* \"contracts/UniversalNFT.sol\":964:987  owner() == _msgSender() */\n      0xffffffffffffffffffffffffffffffffffffffff\n      and\n      eq\n        /* \"contracts/UniversalNFT.sol\":956:1024  require(owner() == _msgSender(), \"Ownable: caller is not the owner\") */\n      tag_172\n      jumpi\n      mload(0x40)\n      0x08c379a000000000000000000000000000000000000000000000000000000000\n      dup2\n      mstore\n      0x04\n      add\n      tag_173\n      swap1\n      tag_147\n      jump\t// in\n    tag_173:\n      mload(0x40)\n      dup1\n      swap2\n      sub\n      swap1\n      revert\n    tag_172:\n        /* \"contracts/UniversalNFT.sol\":4398:4413  contractAddress */\n      dup1\n        /* \"contracts/UniversalNFT.sol\":4368:4386  connectedContracts */\n      0x0a\n        /* \"contracts/UniversalNFT.sol\":4368:4395  connectedContracts[chainId] */\n      0x00\n        /* \"contracts/UniversalNFT.sol\":4387:4394  chainId */\n      dup5\n        /* \"contracts/UniversalNFT.sol\":4368:4395  connectedContracts[chainId] */\n      0xffff\n      and\n      0xffff\n      and\n      dup2\n      mstore\n      0x20\n      add\n      swap1\n      dup2\n      mstore\n      0x20\n      add\n      0x00\n      keccak256\n      0x00\n        /* \"contracts/UniversalNFT.sol\":4368:4413  connectedContracts[chainId] = contractAddress */\n      0x0100\n      exp\n      dup2\n      sload\n      dup2\n      0xffffffffffffffffffffffffffffffffffffffff\n      mul\n      not\n      and\n      swap1\n      dup4\n      0xffffffffffffffffffffffffffffffffffffffff\n      and\n      mul\n      or\n      swap1\n      sstore\n      pop\n        /* \"contracts/UniversalNFT.sol\":4458:4473  contractAddress */\n      dup1\n        /* \"contracts/UniversalNFT.sol\":4428:4474  ConnectedContractSet(chainId, contractAddress) */\n      0xffffffffffffffffffffffffffffffffffffffff\n      and\n        /* \"contracts/UniversalNFT.sol\":4449:4456  chainId */\n      dup3\n        /* \"contracts/UniversalNFT.sol\":4428:4474  ConnectedContractSet(chainId, contractAddress) */\n      0xffff\n      and\n      0x69689b6795f3e82b6c7a420b4d2b8039ada3158b345f25e089d05808e874ce03\n      mload(0x40)\n      mload(0x40)\n      dup1\n      swap2\n      sub\n      swap1\n      log3\n        /* \"contracts/UniversalNFT.sol\":4276:4481  function setConnected(uint16 chainId, address contractAddress) external onlyOwner {... */\n      pop\n      pop\n      jump\t// out\n        /* \"contracts/UniversalNFT.sol\":6035:6222  function tokenURI(uint256 tokenId) public view returns (string memory) {... */\n    tag_92:\n        /* \"contracts/UniversalNFT.sol\":6091:6104  string memory */\n      0x60\n        /* \"contracts/UniversalNFT.sol\":6153:6154  0 */\n      0x00\n        /* \"contracts/UniversalNFT.sol\":6124:6155  _ownerOf(tokenId) != address(0) */\n      0xffffffffffffffffffffffffffffffffffffffff\n      and\n        /* \"contracts/UniversalNFT.sol\":6124:6141  _ownerOf(tokenId) */\n      tag_176\n        /* \"contracts/UniversalNFT.sol\":6133:6140  tokenId */\n      dup4\n        /* \"contracts/UniversalNFT.sol\":6124:6132  _ownerOf */\n      tag_177\n        /* \"contracts/UniversalNFT.sol\":6124:6141  _ownerOf(tokenId) */\n      jump\t// in\n    tag_176:\n        /* \"contracts/UniversalNFT.sol\":6124:6155  _ownerOf(tokenId) != address(0) */\n      0xffffffffffffffffffffffffffffffffffffffff\n      and\n      sub\n        /* \"contracts/UniversalNFT.sol\":6116:6180  require(_ownerOf(tokenId) != address(0), \"Token does not exist\") */\n      tag_178\n      jumpi\n      mload(0x40)\n      0x08c379a000000000000000000000000000000000000000000000000000000000\n      dup2\n      mstore\n      0x04\n      add\n      tag_179\n      swap1\n      tag_180\n      jump\t// in\n    tag_179:\n      mload(0x40)\n      dup1\n      swap2\n      sub\n      swap1\n      revert\n    tag_178:\n        /* \"contracts/UniversalNFT.sol\":6197:6206  tokenURIs */\n      0x08\n        /* \"contracts/UniversalNFT.sol\":6197:6215  tokenURIs[tokenId] */\n      0x00\n        /* \"contracts/UniversalNFT.sol\":6207:6214  tokenId */\n      dup4\n        /* \"contracts/UniversalNFT.sol\":6197:6215  tokenURIs[tokenId] */\n      dup2\n      mstore\n      0x20\n      add\n      swap1\n      dup2\n      mstore\n      0x20\n      add\n      0x00\n      keccak256\n        /* \"contracts/UniversalNFT.sol\":6190:6215  return tokenURIs[tokenId] */\n      dup1\n      sload\n      tag_181\n      swap1\n      tag_116\n      jump\t// in\n    tag_181:\n      dup1\n      0x1f\n      add\n      0x20\n      dup1\n      swap2\n      div\n      mul\n      0x20\n      add\n      mload(0x40)\n      swap1\n      dup2\n      add\n      0x40\n      mstore\n      dup1\n      swap3\n      swap2\n      swap1\n      dup2\n      dup2\n      mstore\n      0x20\n      add\n      dup3\n      dup1\n      sload\n      tag_182\n      swap1\n      tag_116\n      jump\t// in\n    tag_182:\n      dup1\n      iszero\n      tag_183\n      jumpi\n      dup1\n      0x1f\n      lt\n      tag_184\n      jumpi\n      0x0100\n      dup1\n      dup4\n      sload\n      div\n      mul\n      dup4\n      mstore\n      swap2\n      0x20\n      add\n      swap2\n      jump(tag_183)\n    tag_184:\n      dup3\n      add\n      swap2\n      swap1\n      0x00\n      mstore\n      keccak256(0x00, 0x20)\n      swap1\n    tag_185:\n      dup2\n      sload\n      dup2\n      mstore\n      swap1\n      0x01\n      add\n      swap1\n      0x20\n      add\n      dup1\n      dup4\n      gt\n      tag_185\n      jumpi\n      dup3\n      swap1\n      sub\n      0x1f\n      and\n      dup3\n      add\n      swap2\n    tag_183:\n      pop\n      pop\n      pop\n      pop\n      pop\n      swap1\n      pop\n        /* \"contracts/UniversalNFT.sol\":6035:6222  function tokenURI(uint256 tokenId) public view returns (string memory) {... */\n      swap2\n      swap1\n      pop\n      jump\t// out\n        /* \"contracts/UniversalNFT.sol\":4487:4853  function mint(address to, string memory metadataURI) external returns (uint256) {... */\n    tag_98:\n        /* \"contracts/UniversalNFT.sol\":4558:4565  uint256 */\n      0x00\n        /* \"contracts/UniversalNFT.sol\":4577:4592  uint256 tokenId */\n      dup1\n        /* \"contracts/UniversalNFT.sol\":4595:4620  _tokenIdCounter.current() */\n      tag_187\n        /* \"contracts/UniversalNFT.sol\":4595:4610  _tokenIdCounter */\n      0x05\n        /* \"contracts/UniversalNFT.sol\":4595:4618  _tokenIdCounter.current */\n      tag_188\n        /* \"contracts/UniversalNFT.sol\":4595:4620  _tokenIdCounter.current() */\n      jump\t// in\n    tag_187:\n        /* \"contracts/UniversalNFT.sol\":4577:4620  uint256 tokenId = _tokenIdCounter.current() */\n      swap1\n      pop\n        /* \"contracts/UniversalNFT.sol\":4630:4657  _tokenIdCounter.increment() */\n      tag_189\n        /* \"contracts/UniversalNFT.sol\":4630:4645  _tokenIdCounter */\n      0x05\n        /* \"contracts/UniversalNFT.sol\":4630:4655  _tokenIdCounter.increment */\n      tag_190\n        /* \"contracts/UniversalNFT.sol\":4630:4657  _tokenIdCounter.increment() */\n      jump\t// in\n    tag_189:\n        /* \"contracts/UniversalNFT.sol\":4667:4689  _safeMint(to, tokenId) */\n      tag_191\n        /* \"contracts/UniversalNFT.sol\":4677:4679  to */\n      dup5\n        /* \"contracts/UniversalNFT.sol\":4681:4688  tokenId */\n      dup3\n        /* \"contracts/UniversalNFT.sol\":4667:4676  _safeMint */\n      tag_192\n        /* \"contracts/UniversalNFT.sol\":4667:4689  _safeMint(to, tokenId) */\n      jump\t// in\n    tag_191:\n        /* \"contracts/UniversalNFT.sol\":4720:4731  metadataURI */\n      dup3\n        /* \"contracts/UniversalNFT.sol\":4699:4708  tokenURIs */\n      0x08\n        /* \"contracts/UniversalNFT.sol\":4699:4717  tokenURIs[tokenId] */\n      0x00\n        /* \"contracts/UniversalNFT.sol\":4709:4716  tokenId */\n      dup4\n        /* \"contracts/UniversalNFT.sol\":4699:4717  tokenURIs[tokenId] */\n      dup2\n      mstore\n      0x20\n      add\n      swap1\n      dup2\n      mstore\n      0x20\n      add\n      0x00\n      keccak256\n        /* \"contracts/UniversalNFT.sol\":4699:4731  tokenURIs[tokenId] = metadataURI */\n      swap1\n      dup2\n      tag_193\n      swap2\n      swap1\n      tag_194\n      jump\t// in\n    tag_193:\n      pop\n        /* \"contracts/UniversalNFT.sol\":4768:4772  true */\n      0x01\n        /* \"contracts/UniversalNFT.sol\":4741:4753  tokenOnChain */\n      0x09\n        /* \"contracts/UniversalNFT.sol\":4741:4762  tokenOnChain[tokenId] */\n      0x00\n        /* \"contracts/UniversalNFT.sol\":4754:4761  tokenId */\n      dup4\n        /* \"contracts/UniversalNFT.sol\":4741:4762  tokenOnChain[tokenId] */\n      dup2\n      mstore\n      0x20\n      add\n      swap1\n      dup2\n      mstore\n      0x20\n      add\n      0x00\n      keccak256\n        /* \"contracts/UniversalNFT.sol\":4741:4765  tokenOnChain[tokenId][0] */\n      0x00\n        /* \"contracts/UniversalNFT.sol\":4763:4764  0 */\n      dup1\n        /* \"contracts/UniversalNFT.sol\":4741:4765  tokenOnChain[tokenId][0] */\n      0xffff\n      and\n      dup2\n      mstore\n      0x20\n      add\n      swap1\n      dup2\n      mstore\n      0x20\n      add\n      0x00\n      keccak256\n      0x00\n        /* \"contracts/UniversalNFT.sol\":4741:4772  tokenOnChain[tokenId][0] = true */\n      0x0100\n      exp\n      dup2\n      sload\n      dup2\n      0xff\n      mul\n      not\n      and\n      swap1\n      dup4\n      iszero\n      iszero\n      mul\n      or\n      swap1\n      sstore\n      pop\n        /* \"contracts/UniversalNFT.sol\":4806:4808  to */\n      dup4\n        /* \"contracts/UniversalNFT.sol\":4787:4822  NFTMinted(tokenId, to, metadataURI) */\n      0xffffffffffffffffffffffffffffffffffffffff\n      and\n        /* \"contracts/UniversalNFT.sol\":4797:4804  tokenId */\n      dup2\n        /* \"contracts/UniversalNFT.sol\":4787:4822  NFTMinted(tokenId, to, metadataURI) */\n      0x06becd955c918828f6e985541acbf49cc842c9e9bd569fffc7698e721ef13575\n        /* \"contracts/UniversalNFT.sol\":4810:4821  metadataURI */\n      dup6\n        /* \"contracts/UniversalNFT.sol\":4787:4822  NFTMinted(tokenId, to, metadataURI) */\n      mload(0x40)\n      tag_195\n      swap2\n      swap1\n      tag_27\n      jump\t// in\n    tag_195:\n      mload(0x40)\n      dup1\n      swap2\n      sub\n      swap1\n      log3\n        /* \"contracts/UniversalNFT.sol\":4839:4846  tokenId */\n      dup1\n        /* \"contracts/UniversalNFT.sol\":4832:4846  return tokenId */\n      swap2\n      pop\n      pop\n        /* \"contracts/UniversalNFT.sol\":4487:4853  function mint(address to, string memory metadataURI) external returns (uint256) {... */\n      swap3\n      swap2\n      pop\n      pop\n      jump\t// out\n        /* \"contracts/UniversalNFT.sol\":3684:3736  mapping(uint16 => address) public connectedContracts */\n    tag_104:\n      mstore(0x20, 0x0a)\n      dup1\n      0x00\n      mstore\n      keccak256(0x00, 0x40)\n      0x00\n      swap2\n      pop\n      sload\n      swap1\n      0x0100\n      exp\n      swap1\n      div\n      0xffffffffffffffffffffffffffffffffffffffff\n      and\n      dup2\n      jump\t// out\n        /* \"contracts/UniversalNFT.sol\":1139:1333  function transferOwnership(address newOwner) public virtual onlyOwner {... */\n    tag_109:\n        /* \"contracts/UniversalNFT.sol\":975:987  _msgSender() */\n      tag_197\n        /* \"contracts/UniversalNFT.sol\":975:985  _msgSender */\n      tag_143\n        /* \"contracts/UniversalNFT.sol\":975:987  _msgSender() */\n      jump\t// in\n    tag_197:\n        /* \"contracts/UniversalNFT.sol\":964:987  owner() == _msgSender() */\n      0xffffffffffffffffffffffffffffffffffffffff\n      and\n        /* \"contracts/UniversalNFT.sol\":964:971  owner() */\n      tag_198\n        /* \"contracts/UniversalNFT.sol\":964:969  owner */\n      tag_66\n        /* \"contracts/UniversalNFT.sol\":964:971  owner() */\n      jump\t// in\n    tag_198:\n        /* \"contracts/UniversalNFT.sol\":964:987  owner() == _msgSender() */\n      0xffffffffffffffffffffffffffffffffffffffff\n      and\n      eq\n        /* \"contracts/UniversalNFT.sol\":956:1024  require(owner() == _msgSender(), \"Ownable: caller is not the owner\") */\n      tag_199\n      jumpi\n      mload(0x40)\n      0x08c379a000000000000000000000000000000000000000000000000000000000\n      dup2\n      mstore\n      0x04\n      add\n      tag_200\n      swap1\n      tag_147\n      jump\t// in\n    tag_200:\n      mload(0x40)\n      dup1\n      swap2\n      sub\n      swap1\n      revert\n    tag_199:\n        /* \"contracts/UniversalNFT.sol\":1247:1248  0 */\n      0x00\n        /* \"contracts/UniversalNFT.sol\":1227:1249  newOwner != address(0) */\n      0xffffffffffffffffffffffffffffffffffffffff\n      and\n        /* \"contracts/UniversalNFT.sol\":1227:1235  newOwner */\n      dup2\n        /* \"contracts/UniversalNFT.sol\":1227:1249  newOwner != address(0) */\n      0xffffffffffffffffffffffffffffffffffffffff\n      and\n      sub\n        /* \"contracts/UniversalNFT.sol\":1219:1288  require(newOwner != address(0), \"Ownable: new owner is zero address\") */\n      tag_202\n      jumpi\n      mload(0x40)\n      0x08c379a000000000000000000000000000000000000000000000000000000000\n      dup2\n      mstore\n      0x04\n      add\n      tag_203\n      swap1\n      tag_204\n      jump\t// in\n    tag_203:\n      mload(0x40)\n      dup1\n      swap2\n      sub\n      swap1\n      revert\n    tag_202:\n        /* \"contracts/UniversalNFT.sol\":1298:1326  _transferOwnership(newOwner) */\n      tag_205\n        /* \"contracts/UniversalNFT.sol\":1317:1325  newOwner */\n      dup2\n        /* \"contracts/UniversalNFT.sol\":1298:1316  _transferOwnership */\n      tag_206\n        /* \"contracts/UniversalNFT.sol\":1298:1326  _transferOwnership(newOwner) */\n      jump\t// in\n    tag_205:\n        /* \"contracts/UniversalNFT.sol\":1139:1333  function transferOwnership(address newOwner) public virtual onlyOwner {... */\n      pop\n      jump\t// out\n        /* \"contracts/UniversalNFT.sol\":5672:6029  function receiveMintedNFT(... */\n    tag_114:\n        /* \"contracts/UniversalNFT.sol\":5841:5859  universalNFTBridge */\n      0x07\n      0x00\n      swap1\n      sload\n      swap1\n      0x0100\n      exp\n      swap1\n      div\n      0xffffffffffffffffffffffffffffffffffffffff\n      and\n        /* \"contracts/UniversalNFT.sol\":5827:5859  msg.sender == universalNFTBridge */\n      0xffffffffffffffffffffffffffffffffffffffff\n      and\n        /* \"contracts/UniversalNFT.sol\":5827:5837  msg.sender */\n      caller\n        /* \"contracts/UniversalNFT.sol\":5827:5859  msg.sender == universalNFTBridge */\n      0xffffffffffffffffffffffffffffffffffffffff\n      and\n      eq\n        /* \"contracts/UniversalNFT.sol\":5819:5884  require(msg.sender == universalNFTBridge, \"Only bridge can call\") */\n      tag_208\n      jumpi\n      mload(0x40)\n      0x08c379a000000000000000000000000000000000000000000000000000000000\n      dup2\n      mstore\n      0x04\n      add\n      tag_209\n      swap1\n      tag_210\n      jump\t// in\n    tag_209:\n      mload(0x40)\n      dup1\n      swap2\n      sub\n      swap1\n      revert\n    tag_208:\n        /* \"contracts/UniversalNFT.sol\":5894:5923  _safeMint(recipient, tokenId) */\n      tag_211\n        /* \"contracts/UniversalNFT.sol\":5904:5913  recipient */\n      dup3\n        /* \"contracts/UniversalNFT.sol\":5915:5922  tokenId */\n      dup5\n        /* \"contracts/UniversalNFT.sol\":5894:5903  _safeMint */\n      tag_192\n        /* \"contracts/UniversalNFT.sol\":5894:5923  _safeMint(recipient, tokenId) */\n      jump\t// in\n    tag_211:\n        /* \"contracts/UniversalNFT.sol\":5954:5965  metadataURI */\n      dup1\n        /* \"contracts/UniversalNFT.sol\":5933:5942  tokenURIs */\n      0x08\n        /* \"contracts/UniversalNFT.sol\":5933:5951  tokenURIs[tokenId] */\n      0x00\n        /* \"contracts/UniversalNFT.sol\":5943:5950  tokenId */\n      dup6\n        /* \"contracts/UniversalNFT.sol\":5933:5951  tokenURIs[tokenId] */\n      dup2\n      mstore\n      0x20\n      add\n      swap1\n      dup2\n      mstore\n      0x20\n      add\n      0x00\n      keccak256\n        /* \"contracts/UniversalNFT.sol\":5933:5965  tokenURIs[tokenId] = metadataURI */\n      swap1\n      dup2\n      tag_212\n      swap2\n      swap1\n      tag_194\n      jump\t// in\n    tag_212:\n      pop\n        /* \"contracts/UniversalNFT.sol\":5999:6008  recipient */\n      dup2\n        /* \"contracts/UniversalNFT.sol\":5980:6022  NFTMinted(tokenId, recipient, metadataURI) */\n      0xffffffffffffffffffffffffffffffffffffffff\n      and\n        /* \"contracts/UniversalNFT.sol\":5990:5997  tokenId */\n      dup4\n        /* \"contracts/UniversalNFT.sol\":5980:6022  NFTMinted(tokenId, recipient, metadataURI) */\n      0x06becd955c918828f6e985541acbf49cc842c9e9bd569fffc7698e721ef13575\n        /* \"contracts/UniversalNFT.sol\":6010:6021  metadataURI */\n      dup4\n        /* \"contracts/UniversalNFT.sol\":5980:6022  NFTMinted(tokenId, recipient, metadataURI) */\n      mload(0x40)\n      tag_213\n      swap2\n      swap1\n      tag_27\n      jump\t// in\n    tag_213:\n      mload(0x40)\n      dup1\n      swap2\n      sub\n      swap1\n      log3\n        /* \"contracts/UniversalNFT.sol\":5672:6029  function receiveMintedNFT(... */\n      pop\n      pop\n      pop\n      jump\t// out\n        /* \"contracts/UniversalNFT.sol\":585:681  function _msgSender() internal view virtual returns (address) {... */\n    tag_143:\n        /* \"contracts/UniversalNFT.sol\":638:645  address */\n      0x00\n        /* \"contracts/UniversalNFT.sol\":664:674  msg.sender */\n      caller\n        /* \"contracts/UniversalNFT.sol\":657:674  return msg.sender */\n      swap1\n      pop\n        /* \"contracts/UniversalNFT.sol\":585:681  function _msgSender() internal view virtual returns (address) {... */\n      swap1\n      jump\t// out\n        /* \"contracts/UniversalNFT.sol\":2645:2858  function _burn(uint256 tokenId) internal virtual {... */\n    tag_158:\n        /* \"contracts/UniversalNFT.sol\":2704:2717  address owner */\n      0x00\n        /* \"contracts/UniversalNFT.sol\":2720:2736  ownerOf(tokenId) */\n      tag_216\n        /* \"contracts/UniversalNFT.sol\":2728:2735  tokenId */\n      dup3\n        /* \"contracts/UniversalNFT.sol\":2720:2727  ownerOf */\n      tag_44\n        /* \"contracts/UniversalNFT.sol\":2720:2736  ownerOf(tokenId) */\n      jump\t// in\n    tag_216:\n        /* \"contracts/UniversalNFT.sol\":2704:2736  address owner = ownerOf(tokenId) */\n      swap1\n      pop\n        /* \"contracts/UniversalNFT.sol\":2766:2767  1 */\n      0x01\n        /* \"contracts/UniversalNFT.sol\":2746:2755  _balances */\n      0x03\n        /* \"contracts/UniversalNFT.sol\":2746:2762  _balances[owner] */\n      0x00\n        /* \"contracts/UniversalNFT.sol\":2756:2761  owner */\n      dup4\n        /* \"contracts/UniversalNFT.sol\":2746:2762  _balances[owner] */\n      0xffffffffffffffffffffffffffffffffffffffff\n      and\n      0xffffffffffffffffffffffffffffffffffffffff\n      and\n      dup2\n      mstore\n      0x20\n      add\n      swap1\n      dup2\n      mstore\n      0x20\n      add\n      0x00\n      keccak256\n      0x00\n        /* \"contracts/UniversalNFT.sol\":2746:2767  _balances[owner] -= 1 */\n      dup3\n      dup3\n      sload\n      tag_217\n      swap2\n      swap1\n      tag_218\n      jump\t// in\n    tag_217:\n      swap3\n      pop\n      pop\n      dup2\n      swap1\n      sstore\n      pop\n        /* \"contracts/UniversalNFT.sol\":2784:2791  _owners */\n      0x02\n        /* \"contracts/UniversalNFT.sol\":2784:2800  _owners[tokenId] */\n      0x00\n        /* \"contracts/UniversalNFT.sol\":2792:2799  tokenId */\n      dup4\n        /* \"contracts/UniversalNFT.sol\":2784:2800  _owners[tokenId] */\n      dup2\n      mstore\n      0x20\n      add\n      swap1\n      dup2\n      mstore\n      0x20\n      add\n      0x00\n      keccak256\n      0x00\n        /* \"contracts/UniversalNFT.sol\":2777:2800  delete _owners[tokenId] */\n      0x0100\n      exp\n      dup2\n      sload\n      swap1\n      0xffffffffffffffffffffffffffffffffffffffff\n      mul\n      not\n      and\n      swap1\n      sstore\n        /* \"contracts/UniversalNFT.sol\":2843:2850  tokenId */\n      dup2\n        /* \"contracts/UniversalNFT.sol\":2839:2840  0 */\n      0x00\n        /* \"contracts/UniversalNFT.sol\":2815:2851  Transfer(owner, address(0), tokenId) */\n      0xffffffffffffffffffffffffffffffffffffffff\n      and\n        /* \"contracts/UniversalNFT.sol\":2824:2829  owner */\n      dup3\n        /* \"contracts/UniversalNFT.sol\":2815:2851  Transfer(owner, address(0), tokenId) */\n      0xffffffffffffffffffffffffffffffffffffffff\n      and\n      0xddf252ad1be2c89b69c2b068fc378daa952ba7f163c4a11628f55a4df523b3ef\n      mload(0x40)\n      mload(0x40)\n      dup1\n      swap2\n      sub\n      swap1\n      log4\n        /* \"contracts/UniversalNFT.sol\":2694:2858  {... */\n      pop\n        /* \"contracts/UniversalNFT.sol\":2645:2858  function _burn(uint256 tokenId) internal virtual {... */\n      pop\n      jump\t// out\n        /* \"contracts/UniversalNFT.sol\":2864:2971  function _ownerOf(uint256 tokenId) internal view returns (address) {... */\n    tag_177:\n        /* \"contracts/UniversalNFT.sol\":2922:2929  address */\n      0x00\n        /* \"contracts/UniversalNFT.sol\":2948:2955  _owners */\n      0x02\n        /* \"contracts/UniversalNFT.sol\":2948:2964  _owners[tokenId] */\n      0x00\n        /* \"contracts/UniversalNFT.sol\":2956:2963  tokenId */\n      dup4\n        /* \"contracts/UniversalNFT.sol\":2948:2964  _owners[tokenId] */\n      dup2\n      mstore\n      0x20\n      add\n      swap1\n      dup2\n      mstore\n      0x20\n      add\n      0x00\n      keccak256\n      0x00\n      swap1\n      sload\n      swap1\n      0x0100\n      exp\n      swap1\n      div\n      0xffffffffffffffffffffffffffffffffffffffff\n      and\n        /* \"contracts/UniversalNFT.sol\":2941:2964  return _owners[tokenId] */\n      swap1\n      pop\n        /* \"contracts/UniversalNFT.sol\":2864:2971  function _ownerOf(uint256 tokenId) internal view returns (address) {... */\n      swap2\n      swap1\n      pop\n      jump\t// out\n        /* \"contracts/UniversalNFT.sol\":3090:3202  function current(Counter storage counter) internal view returns (uint256) {... */\n    tag_188:\n        /* \"contracts/UniversalNFT.sol\":3155:3162  uint256 */\n      0x00\n        /* \"contracts/UniversalNFT.sol\":3181:3188  counter */\n      dup2\n        /* \"contracts/UniversalNFT.sol\":3181:3195  counter._value */\n      0x00\n      add\n      sload\n        /* \"contracts/UniversalNFT.sol\":3174:3195  return counter._value */\n      swap1\n      pop\n        /* \"contracts/UniversalNFT.sol\":3090:3202  function current(Counter storage counter) internal view returns (uint256) {... */\n      swap2\n      swap1\n      pop\n      jump\t// out\n        /* \"contracts/UniversalNFT.sol\":3208:3297  function increment(Counter storage counter) internal {... */\n    tag_190:\n        /* \"contracts/UniversalNFT.sol\":3289:3290  1 */\n      0x01\n        /* \"contracts/UniversalNFT.sol\":3271:3278  counter */\n      dup2\n        /* \"contracts/UniversalNFT.sol\":3271:3285  counter._value */\n      0x00\n      add\n      0x00\n        /* \"contracts/UniversalNFT.sol\":3271:3290  counter._value += 1 */\n      dup3\n      dup3\n      sload\n      tag_222\n      swap2\n      swap1\n      tag_223\n      jump\t// in\n    tag_222:\n      swap3\n      pop\n      pop\n      dup2\n      swap1\n      sstore\n      pop\n        /* \"contracts/UniversalNFT.sol\":3208:3297  function increment(Counter storage counter) internal {... */\n      pop\n      jump\t// out\n        /* \"contracts/UniversalNFT.sol\":2342:2639  function _safeMint(address to, uint256 tokenId) internal virtual {... */\n    tag_192:\n        /* \"contracts/UniversalNFT.sol\":2439:2440  0 */\n      0x00\n        /* \"contracts/UniversalNFT.sol\":2425:2441  to != address(0) */\n      0xffffffffffffffffffffffffffffffffffffffff\n      and\n        /* \"contracts/UniversalNFT.sol\":2425:2427  to */\n      dup3\n        /* \"contracts/UniversalNFT.sol\":2425:2441  to != address(0) */\n      0xffffffffffffffffffffffffffffffffffffffff\n      and\n      sub\n        /* \"contracts/UniversalNFT.sol\":2417:2458  require(to != address(0), \"Zero address\") */\n      tag_225\n      jumpi\n      mload(0x40)\n      0x08c379a000000000000000000000000000000000000000000000000000000000\n      dup2\n      mstore\n      0x04\n      add\n      tag_226\n      swap1\n      tag_134\n      jump\t// in\n    tag_226:\n      mload(0x40)\n      dup1\n      swap2\n      sub\n      swap1\n      revert\n    tag_225:\n        /* \"contracts/UniversalNFT.sol\":2504:2505  0 */\n      0x00\n        /* \"contracts/UniversalNFT.sol\":2476:2506  _owners[tokenId] == address(0) */\n      0xffffffffffffffffffffffffffffffffffffffff\n      and\n        /* \"contracts/UniversalNFT.sol\":2476:2483  _owners */\n      0x02\n        /* \"contracts/UniversalNFT.sol\":2476:2492  _owners[tokenId] */\n      0x00\n        /* \"contracts/UniversalNFT.sol\":2484:2491  tokenId */\n      dup4\n        /* \"contracts/UniversalNFT.sol\":2476:2492  _owners[tokenId] */\n      dup2\n      mstore\n      0x20\n      add\n      swap1\n      dup2\n      mstore\n      0x20\n      add\n      0x00\n      keccak256\n      0x00\n      swap1\n      sload\n      swap1\n      0x0100\n      exp\n      swap1\n      div\n      0xffffffffffffffffffffffffffffffffffffffff\n      and\n        /* \"contracts/UniversalNFT.sol\":2476:2506  _owners[tokenId] == address(0) */\n      0xffffffffffffffffffffffffffffffffffffffff\n      and\n      eq\n        /* \"contracts/UniversalNFT.sol\":2468:2525  require(_owners[tokenId] == address(0), \"Already minted\") */\n      tag_227\n      jumpi\n      mload(0x40)\n      0x08c379a000000000000000000000000000000000000000000000000000000000\n      dup2\n      mstore\n      0x04\n      add\n      tag_228\n      swap1\n      tag_229\n      jump\t// in\n    tag_228:\n      mload(0x40)\n      dup1\n      swap2\n      sub\n      swap1\n      revert\n    tag_227:\n        /* \"contracts/UniversalNFT.sol\":2552:2553  1 */\n      0x01\n        /* \"contracts/UniversalNFT.sol\":2535:2544  _balances */\n      0x03\n        /* \"contracts/UniversalNFT.sol\":2535:2548  _balances[to] */\n      0x00\n        /* \"contracts/UniversalNFT.sol\":2545:2547  to */\n      dup5\n        /* \"contracts/UniversalNFT.sol\":2535:2548  _balances[to] */\n      0xffffffffffffffffffffffffffffffffffffffff\n      and\n      0xffffffffffffffffffffffffffffffffffffffff\n      and\n      dup2\n      mstore\n      0x20\n      add\n      swap1\n      dup2\n      mstore\n      0x20\n      add\n      0x00\n      keccak256\n      0x00\n        /* \"contracts/UniversalNFT.sol\":2535:2553  _balances[to] += 1 */\n      dup3\n      dup3\n      sload\n      tag_230\n      swap2\n      swap1\n      tag_223\n      jump\t// in\n    tag_230:\n      swap3\n      pop\n      pop\n      dup2\n      swap1\n      sstore\n      pop\n        /* \"contracts/UniversalNFT.sol\":2582:2584  to */\n      dup2\n        /* \"contracts/UniversalNFT.sol\":2563:2570  _owners */\n      0x02\n        /* \"contracts/UniversalNFT.sol\":2563:2579  _owners[tokenId] */\n      0x00\n        /* \"contracts/UniversalNFT.sol\":2571:2578  tokenId */\n      dup4\n        /* \"contracts/UniversalNFT.sol\":2563:2579  _owners[tokenId] */\n      dup2\n      mstore\n      0x20\n      add\n      swap1\n      dup2\n      mstore\n      0x20\n      add\n      0x00\n      keccak256\n      0x00\n        /* \"contracts/UniversalNFT.sol\":2563:2584  _owners[tokenId] = to */\n      0x0100\n      exp\n      dup2\n      sload\n      dup2\n      0xffffffffffffffffffffffffffffffffffffffff\n      mul\n      not\n      and\n      swap1\n      dup4\n      0xffffffffffffffffffffffffffffffffffffffff\n      and\n      mul\n      or\n      swap1\n      sstore\n      pop\n        /* \"contracts/UniversalNFT.sol\":2624:2631  tokenId */\n      dup1\n        /* \"contracts/UniversalNFT.sol\":2620:2622  to */\n      dup3\n        /* \"contracts/UniversalNFT.sol\":2599:2632  Transfer(address(0), to, tokenId) */\n      0xffffffffffffffffffffffffffffffffffffffff\n      and\n        /* \"contracts/UniversalNFT.sol\":2616:2617  0 */\n      0x00\n        /* \"contracts/UniversalNFT.sol\":2599:2632  Transfer(address(0), to, tokenId) */\n      0xffffffffffffffffffffffffffffffffffffffff\n      and\n      0xddf252ad1be2c89b69c2b068fc378daa952ba7f163c4a11628f55a4df523b3ef\n      mload(0x40)\n      mload(0x40)\n      dup1\n      swap2\n      sub\n      swap1\n      log4\n        /* \"contracts/UniversalNFT.sol\":2342:2639  function _safeMint(address to, uint256 tokenId) internal virtual {... */\n      pop\n      pop\n      jump\t// out\n        /* \"contracts/UniversalNFT.sol\":1339:1526  function _transferOwnership(address newOwner) internal virtual {... */\n    tag_206:\n        /* \"contracts/UniversalNFT.sol\":1412:1428  address oldOwner */\n      0x00\n        /* \"contracts/UniversalNFT.sol\":1431:1437  _owner */\n      0x04\n      0x00\n      swap1\n      sload\n      swap1\n      0x0100\n      exp\n      swap1\n      div\n      0xffffffffffffffffffffffffffffffffffffffff\n      and\n        /* \"contracts/UniversalNFT.sol\":1412:1437  address oldOwner = _owner */\n      swap1\n      pop\n        /* \"contracts/UniversalNFT.sol\":1456:1464  newOwner */\n      dup2\n        /* \"contracts/UniversalNFT.sol\":1447:1453  _owner */\n      0x04\n      0x00\n        /* \"contracts/UniversalNFT.sol\":1447:1464  _owner = newOwner */\n      0x0100\n      exp\n      dup2\n      sload\n      dup2\n      0xffffffffffffffffffffffffffffffffffffffff\n      mul\n      not\n      and\n      swap1\n      dup4\n      0xffffffffffffffffffffffffffffffffffffffff\n      and\n      mul\n      or\n      swap1\n      sstore\n      pop\n        /* \"contracts/UniversalNFT.sol\":1510:1518  newOwner */\n      dup2\n        /* \"contracts/UniversalNFT.sol\":1479:1519  OwnershipTransferred(oldOwner, newOwner) */\n      0xffffffffffffffffffffffffffffffffffffffff\n      and\n        /* \"contracts/UniversalNFT.sol\":1500:1508  oldOwner */\n      dup2\n        /* \"contracts/UniversalNFT.sol\":1479:1519  OwnershipTransferred(oldOwner, newOwner) */\n      0xffffffffffffffffffffffffffffffffffffffff\n      and\n      0x8be0079c531659141344cd1fd0a4f28419497f9722a3daafe3b4186f6b6457e0\n      mload(0x40)\n      mload(0x40)\n      dup1\n      swap2\n      sub\n      swap1\n      log3\n        /* \"contracts/UniversalNFT.sol\":1402:1526  {... */\n      pop\n        /* \"contracts/UniversalNFT.sol\":1339:1526  function _transferOwnership(address newOwner) internal virtual {... */\n      pop\n      jump\t// out\n        /* \"#utility.yul\":7:106   */\n    tag_232:\n        /* \"#utility.yul\":59:65   */\n      0x00\n        /* \"#utility.yul\":93:98   */\n      dup2\n        /* \"#utility.yul\":87:99   */\n      mload\n        /* \"#utility.yul\":77:99   */\n      swap1\n      pop\n        /* \"#utility.yul\":7:106   */\n      swap2\n      swap1\n      pop\n      jump\t// out\n        /* \"#utility.yul\":112:281   */\n    tag_233:\n        /* \"#utility.yul\":196:207   */\n      0x00\n        /* \"#utility.yul\":230:236   */\n      dup3\n        /* \"#utility.yul\":225:228   */\n      dup3\n        /* \"#utility.yul\":218:237   */\n      mstore\n        /* \"#utility.yul\":270:274   */\n      0x20\n        /* \"#utility.yul\":265:268   */\n      dup3\n        /* \"#utility.yul\":261:275   */\n      add\n        /* \"#utility.yul\":246:275   */\n      swap1\n      pop\n        /* \"#utility.yul\":112:281   */\n      swap3\n      swap2\n      pop\n      pop\n      jump\t// out\n        /* \"#utility.yul\":287:426   */\n    tag_234:\n        /* \"#utility.yul\":376:382   */\n      dup3\n        /* \"#utility.yul\":371:374   */\n      dup2\n        /* \"#utility.yul\":366:369   */\n      dup4\n        /* \"#utility.yul\":360:383   */\n      mcopy\n        /* \"#utility.yul\":417:418   */\n      0x00\n        /* \"#utility.yul\":408:414   */\n      dup4\n        /* \"#utility.yul\":403:406   */\n      dup4\n        /* \"#utility.yul\":399:415   */\n      add\n        /* \"#utility.yul\":392:419   */\n      mstore\n        /* \"#utility.yul\":287:426   */\n      pop\n      pop\n      pop\n      jump\t// out\n        /* \"#utility.yul\":432:534   */\n    tag_235:\n        /* \"#utility.yul\":473:479   */\n      0x00\n        /* \"#utility.yul\":524:526   */\n      0x1f\n        /* \"#utility.yul\":520:527   */\n      not\n        /* \"#utility.yul\":515:517   */\n      0x1f\n        /* \"#utility.yul\":508:513   */\n      dup4\n        /* \"#utility.yul\":504:518   */\n      add\n        /* \"#utility.yul\":500:528   */\n      and\n        /* \"#utility.yul\":490:528   */\n      swap1\n      pop\n        /* \"#utility.yul\":432:534   */\n      swap2\n      swap1\n      pop\n      jump\t// out\n        /* \"#utility.yul\":540:917   */\n    tag_236:\n        /* \"#utility.yul\":628:631   */\n      0x00\n        /* \"#utility.yul\":656:695   */\n      tag_319\n        /* \"#utility.yul\":689:694   */\n      dup3\n        /* \"#utility.yul\":656:695   */\n      tag_232\n      jump\t// in\n    tag_319:\n        /* \"#utility.yul\":711:782   */\n      tag_320\n        /* \"#utility.yul\":775:781   */\n      dup2\n        /* \"#utility.yul\":770:773   */\n      dup6\n        /* \"#utility.yul\":711:782   */\n      tag_233\n      jump\t// in\n    tag_320:\n        /* \"#utility.yul\":704:782   */\n      swap4\n      pop\n        /* \"#utility.yul\":791:856   */\n      tag_321\n        /* \"#utility.yul\":849:855   */\n      dup2\n        /* \"#utility.yul\":844:847   */\n      dup6\n        /* \"#utility.yul\":837:841   */\n      0x20\n        /* \"#utility.yul\":830:835   */\n      dup7\n        /* \"#utility.yul\":826:842   */\n      add\n        /* \"#utility.yul\":791:856   */\n      tag_234\n      jump\t// in\n    tag_321:\n        /* \"#utility.yul\":881:910   */\n      tag_322\n        /* \"#utility.yul\":903:909   */\n      dup2\n        /* \"#utility.yul\":881:910   */\n      tag_235\n      jump\t// in\n    tag_322:\n        /* \"#utility.yul\":876:879   */\n      dup5\n        /* \"#utility.yul\":872:911   */\n      add\n        /* \"#utility.yul\":865:911   */\n      swap2\n      pop\n        /* \"#utility.yul\":632:917   */\n      pop\n        /* \"#utility.yul\":540:917   */\n      swap3\n      swap2\n      pop\n      pop\n      jump\t// out\n        /* \"#utility.yul\":923:1236   */\n    tag_27:\n        /* \"#utility.yul\":1036:1040   */\n      0x00\n        /* \"#utility.yul\":1074:1076   */\n      0x20\n        /* \"#utility.yul\":1063:1072   */\n      dup3\n        /* \"#utility.yul\":1059:1077   */\n      add\n        /* \"#utility.yul\":1051:1077   */\n      swap1\n      pop\n        /* \"#utility.yul\":1123:1132   */\n      dup2\n        /* \"#utility.yul\":1117:1121   */\n      dup2\n        /* \"#utility.yul\":1113:1133   */\n      sub\n        /* \"#utility.yul\":1109:1110   */\n      0x00\n        /* \"#utility.yul\":1098:1107   */\n      dup4\n        /* \"#utility.yul\":1094:1111   */\n      add\n        /* \"#utility.yul\":1087:1134   */\n      mstore\n        /* \"#utility.yul\":1151:1229   */\n      tag_324\n        /* \"#utility.yul\":1224:1228   */\n      dup2\n        /* \"#utility.yul\":1215:1221   */\n      dup5\n        /* \"#utility.yul\":1151:1229   */\n      tag_236\n      jump\t// in\n    tag_324:\n        /* \"#utility.yul\":1143:1229   */\n      swap1\n      pop\n        /* \"#utility.yul\":923:1236   */\n      swap3\n      swap2\n      pop\n      pop\n      jump\t// out\n        /* \"#utility.yul\":1242:1368   */\n    tag_237:\n        /* \"#utility.yul\":1279:1286   */\n      0x00\n        /* \"#utility.yul\":1319:1361   */\n      0xffffffffffffffffffffffffffffffffffffffff\n        /* \"#utility.yul\":1312:1317   */\n      dup3\n        /* \"#utility.yul\":1308:1362   */\n      and\n        /* \"#utility.yul\":1297:1362   */\n      swap1\n      pop\n        /* \"#utility.yul\":1242:1368   */\n      swap2\n      swap1\n      pop\n      jump\t// out\n        /* \"#utility.yul\":1374:1434   */\n    tag_238:\n        /* \"#utility.yul\":1402:1405   */\n      0x00\n        /* \"#utility.yul\":1423:1428   */\n      dup2\n        /* \"#utility.yul\":1416:1428   */\n      swap1\n      pop\n        /* \"#utility.yul\":1374:1434   */\n      swap2\n      swap1\n      pop\n      jump\t// out\n        /* \"#utility.yul\":1440:1582   */\n    tag_239:\n        /* \"#utility.yul\":1490:1499   */\n      0x00\n        /* \"#utility.yul\":1523:1576   */\n      tag_328\n        /* \"#utility.yul\":1541:1575   */\n      tag_329\n        /* \"#utility.yul\":1550:1574   */\n      tag_330\n        /* \"#utility.yul\":1568:1573   */\n      dup5\n        /* \"#utility.yul\":1550:1574   */\n      tag_237\n      jump\t// in\n    tag_330:\n        /* \"#utility.yul\":1541:1575   */\n      tag_238\n      jump\t// in\n    tag_329:\n        /* \"#utility.yul\":1523:1576   */\n      tag_237\n      jump\t// in\n    tag_328:\n        /* \"#utility.yul\":1510:1576   */\n      swap1\n      pop\n        /* \"#utility.yul\":1440:1582   */\n      swap2\n      swap1\n      pop\n      jump\t// out\n        /* \"#utility.yul\":1588:1714   */\n    tag_240:\n        /* \"#utility.yul\":1638:1647   */\n      0x00\n        /* \"#utility.yul\":1671:1708   */\n      tag_332\n        /* \"#utility.yul\":1702:1707   */\n      dup3\n        /* \"#utility.yul\":1671:1708   */\n      tag_239\n      jump\t// in\n    tag_332:\n        /* \"#utility.yul\":1658:1708   */\n      swap1\n      pop\n        /* \"#utility.yul\":1588:1714   */\n      swap2\n      swap1\n      pop\n      jump\t// out\n        /* \"#utility.yul\":1720:1861   */\n    tag_241:\n        /* \"#utility.yul\":1785:1794   */\n      0x00\n        /* \"#utility.yul\":1818:1855   */\n      tag_334\n        /* \"#utility.yul\":1849:1854   */\n      dup3\n        /* \"#utility.yul\":1818:1855   */\n      tag_240\n      jump\t// in\n    tag_334:\n        /* \"#utility.yul\":1805:1855   */\n      swap1\n      pop\n        /* \"#utility.yul\":1720:1861   */\n      swap2\n      swap1\n      pop\n      jump\t// out\n        /* \"#utility.yul\":1867:2028   */\n    tag_242:\n        /* \"#utility.yul\":1969:2021   */\n      tag_336\n        /* \"#utility.yul\":2015:2020   */\n      dup2\n        /* \"#utility.yul\":1969:2021   */\n      tag_241\n      jump\t// in\n    tag_336:\n        /* \"#utility.yul\":1964:1967   */\n      dup3\n        /* \"#utility.yul\":1957:2022   */\n      mstore\n        /* \"#utility.yul\":1867:2028   */\n      pop\n      pop\n      jump\t// out\n        /* \"#utility.yul\":2034:2286   */\n    tag_32:\n        /* \"#utility.yul\":2142:2146   */\n      0x00\n        /* \"#utility.yul\":2180:2182   */\n      0x20\n        /* \"#utility.yul\":2169:2178   */\n      dup3\n        /* \"#utility.yul\":2165:2183   */\n      add\n        /* \"#utility.yul\":2157:2183   */\n      swap1\n      pop\n        /* \"#utility.yul\":2193:2279   */\n      tag_338\n        /* \"#utility.yul\":2276:2277   */\n      0x00\n        /* \"#utility.yul\":2265:2274   */\n      dup4\n        /* \"#utility.yul\":2261:2278   */\n      add\n        /* \"#utility.yul\":2252:2258   */\n      dup5\n        /* \"#utility.yul\":2193:2279   */\n      tag_242\n      jump\t// in\n    tag_338:\n        /* \"#utility.yul\":2034:2286   */\n      swap3\n      swap2\n      pop\n      pop\n      jump\t// out\n        /* \"#utility.yul\":2292:2367   */\n    tag_243:\n        /* \"#utility.yul\":2325:2331   */\n      0x00\n        /* \"#utility.yul\":2358:2360   */\n      0x40\n        /* \"#utility.yul\":2352:2361   */\n      mload\n        /* \"#utility.yul\":2342:2361   */\n      swap1\n      pop\n        /* \"#utility.yul\":2292:2367   */\n      swap1\n      jump\t// out\n        /* \"#utility.yul\":2373:2490   */\n    tag_244:\n        /* \"#utility.yul\":2482:2483   */\n      0x00\n        /* \"#utility.yul\":2479:2480   */\n      dup1\n        /* \"#utility.yul\":2472:2484   */\n      revert\n        /* \"#utility.yul\":2496:2613   */\n    tag_245:\n        /* \"#utility.yul\":2605:2606   */\n      0x00\n        /* \"#utility.yul\":2602:2603   */\n      dup1\n        /* \"#utility.yul\":2595:2607   */\n      revert\n        /* \"#utility.yul\":2619:2696   */\n    tag_246:\n        /* \"#utility.yul\":2656:2663   */\n      0x00\n        /* \"#utility.yul\":2685:2690   */\n      dup2\n        /* \"#utility.yul\":2674:2690   */\n      swap1\n      pop\n        /* \"#utility.yul\":2619:2696   */\n      swap2\n      swap1\n      pop\n      jump\t// out\n        /* \"#utility.yul\":2702:2824   */\n    tag_247:\n        /* \"#utility.yul\":2775:2799   */\n      tag_344\n        /* \"#utility.yul\":2793:2798   */\n      dup2\n        /* \"#utility.yul\":2775:2799   */\n      tag_246\n      jump\t// in\n    tag_344:\n        /* \"#utility.yul\":2768:2773   */\n      dup2\n        /* \"#utility.yul\":2765:2800   */\n      eq\n        /* \"#utility.yul\":2755:2818   */\n      tag_345\n      jumpi\n        /* \"#utility.yul\":2814:2815   */\n      0x00\n        /* \"#utility.yul\":2811:2812   */\n      dup1\n        /* \"#utility.yul\":2804:2816   */\n      revert\n        /* \"#utility.yul\":2755:2818   */\n    tag_345:\n        /* \"#utility.yul\":2702:2824   */\n      pop\n      jump\t// out\n        /* \"#utility.yul\":2830:2969   */\n    tag_248:\n        /* \"#utility.yul\":2876:2881   */\n      0x00\n        /* \"#utility.yul\":2914:2920   */\n      dup2\n        /* \"#utility.yul\":2901:2921   */\n      calldataload\n        /* \"#utility.yul\":2892:2921   */\n      swap1\n      pop\n        /* \"#utility.yul\":2930:2963   */\n      tag_347\n        /* \"#utility.yul\":2957:2962   */\n      dup2\n        /* \"#utility.yul\":2930:2963   */\n      tag_247\n      jump\t// in\n    tag_347:\n        /* \"#utility.yul\":2830:2969   */\n      swap3\n      swap2\n      pop\n      pop\n      jump\t// out\n        /* \"#utility.yul\":2975:3064   */\n    tag_249:\n        /* \"#utility.yul\":3011:3018   */\n      0x00\n        /* \"#utility.yul\":3051:3057   */\n      0xffff\n        /* \"#utility.yul\":3044:3049   */\n      dup3\n        /* \"#utility.yul\":3040:3058   */\n      and\n        /* \"#utility.yul\":3029:3058   */\n      swap1\n      pop\n        /* \"#utility.yul\":2975:3064   */\n      swap2\n      swap1\n      pop\n      jump\t// out\n        /* \"#utility.yul\":3070:3190   */\n    tag_250:\n        /* \"#utility.yul\":3142:3165   */\n      tag_350\n        /* \"#utility.yul\":3159:3164   */\n      dup2\n        /* \"#utility.yul\":3142:3165   */\n      tag_249\n      jump\t// in\n    tag_350:\n        /* \"#utility.yul\":3135:3140   */\n      dup2\n        /* \"#utility.yul\":3132:3166   */\n      eq\n        /* \"#utility.yul\":3122:3184   */\n      tag_351\n      jumpi\n        /* \"#utility.yul\":3180:3181   */\n      0x00\n        /* \"#utility.yul\":3177:3178   */\n      dup1\n        /* \"#utility.yul\":3170:3182   */\n      revert\n        /* \"#utility.yul\":3122:3184   */\n    tag_351:\n        /* \"#utility.yul\":3070:3190   */\n      pop\n      jump\t// out\n        /* \"#utility.yul\":3196:3333   */\n    tag_251:\n        /* \"#utility.yul\":3241:3246   */\n      0x00\n        /* \"#utility.yul\":3279:3285   */\n      dup2\n        /* \"#utility.yul\":3266:3286   */\n      calldataload\n        /* \"#utility.yul\":3257:3286   */\n      swap1\n      pop\n        /* \"#utility.yul\":3295:3327   */\n      tag_353\n        /* \"#utility.yul\":3321:3326   */\n      dup2\n        /* \"#utility.yul\":3295:3327   */\n      tag_250\n      jump\t// in\n    tag_353:\n        /* \"#utility.yul\":3196:3333   */\n      swap3\n      swap2\n      pop\n      pop\n      jump\t// out\n        /* \"#utility.yul\":3339:3811   */\n    tag_36:\n        /* \"#utility.yul\":3406:3412   */\n      0x00\n        /* \"#utility.yul\":3414:3420   */\n      dup1\n        /* \"#utility.yul\":3463:3465   */\n      0x40\n        /* \"#utility.yul\":3451:3460   */\n      dup4\n        /* \"#utility.yul\":3442:3449   */\n      dup6\n        /* \"#utility.yul\":3438:3461   */\n      sub\n        /* \"#utility.yul\":3434:3466   */\n      slt\n        /* \"#utility.yul\":3431:3550   */\n      iszero\n      tag_355\n      jumpi\n        /* \"#utility.yul\":3469:3548   */\n      tag_356\n      tag_244\n      jump\t// in\n    tag_356:\n        /* \"#utility.yul\":3431:3550   */\n    tag_355:\n        /* \"#utility.yul\":3589:3590   */\n      0x00\n        /* \"#utility.yul\":3614:3667   */\n      tag_357\n        /* \"#utility.yul\":3659:3666   */\n      dup6\n        /* \"#utility.yul\":3650:3656   */\n      dup3\n        /* \"#utility.yul\":3639:3648   */\n      dup7\n        /* \"#utility.yul\":3635:3657   */\n      add\n        /* \"#utility.yul\":3614:3667   */\n      tag_248\n      jump\t// in\n    tag_357:\n        /* \"#utility.yul\":3604:3667   */\n      swap3\n      pop\n        /* \"#utility.yul\":3560:3677   */\n      pop\n        /* \"#utility.yul\":3716:3718   */\n      0x20\n        /* \"#utility.yul\":3742:3794   */\n      tag_358\n        /* \"#utility.yul\":3786:3793   */\n      dup6\n        /* \"#utility.yul\":3777:3783   */\n      dup3\n        /* \"#utility.yul\":3766:3775   */\n      dup7\n        /* \"#utility.yul\":3762:3784   */\n      add\n        /* \"#utility.yul\":3742:3794   */\n      tag_251\n      jump\t// in\n    tag_358:\n        /* \"#utility.yul\":3732:3794   */\n      swap2\n      pop\n        /* \"#utility.yul\":3687:3804   */\n      pop\n        /* \"#utility.yul\":3339:3811   */\n      swap3\n      pop\n      swap3\n      swap1\n      pop\n      jump\t// out\n        /* \"#utility.yul\":3817:3907   */\n    tag_252:\n        /* \"#utility.yul\":3851:3858   */\n      0x00\n        /* \"#utility.yul\":3894:3899   */\n      dup2\n        /* \"#utility.yul\":3887:3900   */\n      iszero\n        /* \"#utility.yul\":3880:3901   */\n      iszero\n        /* \"#utility.yul\":3869:3901   */\n      swap1\n      pop\n        /* \"#utility.yul\":3817:3907   */\n      swap2\n      swap1\n      pop\n      jump\t// out\n        /* \"#utility.yul\":3913:4022   */\n    tag_253:\n        /* \"#utility.yul\":3994:4015   */\n      tag_361\n        /* \"#utility.yul\":4009:4014   */\n      dup2\n        /* \"#utility.yul\":3994:4015   */\n      tag_252\n      jump\t// in\n    tag_361:\n        /* \"#utility.yul\":3989:3992   */\n      dup3\n        /* \"#utility.yul\":3982:4016   */\n      mstore\n        /* \"#utility.yul\":3913:4022   */\n      pop\n      pop\n      jump\t// out\n        /* \"#utility.yul\":4028:4238   */\n    tag_39:\n        /* \"#utility.yul\":4115:4119   */\n      0x00\n        /* \"#utility.yul\":4153:4155   */\n      0x20\n        /* \"#utility.yul\":4142:4151   */\n      dup3\n        /* \"#utility.yul\":4138:4156   */\n      add\n        /* \"#utility.yul\":4130:4156   */\n      swap1\n      pop\n        /* \"#utility.yul\":4166:4231   */\n      tag_363\n        /* \"#utility.yul\":4228:4229   */\n      0x00\n        /* \"#utility.yul\":4217:4226   */\n      dup4\n        /* \"#utility.yul\":4213:4230   */\n      add\n        /* \"#utility.yul\":4204:4210   */\n      dup5\n        /* \"#utility.yul\":4166:4231   */\n      tag_253\n      jump\t// in\n    tag_363:\n        /* \"#utility.yul\":4028:4238   */\n      swap3\n      swap2\n      pop\n      pop\n      jump\t// out\n        /* \"#utility.yul\":4244:4573   */\n    tag_43:\n        /* \"#utility.yul\":4303:4309   */\n      0x00\n        /* \"#utility.yul\":4352:4354   */\n      0x20\n        /* \"#utility.yul\":4340:4349   */\n      dup3\n        /* \"#utility.yul\":4331:4338   */\n      dup5\n        /* \"#utility.yul\":4327:4350   */\n      sub\n        /* \"#utility.yul\":4323:4355   */\n      slt\n        /* \"#utility.yul\":4320:4439   */\n      iszero\n      tag_365\n      jumpi\n        /* \"#utility.yul\":4358:4437   */\n      tag_366\n      tag_244\n      jump\t// in\n    tag_366:\n        /* \"#utility.yul\":4320:4439   */\n    tag_365:\n        /* \"#utility.yul\":4478:4479   */\n      0x00\n        /* \"#utility.yul\":4503:4556   */\n      tag_367\n        /* \"#utility.yul\":4548:4555   */\n      dup5\n        /* \"#utility.yul\":4539:4545   */\n      dup3\n        /* \"#utility.yul\":4528:4537   */\n      dup6\n        /* \"#utility.yul\":4524:4546   */\n      add\n        /* \"#utility.yul\":4503:4556   */\n      tag_248\n      jump\t// in\n    tag_367:\n        /* \"#utility.yul\":4493:4556   */\n      swap2\n      pop\n        /* \"#utility.yul\":4449:4566   */\n      pop\n        /* \"#utility.yul\":4244:4573   */\n      swap3\n      swap2\n      pop\n      pop\n      jump\t// out\n        /* \"#utility.yul\":4579:4675   */\n    tag_254:\n        /* \"#utility.yul\":4616:4623   */\n      0x00\n        /* \"#utility.yul\":4645:4669   */\n      tag_369\n        /* \"#utility.yul\":4663:4668   */\n      dup3\n        /* \"#utility.yul\":4645:4669   */\n      tag_237\n      jump\t// in\n    tag_369:\n        /* \"#utility.yul\":4634:4669   */\n      swap1\n      pop\n        /* \"#utility.yul\":4579:4675   */\n      swap2\n      swap1\n      pop\n      jump\t// out\n        /* \"#utility.yul\":4681:4799   */\n    tag_255:\n        /* \"#utility.yul\":4768:4792   */\n      tag_371\n        /* \"#utility.yul\":4786:4791   */\n      dup2\n        /* \"#utility.yul\":4768:4792   */\n      tag_254\n      jump\t// in\n    tag_371:\n        /* \"#utility.yul\":4763:4766   */\n      dup3\n        /* \"#utility.yul\":4756:4793   */\n      mstore\n        /* \"#utility.yul\":4681:4799   */\n      pop\n      pop\n      jump\t// out\n        /* \"#utility.yul\":4805:5027   */\n    tag_46:\n        /* \"#utility.yul\":4898:4902   */\n      0x00\n        /* \"#utility.yul\":4936:4938   */\n      0x20\n        /* \"#utility.yul\":4925:4934   */\n      dup3\n        /* \"#utility.yul\":4921:4939   */\n      add\n        /* \"#utility.yul\":4913:4939   */\n      swap1\n      pop\n        /* \"#utility.yul\":4949:5020   */\n      tag_373\n        /* \"#utility.yul\":5017:5018   */\n      0x00\n        /* \"#utility.yul\":5006:5015   */\n      dup4\n        /* \"#utility.yul\":5002:5019   */\n      add\n        /* \"#utility.yul\":4993:4999   */\n      dup5\n        /* \"#utility.yul\":4949:5020   */\n      tag_255\n      jump\t// in\n    tag_373:\n        /* \"#utility.yul\":4805:5027   */\n      swap3\n      swap2\n      pop\n      pop\n      jump\t// out\n        /* \"#utility.yul\":5033:5155   */\n    tag_256:\n        /* \"#utility.yul\":5106:5130   */\n      tag_375\n        /* \"#utility.yul\":5124:5129   */\n      dup2\n        /* \"#utility.yul\":5106:5130   */\n      tag_254\n      jump\t// in\n    tag_375:\n        /* \"#utility.yul\":5099:5104   */\n      dup2\n        /* \"#utility.yul\":5096:5131   */\n      eq\n        /* \"#utility.yul\":5086:5149   */\n      tag_376\n      jumpi\n        /* \"#utility.yul\":5145:5146   */\n      0x00\n        /* \"#utility.yul\":5142:5143   */\n      dup1\n        /* \"#utility.yul\":5135:5147   */\n      revert\n        /* \"#utility.yul\":5086:5149   */\n    tag_376:\n        /* \"#utility.yul\":5033:5155   */\n      pop\n      jump\t// out\n        /* \"#utility.yul\":5161:5300   */\n    tag_257:\n        /* \"#utility.yul\":5207:5212   */\n      0x00\n        /* \"#utility.yul\":5245:5251   */\n      dup2\n        /* \"#utility.yul\":5232:5252   */\n      calldataload\n        /* \"#utility.yul\":5223:5252   */\n      swap1\n      pop\n        /* \"#utility.yul\":5261:5294   */\n      tag_378\n        /* \"#utility.yul\":5288:5293   */\n      dup2\n        /* \"#utility.yul\":5261:5294   */\n      tag_256\n      jump\t// in\n    tag_378:\n        /* \"#utility.yul\":5161:5300   */\n      swap3\n      swap2\n      pop\n      pop\n      jump\t// out\n        /* \"#utility.yul\":5306:5635   */\n    tag_60:\n        /* \"#utility.yul\":5365:5371   */\n      0x00\n        /* \"#utility.yul\":5414:5416   */\n      0x20\n        /* \"#utility.yul\":5402:5411   */\n      dup3\n        /* \"#utility.yul\":5393:5400   */\n      dup5\n        /* \"#utility.yul\":5389:5412   */\n      sub\n        /* \"#utility.yul\":5385:5417   */\n      slt\n        /* \"#utility.yul\":5382:5501   */\n      iszero\n      tag_380\n      jumpi\n        /* \"#utility.yul\":5420:5499   */\n      tag_381\n      tag_244\n      jump\t// in\n    tag_381:\n        /* \"#utility.yul\":5382:5501   */\n    tag_380:\n        /* \"#utility.yul\":5540:5541   */\n      0x00\n        /* \"#utility.yul\":5565:5618   */\n      tag_382\n        /* \"#utility.yul\":5610:5617   */\n      dup5\n        /* \"#utility.yul\":5601:5607   */\n      dup3\n        /* \"#utility.yul\":5590:5599   */\n      dup6\n        /* \"#utility.yul\":5586:5608   */\n      add\n        /* \"#utility.yul\":5565:5618   */\n      tag_257\n      jump\t// in\n    tag_382:\n        /* \"#utility.yul\":5555:5618   */\n      swap2\n      pop\n        /* \"#utility.yul\":5511:5628   */\n      pop\n        /* \"#utility.yul\":5306:5635   */\n      swap3\n      swap2\n      pop\n      pop\n      jump\t// out\n        /* \"#utility.yul\":5641:5759   */\n    tag_258:\n        /* \"#utility.yul\":5728:5752   */\n      tag_384\n        /* \"#utility.yul\":5746:5751   */\n      dup2\n        /* \"#utility.yul\":5728:5752   */\n      tag_246\n      jump\t// in\n    tag_384:\n        /* \"#utility.yul\":5723:5726   */\n      dup3\n        /* \"#utility.yul\":5716:5753   */\n      mstore\n        /* \"#utility.yul\":5641:5759   */\n      pop\n      pop\n      jump\t// out\n        /* \"#utility.yul\":5765:5987   */\n    tag_63:\n        /* \"#utility.yul\":5858:5862   */\n      0x00\n        /* \"#utility.yul\":5896:5898   */\n      0x20\n        /* \"#utility.yul\":5885:5894   */\n      dup3\n        /* \"#utility.yul\":5881:5899   */\n      add\n        /* \"#utility.yul\":5873:5899   */\n      swap1\n      pop\n        /* \"#utility.yul\":5909:5980   */\n      tag_386\n        /* \"#utility.yul\":5977:5978   */\n      0x00\n        /* \"#utility.yul\":5966:5975   */\n      dup4\n        /* \"#utility.yul\":5962:5979   */\n      add\n        /* \"#utility.yul\":5953:5959   */\n      dup5\n        /* \"#utility.yul\":5909:5980   */\n      tag_258\n      jump\t// in\n    tag_386:\n        /* \"#utility.yul\":5765:5987   */\n      swap3\n      swap2\n      pop\n      pop\n      jump\t// out\n        /* \"#utility.yul\":5993:6110   */\n    tag_259:\n        /* \"#utility.yul\":6102:6103   */\n      0x00\n        /* \"#utility.yul\":6099:6100   */\n      dup1\n        /* \"#utility.yul\":6092:6104   */\n      revert\n        /* \"#utility.yul\":6116:6233   */\n    tag_260:\n        /* \"#utility.yul\":6225:6226   */\n      0x00\n        /* \"#utility.yul\":6222:6223   */\n      dup1\n        /* \"#utility.yul\":6215:6227   */\n      revert\n        /* \"#utility.yul\":6239:6356   */\n    tag_261:\n        /* \"#utility.yul\":6348:6349   */\n      0x00\n        /* \"#utility.yul\":6345:6346   */\n      dup1\n        /* \"#utility.yul\":6338:6350   */\n      revert\n        /* \"#utility.yul\":6375:6927   */\n    tag_262:\n        /* \"#utility.yul\":6432:6440   */\n      0x00\n        /* \"#utility.yul\":6442:6448   */\n      dup1\n        /* \"#utility.yul\":6492:6495   */\n      dup4\n        /* \"#utility.yul\":6485:6489   */\n      0x1f\n        /* \"#utility.yul\":6477:6483   */\n      dup5\n        /* \"#utility.yul\":6473:6490   */\n      add\n        /* \"#utility.yul\":6469:6496   */\n      slt\n        /* \"#utility.yul\":6459:6581   */\n      tag_391\n      jumpi\n        /* \"#utility.yul\":6500:6579   */\n      tag_392\n      tag_259\n      jump\t// in\n    tag_392:\n        /* \"#utility.yul\":6459:6581   */\n    tag_391:\n        /* \"#utility.yul\":6613:6619   */\n      dup3\n        /* \"#utility.yul\":6600:6620   */\n      calldataload\n        /* \"#utility.yul\":6590:6620   */\n      swap1\n      pop\n        /* \"#utility.yul\":6643:6661   */\n      0xffffffffffffffff\n        /* \"#utility.yul\":6635:6641   */\n      dup2\n        /* \"#utility.yul\":6632:6662   */\n      gt\n        /* \"#utility.yul\":6629:6746   */\n      iszero\n      tag_393\n      jumpi\n        /* \"#utility.yul\":6665:6744   */\n      tag_394\n      tag_260\n      jump\t// in\n    tag_394:\n        /* \"#utility.yul\":6629:6746   */\n    tag_393:\n        /* \"#utility.yul\":6779:6783   */\n      0x20\n        /* \"#utility.yul\":6771:6777   */\n      dup4\n        /* \"#utility.yul\":6767:6784   */\n      add\n        /* \"#utility.yul\":6755:6784   */\n      swap2\n      pop\n        /* \"#utility.yul\":6833:6836   */\n      dup4\n        /* \"#utility.yul\":6825:6829   */\n      0x01\n        /* \"#utility.yul\":6817:6823   */\n      dup3\n        /* \"#utility.yul\":6813:6830   */\n      mul\n        /* \"#utility.yul\":6803:6811   */\n      dup4\n        /* \"#utility.yul\":6799:6831   */\n      add\n        /* \"#utility.yul\":6796:6837   */\n      gt\n        /* \"#utility.yul\":6793:6921   */\n      iszero\n      tag_395\n      jumpi\n        /* \"#utility.yul\":6840:6919   */\n      tag_396\n      tag_261\n      jump\t// in\n    tag_396:\n        /* \"#utility.yul\":6793:6921   */\n    tag_395:\n        /* \"#utility.yul\":6375:6927   */\n      swap3\n      pop\n      swap3\n      swap1\n      pop\n      jump\t// out\n        /* \"#utility.yul\":6933:7894   */\n    tag_82:\n        /* \"#utility.yul\":7029:7035   */\n      0x00\n        /* \"#utility.yul\":7037:7043   */\n      dup1\n        /* \"#utility.yul\":7045:7051   */\n      0x00\n        /* \"#utility.yul\":7053:7059   */\n      dup1\n        /* \"#utility.yul\":7061:7067   */\n      0x00\n        /* \"#utility.yul\":7110:7113   */\n      0x80\n        /* \"#utility.yul\":7098:7107   */\n      dup7\n        /* \"#utility.yul\":7089:7096   */\n      dup9\n        /* \"#utility.yul\":7085:7108   */\n      sub\n        /* \"#utility.yul\":7081:7114   */\n      slt\n        /* \"#utility.yul\":7078:7198   */\n      iszero\n      tag_398\n      jumpi\n        /* \"#utility.yul\":7117:7196   */\n      tag_399\n      tag_244\n      jump\t// in\n    tag_399:\n        /* \"#utility.yul\":7078:7198   */\n    tag_398:\n        /* \"#utility.yul\":7237:7238   */\n      0x00\n        /* \"#utility.yul\":7262:7315   */\n      tag_400\n        /* \"#utility.yul\":7307:7314   */\n      dup9\n        /* \"#utility.yul\":7298:7304   */\n      dup3\n        /* \"#utility.yul\":7287:7296   */\n      dup10\n        /* \"#utility.yul\":7283:7305   */\n      add\n        /* \"#utility.yul\":7262:7315   */\n      tag_248\n      jump\t// in\n    tag_400:\n        /* \"#utility.yul\":7252:7315   */\n      swap6\n      pop\n        /* \"#utility.yul\":7208:7325   */\n      pop\n        /* \"#utility.yul\":7364:7366   */\n      0x20\n        /* \"#utility.yul\":7390:7442   */\n      tag_401\n        /* \"#utility.yul\":7434:7441   */\n      dup9\n        /* \"#utility.yul\":7425:7431   */\n      dup3\n        /* \"#utility.yul\":7414:7423   */\n      dup10\n        /* \"#utility.yul\":7410:7432   */\n      add\n        /* \"#utility.yul\":7390:7442   */\n      tag_251\n      jump\t// in\n    tag_401:\n        /* \"#utility.yul\":7380:7442   */\n      swap5\n      pop\n        /* \"#utility.yul\":7335:7452   */\n      pop\n        /* \"#utility.yul\":7491:7493   */\n      0x40\n        /* \"#utility.yul\":7517:7570   */\n      tag_402\n        /* \"#utility.yul\":7562:7569   */\n      dup9\n        /* \"#utility.yul\":7553:7559   */\n      dup3\n        /* \"#utility.yul\":7542:7551   */\n      dup10\n        /* \"#utility.yul\":7538:7560   */\n      add\n        /* \"#utility.yul\":7517:7570   */\n      tag_257\n      jump\t// in\n    tag_402:\n        /* \"#utility.yul\":7507:7570   */\n      swap4\n      pop\n        /* \"#utility.yul\":7462:7580   */\n      pop\n        /* \"#utility.yul\":7647:7649   */\n      0x60\n        /* \"#utility.yul\":7636:7645   */\n      dup7\n        /* \"#utility.yul\":7632:7650   */\n      add\n        /* \"#utility.yul\":7619:7651   */\n      calldataload\n        /* \"#utility.yul\":7678:7696   */\n      0xffffffffffffffff\n        /* \"#utility.yul\":7670:7676   */\n      dup2\n        /* \"#utility.yul\":7667:7697   */\n      gt\n        /* \"#utility.yul\":7664:7781   */\n      iszero\n      tag_403\n      jumpi\n        /* \"#utility.yul\":7700:7779   */\n      tag_404\n      tag_245\n      jump\t// in\n    tag_404:\n        /* \"#utility.yul\":7664:7781   */\n    tag_403:\n        /* \"#utility.yul\":7813:7877   */\n      tag_405\n        /* \"#utility.yul\":7869:7876   */\n      dup9\n        /* \"#utility.yul\":7860:7866   */\n      dup3\n        /* \"#utility.yul\":7849:7858   */\n      dup10\n        /* \"#utility.yul\":7845:7867   */\n      add\n        /* \"#utility.yul\":7813:7877   */\n      tag_262\n      jump\t// in\n    tag_405:\n        /* \"#utility.yul\":7795:7877   */\n      swap3\n      pop\n      swap3\n      pop\n        /* \"#utility.yul\":7590:7887   */\n      pop\n        /* \"#utility.yul\":6933:7894   */\n      swap3\n      swap6\n      pop\n      swap3\n      swap6\n      swap1\n      swap4\n      pop\n      jump\t// out\n        /* \"#utility.yul\":7900:8372   */\n    tag_87:\n        /* \"#utility.yul\":7967:7973   */\n      0x00\n        /* \"#utility.yul\":7975:7981   */\n      dup1\n        /* \"#utility.yul\":8024:8026   */\n      0x40\n        /* \"#utility.yul\":8012:8021   */\n      dup4\n        /* \"#utility.yul\":8003:8010   */\n      dup6\n        /* \"#utility.yul\":7999:8022   */\n      sub\n        /* \"#utility.yul\":7995:8027   */\n      slt\n        /* \"#utility.yul\":7992:8111   */\n      iszero\n      tag_407\n      jumpi\n        /* \"#utility.yul\":8030:8109   */\n      tag_408\n      tag_244\n      jump\t// in\n    tag_408:\n        /* \"#utility.yul\":7992:8111   */\n    tag_407:\n        /* \"#utility.yul\":8150:8151   */\n      0x00\n        /* \"#utility.yul\":8175:8227   */\n      tag_409\n        /* \"#utility.yul\":8219:8226   */\n      dup6\n        /* \"#utility.yul\":8210:8216   */\n      dup3\n        /* \"#utility.yul\":8199:8208   */\n      dup7\n        /* \"#utility.yul\":8195:8217   */\n      add\n        /* \"#utility.yul\":8175:8227   */\n      tag_251\n      jump\t// in\n    tag_409:\n        /* \"#utility.yul\":8165:8227   */\n      swap3\n      pop\n        /* \"#utility.yul\":8121:8237   */\n      pop\n        /* \"#utility.yul\":8276:8278   */\n      0x20\n        /* \"#utility.yul\":8302:8355   */\n      tag_410\n        /* \"#utility.yul\":8347:8354   */\n      dup6\n        /* \"#utility.yul\":8338:8344   */\n      dup3\n        /* \"#utility.yul\":8327:8336   */\n      dup7\n        /* \"#utility.yul\":8323:8345   */\n      add\n        /* \"#utility.yul\":8302:8355   */\n      tag_257\n      jump\t// in\n    tag_410:\n        /* \"#utility.yul\":8292:8355   */\n      swap2\n      pop\n        /* \"#utility.yul\":8247:8365   */\n      pop\n        /* \"#utility.yul\":7900:8372   */\n      swap3\n      pop\n      swap3\n      swap1\n      pop\n      jump\t// out\n        /* \"#utility.yul\":8378:8495   */\n    tag_263:\n        /* \"#utility.yul\":8487:8488   */\n      0x00\n        /* \"#utility.yul\":8484:8485   */\n      dup1\n        /* \"#utility.yul\":8477:8489   */\n      revert\n        /* \"#utility.yul\":8501:8681   */\n    tag_264:\n        /* \"#utility.yul\":8549:8626   */\n      0x4e487b7100000000000000000000000000000000000000000000000000000000\n        /* \"#utility.yul\":8546:8547   */\n      0x00\n        /* \"#utility.yul\":8539:8627   */\n      mstore\n        /* \"#utility.yul\":8646:8650   */\n      0x41\n        /* \"#utility.yul\":8643:8644   */\n      0x04\n        /* \"#utility.yul\":8636:8651   */\n      mstore\n        /* \"#utility.yul\":8670:8674   */\n      0x24\n        /* \"#utility.yul\":8667:8668   */\n      0x00\n        /* \"#utility.yul\":8660:8675   */\n      revert\n        /* \"#utility.yul\":8687:8968   */\n    tag_265:\n        /* \"#utility.yul\":8770:8797   */\n      tag_414\n        /* \"#utility.yul\":8792:8796   */\n      dup3\n        /* \"#utility.yul\":8770:8797   */\n      tag_235\n      jump\t// in\n    tag_414:\n        /* \"#utility.yul\":8762:8768   */\n      dup2\n        /* \"#utility.yul\":8758:8798   */\n      add\n        /* \"#utility.yul\":8900:8906   */\n      dup2\n        /* \"#utility.yul\":8888:8898   */\n      dup2\n        /* \"#utility.yul\":8885:8907   */\n      lt\n        /* \"#utility.yul\":8864:8882   */\n      0xffffffffffffffff\n        /* \"#utility.yul\":8852:8862   */\n      dup3\n        /* \"#utility.yul\":8849:8883   */\n      gt\n        /* \"#utility.yul\":8846:8908   */\n      or\n        /* \"#utility.yul\":8843:8931   */\n      iszero\n      tag_415\n      jumpi\n        /* \"#utility.yul\":8911:8929   */\n      tag_416\n      tag_264\n      jump\t// in\n    tag_416:\n        /* \"#utility.yul\":8843:8931   */\n    tag_415:\n        /* \"#utility.yul\":8951:8961   */\n      dup1\n        /* \"#utility.yul\":8947:8949   */\n      0x40\n        /* \"#utility.yul\":8940:8962   */\n      mstore\n        /* \"#utility.yul\":8730:8968   */\n      pop\n        /* \"#utility.yul\":8687:8968   */\n      pop\n      pop\n      jump\t// out\n        /* \"#utility.yul\":8974:9103   */\n    tag_266:\n        /* \"#utility.yul\":9008:9014   */\n      0x00\n        /* \"#utility.yul\":9035:9055   */\n      tag_418\n      tag_243\n      jump\t// in\n    tag_418:\n        /* \"#utility.yul\":9025:9055   */\n      swap1\n      pop\n        /* \"#utility.yul\":9064:9097   */\n      tag_419\n        /* \"#utility.yul\":9092:9096   */\n      dup3\n        /* \"#utility.yul\":9084:9090   */\n      dup3\n        /* \"#utility.yul\":9064:9097   */\n      tag_265\n      jump\t// in\n    tag_419:\n        /* \"#utility.yul\":8974:9103   */\n      swap2\n      swap1\n      pop\n      jump\t// out\n        /* \"#utility.yul\":9109:9417   */\n    tag_267:\n        /* \"#utility.yul\":9171:9175   */\n      0x00\n        /* \"#utility.yul\":9261:9279   */\n      0xffffffffffffffff\n        /* \"#utility.yul\":9253:9259   */\n      dup3\n        /* \"#utility.yul\":9250:9280   */\n      gt\n        /* \"#utility.yul\":9247:9303   */\n      iszero\n      tag_421\n      jumpi\n        /* \"#utility.yul\":9283:9301   */\n      tag_422\n      tag_264\n      jump\t// in\n    tag_422:\n        /* \"#utility.yul\":9247:9303   */\n    tag_421:\n        /* \"#utility.yul\":9321:9350   */\n      tag_423\n        /* \"#utility.yul\":9343:9349   */\n      dup3\n        /* \"#utility.yul\":9321:9350   */\n      tag_235\n      jump\t// in\n    tag_423:\n        /* \"#utility.yul\":9313:9350   */\n      swap1\n      pop\n        /* \"#utility.yul\":9405:9409   */\n      0x20\n        /* \"#utility.yul\":9399:9403   */\n      dup2\n        /* \"#utility.yul\":9395:9410   */\n      add\n        /* \"#utility.yul\":9387:9410   */\n      swap1\n      pop\n        /* \"#utility.yul\":9109:9417   */\n      swap2\n      swap1\n      pop\n      jump\t// out\n        /* \"#utility.yul\":9423:9571   */\n    tag_268:\n        /* \"#utility.yul\":9521:9527   */\n      dup3\n        /* \"#utility.yul\":9516:9519   */\n      dup2\n        /* \"#utility.yul\":9511:9514   */\n      dup4\n        /* \"#utility.yul\":9498:9528   */\n      calldatacopy\n        /* \"#utility.yul\":9562:9563   */\n      0x00\n        /* \"#utility.yul\":9553:9559   */\n      dup4\n        /* \"#utility.yul\":9548:9551   */\n      dup4\n        /* \"#utility.yul\":9544:9560   */\n      add\n        /* \"#utility.yul\":9537:9564   */\n      mstore\n        /* \"#utility.yul\":9423:9571   */\n      pop\n      pop\n      pop\n      jump\t// out\n        /* \"#utility.yul\":9577:10002   */\n    tag_269:\n        /* \"#utility.yul\":9655:9660   */\n      0x00\n        /* \"#utility.yul\":9680:9746   */\n      tag_426\n        /* \"#utility.yul\":9696:9745   */\n      tag_427\n        /* \"#utility.yul\":9738:9744   */\n      dup5\n        /* \"#utility.yul\":9696:9745   */\n      tag_267\n      jump\t// in\n    tag_427:\n        /* \"#utility.yul\":9680:9746   */\n      tag_266\n      jump\t// in\n    tag_426:\n        /* \"#utility.yul\":9671:9746   */\n      swap1\n      pop\n        /* \"#utility.yul\":9769:9775   */\n      dup3\n        /* \"#utility.yul\":9762:9767   */\n      dup2\n        /* \"#utility.yul\":9755:9776   */\n      mstore\n        /* \"#utility.yul\":9807:9811   */\n      0x20\n        /* \"#utility.yul\":9800:9805   */\n      dup2\n        /* \"#utility.yul\":9796:9812   */\n      add\n        /* \"#utility.yul\":9845:9848   */\n      dup5\n        /* \"#utility.yul\":9836:9842   */\n      dup5\n        /* \"#utility.yul\":9831:9834   */\n      dup5\n        /* \"#utility.yul\":9827:9843   */\n      add\n        /* \"#utility.yul\":9824:9849   */\n      gt\n        /* \"#utility.yul\":9821:9933   */\n      iszero\n      tag_428\n      jumpi\n        /* \"#utility.yul\":9852:9931   */\n      tag_429\n      tag_263\n      jump\t// in\n    tag_429:\n        /* \"#utility.yul\":9821:9933   */\n    tag_428:\n        /* \"#utility.yul\":9942:9996   */\n      tag_430\n        /* \"#utility.yul\":9989:9995   */\n      dup5\n        /* \"#utility.yul\":9984:9987   */\n      dup3\n        /* \"#utility.yul\":9979:9982   */\n      dup6\n        /* \"#utility.yul\":9942:9996   */\n      tag_268\n      jump\t// in\n    tag_430:\n        /* \"#utility.yul\":9661:10002   */\n      pop\n        /* \"#utility.yul\":9577:10002   */\n      swap4\n      swap3\n      pop\n      pop\n      pop\n      jump\t// out\n        /* \"#utility.yul\":10022:10362   */\n    tag_270:\n        /* \"#utility.yul\":10078:10083   */\n      0x00\n        /* \"#utility.yul\":10127:10130   */\n      dup3\n        /* \"#utility.yul\":10120:10124   */\n      0x1f\n        /* \"#utility.yul\":10112:10118   */\n      dup4\n        /* \"#utility.yul\":10108:10125   */\n      add\n        /* \"#utility.yul\":10104:10131   */\n      slt\n        /* \"#utility.yul\":10094:10216   */\n      tag_432\n      jumpi\n        /* \"#utility.yul\":10135:10214   */\n      tag_433\n      tag_259\n      jump\t// in\n    tag_433:\n        /* \"#utility.yul\":10094:10216   */\n    tag_432:\n        /* \"#utility.yul\":10252:10258   */\n      dup2\n        /* \"#utility.yul\":10239:10259   */\n      calldataload\n        /* \"#utility.yul\":10277:10356   */\n      tag_434\n        /* \"#utility.yul\":10352:10355   */\n      dup5\n        /* \"#utility.yul\":10344:10350   */\n      dup3\n        /* \"#utility.yul\":10337:10341   */\n      0x20\n        /* \"#utility.yul\":10329:10335   */\n      dup7\n        /* \"#utility.yul\":10325:10342   */\n      add\n        /* \"#utility.yul\":10277:10356   */\n      tag_269\n      jump\t// in\n    tag_434:\n        /* \"#utility.yul\":10268:10356   */\n      swap2\n      pop\n        /* \"#utility.yul\":10084:10362   */\n      pop\n        /* \"#utility.yul\":10022:10362   */\n      swap3\n      swap2\n      pop\n      pop\n      jump\t// out\n        /* \"#utility.yul\":10368:11022   */\n    tag_97:\n        /* \"#utility.yul\":10446:10452   */\n      0x00\n        /* \"#utility.yul\":10454:10460   */\n      dup1\n        /* \"#utility.yul\":10503:10505   */\n      0x40\n        /* \"#utility.yul\":10491:10500   */\n      dup4\n        /* \"#utility.yul\":10482:10489   */\n      dup6\n        /* \"#utility.yul\":10478:10501   */\n      sub\n        /* \"#utility.yul\":10474:10506   */\n      slt\n        /* \"#utility.yul\":10471:10590   */\n      iszero\n      tag_436\n      jumpi\n        /* \"#utility.yul\":10509:10588   */\n      tag_437\n      tag_244\n      jump\t// in\n    tag_437:\n        /* \"#utility.yul\":10471:10590   */\n    tag_436:\n        /* \"#utility.yul\":10629:10630   */\n      0x00\n        /* \"#utility.yul\":10654:10707   */\n      tag_438\n        /* \"#utility.yul\":10699:10706   */\n      dup6\n        /* \"#utility.yul\":10690:10696   */\n      dup3\n        /* \"#utility.yul\":10679:10688   */\n      dup7\n        /* \"#utility.yul\":10675:10697   */\n      add\n        /* \"#utility.yul\":10654:10707   */\n      tag_257\n      jump\t// in\n    tag_438:\n        /* \"#utility.yul\":10644:10707   */\n      swap3\n      pop\n        /* \"#utility.yul\":10600:10717   */\n      pop\n        /* \"#utility.yul\":10784:10786   */\n      0x20\n        /* \"#utility.yul\":10773:10782   */\n      dup4\n        /* \"#utility.yul\":10769:10787   */\n      add\n        /* \"#utility.yul\":10756:10788   */\n      calldataload\n        /* \"#utility.yul\":10815:10833   */\n      0xffffffffffffffff\n        /* \"#utility.yul\":10807:10813   */\n      dup2\n        /* \"#utility.yul\":10804:10834   */\n      gt\n        /* \"#utility.yul\":10801:10918   */\n      iszero\n      tag_439\n      jumpi\n        /* \"#utility.yul\":10837:10916   */\n      tag_440\n      tag_245\n      jump\t// in\n    tag_440:\n        /* \"#utility.yul\":10801:10918   */\n    tag_439:\n        /* \"#utility.yul\":10942:11005   */\n      tag_441\n        /* \"#utility.yul\":10997:11004   */\n      dup6\n        /* \"#utility.yul\":10988:10994   */\n      dup3\n        /* \"#utility.yul\":10977:10986   */\n      dup7\n        /* \"#utility.yul\":10973:10995   */\n      add\n        /* \"#utility.yul\":10942:11005   */\n      tag_270\n      jump\t// in\n    tag_441:\n        /* \"#utility.yul\":10932:11005   */\n      swap2\n      pop\n        /* \"#utility.yul\":10727:11015   */\n      pop\n        /* \"#utility.yul\":10368:11022   */\n      swap3\n      pop\n      swap3\n      swap1\n      pop\n      jump\t// out\n        /* \"#utility.yul\":11028:11355   */\n    tag_103:\n        /* \"#utility.yul\":11086:11092   */\n      0x00\n        /* \"#utility.yul\":11135:11137   */\n      0x20\n        /* \"#utility.yul\":11123:11132   */\n      dup3\n        /* \"#utility.yul\":11114:11121   */\n      dup5\n        /* \"#utility.yul\":11110:11133   */\n      sub\n        /* \"#utility.yul\":11106:11138   */\n      slt\n        /* \"#utility.yul\":11103:11222   */\n      iszero\n      tag_443\n      jumpi\n        /* \"#utility.yul\":11141:11220   */\n      tag_444\n      tag_244\n      jump\t// in\n    tag_444:\n        /* \"#utility.yul\":11103:11222   */\n    tag_443:\n        /* \"#utility.yul\":11261:11262   */\n      0x00\n        /* \"#utility.yul\":11286:11338   */\n      tag_445\n        /* \"#utility.yul\":11330:11337   */\n      dup5\n        /* \"#utility.yul\":11321:11327   */\n      dup3\n        /* \"#utility.yul\":11310:11319   */\n      dup6\n        /* \"#utility.yul\":11306:11328   */\n      add\n        /* \"#utility.yul\":11286:11338   */\n      tag_251\n      jump\t// in\n    tag_445:\n        /* \"#utility.yul\":11276:11338   */\n      swap2\n      pop\n        /* \"#utility.yul\":11232:11348   */\n      pop\n        /* \"#utility.yul\":11028:11355   */\n      swap3\n      swap2\n      pop\n      pop\n      jump\t// out\n        /* \"#utility.yul\":11361:12160   */\n    tag_113:\n        /* \"#utility.yul\":11448:11454   */\n      0x00\n        /* \"#utility.yul\":11456:11462   */\n      dup1\n        /* \"#utility.yul\":11464:11470   */\n      0x00\n        /* \"#utility.yul\":11513:11515   */\n      0x60\n        /* \"#utility.yul\":11501:11510   */\n      dup5\n        /* \"#utility.yul\":11492:11499   */\n      dup7\n        /* \"#utility.yul\":11488:11511   */\n      sub\n        /* \"#utility.yul\":11484:11516   */\n      slt\n        /* \"#utility.yul\":11481:11600   */\n      iszero\n      tag_447\n      jumpi\n        /* \"#utility.yul\":11519:11598   */\n      tag_448\n      tag_244\n      jump\t// in\n    tag_448:\n        /* \"#utility.yul\":11481:11600   */\n    tag_447:\n        /* \"#utility.yul\":11639:11640   */\n      0x00\n        /* \"#utility.yul\":11664:11717   */\n      tag_449\n        /* \"#utility.yul\":11709:11716   */\n      dup7\n        /* \"#utility.yul\":11700:11706   */\n      dup3\n        /* \"#utility.yul\":11689:11698   */\n      dup8\n        /* \"#utility.yul\":11685:11707   */\n      add\n        /* \"#utility.yul\":11664:11717   */\n      tag_248\n      jump\t// in\n    tag_449:\n        /* \"#utility.yul\":11654:11717   */\n      swap4\n      pop\n        /* \"#utility.yul\":11610:11727   */\n      pop\n        /* \"#utility.yul\":11766:11768   */\n      0x20\n        /* \"#utility.yul\":11792:11845   */\n      tag_450\n        /* \"#utility.yul\":11837:11844   */\n      dup7\n        /* \"#utility.yul\":11828:11834   */\n      dup3\n        /* \"#utility.yul\":11817:11826   */\n      dup8\n        /* \"#utility.yul\":11813:11835   */\n      add\n        /* \"#utility.yul\":11792:11845   */\n      tag_257\n      jump\t// in\n    tag_450:\n        /* \"#utility.yul\":11782:11845   */\n      swap3\n      pop\n        /* \"#utility.yul\":11737:11855   */\n      pop\n        /* \"#utility.yul\":11922:11924   */\n      0x40\n        /* \"#utility.yul\":11911:11920   */\n      dup5\n        /* \"#utility.yul\":11907:11925   */\n      add\n        /* \"#utility.yul\":11894:11926   */\n      calldataload\n        /* \"#utility.yul\":11953:11971   */\n      0xffffffffffffffff\n        /* \"#utility.yul\":11945:11951   */\n      dup2\n        /* \"#utility.yul\":11942:11972   */\n      gt\n        /* \"#utility.yul\":11939:12056   */\n      iszero\n      tag_451\n      jumpi\n        /* \"#utility.yul\":11975:12054   */\n      tag_452\n      tag_245\n      jump\t// in\n    tag_452:\n        /* \"#utility.yul\":11939:12056   */\n    tag_451:\n        /* \"#utility.yul\":12080:12143   */\n      tag_453\n        /* \"#utility.yul\":12135:12142   */\n      dup7\n        /* \"#utility.yul\":12126:12132   */\n      dup3\n        /* \"#utility.yul\":12115:12124   */\n      dup8\n        /* \"#utility.yul\":12111:12133   */\n      add\n        /* \"#utility.yul\":12080:12143   */\n      tag_270\n      jump\t// in\n    tag_453:\n        /* \"#utility.yul\":12070:12143   */\n      swap2\n      pop\n        /* \"#utility.yul\":11865:12153   */\n      pop\n        /* \"#utility.yul\":11361:12160   */\n      swap3\n      pop\n      swap3\n      pop\n      swap3\n      jump\t// out\n        /* \"#utility.yul\":12166:12346   */\n    tag_271:\n        /* \"#utility.yul\":12214:12291   */\n      0x4e487b7100000000000000000000000000000000000000000000000000000000\n        /* \"#utility.yul\":12211:12212   */\n      0x00\n        /* \"#utility.yul\":12204:12292   */\n      mstore\n        /* \"#utility.yul\":12311:12315   */\n      0x22\n        /* \"#utility.yul\":12308:12309   */\n      0x04\n        /* \"#utility.yul\":12301:12316   */\n      mstore\n        /* \"#utility.yul\":12335:12339   */\n      0x24\n        /* \"#utility.yul\":12332:12333   */\n      0x00\n        /* \"#utility.yul\":12325:12340   */\n      revert\n        /* \"#utility.yul\":12352:12672   */\n    tag_116:\n        /* \"#utility.yul\":12396:12402   */\n      0x00\n        /* \"#utility.yul\":12433:12434   */\n      0x02\n        /* \"#utility.yul\":12427:12431   */\n      dup3\n        /* \"#utility.yul\":12423:12435   */\n      div\n        /* \"#utility.yul\":12413:12435   */\n      swap1\n      pop\n        /* \"#utility.yul\":12480:12481   */\n      0x01\n        /* \"#utility.yul\":12474:12478   */\n      dup3\n        /* \"#utility.yul\":12470:12482   */\n      and\n        /* \"#utility.yul\":12501:12519   */\n      dup1\n        /* \"#utility.yul\":12491:12572   */\n      tag_456\n      jumpi\n        /* \"#utility.yul\":12557:12561   */\n      0x7f\n        /* \"#utility.yul\":12549:12555   */\n      dup3\n        /* \"#utility.yul\":12545:12562   */\n      and\n        /* \"#utility.yul\":12535:12562   */\n      swap2\n      pop\n        /* \"#utility.yul\":12491:12572   */\n    tag_456:\n        /* \"#utility.yul\":12619:12621   */\n      0x20\n        /* \"#utility.yul\":12611:12617   */\n      dup3\n        /* \"#utility.yul\":12608:12622   */\n      lt\n        /* \"#utility.yul\":12588:12606   */\n      dup2\n        /* \"#utility.yul\":12585:12623   */\n      sub\n        /* \"#utility.yul\":12582:12666   */\n      tag_457\n      jumpi\n        /* \"#utility.yul\":12638:12656   */\n      tag_458\n      tag_271\n      jump\t// in\n    tag_458:\n        /* \"#utility.yul\":12582:12666   */\n    tag_457:\n        /* \"#utility.yul\":12403:12672   */\n      pop\n        /* \"#utility.yul\":12352:12672   */\n      swap2\n      swap1\n      pop\n      jump\t// out\n        /* \"#utility.yul\":12678:12838   */\n    tag_272:\n        /* \"#utility.yul\":12818:12830   */\n      0x4e6f74206d696e74656400000000000000000000000000000000000000000000\n        /* \"#utility.yul\":12814:12815   */\n      0x00\n        /* \"#utility.yul\":12806:12812   */\n      dup3\n        /* \"#utility.yul\":12802:12816   */\n      add\n        /* \"#utility.yul\":12795:12831   */\n      mstore\n        /* \"#utility.yul\":12678:12838   */\n      pop\n      jump\t// out\n        /* \"#utility.yul\":12844:13210   */\n    tag_273:\n        /* \"#utility.yul\":12986:12989   */\n      0x00\n        /* \"#utility.yul\":13007:13074   */\n      tag_461\n        /* \"#utility.yul\":13071:13073   */\n      0x0a\n        /* \"#utility.yul\":13066:13069   */\n      dup4\n        /* \"#utility.yul\":13007:13074   */\n      tag_233\n      jump\t// in\n    tag_461:\n        /* \"#utility.yul\":13000:13074   */\n      swap2\n      pop\n        /* \"#utility.yul\":13083:13176   */\n      tag_462\n        /* \"#utility.yul\":13172:13175   */\n      dup3\n        /* \"#utility.yul\":13083:13176   */\n      tag_272\n      jump\t// in\n    tag_462:\n        /* \"#utility.yul\":13201:13203   */\n      0x20\n        /* \"#utility.yul\":13196:13199   */\n      dup3\n        /* \"#utility.yul\":13192:13204   */\n      add\n        /* \"#utility.yul\":13185:13204   */\n      swap1\n      pop\n        /* \"#utility.yul\":12844:13210   */\n      swap2\n      swap1\n      pop\n      jump\t// out\n        /* \"#utility.yul\":13216:13635   */\n    tag_124:\n        /* \"#utility.yul\":13382:13386   */\n      0x00\n        /* \"#utility.yul\":13420:13422   */\n      0x20\n        /* \"#utility.yul\":13409:13418   */\n      dup3\n        /* \"#utility.yul\":13405:13423   */\n      add\n        /* \"#utility.yul\":13397:13423   */\n      swap1\n      pop\n        /* \"#utility.yul\":13469:13478   */\n      dup2\n        /* \"#utility.yul\":13463:13467   */\n      dup2\n        /* \"#utility.yul\":13459:13479   */\n      sub\n        /* \"#utility.yul\":13455:13456   */\n      0x00\n        /* \"#utility.yul\":13444:13453   */\n      dup4\n        /* \"#utility.yul\":13440:13457   */\n      add\n        /* \"#utility.yul\":13433:13480   */\n      mstore\n        /* \"#utility.yul\":13497:13628   */\n      tag_464\n        /* \"#utility.yul\":13623:13627   */\n      dup2\n        /* \"#utility.yul\":13497:13628   */\n      tag_273\n      jump\t// in\n    tag_464:\n        /* \"#utility.yul\":13489:13628   */\n      swap1\n      pop\n        /* \"#utility.yul\":13216:13635   */\n      swap2\n      swap1\n      pop\n      jump\t// out\n        /* \"#utility.yul\":13641:13803   */\n    tag_274:\n        /* \"#utility.yul\":13781:13795   */\n      0x5a65726f20616464726573730000000000000000000000000000000000000000\n        /* \"#utility.yul\":13777:13778   */\n      0x00\n        /* \"#utility.yul\":13769:13775   */\n      dup3\n        /* \"#utility.yul\":13765:13779   */\n      add\n        /* \"#utility.yul\":13758:13796   */\n      mstore\n        /* \"#utility.yul\":13641:13803   */\n      pop\n      jump\t// out\n        /* \"#utility.yul\":13809:14175   */\n    tag_275:\n        /* \"#utility.yul\":13951:13954   */\n      0x00\n        /* \"#utility.yul\":13972:14039   */\n      tag_467\n        /* \"#utility.yul\":14036:14038   */\n      0x0c\n        /* \"#utility.yul\":14031:14034   */\n      dup4\n        /* \"#utility.yul\":13972:14039   */\n      tag_233\n      jump\t// in\n    tag_467:\n        /* \"#utility.yul\":13965:14039   */\n      swap2\n      pop\n        /* \"#utility.yul\":14048:14141   */\n      tag_468\n        /* \"#utility.yul\":14137:14140   */\n      dup3\n        /* \"#utility.yul\":14048:14141   */\n      tag_274\n      jump\t// in\n    tag_468:\n        /* \"#utility.yul\":14166:14168   */\n      0x20\n        /* \"#utility.yul\":14161:14164   */\n      dup3\n        /* \"#utility.yul\":14157:14169   */\n      add\n        /* \"#utility.yul\":14150:14169   */\n      swap1\n      pop\n        /* \"#utility.yul\":13809:14175   */\n      swap2\n      swap1\n      pop\n      jump\t// out\n        /* \"#utility.yul\":14181:14600   */\n    tag_134:\n        /* \"#utility.yul\":14347:14351   */\n      0x00\n        /* \"#utility.yul\":14385:14387   */\n      0x20\n        /* \"#utility.yul\":14374:14383   */\n      dup3\n        /* \"#utility.yul\":14370:14388   */\n      add\n        /* \"#utility.yul\":14362:14388   */\n      swap1\n      pop\n        /* \"#utility.yul\":14434:14443   */\n      dup2\n        /* \"#utility.yul\":14428:14432   */\n      dup2\n        /* \"#utility.yul\":14424:14444   */\n      sub\n        /* \"#utility.yul\":14420:14421   */\n      0x00\n        /* \"#utility.yul\":14409:14418   */\n      dup4\n        /* \"#utility.yul\":14405:14422   */\n      add\n        /* \"#utility.yul\":14398:14445   */\n      mstore\n        /* \"#utility.yul\":14462:14593   */\n      tag_470\n        /* \"#utility.yul\":14588:14592   */\n      dup2\n        /* \"#utility.yul\":14462:14593   */\n      tag_275\n      jump\t// in\n    tag_470:\n        /* \"#utility.yul\":14454:14593   */\n      swap1\n      pop\n        /* \"#utility.yul\":14181:14600   */\n      swap2\n      swap1\n      pop\n      jump\t// out\n        /* \"#utility.yul\":14606:14788   */\n    tag_276:\n        /* \"#utility.yul\":14746:14780   */\n      0x4f776e61626c653a2063616c6c6572206973206e6f7420746865206f776e6572\n        /* \"#utility.yul\":14742:14743   */\n      0x00\n        /* \"#utility.yul\":14734:14740   */\n      dup3\n        /* \"#utility.yul\":14730:14744   */\n      add\n        /* \"#utility.yul\":14723:14781   */\n      mstore\n        /* \"#utility.yul\":14606:14788   */\n      pop\n      jump\t// out\n        /* \"#utility.yul\":14794:15160   */\n    tag_277:\n        /* \"#utility.yul\":14936:14939   */\n      0x00\n        /* \"#utility.yul\":14957:15024   */\n      tag_473\n        /* \"#utility.yul\":15021:15023   */\n      0x20\n        /* \"#utility.yul\":15016:15019   */\n      dup4\n        /* \"#utility.yul\":14957:15024   */\n      tag_233\n      jump\t// in\n    tag_473:\n        /* \"#utility.yul\":14950:15024   */\n      swap2\n      pop\n        /* \"#utility.yul\":15033:15126   */\n      tag_474\n        /* \"#utility.yul\":15122:15125   */\n      dup3\n        /* \"#utility.yul\":15033:15126   */\n      tag_276\n      jump\t// in\n    tag_474:\n        /* \"#utility.yul\":15151:15153   */\n      0x20\n        /* \"#utility.yul\":15146:15149   */\n      dup3\n        /* \"#utility.yul\":15142:15154   */\n      add\n        /* \"#utility.yul\":15135:15154   */\n      swap1\n      pop\n        /* \"#utility.yul\":14794:15160   */\n      swap2\n      swap1\n      pop\n      jump\t// out\n        /* \"#utility.yul\":15166:15585   */\n    tag_147:\n        /* \"#utility.yul\":15332:15336   */\n      0x00\n        /* \"#utility.yul\":15370:15372   */\n      0x20\n        /* \"#utility.yul\":15359:15368   */\n      dup3\n        /* \"#utility.yul\":15355:15373   */\n      add\n        /* \"#utility.yul\":15347:15373   */\n      swap1\n      pop\n        /* \"#utility.yul\":15419:15428   */\n      dup2\n        /* \"#utility.yul\":15413:15417   */\n      dup2\n        /* \"#utility.yul\":15409:15429   */\n      sub\n        /* \"#utility.yul\":15405:15406   */\n      0x00\n        /* \"#utility.yul\":15394:15403   */\n      dup4\n        /* \"#utility.yul\":15390:15407   */\n      add\n        /* \"#utility.yul\":15383:15430   */\n      mstore\n        /* \"#utility.yul\":15447:15578   */\n      tag_476\n        /* \"#utility.yul\":15573:15577   */\n      dup2\n        /* \"#utility.yul\":15447:15578   */\n      tag_277\n      jump\t// in\n    tag_476:\n        /* \"#utility.yul\":15439:15578   */\n      swap1\n      pop\n        /* \"#utility.yul\":15166:15585   */\n      swap2\n      swap1\n      pop\n      jump\t// out\n        /* \"#utility.yul\":15591:15756   */\n    tag_278:\n        /* \"#utility.yul\":15731:15748   */\n      0x4e6f7420746f6b656e206f776e65720000000000000000000000000000000000\n        /* \"#utility.yul\":15727:15728   */\n      0x00\n        /* \"#utility.yul\":15719:15725   */\n      dup3\n        /* \"#utility.yul\":15715:15729   */\n      add\n        /* \"#utility.yul\":15708:15749   */\n      mstore\n        /* \"#utility.yul\":15591:15756   */\n      pop\n      jump\t// out\n        /* \"#utility.yul\":15762:16128   */\n    tag_279:\n        /* \"#utility.yul\":15904:15907   */\n      0x00\n        /* \"#utility.yul\":15925:15992   */\n      tag_479\n        /* \"#utility.yul\":15989:15991   */\n      0x0f\n        /* \"#utility.yul\":15984:15987   */\n      dup4\n        /* \"#utility.yul\":15925:15992   */\n      tag_233\n      jump\t// in\n    tag_479:\n        /* \"#utility.yul\":15918:15992   */\n      swap2\n      pop\n        /* \"#utility.yul\":16001:16094   */\n      tag_480\n        /* \"#utility.yul\":16090:16093   */\n      dup3\n        /* \"#utility.yul\":16001:16094   */\n      tag_278\n      jump\t// in\n    tag_480:\n        /* \"#utility.yul\":16119:16121   */\n      0x20\n        /* \"#utility.yul\":16114:16117   */\n      dup3\n        /* \"#utility.yul\":16110:16122   */\n      add\n        /* \"#utility.yul\":16103:16122   */\n      swap1\n      pop\n        /* \"#utility.yul\":15762:16128   */\n      swap2\n      swap1\n      pop\n      jump\t// out\n        /* \"#utility.yul\":16134:16553   */\n    tag_153:\n        /* \"#utility.yul\":16300:16304   */\n      0x00\n        /* \"#utility.yul\":16338:16340   */\n      0x20\n        /* \"#utility.yul\":16327:16336   */\n      dup3\n        /* \"#utility.yul\":16323:16341   */\n      add\n        /* \"#utility.yul\":16315:16341   */\n      swap1\n      pop\n        /* \"#utility.yul\":16387:16396   */\n      dup2\n        /* \"#utility.yul\":16381:16385   */\n      dup2\n        /* \"#utility.yul\":16377:16397   */\n      sub\n        /* \"#utility.yul\":16373:16374   */\n      0x00\n        /* \"#utility.yul\":16362:16371   */\n      dup4\n        /* \"#utility.yul\":16358:16375   */\n      add\n        /* \"#utility.yul\":16351:16398   */\n      mstore\n        /* \"#utility.yul\":16415:16546   */\n      tag_482\n        /* \"#utility.yul\":16541:16545   */\n      dup2\n        /* \"#utility.yul\":16415:16546   */\n      tag_279\n      jump\t// in\n    tag_482:\n        /* \"#utility.yul\":16407:16546   */\n      swap1\n      pop\n        /* \"#utility.yul\":16134:16553   */\n      swap2\n      swap1\n      pop\n      jump\t// out\n        /* \"#utility.yul\":16559:16728   */\n    tag_280:\n        /* \"#utility.yul\":16699:16720   */\n      0x436861696e206e6f7420636f6e6e656374656400000000000000000000000000\n        /* \"#utility.yul\":16695:16696   */\n      0x00\n        /* \"#utility.yul\":16687:16693   */\n      dup3\n        /* \"#utility.yul\":16683:16697   */\n      add\n        /* \"#utility.yul\":16676:16721   */\n      mstore\n        /* \"#utility.yul\":16559:16728   */\n      pop\n      jump\t// out\n        /* \"#utility.yul\":16734:17100   */\n    tag_281:\n        /* \"#utility.yul\":16876:16879   */\n      0x00\n        /* \"#utility.yul\":16897:16964   */\n      tag_485\n        /* \"#utility.yul\":16961:16963   */\n      0x13\n        /* \"#utility.yul\":16956:16959   */\n      dup4\n        /* \"#utility.yul\":16897:16964   */\n      tag_233\n      jump\t// in\n    tag_485:\n        /* \"#utility.yul\":16890:16964   */\n      swap2\n      pop\n        /* \"#utility.yul\":16973:17066   */\n      tag_486\n        /* \"#utility.yul\":17062:17065   */\n      dup3\n        /* \"#utility.yul\":16973:17066   */\n      tag_280\n      jump\t// in\n    tag_486:\n        /* \"#utility.yul\":17091:17093   */\n      0x20\n        /* \"#utility.yul\":17086:17089   */\n      dup3\n        /* \"#utility.yul\":17082:17094   */\n      add\n        /* \"#utility.yul\":17075:17094   */\n      swap1\n      pop\n        /* \"#utility.yul\":16734:17100   */\n      swap2\n      swap1\n      pop\n      jump\t// out\n        /* \"#utility.yul\":17106:17525   */\n    tag_156:\n        /* \"#utility.yul\":17272:17276   */\n      0x00\n        /* \"#utility.yul\":17310:17312   */\n      0x20\n        /* \"#utility.yul\":17299:17308   */\n      dup3\n        /* \"#utility.yul\":17295:17313   */\n      add\n        /* \"#utility.yul\":17287:17313   */\n      swap1\n      pop\n        /* \"#utility.yul\":17359:17368   */\n      dup2\n        /* \"#utility.yul\":17353:17357   */\n      dup2\n        /* \"#utility.yul\":17349:17369   */\n      sub\n        /* \"#utility.yul\":17345:17346   */\n      0x00\n        /* \"#utility.yul\":17334:17343   */\n      dup4\n        /* \"#utility.yul\":17330:17347   */\n      add\n        /* \"#utility.yul\":17323:17370   */\n      mstore\n        /* \"#utility.yul\":17387:17518   */\n      tag_488\n        /* \"#utility.yul\":17513:17517   */\n      dup2\n        /* \"#utility.yul\":17387:17518   */\n      tag_281\n      jump\t// in\n    tag_488:\n        /* \"#utility.yul\":17379:17518   */\n      swap1\n      pop\n        /* \"#utility.yul\":17106:17525   */\n      swap2\n      swap1\n      pop\n      jump\t// out\n        /* \"#utility.yul\":17531:17646   */\n    tag_282:\n        /* \"#utility.yul\":17616:17639   */\n      tag_490\n        /* \"#utility.yul\":17633:17638   */\n      dup2\n        /* \"#utility.yul\":17616:17639   */\n      tag_249\n      jump\t// in\n    tag_490:\n        /* \"#utility.yul\":17611:17614   */\n      dup3\n        /* \"#utility.yul\":17604:17640   */\n      mstore\n        /* \"#utility.yul\":17531:17646   */\n      pop\n      pop\n      jump\t// out\n        /* \"#utility.yul\":17652:17820   */\n    tag_283:\n        /* \"#utility.yul\":17735:17746   */\n      0x00\n        /* \"#utility.yul\":17769:17775   */\n      dup3\n        /* \"#utility.yul\":17764:17767   */\n      dup3\n        /* \"#utility.yul\":17757:17776   */\n      mstore\n        /* \"#utility.yul\":17809:17813   */\n      0x20\n        /* \"#utility.yul\":17804:17807   */\n      dup3\n        /* \"#utility.yul\":17800:17814   */\n      add\n        /* \"#utility.yul\":17785:17814   */\n      swap1\n      pop\n        /* \"#utility.yul\":17652:17820   */\n      swap3\n      swap2\n      pop\n      pop\n      jump\t// out\n        /* \"#utility.yul\":17848:18162   */\n    tag_284:\n        /* \"#utility.yul\":17944:17947   */\n      0x00\n        /* \"#utility.yul\":17965:18035   */\n      tag_493\n        /* \"#utility.yul\":18028:18034   */\n      dup4\n        /* \"#utility.yul\":18023:18026   */\n      dup6\n        /* \"#utility.yul\":17965:18035   */\n      tag_283\n      jump\t// in\n    tag_493:\n        /* \"#utility.yul\":17958:18035   */\n      swap4\n      pop\n        /* \"#utility.yul\":18045:18101   */\n      tag_494\n        /* \"#utility.yul\":18094:18100   */\n      dup4\n        /* \"#utility.yul\":18089:18092   */\n      dup6\n        /* \"#utility.yul\":18082:18087   */\n      dup5\n        /* \"#utility.yul\":18045:18101   */\n      tag_268\n      jump\t// in\n    tag_494:\n        /* \"#utility.yul\":18126:18155   */\n      tag_495\n        /* \"#utility.yul\":18148:18154   */\n      dup4\n        /* \"#utility.yul\":18126:18155   */\n      tag_235\n      jump\t// in\n    tag_495:\n        /* \"#utility.yul\":18121:18124   */\n      dup5\n        /* \"#utility.yul\":18117:18156   */\n      add\n        /* \"#utility.yul\":18110:18156   */\n      swap1\n      pop\n        /* \"#utility.yul\":17848:18162   */\n      swap4\n      swap3\n      pop\n      pop\n      pop\n      jump\t// out\n        /* \"#utility.yul\":18168:18824   */\n    tag_160:\n        /* \"#utility.yul\":18371:18375   */\n      0x00\n        /* \"#utility.yul\":18409:18412   */\n      0x80\n        /* \"#utility.yul\":18398:18407   */\n      dup3\n        /* \"#utility.yul\":18394:18413   */\n      add\n        /* \"#utility.yul\":18386:18413   */\n      swap1\n      pop\n        /* \"#utility.yul\":18423:18494   */\n      tag_497\n        /* \"#utility.yul\":18491:18492   */\n      0x00\n        /* \"#utility.yul\":18480:18489   */\n      dup4\n        /* \"#utility.yul\":18476:18493   */\n      add\n        /* \"#utility.yul\":18467:18473   */\n      dup9\n        /* \"#utility.yul\":18423:18494   */\n      tag_258\n      jump\t// in\n    tag_497:\n        /* \"#utility.yul\":18504:18574   */\n      tag_498\n        /* \"#utility.yul\":18570:18572   */\n      0x20\n        /* \"#utility.yul\":18559:18568   */\n      dup4\n        /* \"#utility.yul\":18555:18573   */\n      add\n        /* \"#utility.yul\":18546:18552   */\n      dup8\n        /* \"#utility.yul\":18504:18574   */\n      tag_282\n      jump\t// in\n    tag_498:\n        /* \"#utility.yul\":18584:18656   */\n      tag_499\n        /* \"#utility.yul\":18652:18654   */\n      0x40\n        /* \"#utility.yul\":18641:18650   */\n      dup4\n        /* \"#utility.yul\":18637:18655   */\n      add\n        /* \"#utility.yul\":18628:18634   */\n      dup7\n        /* \"#utility.yul\":18584:18656   */\n      tag_255\n      jump\t// in\n    tag_499:\n        /* \"#utility.yul\":18703:18712   */\n      dup2\n        /* \"#utility.yul\":18697:18701   */\n      dup2\n        /* \"#utility.yul\":18693:18713   */\n      sub\n        /* \"#utility.yul\":18688:18690   */\n      0x60\n        /* \"#utility.yul\":18677:18686   */\n      dup4\n        /* \"#utility.yul\":18673:18691   */\n      add\n        /* \"#utility.yul\":18666:18714   */\n      mstore\n        /* \"#utility.yul\":18731:18817   */\n      tag_500\n        /* \"#utility.yul\":18812:18816   */\n      dup2\n        /* \"#utility.yul\":18803:18809   */\n      dup5\n        /* \"#utility.yul\":18795:18801   */\n      dup7\n        /* \"#utility.yul\":18731:18817   */\n      tag_284\n      jump\t// in\n    tag_500:\n        /* \"#utility.yul\":18723:18817   */\n      swap1\n      pop\n        /* \"#utility.yul\":18168:18824   */\n      swap7\n      swap6\n      pop\n      pop\n      pop\n      pop\n      pop\n      pop\n      jump\t// out\n        /* \"#utility.yul\":18830:18928   */\n    tag_285:\n        /* \"#utility.yul\":18881:18887   */\n      0x00\n        /* \"#utility.yul\":18915:18920   */\n      dup2\n        /* \"#utility.yul\":18909:18921   */\n      mload\n        /* \"#utility.yul\":18899:18921   */\n      swap1\n      pop\n        /* \"#utility.yul\":18830:18928   */\n      swap2\n      swap1\n      pop\n      jump\t// out\n        /* \"#utility.yul\":18934:19081   */\n    tag_286:\n        /* \"#utility.yul\":19035:19046   */\n      0x00\n        /* \"#utility.yul\":19072:19075   */\n      dup2\n        /* \"#utility.yul\":19057:19075   */\n      swap1\n      pop\n        /* \"#utility.yul\":18934:19081   */\n      swap3\n      swap2\n      pop\n      pop\n      jump\t// out\n        /* \"#utility.yul\":19087:19473   */\n    tag_287:\n        /* \"#utility.yul\":19191:19194   */\n      0x00\n        /* \"#utility.yul\":19219:19257   */\n      tag_504\n        /* \"#utility.yul\":19251:19256   */\n      dup3\n        /* \"#utility.yul\":19219:19257   */\n      tag_285\n      jump\t// in\n    tag_504:\n        /* \"#utility.yul\":19273:19361   */\n      tag_505\n        /* \"#utility.yul\":19354:19360   */\n      dup2\n        /* \"#utility.yul\":19349:19352   */\n      dup6\n        /* \"#utility.yul\":19273:19361   */\n      tag_286\n      jump\t// in\n    tag_505:\n        /* \"#utility.yul\":19266:19361   */\n      swap4\n      pop\n        /* \"#utility.yul\":19370:19435   */\n      tag_506\n        /* \"#utility.yul\":19428:19434   */\n      dup2\n        /* \"#utility.yul\":19423:19426   */\n      dup6\n        /* \"#utility.yul\":19416:19420   */\n      0x20\n        /* \"#utility.yul\":19409:19414   */\n      dup7\n        /* \"#utility.yul\":19405:19421   */\n      add\n        /* \"#utility.yul\":19370:19435   */\n      tag_234\n      jump\t// in\n    tag_506:\n        /* \"#utility.yul\":19460:19466   */\n      dup1\n        /* \"#utility.yul\":19455:19458   */\n      dup5\n        /* \"#utility.yul\":19451:19467   */\n      add\n        /* \"#utility.yul\":19444:19467   */\n      swap2\n      pop\n        /* \"#utility.yul\":19195:19473   */\n      pop\n        /* \"#utility.yul\":19087:19473   */\n      swap3\n      swap2\n      pop\n      pop\n      jump\t// out\n        /* \"#utility.yul\":19479:19750   */\n    tag_162:\n        /* \"#utility.yul\":19609:19612   */\n      0x00\n        /* \"#utility.yul\":19631:19724   */\n      tag_508\n        /* \"#utility.yul\":19720:19723   */\n      dup3\n        /* \"#utility.yul\":19711:19717   */\n      dup5\n        /* \"#utility.yul\":19631:19724   */\n      tag_287\n      jump\t// in\n    tag_508:\n        /* \"#utility.yul\":19624:19724   */\n      swap2\n      pop\n        /* \"#utility.yul\":19741:19744   */\n      dup2\n        /* \"#utility.yul\":19734:19744   */\n      swap1\n      pop\n        /* \"#utility.yul\":19479:19750   */\n      swap3\n      swap2\n      pop\n      pop\n      jump\t// out\n        /* \"#utility.yul\":19756:19924   */\n    tag_288:\n        /* \"#utility.yul\":19896:19916   */\n      0x4272696467652063616c6c206661696c65640000000000000000000000000000\n        /* \"#utility.yul\":19892:19893   */\n      0x00\n        /* \"#utility.yul\":19884:19890   */\n      dup3\n        /* \"#utility.yul\":19880:19894   */\n      add\n        /* \"#utility.yul\":19873:19917   */\n      mstore\n        /* \"#utility.yul\":19756:19924   */\n      pop\n      jump\t// out\n        /* \"#utility.yul\":19930:20296   */\n    tag_289:\n        /* \"#utility.yul\":20072:20075   */\n      0x00\n        /* \"#utility.yul\":20093:20160   */\n      tag_511\n        /* \"#utility.yul\":20157:20159   */\n      0x12\n        /* \"#utility.yul\":20152:20155   */\n      dup4\n        /* \"#utility.yul\":20093:20160   */\n      tag_233\n      jump\t// in\n    tag_511:\n        /* \"#utility.yul\":20086:20160   */\n      swap2\n      pop\n        /* \"#utility.yul\":20169:20262   */\n      tag_512\n        /* \"#utility.yul\":20258:20261   */\n      dup3\n        /* \"#utility.yul\":20169:20262   */\n      tag_288\n      jump\t// in\n    tag_512:\n        /* \"#utility.yul\":20287:20289   */\n      0x20\n        /* \"#utility.yul\":20282:20285   */\n      dup3\n        /* \"#utility.yul\":20278:20290   */\n      add\n        /* \"#utility.yul\":20271:20290   */\n      swap1\n      pop\n        /* \"#utility.yul\":19930:20296   */\n      swap2\n      swap1\n      pop\n      jump\t// out\n        /* \"#utility.yul\":20302:20721   */\n    tag_168:\n        /* \"#utility.yul\":20468:20472   */\n      0x00\n        /* \"#utility.yul\":20506:20508   */\n      0x20\n        /* \"#utility.yul\":20495:20504   */\n      dup3\n        /* \"#utility.yul\":20491:20509   */\n      add\n        /* \"#utility.yul\":20483:20509   */\n      swap1\n      pop\n        /* \"#utility.yul\":20555:20564   */\n      dup2\n        /* \"#utility.yul\":20549:20553   */\n      dup2\n        /* \"#utility.yul\":20545:20565   */\n      sub\n        /* \"#utility.yul\":20541:20542   */\n      0x00\n        /* \"#utility.yul\":20530:20539   */\n      dup4\n        /* \"#utility.yul\":20526:20543   */\n      add\n        /* \"#utility.yul\":20519:20566   */\n      mstore\n        /* \"#utility.yul\":20583:20714   */\n      tag_514\n        /* \"#utility.yul\":20709:20713   */\n      dup2\n        /* \"#utility.yul\":20583:20714   */\n      tag_289\n      jump\t// in\n    tag_514:\n        /* \"#utility.yul\":20575:20714   */\n      swap1\n      pop\n        /* \"#utility.yul\":20302:20721   */\n      swap2\n      swap1\n      pop\n      jump\t// out\n        /* \"#utility.yul\":20727:20897   */\n    tag_290:\n        /* \"#utility.yul\":20867:20889   */\n      0x546f6b656e20646f6573206e6f74206578697374000000000000000000000000\n        /* \"#utility.yul\":20863:20864   */\n      0x00\n        /* \"#utility.yul\":20855:20861   */\n      dup3\n        /* \"#utility.yul\":20851:20865   */\n      add\n        /* \"#utility.yul\":20844:20890   */\n      mstore\n        /* \"#utility.yul\":20727:20897   */\n      pop\n      jump\t// out\n        /* \"#utility.yul\":20903:21269   */\n    tag_291:\n        /* \"#utility.yul\":21045:21048   */\n      0x00\n        /* \"#utility.yul\":21066:21133   */\n      tag_517\n        /* \"#utility.yul\":21130:21132   */\n      0x14\n        /* \"#utility.yul\":21125:21128   */\n      dup4\n        /* \"#utility.yul\":21066:21133   */\n      tag_233\n      jump\t// in\n    tag_517:\n        /* \"#utility.yul\":21059:21133   */\n      swap2\n      pop\n        /* \"#utility.yul\":21142:21235   */\n      tag_518\n        /* \"#utility.yul\":21231:21234   */\n      dup3\n        /* \"#utility.yul\":21142:21235   */\n      tag_290\n      jump\t// in\n    tag_518:\n        /* \"#utility.yul\":21260:21262   */\n      0x20\n        /* \"#utility.yul\":21255:21258   */\n      dup3\n        /* \"#utility.yul\":21251:21263   */\n      add\n        /* \"#utility.yul\":21244:21263   */\n      swap1\n      pop\n        /* \"#utility.yul\":20903:21269   */\n      swap2\n      swap1\n      pop\n      jump\t// out\n        /* \"#utility.yul\":21275:21694   */\n    tag_180:\n        /* \"#utility.yul\":21441:21445   */\n      0x00\n        /* \"#utility.yul\":21479:21481   */\n      0x20\n        /* \"#utility.yul\":21468:21477   */\n      dup3\n        /* \"#utility.yul\":21464:21482   */\n      add\n        /* \"#utility.yul\":21456:21482   */\n      swap1\n      pop\n        /* \"#utility.yul\":21528:21537   */\n      dup2\n        /* \"#utility.yul\":21522:21526   */\n      dup2\n        /* \"#utility.yul\":21518:21538   */\n      sub\n        /* \"#utility.yul\":21514:21515   */\n      0x00\n        /* \"#utility.yul\":21503:21512   */\n      dup4\n        /* \"#utility.yul\":21499:21516   */\n      add\n        /* \"#utility.yul\":21492:21539   */\n      mstore\n        /* \"#utility.yul\":21556:21687   */\n      tag_520\n        /* \"#utility.yul\":21682:21686   */\n      dup2\n        /* \"#utility.yul\":21556:21687   */\n      tag_291\n      jump\t// in\n    tag_520:\n        /* \"#utility.yul\":21548:21687   */\n      swap1\n      pop\n        /* \"#utility.yul\":21275:21694   */\n      swap2\n      swap1\n      pop\n      jump\t// out\n        /* \"#utility.yul\":21700:21841   */\n    tag_292:\n        /* \"#utility.yul\":21749:21753   */\n      0x00\n        /* \"#utility.yul\":21772:21775   */\n      dup2\n        /* \"#utility.yul\":21764:21775   */\n      swap1\n      pop\n        /* \"#utility.yul\":21795:21798   */\n      dup2\n        /* \"#utility.yul\":21792:21793   */\n      0x00\n        /* \"#utility.yul\":21785:21799   */\n      mstore\n        /* \"#utility.yul\":21829:21833   */\n      0x20\n        /* \"#utility.yul\":21826:21827   */\n      0x00\n        /* \"#utility.yul\":21816:21834   */\n      keccak256\n        /* \"#utility.yul\":21808:21834   */\n      swap1\n      pop\n        /* \"#utility.yul\":21700:21841   */\n      swap2\n      swap1\n      pop\n      jump\t// out\n        /* \"#utility.yul\":21847:21940   */\n    tag_293:\n        /* \"#utility.yul\":21884:21890   */\n      0x00\n        /* \"#utility.yul\":21931:21933   */\n      0x20\n        /* \"#utility.yul\":21926:21928   */\n      0x1f\n        /* \"#utility.yul\":21919:21924   */\n      dup4\n        /* \"#utility.yul\":21915:21929   */\n      add\n        /* \"#utility.yul\":21911:21934   */\n      div\n        /* \"#utility.yul\":21901:21934   */\n      swap1\n      pop\n        /* \"#utility.yul\":21847:21940   */\n      swap2\n      swap1\n      pop\n      jump\t// out\n        /* \"#utility.yul\":21946:22053   */\n    tag_294:\n        /* \"#utility.yul\":21990:21998   */\n      0x00\n        /* \"#utility.yul\":22040:22045   */\n      dup3\n        /* \"#utility.yul\":22034:22038   */\n      dup3\n        /* \"#utility.yul\":22030:22046   */\n      shl\n        /* \"#utility.yul\":22009:22046   */\n      swap1\n      pop\n        /* \"#utility.yul\":21946:22053   */\n      swap3\n      swap2\n      pop\n      pop\n      jump\t// out\n        /* \"#utility.yul\":22059:22452   */\n    tag_295:\n        /* \"#utility.yul\":22128:22134   */\n      0x00\n        /* \"#utility.yul\":22178:22179   */\n      0x08\n        /* \"#utility.yul\":22166:22176   */\n      dup4\n        /* \"#utility.yul\":22162:22180   */\n      mul\n        /* \"#utility.yul\":22201:22298   */\n      tag_525\n        /* \"#utility.yul\":22231:22297   */\n      0xffffffffffffffffffffffffffffffffffffffffffffffffffffffffffffffff\n        /* \"#utility.yul\":22220:22229   */\n      dup3\n        /* \"#utility.yul\":22201:22298   */\n      tag_294\n      jump\t// in\n    tag_525:\n        /* \"#utility.yul\":22319:22358   */\n      tag_526\n        /* \"#utility.yul\":22349:22357   */\n      dup7\n        /* \"#utility.yul\":22338:22347   */\n      dup4\n        /* \"#utility.yul\":22319:22358   */\n      tag_294\n      jump\t// in\n    tag_526:\n        /* \"#utility.yul\":22307:22358   */\n      swap6\n      pop\n        /* \"#utility.yul\":22391:22395   */\n      dup1\n        /* \"#utility.yul\":22387:22396   */\n      not\n        /* \"#utility.yul\":22380:22385   */\n      dup5\n        /* \"#utility.yul\":22376:22397   */\n      and\n        /* \"#utility.yul\":22367:22397   */\n      swap4\n      pop\n        /* \"#utility.yul\":22440:22444   */\n      dup1\n        /* \"#utility.yul\":22430:22438   */\n      dup7\n        /* \"#utility.yul\":22426:22445   */\n      and\n        /* \"#utility.yul\":22419:22424   */\n      dup5\n        /* \"#utility.yul\":22416:22446   */\n      or\n        /* \"#utility.yul\":22406:22446   */\n      swap3\n      pop\n        /* \"#utility.yul\":22135:22452   */\n      pop\n      pop\n        /* \"#utility.yul\":22059:22452   */\n      swap4\n      swap3\n      pop\n      pop\n      pop\n      jump\t// out\n        /* \"#utility.yul\":22458:22600   */\n    tag_296:\n        /* \"#utility.yul\":22508:22517   */\n      0x00\n        /* \"#utility.yul\":22541:22594   */\n      tag_528\n        /* \"#utility.yul\":22559:22593   */\n      tag_529\n        /* \"#utility.yul\":22568:22592   */\n      tag_530\n        /* \"#utility.yul\":22586:22591   */\n      dup5\n        /* \"#utility.yul\":22568:22592   */\n      tag_246\n      jump\t// in\n    tag_530:\n        /* \"#utility.yul\":22559:22593   */\n      tag_238\n      jump\t// in\n    tag_529:\n        /* \"#utility.yul\":22541:22594   */\n      tag_246\n      jump\t// in\n    tag_528:\n        /* \"#utility.yul\":22528:22594   */\n      swap1\n      pop\n        /* \"#utility.yul\":22458:22600   */\n      swap2\n      swap1\n      pop\n      jump\t// out\n        /* \"#utility.yul\":22606:22681   */\n    tag_297:\n        /* \"#utility.yul\":22649:22652   */\n      0x00\n        /* \"#utility.yul\":22670:22675   */\n      dup2\n        /* \"#utility.yul\":22663:22675   */\n      swap1\n      pop\n        /* \"#utility.yul\":22606:22681   */\n      swap2\n      swap1\n      pop\n      jump\t// out\n        /* \"#utility.yul\":22687:22956   */\n    tag_298:\n        /* \"#utility.yul\":22797:22836   */\n      tag_533\n        /* \"#utility.yul\":22828:22835   */\n      dup4\n        /* \"#utility.yul\":22797:22836   */\n      tag_296\n      jump\t// in\n    tag_533:\n        /* \"#utility.yul\":22858:22949   */\n      tag_534\n        /* \"#utility.yul\":22907:22948   */\n      tag_535\n        /* \"#utility.yul\":22931:22947   */\n      dup3\n        /* \"#utility.yul\":22907:22948   */\n      tag_297\n      jump\t// in\n    tag_535:\n        /* \"#utility.yul\":22899:22905   */\n      dup5\n        /* \"#utility.yul\":22892:22896   */\n      dup5\n        /* \"#utility.yul\":22886:22897   */\n      sload\n        /* \"#utility.yul\":22858:22949   */\n      tag_295\n      jump\t// in\n    tag_534:\n        /* \"#utility.yul\":22852:22856   */\n      dup3\n        /* \"#utility.yul\":22845:22950   */\n      sstore\n        /* \"#utility.yul\":22763:22956   */\n      pop\n        /* \"#utility.yul\":22687:22956   */\n      pop\n      pop\n      pop\n      jump\t// out\n        /* \"#utility.yul\":22962:23035   */\n    tag_299:\n        /* \"#utility.yul\":23007:23010   */\n      0x00\n        /* \"#utility.yul\":22962:23035   */\n      swap1\n      jump\t// out\n        /* \"#utility.yul\":23041:23230   */\n    tag_300:\n        /* \"#utility.yul\":23118:23150   */\n      tag_538\n      tag_299\n      jump\t// in\n    tag_538:\n        /* \"#utility.yul\":23159:23224   */\n      tag_539\n        /* \"#utility.yul\":23217:23223   */\n      dup2\n        /* \"#utility.yul\":23209:23215   */\n      dup5\n        /* \"#utility.yul\":23203:23207   */\n      dup5\n        /* \"#utility.yul\":23159:23224   */\n      tag_298\n      jump\t// in\n    tag_539:\n        /* \"#utility.yul\":23094:23230   */\n      pop\n        /* \"#utility.yul\":23041:23230   */\n      pop\n      pop\n      jump\t// out\n        /* \"#utility.yul\":23236:23422   */\n    tag_301:\n        /* \"#utility.yul\":23296:23416   */\n    tag_541:\n        /* \"#utility.yul\":23313:23316   */\n      dup2\n        /* \"#utility.yul\":23306:23311   */\n      dup2\n        /* \"#utility.yul\":23303:23317   */\n      lt\n        /* \"#utility.yul\":23296:23416   */\n      iszero\n      tag_543\n      jumpi\n        /* \"#utility.yul\":23367:23406   */\n      tag_544\n        /* \"#utility.yul\":23404:23405   */\n      0x00\n        /* \"#utility.yul\":23397:23402   */\n      dup3\n        /* \"#utility.yul\":23367:23406   */\n      tag_300\n      jump\t// in\n    tag_544:\n        /* \"#utility.yul\":23340:23341   */\n      0x01\n        /* \"#utility.yul\":23333:23338   */\n      dup2\n        /* \"#utility.yul\":23329:23342   */\n      add\n        /* \"#utility.yul\":23320:23342   */\n      swap1\n      pop\n        /* \"#utility.yul\":23296:23416   */\n      jump(tag_541)\n    tag_543:\n        /* \"#utility.yul\":23236:23422   */\n      pop\n      pop\n      jump\t// out\n        /* \"#utility.yul\":23428:23971   */\n    tag_302:\n        /* \"#utility.yul\":23529:23531   */\n      0x1f\n        /* \"#utility.yul\":23524:23527   */\n      dup3\n        /* \"#utility.yul\":23521:23532   */\n      gt\n        /* \"#utility.yul\":23518:23964   */\n      iszero\n      tag_546\n      jumpi\n        /* \"#utility.yul\":23563:23601   */\n      tag_547\n        /* \"#utility.yul\":23595:23600   */\n      dup2\n        /* \"#utility.yul\":23563:23601   */\n      tag_292\n      jump\t// in\n    tag_547:\n        /* \"#utility.yul\":23647:23676   */\n      tag_548\n        /* \"#utility.yul\":23665:23675   */\n      dup5\n        /* \"#utility.yul\":23647:23676   */\n      tag_293\n      jump\t// in\n    tag_548:\n        /* \"#utility.yul\":23637:23645   */\n      dup2\n        /* \"#utility.yul\":23633:23677   */\n      add\n        /* \"#utility.yul\":23830:23832   */\n      0x20\n        /* \"#utility.yul\":23818:23828   */\n      dup6\n        /* \"#utility.yul\":23815:23833   */\n      lt\n        /* \"#utility.yul\":23812:23861   */\n      iszero\n      tag_549\n      jumpi\n        /* \"#utility.yul\":23851:23859   */\n      dup2\n        /* \"#utility.yul\":23836:23859   */\n      swap1\n      pop\n        /* \"#utility.yul\":23812:23861   */\n    tag_549:\n        /* \"#utility.yul\":23874:23954   */\n      tag_550\n        /* \"#utility.yul\":23930:23952   */\n      tag_551\n        /* \"#utility.yul\":23948:23951   */\n      dup6\n        /* \"#utility.yul\":23930:23952   */\n      tag_293\n      jump\t// in\n    tag_551:\n        /* \"#utility.yul\":23920:23928   */\n      dup4\n        /* \"#utility.yul\":23916:23953   */\n      add\n        /* \"#utility.yul\":23903:23914   */\n      dup3\n        /* \"#utility.yul\":23874:23954   */\n      tag_301\n      jump\t// in\n    tag_550:\n        /* \"#utility.yul\":23533:23964   */\n      pop\n      pop\n        /* \"#utility.yul\":23518:23964   */\n    tag_546:\n        /* \"#utility.yul\":23428:23971   */\n      pop\n      pop\n      pop\n      jump\t// out\n        /* \"#utility.yul\":23977:24094   */\n    tag_303:\n        /* \"#utility.yul\":24031:24039   */\n      0x00\n        /* \"#utility.yul\":24081:24086   */\n      dup3\n        /* \"#utility.yul\":24075:24079   */\n      dup3\n        /* \"#utility.yul\":24071:24087   */\n      shr\n        /* \"#utility.yul\":24050:24087   */\n      swap1\n      pop\n        /* \"#utility.yul\":23977:24094   */\n      swap3\n      swap2\n      pop\n      pop\n      jump\t// out\n        /* \"#utility.yul\":24100:24269   */\n    tag_304:\n        /* \"#utility.yul\":24144:24150   */\n      0x00\n        /* \"#utility.yul\":24177:24228   */\n      tag_554\n        /* \"#utility.yul\":24225:24226   */\n      0x00\n        /* \"#utility.yul\":24221:24227   */\n      not\n        /* \"#utility.yul\":24213:24218   */\n      dup5\n        /* \"#utility.yul\":24210:24211   */\n      0x08\n        /* \"#utility.yul\":24206:24219   */\n      mul\n        /* \"#utility.yul\":24177:24228   */\n      tag_303\n      jump\t// in\n    tag_554:\n        /* \"#utility.yul\":24173:24229   */\n      not\n        /* \"#utility.yul\":24258:24262   */\n      dup1\n        /* \"#utility.yul\":24252:24256   */\n      dup4\n        /* \"#utility.yul\":24248:24263   */\n      and\n        /* \"#utility.yul\":24238:24263   */\n      swap2\n      pop\n        /* \"#utility.yul\":24151:24269   */\n      pop\n        /* \"#utility.yul\":24100:24269   */\n      swap3\n      swap2\n      pop\n      pop\n      jump\t// out\n        /* \"#utility.yul\":24274:24569   */\n    tag_305:\n        /* \"#utility.yul\":24350:24354   */\n      0x00\n        /* \"#utility.yul\":24496:24525   */\n      tag_556\n        /* \"#utility.yul\":24521:24524   */\n      dup4\n        /* \"#utility.yul\":24515:24519   */\n      dup4\n        /* \"#utility.yul\":24496:24525   */\n      tag_304\n      jump\t// in\n    tag_556:\n        /* \"#utility.yul\":24488:24525   */\n      swap2\n      pop\n        /* \"#utility.yul\":24558:24561   */\n      dup3\n        /* \"#utility.yul\":24555:24556   */\n      0x02\n        /* \"#utility.yul\":24551:24562   */\n      mul\n        /* \"#utility.yul\":24545:24549   */\n      dup3\n        /* \"#utility.yul\":24542:24563   */\n      or\n        /* \"#utility.yul\":24534:24563   */\n      swap1\n      pop\n        /* \"#utility.yul\":24274:24569   */\n      swap3\n      swap2\n      pop\n      pop\n      jump\t// out\n        /* \"#utility.yul\":24574:25969   */\n    tag_194:\n        /* \"#utility.yul\":24691:24728   */\n      tag_558\n        /* \"#utility.yul\":24724:24727   */\n      dup3\n        /* \"#utility.yul\":24691:24728   */\n      tag_232\n      jump\t// in\n    tag_558:\n        /* \"#utility.yul\":24793:24811   */\n      0xffffffffffffffff\n        /* \"#utility.yul\":24785:24791   */\n      dup2\n        /* \"#utility.yul\":24782:24812   */\n      gt\n        /* \"#utility.yul\":24779:24835   */\n      iszero\n      tag_559\n      jumpi\n        /* \"#utility.yul\":24815:24833   */\n      tag_560\n      tag_264\n      jump\t// in\n    tag_560:\n        /* \"#utility.yul\":24779:24835   */\n    tag_559:\n        /* \"#utility.yul\":24859:24897   */\n      tag_561\n        /* \"#utility.yul\":24891:24895   */\n      dup3\n        /* \"#utility.yul\":24885:24896   */\n      sload\n        /* \"#utility.yul\":24859:24897   */\n      tag_116\n      jump\t// in\n    tag_561:\n        /* \"#utility.yul\":24944:25011   */\n      tag_562\n        /* \"#utility.yul\":25004:25010   */\n      dup3\n        /* \"#utility.yul\":24996:25002   */\n      dup3\n        /* \"#utility.yul\":24990:24994   */\n      dup6\n        /* \"#utility.yul\":24944:25011   */\n      tag_302\n      jump\t// in\n    tag_562:\n        /* \"#utility.yul\":25038:25039   */\n      0x00\n        /* \"#utility.yul\":25062:25066   */\n      0x20\n        /* \"#utility.yul\":25049:25066   */\n      swap1\n      pop\n        /* \"#utility.yul\":25094:25096   */\n      0x1f\n        /* \"#utility.yul\":25086:25092   */\n      dup4\n        /* \"#utility.yul\":25083:25097   */\n      gt\n        /* \"#utility.yul\":25111:25112   */\n      0x01\n        /* \"#utility.yul\":25106:25724   */\n      dup2\n      eq\n      tag_564\n      jumpi\n        /* \"#utility.yul\":25768:25769   */\n      0x00\n        /* \"#utility.yul\":25785:25791   */\n      dup5\n        /* \"#utility.yul\":25782:25859   */\n      iszero\n      tag_565\n      jumpi\n        /* \"#utility.yul\":25834:25843   */\n      dup3\n        /* \"#utility.yul\":25829:25832   */\n      dup8\n        /* \"#utility.yul\":25825:25844   */\n      add\n        /* \"#utility.yul\":25819:25845   */\n      mload\n        /* \"#utility.yul\":25810:25845   */\n      swap1\n      pop\n        /* \"#utility.yul\":25782:25859   */\n    tag_565:\n        /* \"#utility.yul\":25885:25952   */\n      tag_566\n        /* \"#utility.yul\":25945:25951   */\n      dup6\n        /* \"#utility.yul\":25938:25943   */\n      dup3\n        /* \"#utility.yul\":25885:25952   */\n      tag_305\n      jump\t// in\n    tag_566:\n        /* \"#utility.yul\":25879:25883   */\n      dup7\n        /* \"#utility.yul\":25872:25953   */\n      sstore\n        /* \"#utility.yul\":25741:25963   */\n      pop\n        /* \"#utility.yul\":25076:25963   */\n      jump(tag_563)\n        /* \"#utility.yul\":25106:25724   */\n    tag_564:\n        /* \"#utility.yul\":25158:25162   */\n      0x1f\n        /* \"#utility.yul\":25154:25163   */\n      not\n        /* \"#utility.yul\":25146:25152   */\n      dup5\n        /* \"#utility.yul\":25142:25164   */\n      and\n        /* \"#utility.yul\":25192:25229   */\n      tag_567\n        /* \"#utility.yul\":25224:25228   */\n      dup7\n        /* \"#utility.yul\":25192:25229   */\n      tag_292\n      jump\t// in\n    tag_567:\n        /* \"#utility.yul\":25251:25252   */\n      0x00\n        /* \"#utility.yul\":25265:25473   */\n    tag_568:\n        /* \"#utility.yul\":25279:25286   */\n      dup3\n        /* \"#utility.yul\":25276:25277   */\n      dup2\n        /* \"#utility.yul\":25273:25287   */\n      lt\n        /* \"#utility.yul\":25265:25473   */\n      iszero\n      tag_570\n      jumpi\n        /* \"#utility.yul\":25358:25367   */\n      dup5\n        /* \"#utility.yul\":25353:25356   */\n      dup10\n        /* \"#utility.yul\":25349:25368   */\n      add\n        /* \"#utility.yul\":25343:25369   */\n      mload\n        /* \"#utility.yul\":25335:25341   */\n      dup3\n        /* \"#utility.yul\":25328:25370   */\n      sstore\n        /* \"#utility.yul\":25409:25410   */\n      0x01\n        /* \"#utility.yul\":25401:25407   */\n      dup3\n        /* \"#utility.yul\":25397:25411   */\n      add\n        /* \"#utility.yul\":25387:25411   */\n      swap2\n      pop\n        /* \"#utility.yul\":25456:25458   */\n      0x20\n        /* \"#utility.yul\":25445:25454   */\n      dup6\n        /* \"#utility.yul\":25441:25459   */\n      add\n        /* \"#utility.yul\":25428:25459   */\n      swap5\n      pop\n        /* \"#utility.yul\":25302:25306   */\n      0x20\n        /* \"#utility.yul\":25299:25300   */\n      dup2\n        /* \"#utility.yul\":25295:25307   */\n      add\n        /* \"#utility.yul\":25290:25307   */\n      swap1\n      pop\n        /* \"#utility.yul\":25265:25473   */\n      jump(tag_568)\n    tag_570:\n        /* \"#utility.yul\":25501:25507   */\n      dup7\n        /* \"#utility.yul\":25492:25499   */\n      dup4\n        /* \"#utility.yul\":25489:25508   */\n      lt\n        /* \"#utility.yul\":25486:25665   */\n      iszero\n      tag_571\n      jumpi\n        /* \"#utility.yul\":25559:25568   */\n      dup5\n        /* \"#utility.yul\":25554:25557   */\n      dup10\n        /* \"#utility.yul\":25550:25569   */\n      add\n        /* \"#utility.yul\":25544:25570   */\n      mload\n        /* \"#utility.yul\":25602:25650   */\n      tag_572\n        /* \"#utility.yul\":25644:25648   */\n      0x1f\n        /* \"#utility.yul\":25636:25642   */\n      dup10\n        /* \"#utility.yul\":25632:25649   */\n      and\n        /* \"#utility.yul\":25621:25630   */\n      dup3\n        /* \"#utility.yul\":25602:25650   */\n      tag_304\n      jump\t// in\n    tag_572:\n        /* \"#utility.yul\":25594:25600   */\n      dup4\n        /* \"#utility.yul\":25587:25651   */\n      sstore\n        /* \"#utility.yul\":25509:25665   */\n      pop\n        /* \"#utility.yul\":25486:25665   */\n    tag_571:\n        /* \"#utility.yul\":25711:25712   */\n      0x01\n        /* \"#utility.yul\":25707:25708   */\n      0x02\n        /* \"#utility.yul\":25699:25705   */\n      dup9\n        /* \"#utility.yul\":25695:25709   */\n      mul\n        /* \"#utility.yul\":25691:25713   */\n      add\n        /* \"#utility.yul\":25685:25689   */\n      dup9\n        /* \"#utility.yul\":25678:25714   */\n      sstore\n        /* \"#utility.yul\":25113:25724   */\n      pop\n      pop\n      pop\n        /* \"#utility.yul\":25076:25963   */\n    tag_563:\n      pop\n        /* \"#utility.yul\":24666:25969   */\n      pop\n      pop\n      pop\n        /* \"#utility.yul\":24574:25969   */\n      pop\n      pop\n      jump\t// out\n        /* \"#utility.yul\":25975:26196   */\n    tag_306:\n        /* \"#utility.yul\":26115:26149   */\n      0x4f776e61626c653a206e6577206f776e6572206973207a65726f206164647265\n        /* \"#utility.yul\":26111:26112   */\n      0x00\n        /* \"#utility.yul\":26103:26109   */\n      dup3\n        /* \"#utility.yul\":26099:26113   */\n      add\n        /* \"#utility.yul\":26092:26150   */\n      mstore\n        /* \"#utility.yul\":26184:26188   */\n      0x7373000000000000000000000000000000000000000000000000000000000000\n        /* \"#utility.yul\":26179:26181   */\n      0x20\n        /* \"#utility.yul\":26171:26177   */\n      dup3\n        /* \"#utility.yul\":26167:26182   */\n      add\n        /* \"#utility.yul\":26160:26189   */\n      mstore\n        /* \"#utility.yul\":25975:26196   */\n      pop\n      jump\t// out\n        /* \"#utility.yul\":26202:26568   */\n    tag_307:\n        /* \"#utility.yul\":26344:26347   */\n      0x00\n        /* \"#utility.yul\":26365:26432   */\n      tag_575\n        /* \"#utility.yul\":26429:26431   */\n      0x22\n        /* \"#utility.yul\":26424:26427   */\n      dup4\n        /* \"#utility.yul\":26365:26432   */\n      tag_233\n      jump\t// in\n    tag_575:\n        /* \"#utility.yul\":26358:26432   */\n      swap2\n      pop\n        /* \"#utility.yul\":26441:26534   */\n      tag_576\n        /* \"#utility.yul\":26530:26533   */\n      dup3\n        /* \"#utility.yul\":26441:26534   */\n      tag_306\n      jump\t// in\n    tag_576:\n        /* \"#utility.yul\":26559:26561   */\n      0x40\n        /* \"#utility.yul\":26554:26557   */\n      dup3\n        /* \"#utility.yul\":26550:26562   */\n      add\n        /* \"#utility.yul\":26543:26562   */\n      swap1\n      pop\n        /* \"#utility.yul\":26202:26568   */\n      swap2\n      swap1\n      pop\n      jump\t// out\n        /* \"#utility.yul\":26574:26993   */\n    tag_204:\n        /* \"#utility.yul\":26740:26744   */\n      0x00\n        /* \"#utility.yul\":26778:26780   */\n      0x20\n        /* \"#utility.yul\":26767:26776   */\n      dup3\n        /* \"#utility.yul\":26763:26781   */\n      add\n        /* \"#utility.yul\":26755:26781   */\n      swap1\n      pop\n        /* \"#utility.yul\":26827:26836   */\n      dup2\n        /* \"#utility.yul\":26821:26825   */\n      dup2\n        /* \"#utility.yul\":26817:26837   */\n      sub\n        /* \"#utility.yul\":26813:26814   */\n      0x00\n        /* \"#utility.yul\":26802:26811   */\n      dup4\n        /* \"#utility.yul\":26798:26815   */\n      add\n        /* \"#utility.yul\":26791:26838   */\n      mstore\n        /* \"#utility.yul\":26855:26986   */\n      tag_578\n        /* \"#utility.yul\":26981:26985   */\n      dup2\n        /* \"#utility.yul\":26855:26986   */\n      tag_307\n      jump\t// in\n    tag_578:\n        /* \"#utility.yul\":26847:26986   */\n      swap1\n      pop\n        /* \"#utility.yul\":26574:26993   */\n      swap2\n      swap1\n      pop\n      jump\t// out\n        /* \"#utility.yul\":26999:27169   */\n    tag_308:\n        /* \"#utility.yul\":27139:27161   */\n      0x4f6e6c79206272696467652063616e2063616c6c000000000000000000000000\n        /* \"#utility.yul\":27135:27136   */\n      0x00\n        /* \"#utility.yul\":27127:27133   */\n      dup3\n        /* \"#utility.yul\":27123:27137   */\n      add\n        /* \"#utility.yul\":27116:27162   */\n      mstore\n        /* \"#utility.yul\":26999:27169   */\n      pop\n      jump\t// out\n        /* \"#utility.yul\":27175:27541   */\n    tag_309:\n        /* \"#utility.yul\":27317:27320   */\n      0x00\n        /* \"#utility.yul\":27338:27405   */\n      tag_581\n        /* \"#utility.yul\":27402:27404   */\n      0x14\n        /* \"#utility.yul\":27397:27400   */\n      dup4\n        /* \"#utility.yul\":27338:27405   */\n      tag_233\n      jump\t// in\n    tag_581:\n        /* \"#utility.yul\":27331:27405   */\n      swap2\n      pop\n        /* \"#utility.yul\":27414:27507   */\n      tag_582\n        /* \"#utility.yul\":27503:27506   */\n      dup3\n        /* \"#utility.yul\":27414:27507   */\n      tag_308\n      jump\t// in\n    tag_582:\n        /* \"#utility.yul\":27532:27534   */\n      0x20\n        /* \"#utility.yul\":27527:27530   */\n      dup3\n        /* \"#utility.yul\":27523:27535   */\n      add\n        /* \"#utility.yul\":27516:27535   */\n      swap1\n      pop\n        /* \"#utility.yul\":27175:27541   */\n      swap2\n      swap1\n      pop\n      jump\t// out\n        /* \"#utility.yul\":27547:27966   */\n    tag_210:\n        /* \"#utility.yul\":27713:27717   */\n      0x00\n        /* \"#utility.yul\":27751:27753   */\n      0x20\n        /* \"#utility.yul\":27740:27749   */\n      dup3\n        /* \"#utility.yul\":27736:27754   */\n      add\n        /* \"#utility.yul\":27728:27754   */\n      swap1\n      pop\n        /* \"#utility.yul\":27800:27809   */\n      dup2\n        /* \"#utility.yul\":27794:27798   */\n      dup2\n        /* \"#utility.yul\":27790:27810   */\n      sub\n        /* \"#utility.yul\":27786:27787   */\n      0x00\n        /* \"#utility.yul\":27775:27784   */\n      dup4\n        /* \"#utility.yul\":27771:27788   */\n      add\n        /* \"#utility.yul\":27764:27811   */\n      mstore\n        /* \"#utility.yul\":27828:27959   */\n      tag_584\n        /* \"#utility.yul\":27954:27958   */\n      dup2\n        /* \"#utility.yul\":27828:27959   */\n      tag_309\n      jump\t// in\n    tag_584:\n        /* \"#utility.yul\":27820:27959   */\n      swap1\n      pop\n        /* \"#utility.yul\":27547:27966   */\n      swap2\n      swap1\n      pop\n      jump\t// out\n        /* \"#utility.yul\":27972:28152   */\n    tag_310:\n        /* \"#utility.yul\":28020:28097   */\n      0x4e487b7100000000000000000000000000000000000000000000000000000000\n        /* \"#utility.yul\":28017:28018   */\n      0x00\n        /* \"#utility.yul\":28010:28098   */\n      mstore\n        /* \"#utility.yul\":28117:28121   */\n      0x11\n        /* \"#utility.yul\":28114:28115   */\n      0x04\n        /* \"#utility.yul\":28107:28122   */\n      mstore\n        /* \"#utility.yul\":28141:28145   */\n      0x24\n        /* \"#utility.yul\":28138:28139   */\n      0x00\n        /* \"#utility.yul\":28131:28146   */\n      revert\n        /* \"#utility.yul\":28158:28352   */\n    tag_218:\n        /* \"#utility.yul\":28198:28202   */\n      0x00\n        /* \"#utility.yul\":28218:28238   */\n      tag_587\n        /* \"#utility.yul\":28236:28237   */\n      dup3\n        /* \"#utility.yul\":28218:28238   */\n      tag_246\n      jump\t// in\n    tag_587:\n        /* \"#utility.yul\":28213:28238   */\n      swap2\n      pop\n        /* \"#utility.yul\":28252:28272   */\n      tag_588\n        /* \"#utility.yul\":28270:28271   */\n      dup4\n        /* \"#utility.yul\":28252:28272   */\n      tag_246\n      jump\t// in\n    tag_588:\n        /* \"#utility.yul\":28247:28272   */\n      swap3\n      pop\n        /* \"#utility.yul\":28296:28297   */\n      dup3\n        /* \"#utility.yul\":28293:28294   */\n      dup3\n        /* \"#utility.yul\":28289:28298   */\n      sub\n        /* \"#utility.yul\":28281:28298   */\n      swap1\n      pop\n        /* \"#utility.yul\":28320:28321   */\n      dup2\n        /* \"#utility.yul\":28314:28318   */\n      dup2\n        /* \"#utility.yul\":28311:28322   */\n      gt\n        /* \"#utility.yul\":28308:28345   */\n      iszero\n      tag_589\n      jumpi\n        /* \"#utility.yul\":28325:28343   */\n      tag_590\n      tag_310\n      jump\t// in\n    tag_590:\n        /* \"#utility.yul\":28308:28345   */\n    tag_589:\n        /* \"#utility.yul\":28158:28352   */\n      swap3\n      swap2\n      pop\n      pop\n      jump\t// out\n        /* \"#utility.yul\":28358:28549   */\n    tag_223:\n        /* \"#utility.yul\":28398:28401   */\n      0x00\n        /* \"#utility.yul\":28417:28437   */\n      tag_592\n        /* \"#utility.yul\":28435:28436   */\n      dup3\n        /* \"#utility.yul\":28417:28437   */\n      tag_246\n      jump\t// in\n    tag_592:\n        /* \"#utility.yul\":28412:28437   */\n      swap2\n      pop\n        /* \"#utility.yul\":28451:28471   */\n      tag_593\n        /* \"#utility.yul\":28469:28470   */\n      dup4\n        /* \"#utility.yul\":28451:28471   */\n      tag_246\n      jump\t// in\n    tag_593:\n        /* \"#utility.yul\":28446:28471   */\n      swap3\n      pop\n        /* \"#utility.yul\":28494:28495   */\n      dup3\n        /* \"#utility.yul\":28491:28492   */\n      dup3\n        /* \"#utility.yul\":28487:28496   */\n      add\n        /* \"#utility.yul\":28480:28496   */\n      swap1\n      pop\n        /* \"#utility.yul\":28515:28518   */\n      dup1\n        /* \"#utility.yul\":28512:28513   */\n      dup3\n        /* \"#utility.yul\":28509:28519   */\n      gt\n        /* \"#utility.yul\":28506:28542   */\n      iszero\n      tag_594\n      jumpi\n        /* \"#utility.yul\":28522:28540   */\n      tag_595\n      tag_310\n      jump\t// in\n    tag_595:\n        /* \"#utility.yul\":28506:28542   */\n    tag_594:\n        /* \"#utility.yul\":28358:28549   */\n      swap3\n      swap2\n      pop\n      pop\n      jump\t// out\n        /* \"#utility.yul\":28555:28719   */\n    tag_311:\n        /* \"#utility.yul\":28695:28711   */\n      0x416c7265616479206d696e746564000000000000000000000000000000000000\n        /* \"#utility.yul\":28691:28692   */\n      0x00\n        /* \"#utility.yul\":28683:28689   */\n      dup3\n        /* \"#utility.yul\":28679:28693   */\n      add\n        /* \"#utility.yul\":28672:28712   */\n      mstore\n        /* \"#utility.yul\":28555:28719   */\n      pop\n      jump\t// out\n        /* \"#utility.yul\":28725:29091   */\n    tag_312:\n        /* \"#utility.yul\":28867:28870   */\n      0x00\n        /* \"#utility.yul\":28888:28955   */\n      tag_598\n        /* \"#utility.yul\":28952:28954   */\n      0x0e\n        /* \"#utility.yul\":28947:28950   */\n      dup4\n        /* \"#utility.yul\":28888:28955   */\n      tag_233\n      jump\t// in\n    tag_598:\n        /* \"#utility.yul\":28881:28955   */\n      swap2\n      pop\n        /* \"#utility.yul\":28964:29057   */\n      tag_599\n        /* \"#utility.yul\":29053:29056   */\n      dup3\n        /* \"#utility.yul\":28964:29057   */\n      tag_311\n      jump\t// in\n    tag_599:\n        /* \"#utility.yul\":29082:29084   */\n      0x20\n        /* \"#utility.yul\":29077:29080   */\n      dup3\n        /* \"#utility.yul\":29073:29085   */\n      add\n        /* \"#utility.yul\":29066:29085   */\n      swap1\n      pop\n        /* \"#utility.yul\":28725:29091   */\n      swap2\n      swap1\n      pop\n      jump\t// out\n        /* \"#utility.yul\":29097:29516   */\n    tag_229:\n        /* \"#utility.yul\":29263:29267   */\n      0x00\n        /* \"#utility.yul\":29301:29303   */\n      0x20\n        /* \"#utility.yul\":29290:29299   */\n      dup3\n        /* \"#utility.yul\":29286:29304   */\n      add\n        /* \"#utility.yul\":29278:29304   */\n      swap1\n      pop\n        /* \"#utility.yul\":29350:29359   */\n      dup2\n        /* \"#utility.yul\":29344:29348   */\n      dup2\n        /* \"#utility.yul\":29340:29360   */\n      sub\n        /* \"#utility.yul\":29336:29337   */\n      0x00\n        /* \"#utility.yul\":29325:29334   */\n      dup4\n        /* \"#utility.yul\":29321:29338   */\n      add\n        /* \"#utility.yul\":29314:29361   */\n      mstore\n        /* \"#utility.yul\":29378:29509   */\n      tag_601\n        /* \"#utility.yul\":29504:29508   */\n      dup2\n        /* \"#utility.yul\":29378:29509   */\n      tag_312\n      jump\t// in\n    tag_601:\n        /* \"#utility.yul\":29370:29509   */\n      swap1\n      pop\n        /* \"#utility.yul\":29097:29516   */\n      swap2\n      swap1\n      pop\n      jump\t// out\n\n    auxdata: 0xa264697066735822122057529921cd4fb44c306ef35e24abfab93ba70f6a1b2bb7084b5b10662a54274c64736f6c634300081a0033\n}\n",
				"bytecode": {
					"linkReferences": {},
					"object": "608060405234801561000f575f80fd5b50604051612a05380380612a0583398181016040528101906100319190610248565b6040518060400160405280600d81526020017f4d696e74204f6e6365204e4654000000000000000000000000000000000000008152506040518060400160405280600581526020017f4d4f4e4654000000000000000000000000000000000000000000000000000000815250815f90816100ab91906104ad565b5080600190816100bb91906104ad565b5050506100da6100cf61012060201b60201c565b61012760201b60201c565b8060065f6101000a81548173ffffffffffffffffffffffffffffffffffffffff021916908373ffffffffffffffffffffffffffffffffffffffff1602179055505061057c565b5f33905090565b5f60045f9054906101000a900473ffffffffffffffffffffffffffffffffffffffff1690508160045f6101000a81548173ffffffffffffffffffffffffffffffffffffffff021916908373ffffffffffffffffffffffffffffffffffffffff1602179055508173ffffffffffffffffffffffffffffffffffffffff168173ffffffffffffffffffffffffffffffffffffffff167f8be0079c531659141344cd1fd0a4f28419497f9722a3daafe3b4186f6b6457e060405160405180910390a35050565b5f80fd5b5f73ffffffffffffffffffffffffffffffffffffffff82169050919050565b5f610217826101ee565b9050919050565b6102278161020d565b8114610231575f80fd5b50565b5f815190506102428161021e565b92915050565b5f6020828403121561025d5761025c6101ea565b5b5f61026a84828501610234565b91505092915050565b5f81519050919050565b7f4e487b71000000000000000000000000000000000000000000000000000000005f52604160045260245ffd5b7f4e487b71000000000000000000000000000000000000000000000000000000005f52602260045260245ffd5b5f60028204905060018216806102ee57607f821691505b602082108103610301576103006102aa565b5b50919050565b5f819050815f5260205f209050919050565b5f6020601f8301049050919050565b5f82821b905092915050565b5f600883026103637fffffffffffffffffffffffffffffffffffffffffffffffffffffffffffffffff82610328565b61036d8683610328565b95508019841693508086168417925050509392505050565b5f819050919050565b5f819050919050565b5f6103b16103ac6103a784610385565b61038e565b610385565b9050919050565b5f819050919050565b6103ca83610397565b6103de6103d6826103b8565b848454610334565b825550505050565b5f90565b6103f26103e6565b6103fd8184846103c1565b505050565b5b81811015610420576104155f826103ea565b600181019050610403565b5050565b601f8211156104655761043681610307565b61043f84610319565b8101602085101561044e578190505b61046261045a85610319565b830182610402565b50505b505050565b5f82821c905092915050565b5f6104855f198460080261046a565b1980831691505092915050565b5f61049d8383610476565b9150826002028217905092915050565b6104b682610273565b67ffffffffffffffff8111156104cf576104ce61027d565b5b6104d982546102d7565b6104e4828285610424565b5f60209050601f831160018114610515575f8415610503578287015190505b61050d8582610492565b865550610574565b601f19841661052386610307565b5f5b8281101561054a57848901518255600182019150602085019450602081019050610525565b868310156105675784890151610563601f891682610476565b8355505b6001600288020188555050505b505050505050565b61247c806105895f395ff3fe608060405260043610610108575f3560e01c8063a5cecdc911610094578063c87b56dd11610063578063c87b56dd14610376578063d0def521146103b2578063d5021e5f146103ee578063f2fde38b1461042a578063f4edf36d1461045257610108565b8063a5cecdc9146102e0578063a866365c1461030a578063b1d31d9814610332578063c02169f21461034e57610108565b80636c8b703f116100db5780636c8b703f146101d85780636fafb5581461021457806370a08231146102505780638da5cb5b1461028c57806395d89b41146102b657610108565b806306fdde031461010c578063116191b6146101365780632e021620146101605780636352211e1461019c575b5f80fd5b348015610117575f80fd5b5061012061047a565b60405161012d9190611610565b60405180910390f35b348015610141575f80fd5b5061014a610505565b60405161015791906116aa565b60405180910390f35b34801561016b575f80fd5b506101866004803603810190610181919061173e565b61052a565b6040516101939190611796565b60405180910390f35b3480156101a7575f80fd5b506101c260048036038101906101bd91906117af565b610554565b6040516101cf91906117fa565b60405180910390f35b3480156101e3575f80fd5b506101fe60048036038101906101f991906117af565b610600565b60405161020b9190611610565b60405180910390f35b34801561021f575f80fd5b5061023a6004803603810190610235919061173e565b61069b565b6040516102479190611796565b60405180910390f35b34801561025b575f80fd5b506102766004803603810190610271919061183d565b6106d9565b6040516102839190611877565b60405180910390f35b348015610297575f80fd5b506102a061078d565b6040516102ad91906117fa565b60405180910390f35b3480156102c1575f80fd5b506102ca6107b5565b6040516102d79190611610565b60405180910390f35b3480156102eb575f80fd5b506102f4610841565b60405161030191906117fa565b60405180910390f35b348015610315575f80fd5b50610330600480360381019061032b919061183d565b610866565b005b61034c600480360381019061034791906118f1565b610925565b005b348015610359575f80fd5b50610374600480360381019061036f9190611975565b610c36565b005b348015610381575f80fd5b5061039c600480360381019061039791906117af565b610d55565b6040516103a99190611610565b60405180910390f35b3480156103bd575f80fd5b506103d860048036038101906103d39190611adb565b610e6c565b6040516103e59190611877565b60405180910390f35b3480156103f9575f80fd5b50610414600480360381019061040f9190611b35565b610f42565b60405161042191906117fa565b60405180910390f35b348015610435575f80fd5b50610450600480360381019061044b919061183d565b610f72565b005b34801561045d575f80fd5b5061047860048036038101906104739190611b60565b611068565b005b5f805461048690611bf9565b80601f01602080910402602001604051908101604052809291908181526020018280546104b290611bf9565b80156104fd5780601f106104d4576101008083540402835291602001916104fd565b820191905f5260205f20905b8154815290600101906020018083116104e057829003601f168201915b505050505081565b60065f9054906101000a900473ffffffffffffffffffffffffffffffffffffffff1681565b6009602052815f5260405f20602052805f5260405f205f915091509054906101000a900460ff1681565b5f8060025f8481526020019081526020015f205f9054906101000a900473ffffffffffffffffffffffffffffffffffffffff1690505f73ffffffffffffffffffffffffffffffffffffffff168173ffffffffffffffffffffffffffffffffffffffff16036105f7576040517f08c379a00000000000000000000000000000000000000000000000000000000081526004016105ee90611c73565b60405180910390fd5b80915050919050565b6008602052805f5260405f205f91509050805461061c90611bf9565b80601f016020809104026020016040519081016040528092919081815260200182805461064890611bf9565b80156106935780601f1061066a57610100808354040283529160200191610693565b820191905f5260205f20905b81548152906001019060200180831161067657829003601f168201915b505050505081565b5f60095f8481526020019081526020015f205f8361ffff1661ffff1681526020019081526020015f205f9054906101000a900460ff16905092915050565b5f8073ffffffffffffffffffffffffffffffffffffffff168273ffffffffffffffffffffffffffffffffffffffff1603610748576040517f08c379a000000000000000000000000000000000000000000000000000000000815260040161073f90611cdb565b60405180910390fd5b60035f8373ffffffffffffffffffffffffffffffffffffffff1673ffffffffffffffffffffffffffffffffffffffff1681526020019081526020015f20549050919050565b5f60045f9054906101000a900473ffffffffffffffffffffffffffffffffffffffff16905090565b600180546107c290611bf9565b80601f01602080910402602001604051908101604052809291908181526020018280546107ee90611bf9565b80156108395780601f1061081057610100808354040283529160200191610839565b820191905f5260205f20905b81548152906001019060200180831161081c57829003601f168201915b505050505081565b60075f9054906101000a900473ffffffffffffffffffffffffffffffffffffffff1681565b61086e611174565b73ffffffffffffffffffffffffffffffffffffffff1661088c61078d565b73ffffffffffffffffffffffffffffffffffffffff16146108e2576040517f08c379a00000000000000000000000000000000000000000000000000000000081526004016108d990611d43565b60405180910390fd5b8060075f6101000a81548173ffffffffffffffffffffffffffffffffffffffff021916908373ffffffffffffffffffffffffffffffffffffffff16021790555050565b3373ffffffffffffffffffffffffffffffffffffffff1661094586610554565b73ffffffffffffffffffffffffffffffffffffffff161461099b576040517f08c379a000000000000000000000000000000000000000000000000000000000815260040161099290611dab565b60405180910390fd5b5f73ffffffffffffffffffffffffffffffffffffffff16600a5f8661ffff1661ffff1681526020019081526020015f205f9054906101000a900473ffffffffffffffffffffffffffffffffffffffff1673ffffffffffffffffffffffffffffffffffffffff1603610a41576040517f08c379a0000000000000000000000000000000000000000000000000000000008152600401610a3890611e13565b60405180910390fd5b610a4a8561117b565b5f60095f8781526020019081526020015f205f8061ffff1681526020019081526020015f205f6101000a81548160ff0219169083151502179055505f60075f9054906101000a900473ffffffffffffffffffffffffffffffffffffffff1673ffffffffffffffffffffffffffffffffffffffff16348787878787604051602401610ad8959493929190611e7c565b6040516020818303038152906040527fb1d31d98000000000000000000000000000000000000000000000000000000007bffffffffffffffffffffffffffffffffffffffffffffffffffffffff19166020820180517bffffffffffffffffffffffffffffffffffffffffffffffffffffffff8381831617835250505050604051610b629190611f0c565b5f6040518083038185875af1925050503d805f8114610b9c576040519150601f19603f3d011682016040523d82523d5f602084013e610ba1565b606091505b5050905080610be5576040517f08c379a0000000000000000000000000000000000000000000000000000000008152600401610bdc90611f6c565b60405180910390fd5b8373ffffffffffffffffffffffffffffffffffffffff168561ffff16877fa56c1c782bbc87cbabded955a12158699c1b27917e82fbb40f468644bf1b83fe60405160405180910390a4505050505050565b610c3e611174565b73ffffffffffffffffffffffffffffffffffffffff16610c5c61078d565b73ffffffffffffffffffffffffffffffffffffffff1614610cb2576040517f08c379a0000000000000000000000000000000000000000000000000000000008152600401610ca990611d43565b60405180910390fd5b80600a5f8461ffff1661ffff1681526020019081526020015f205f6101000a81548173ffffffffffffffffffffffffffffffffffffffff021916908373ffffffffffffffffffffffffffffffffffffffff1602179055508073ffffffffffffffffffffffffffffffffffffffff168261ffff167f69689b6795f3e82b6c7a420b4d2b8039ada3158b345f25e089d05808e874ce0360405160405180910390a35050565b60605f73ffffffffffffffffffffffffffffffffffffffff16610d778361126d565b73ffffffffffffffffffffffffffffffffffffffff1603610dcd576040517f08c379a0000000000000000000000000000000000000000000000000000000008152600401610dc490611fd4565b60405180910390fd5b60085f8381526020019081526020015f208054610de990611bf9565b80601f0160208091040260200160405190810160405280929190818152602001828054610e1590611bf9565b8015610e605780601f10610e3757610100808354040283529160200191610e60565b820191905f5260205f20905b815481529060010190602001808311610e4357829003601f168201915b50505050509050919050565b5f80610e7860056112a6565b9050610e8460056112b2565b610e8e84826112cf565b8260085f8381526020019081526020015f209081610eac9190612186565b50600160095f8381526020019081526020015f205f8061ffff1681526020019081526020015f205f6101000a81548160ff0219169083151502179055508373ffffffffffffffffffffffffffffffffffffffff16817f06becd955c918828f6e985541acbf49cc842c9e9bd569fffc7698e721ef1357585604051610f309190611610565b60405180910390a38091505092915050565b600a602052805f5260405f205f915054906101000a900473ffffffffffffffffffffffffffffffffffffffff1681565b610f7a611174565b73ffffffffffffffffffffffffffffffffffffffff16610f9861078d565b73ffffffffffffffffffffffffffffffffffffffff1614610fee576040517f08c379a0000000000000000000000000000000000000000000000000000000008152600401610fe590611d43565b60405180910390fd5b5f73ffffffffffffffffffffffffffffffffffffffff168173ffffffffffffffffffffffffffffffffffffffff160361105c576040517f08c379a0000000000000000000000000000000000000000000000000000000008152600401611053906122c5565b60405180910390fd5b611065816114dd565b50565b60075f9054906101000a900473ffffffffffffffffffffffffffffffffffffffff1673ffffffffffffffffffffffffffffffffffffffff163373ffffffffffffffffffffffffffffffffffffffff16146110f7576040517f08c379a00000000000000000000000000000000000000000000000000000000081526004016110ee9061232d565b60405180910390fd5b61110182846112cf565b8060085f8581526020019081526020015f20908161111f9190612186565b508173ffffffffffffffffffffffffffffffffffffffff16837f06becd955c918828f6e985541acbf49cc842c9e9bd569fffc7698e721ef13575836040516111679190611610565b60405180910390a3505050565b5f33905090565b5f61118582610554565b9050600160035f8373ffffffffffffffffffffffffffffffffffffffff1673ffffffffffffffffffffffffffffffffffffffff1681526020019081526020015f205f8282546111d49190612378565b9250508190555060025f8381526020019081526020015f205f6101000a81549073ffffffffffffffffffffffffffffffffffffffff0219169055815f73ffffffffffffffffffffffffffffffffffffffff168273ffffffffffffffffffffffffffffffffffffffff167fddf252ad1be2c89b69c2b068fc378daa952ba7f163c4a11628f55a4df523b3ef60405160405180910390a45050565b5f60025f8381526020019081526020015f205f9054906101000a900473ffffffffffffffffffffffffffffffffffffffff169050919050565b5f815f01549050919050565b6001815f015f8282546112c591906123ab565b9250508190555050565b5f73ffffffffffffffffffffffffffffffffffffffff168273ffffffffffffffffffffffffffffffffffffffff160361133d576040517f08c379a000000000000000000000000000000000000000000000000000000000815260040161133490611cdb565b60405180910390fd5b5f73ffffffffffffffffffffffffffffffffffffffff1660025f8381526020019081526020015f205f9054906101000a900473ffffffffffffffffffffffffffffffffffffffff1673ffffffffffffffffffffffffffffffffffffffff16146113db576040517f08c379a00000000000000000000000000000000000000000000000000000000081526004016113d290612428565b60405180910390fd5b600160035f8473ffffffffffffffffffffffffffffffffffffffff1673ffffffffffffffffffffffffffffffffffffffff1681526020019081526020015f205f82825461142891906123ab565b925050819055508160025f8381526020019081526020015f205f6101000a81548173ffffffffffffffffffffffffffffffffffffffff021916908373ffffffffffffffffffffffffffffffffffffffff160217905550808273ffffffffffffffffffffffffffffffffffffffff165f73ffffffffffffffffffffffffffffffffffffffff167fddf252ad1be2c89b69c2b068fc378daa952ba7f163c4a11628f55a4df523b3ef60405160405180910390a45050565b5f60045f9054906101000a900473ffffffffffffffffffffffffffffffffffffffff1690508160045f6101000a81548173ffffffffffffffffffffffffffffffffffffffff021916908373ffffffffffffffffffffffffffffffffffffffff1602179055508173ffffffffffffffffffffffffffffffffffffffff168173ffffffffffffffffffffffffffffffffffffffff167f8be0079c531659141344cd1fd0a4f28419497f9722a3daafe3b4186f6b6457e060405160405180910390a35050565b5f81519050919050565b5f82825260208201905092915050565b8281835e5f83830152505050565b5f601f19601f8301169050919050565b5f6115e2826115a0565b6115ec81856115aa565b93506115fc8185602086016115ba565b611605816115c8565b840191505092915050565b5f6020820190508181035f83015261162881846115d8565b905092915050565b5f73ffffffffffffffffffffffffffffffffffffffff82169050919050565b5f819050919050565b5f61167261166d61166884611630565b61164f565b611630565b9050919050565b5f61168382611658565b9050919050565b5f61169482611679565b9050919050565b6116a48161168a565b82525050565b5f6020820190506116bd5f83018461169b565b92915050565b5f604051905090565b5f80fd5b5f80fd5b5f819050919050565b6116e6816116d4565b81146116f0575f80fd5b50565b5f81359050611701816116dd565b92915050565b5f61ffff82169050919050565b61171d81611707565b8114611727575f80fd5b50565b5f8135905061173881611714565b92915050565b5f8060408385031215611754576117536116cc565b5b5f611761858286016116f3565b92505060206117728582860161172a565b9150509250929050565b5f8115159050919050565b6117908161177c565b82525050565b5f6020820190506117a95f830184611787565b92915050565b5f602082840312156117c4576117c36116cc565b5b5f6117d1848285016116f3565b91505092915050565b5f6117e482611630565b9050919050565b6117f4816117da565b82525050565b5f60208201905061180d5f8301846117eb565b92915050565b61181c816117da565b8114611826575f80fd5b50565b5f8135905061183781611813565b92915050565b5f60208284031215611852576118516116cc565b5b5f61185f84828501611829565b91505092915050565b611871816116d4565b82525050565b5f60208201905061188a5f830184611868565b92915050565b5f80fd5b5f80fd5b5f80fd5b5f8083601f8401126118b1576118b0611890565b5b8235905067ffffffffffffffff8111156118ce576118cd611894565b5b6020830191508360018202830111156118ea576118e9611898565b5b9250929050565b5f805f805f6080868803121561190a576119096116cc565b5b5f611917888289016116f3565b95505060206119288882890161172a565b945050604061193988828901611829565b935050606086013567ffffffffffffffff81111561195a576119596116d0565b5b6119668882890161189c565b92509250509295509295909350565b5f806040838503121561198b5761198a6116cc565b5b5f6119988582860161172a565b92505060206119a985828601611829565b9150509250929050565b5f80fd5b7f4e487b71000000000000000000000000000000000000000000000000000000005f52604160045260245ffd5b6119ed826115c8565b810181811067ffffffffffffffff82111715611a0c57611a0b6119b7565b5b80604052505050565b5f611a1e6116c3565b9050611a2a82826119e4565b919050565b5f67ffffffffffffffff821115611a4957611a486119b7565b5b611a52826115c8565b9050602081019050919050565b828183375f83830152505050565b5f611a7f611a7a84611a2f565b611a15565b905082815260208101848484011115611a9b57611a9a6119b3565b5b611aa6848285611a5f565b509392505050565b5f82601f830112611ac257611ac1611890565b5b8135611ad2848260208601611a6d565b91505092915050565b5f8060408385031215611af157611af06116cc565b5b5f611afe85828601611829565b925050602083013567ffffffffffffffff811115611b1f57611b1e6116d0565b5b611b2b85828601611aae565b9150509250929050565b5f60208284031215611b4a57611b496116cc565b5b5f611b578482850161172a565b91505092915050565b5f805f60608486031215611b7757611b766116cc565b5b5f611b84868287016116f3565b9350506020611b9586828701611829565b925050604084013567ffffffffffffffff811115611bb657611bb56116d0565b5b611bc286828701611aae565b9150509250925092565b7f4e487b71000000000000000000000000000000000000000000000000000000005f52602260045260245ffd5b5f6002820490506001821680611c1057607f821691505b602082108103611c2357611c22611bcc565b5b50919050565b7f4e6f74206d696e746564000000000000000000000000000000000000000000005f82015250565b5f611c5d600a836115aa565b9150611c6882611c29565b602082019050919050565b5f6020820190508181035f830152611c8a81611c51565b9050919050565b7f5a65726f206164647265737300000000000000000000000000000000000000005f82015250565b5f611cc5600c836115aa565b9150611cd082611c91565b602082019050919050565b5f6020820190508181035f830152611cf281611cb9565b9050919050565b7f4f776e61626c653a2063616c6c6572206973206e6f7420746865206f776e65725f82015250565b5f611d2d6020836115aa565b9150611d3882611cf9565b602082019050919050565b5f6020820190508181035f830152611d5a81611d21565b9050919050565b7f4e6f7420746f6b656e206f776e657200000000000000000000000000000000005f82015250565b5f611d95600f836115aa565b9150611da082611d61565b602082019050919050565b5f6020820190508181035f830152611dc281611d89565b9050919050565b7f436861696e206e6f7420636f6e6e6563746564000000000000000000000000005f82015250565b5f611dfd6013836115aa565b9150611e0882611dc9565b602082019050919050565b5f6020820190508181035f830152611e2a81611df1565b9050919050565b611e3a81611707565b82525050565b5f82825260208201905092915050565b5f611e5b8385611e40565b9350611e68838584611a5f565b611e71836115c8565b840190509392505050565b5f608082019050611e8f5f830188611868565b611e9c6020830187611e31565b611ea960408301866117eb565b8181036060830152611ebc818486611e50565b90509695505050505050565b5f81519050919050565b5f81905092915050565b5f611ee682611ec8565b611ef08185611ed2565b9350611f008185602086016115ba565b80840191505092915050565b5f611f178284611edc565b915081905092915050565b7f4272696467652063616c6c206661696c656400000000000000000000000000005f82015250565b5f611f566012836115aa565b9150611f6182611f22565b602082019050919050565b5f6020820190508181035f830152611f8381611f4a565b9050919050565b7f546f6b656e20646f6573206e6f742065786973740000000000000000000000005f82015250565b5f611fbe6014836115aa565b9150611fc982611f8a565b602082019050919050565b5f6020820190508181035f830152611feb81611fb2565b9050919050565b5f819050815f5260205f209050919050565b5f6020601f8301049050919050565b5f82821b905092915050565b5f6008830261204e7fffffffffffffffffffffffffffffffffffffffffffffffffffffffffffffffff82612013565b6120588683612013565b95508019841693508086168417925050509392505050565b5f61208a612085612080846116d4565b61164f565b6116d4565b9050919050565b5f819050919050565b6120a383612070565b6120b76120af82612091565b84845461201f565b825550505050565b5f90565b6120cb6120bf565b6120d681848461209a565b505050565b5b818110156120f9576120ee5f826120c3565b6001810190506120dc565b5050565b601f82111561213e5761210f81611ff2565b61211884612004565b81016020851015612127578190505b61213b61213385612004565b8301826120db565b50505b505050565b5f82821c905092915050565b5f61215e5f1984600802612143565b1980831691505092915050565b5f612176838361214f565b9150826002028217905092915050565b61218f826115a0565b67ffffffffffffffff8111156121a8576121a76119b7565b5b6121b28254611bf9565b6121bd8282856120fd565b5f60209050601f8311600181146121ee575f84156121dc578287015190505b6121e6858261216b565b86555061224d565b601f1984166121fc86611ff2565b5f5b82811015612223578489015182556001820191506020850194506020810190506121fe565b86831015612240578489015161223c601f89168261214f565b8355505b6001600288020188555050505b505050505050565b7f4f776e61626c653a206e6577206f776e6572206973207a65726f2061646472655f8201527f7373000000000000000000000000000000000000000000000000000000000000602082015250565b5f6122af6022836115aa565b91506122ba82612255565b604082019050919050565b5f6020820190508181035f8301526122dc816122a3565b9050919050565b7f4f6e6c79206272696467652063616e2063616c6c0000000000000000000000005f82015250565b5f6123176014836115aa565b9150612322826122e3565b602082019050919050565b5f6020820190508181035f8301526123448161230b565b9050919050565b7f4e487b71000000000000000000000000000000000000000000000000000000005f52601160045260245ffd5b5f612382826116d4565b915061238d836116d4565b92508282039050818111156123a5576123a461234b565b5b92915050565b5f6123b5826116d4565b91506123c0836116d4565b92508282019050808211156123d8576123d761234b565b5b92915050565b7f416c7265616479206d696e7465640000000000000000000000000000000000005f82015250565b5f612412600e836115aa565b915061241d826123de565b602082019050919050565b5f6020820190508181035f83015261243f81612406565b905091905056fea264697066735822122057529921cd4fb44c306ef35e24abfab93ba70f6a1b2bb7084b5b10662a54274c64736f6c634300081a0033",
					"opcodes": "PUSH1 0x80 PUSH1 0x40 MSTORE CALLVALUE DUP1 ISZERO PUSH2 0xF JUMPI PUSH0 DUP1 REVERT JUMPDEST POP PUSH1 0x40 MLOAD PUSH2 0x2A05 CODESIZE SUB DUP1 PUSH2 0x2A05 DUP4 CODECOPY DUP2 DUP2 ADD PUSH1 0x40 MSTORE DUP2 ADD SWAP1 PUSH2 0x31 SWAP2 SWAP1 PUSH2 0x248 JUMP JUMPDEST PUSH1 0x40 MLOAD DUP1 PUSH1 0x40 ADD PUSH1 0x40 MSTORE DUP1 PUSH1 0xD DUP2 MSTORE PUSH1 0x20 ADD PUSH32 0x4D696E74204F6E6365204E465400000000000000000000000000000000000000 DUP2 MSTORE POP PUSH1 0x40 MLOAD DUP1 PUSH1 0x40 ADD PUSH1 0x40 MSTORE DUP1 PUSH1 0x5 DUP2 MSTORE PUSH1 0x20 ADD PUSH32 0x4D4F4E4654000000000000000000000000000000000000000000000000000000 DUP2 MSTORE POP DUP2 PUSH0 SWAP1 DUP2 PUSH2 0xAB SWAP2 SWAP1 PUSH2 0x4AD JUMP JUMPDEST POP DUP1 PUSH1 0x1 SWAP1 DUP2 PUSH2 0xBB SWAP2 SWAP1 PUSH2 0x4AD JUMP JUMPDEST POP POP POP PUSH2 0xDA PUSH2 0xCF PUSH2 0x120 PUSH1 0x20 SHL PUSH1 0x20 SHR JUMP JUMPDEST PUSH2 0x127 PUSH1 0x20 SHL PUSH1 0x20 SHR JUMP JUMPDEST DUP1 PUSH1 0x6 PUSH0 PUSH2 0x100 EXP DUP2 SLOAD DUP2 PUSH20 0xFFFFFFFFFFFFFFFFFFFFFFFFFFFFFFFFFFFFFFFF MUL NOT AND SWAP1 DUP4 PUSH20 0xFFFFFFFFFFFFFFFFFFFFFFFFFFFFFFFFFFFFFFFF AND MUL OR SWAP1 SSTORE POP POP PUSH2 0x57C JUMP JUMPDEST PUSH0 CALLER SWAP1 POP SWAP1 JUMP JUMPDEST PUSH0 PUSH1 0x4 PUSH0 SWAP1 SLOAD SWAP1 PUSH2 0x100 EXP SWAP1 DIV PUSH20 0xFFFFFFFFFFFFFFFFFFFFFFFFFFFFFFFFFFFFFFFF AND SWAP1 POP DUP2 PUSH1 0x4 PUSH0 PUSH2 0x100 EXP DUP2 SLOAD DUP2 PUSH20 0xFFFFFFFFFFFFFFFFFFFFFFFFFFFFFFFFFFFFFFFF MUL NOT AND SWAP1 DUP4 PUSH20 0xFFFFFFFFFFFFFFFFFFFFFFFFFFFFFFFFFFFFFFFF AND MUL OR SWAP1 SSTORE POP DUP2 PUSH20 0xFFFFFFFFFFFFFFFFFFFFFFFFFFFFFFFFFFFFFFFF AND DUP2 PUSH20 0xFFFFFFFFFFFFFFFFFFFFFFFFFFFFFFFFFFFFFFFF AND PUSH32 0x8BE0079C531659141344CD1FD0A4F28419497F9722A3DAAFE3B4186F6B6457E0 PUSH1 0x40 MLOAD PUSH1 0x40 MLOAD DUP1 SWAP2 SUB SWAP1 LOG3 POP POP JUMP JUMPDEST PUSH0 DUP1 REVERT JUMPDEST PUSH0 PUSH20 0xFFFFFFFFFFFFFFFFFFFFFFFFFFFFFFFFFFFFFFFF DUP3 AND SWAP1 POP SWAP2 SWAP1 POP JUMP JUMPDEST PUSH0 PUSH2 0x217 DUP3 PUSH2 0x1EE JUMP JUMPDEST SWAP1 POP SWAP2 SWAP1 POP JUMP JUMPDEST PUSH2 0x227 DUP2 PUSH2 0x20D JUMP JUMPDEST DUP2 EQ PUSH2 0x231 JUMPI PUSH0 DUP1 REVERT JUMPDEST POP JUMP JUMPDEST PUSH0 DUP2 MLOAD SWAP1 POP PUSH2 0x242 DUP2 PUSH2 0x21E JUMP JUMPDEST SWAP3 SWAP2 POP POP JUMP JUMPDEST PUSH0 PUSH1 0x20 DUP3 DUP5 SUB SLT ISZERO PUSH2 0x25D JUMPI PUSH2 0x25C PUSH2 0x1EA JUMP JUMPDEST JUMPDEST PUSH0 PUSH2 0x26A DUP5 DUP3 DUP6 ADD PUSH2 0x234 JUMP JUMPDEST SWAP2 POP POP SWAP3 SWAP2 POP POP JUMP JUMPDEST PUSH0 DUP2 MLOAD SWAP1 POP SWAP2 SWAP1 POP JUMP JUMPDEST PUSH32 0x4E487B7100000000000000000000000000000000000000000000000000000000 PUSH0 MSTORE PUSH1 0x41 PUSH1 0x4 MSTORE PUSH1 0x24 PUSH0 REVERT JUMPDEST PUSH32 0x4E487B7100000000000000000000000000000000000000000000000000000000 PUSH0 MSTORE PUSH1 0x22 PUSH1 0x4 MSTORE PUSH1 0x24 PUSH0 REVERT JUMPDEST PUSH0 PUSH1 0x2 DUP3 DIV SWAP1 POP PUSH1 0x1 DUP3 AND DUP1 PUSH2 0x2EE JUMPI PUSH1 0x7F DUP3 AND SWAP2 POP JUMPDEST PUSH1 0x20 DUP3 LT DUP2 SUB PUSH2 0x301 JUMPI PUSH2 0x300 PUSH2 0x2AA JUMP JUMPDEST JUMPDEST POP SWAP2 SWAP1 POP JUMP JUMPDEST PUSH0 DUP2 SWAP1 POP DUP2 PUSH0 MSTORE PUSH1 0x20 PUSH0 KECCAK256 SWAP1 POP SWAP2 SWAP1 POP JUMP JUMPDEST PUSH0 PUSH1 0x20 PUSH1 0x1F DUP4 ADD DIV SWAP1 POP SWAP2 SWAP1 POP JUMP JUMPDEST PUSH0 DUP3 DUP3 SHL SWAP1 POP SWAP3 SWAP2 POP POP JUMP JUMPDEST PUSH0 PUSH1 0x8 DUP4 MUL PUSH2 0x363 PUSH32 0xFFFFFFFFFFFFFFFFFFFFFFFFFFFFFFFFFFFFFFFFFFFFFFFFFFFFFFFFFFFFFFFF DUP3 PUSH2 0x328 JUMP JUMPDEST PUSH2 0x36D DUP7 DUP4 PUSH2 0x328 JUMP JUMPDEST SWAP6 POP DUP1 NOT DUP5 AND SWAP4 POP DUP1 DUP7 AND DUP5 OR SWAP3 POP POP POP SWAP4 SWAP3 POP POP POP JUMP JUMPDEST PUSH0 DUP2 SWAP1 POP SWAP2 SWAP1 POP JUMP JUMPDEST PUSH0 DUP2 SWAP1 POP SWAP2 SWAP1 POP JUMP JUMPDEST PUSH0 PUSH2 0x3B1 PUSH2 0x3AC PUSH2 0x3A7 DUP5 PUSH2 0x385 JUMP JUMPDEST PUSH2 0x38E JUMP JUMPDEST PUSH2 0x385 JUMP JUMPDEST SWAP1 POP SWAP2 SWAP1 POP JUMP JUMPDEST PUSH0 DUP2 SWAP1 POP SWAP2 SWAP1 POP JUMP JUMPDEST PUSH2 0x3CA DUP4 PUSH2 0x397 JUMP JUMPDEST PUSH2 0x3DE PUSH2 0x3D6 DUP3 PUSH2 0x3B8 JUMP JUMPDEST DUP5 DUP5 SLOAD PUSH2 0x334 JUMP JUMPDEST DUP3 SSTORE POP POP POP POP JUMP JUMPDEST PUSH0 SWAP1 JUMP JUMPDEST PUSH2 0x3F2 PUSH2 0x3E6 JUMP JUMPDEST PUSH2 0x3FD DUP2 DUP5 DUP5 PUSH2 0x3C1 JUMP JUMPDEST POP POP POP JUMP JUMPDEST JUMPDEST DUP2 DUP2 LT ISZERO PUSH2 0x420 JUMPI PUSH2 0x415 PUSH0 DUP3 PUSH2 0x3EA JUMP JUMPDEST PUSH1 0x1 DUP2 ADD SWAP1 POP PUSH2 0x403 JUMP JUMPDEST POP POP JUMP JUMPDEST PUSH1 0x1F DUP3 GT ISZERO PUSH2 0x465 JUMPI PUSH2 0x436 DUP2 PUSH2 0x307 JUMP JUMPDEST PUSH2 0x43F DUP5 PUSH2 0x319 JUMP JUMPDEST DUP2 ADD PUSH1 0x20 DUP6 LT ISZERO PUSH2 0x44E JUMPI DUP2 SWAP1 POP JUMPDEST PUSH2 0x462 PUSH2 0x45A DUP6 PUSH2 0x319 JUMP JUMPDEST DUP4 ADD DUP3 PUSH2 0x402 JUMP JUMPDEST POP POP JUMPDEST POP POP POP JUMP JUMPDEST PUSH0 DUP3 DUP3 SHR SWAP1 POP SWAP3 SWAP2 POP POP JUMP JUMPDEST PUSH0 PUSH2 0x485 PUSH0 NOT DUP5 PUSH1 0x8 MUL PUSH2 0x46A JUMP JUMPDEST NOT DUP1 DUP4 AND SWAP2 POP POP SWAP3 SWAP2 POP POP JUMP JUMPDEST PUSH0 PUSH2 0x49D DUP4 DUP4 PUSH2 0x476 JUMP JUMPDEST SWAP2 POP DUP3 PUSH1 0x2 MUL DUP3 OR SWAP1 POP SWAP3 SWAP2 POP POP JUMP JUMPDEST PUSH2 0x4B6 DUP3 PUSH2 0x273 JUMP JUMPDEST PUSH8 0xFFFFFFFFFFFFFFFF DUP2 GT ISZERO PUSH2 0x4CF JUMPI PUSH2 0x4CE PUSH2 0x27D JUMP JUMPDEST JUMPDEST PUSH2 0x4D9 DUP3 SLOAD PUSH2 0x2D7 JUMP JUMPDEST PUSH2 0x4E4 DUP3 DUP3 DUP6 PUSH2 0x424 JUMP JUMPDEST PUSH0 PUSH1 0x20 SWAP1 POP PUSH1 0x1F DUP4 GT PUSH1 0x1 DUP2 EQ PUSH2 0x515 JUMPI PUSH0 DUP5 ISZERO PUSH2 0x503 JUMPI DUP3 DUP8 ADD MLOAD SWAP1 POP JUMPDEST PUSH2 0x50D DUP6 DUP3 PUSH2 0x492 JUMP JUMPDEST DUP7 SSTORE POP PUSH2 0x574 JUMP JUMPDEST PUSH1 0x1F NOT DUP5 AND PUSH2 0x523 DUP7 PUSH2 0x307 JUMP JUMPDEST PUSH0 JUMPDEST DUP3 DUP2 LT ISZERO PUSH2 0x54A JUMPI DUP5 DUP10 ADD MLOAD DUP3 SSTORE PUSH1 0x1 DUP3 ADD SWAP2 POP PUSH1 0x20 DUP6 ADD SWAP5 POP PUSH1 0x20 DUP2 ADD SWAP1 POP PUSH2 0x525 JUMP JUMPDEST DUP7 DUP4 LT ISZERO PUSH2 0x567 JUMPI DUP5 DUP10 ADD MLOAD PUSH2 0x563 PUSH1 0x1F DUP10 AND DUP3 PUSH2 0x476 JUMP JUMPDEST DUP4 SSTORE POP JUMPDEST PUSH1 0x1 PUSH1 0x2 DUP9 MUL ADD DUP9 SSTORE POP POP POP JUMPDEST POP POP POP POP POP POP JUMP JUMPDEST PUSH2 0x247C DUP1 PUSH2 0x589 PUSH0 CODECOPY PUSH0 RETURN INVALID PUSH1 0x80 PUSH1 0x40 MSTORE PUSH1 0x4 CALLDATASIZE LT PUSH2 0x108 JUMPI PUSH0 CALLDATALOAD PUSH1 0xE0 SHR DUP1 PUSH4 0xA5CECDC9 GT PUSH2 0x94 JUMPI DUP1 PUSH4 0xC87B56DD GT PUSH2 0x63 JUMPI DUP1 PUSH4 0xC87B56DD EQ PUSH2 0x376 JUMPI DUP1 PUSH4 0xD0DEF521 EQ PUSH2 0x3B2 JUMPI DUP1 PUSH4 0xD5021E5F EQ PUSH2 0x3EE JUMPI DUP1 PUSH4 0xF2FDE38B EQ PUSH2 0x42A JUMPI DUP1 PUSH4 0xF4EDF36D EQ PUSH2 0x452 JUMPI PUSH2 0x108 JUMP JUMPDEST DUP1 PUSH4 0xA5CECDC9 EQ PUSH2 0x2E0 JUMPI DUP1 PUSH4 0xA866365C EQ PUSH2 0x30A JUMPI DUP1 PUSH4 0xB1D31D98 EQ PUSH2 0x332 JUMPI DUP1 PUSH4 0xC02169F2 EQ PUSH2 0x34E JUMPI PUSH2 0x108 JUMP JUMPDEST DUP1 PUSH4 0x6C8B703F GT PUSH2 0xDB JUMPI DUP1 PUSH4 0x6C8B703F EQ PUSH2 0x1D8 JUMPI DUP1 PUSH4 0x6FAFB558 EQ PUSH2 0x214 JUMPI DUP1 PUSH4 0x70A08231 EQ PUSH2 0x250 JUMPI DUP1 PUSH4 0x8DA5CB5B EQ PUSH2 0x28C JUMPI DUP1 PUSH4 0x95D89B41 EQ PUSH2 0x2B6 JUMPI PUSH2 0x108 JUMP JUMPDEST DUP1 PUSH4 0x6FDDE03 EQ PUSH2 0x10C JUMPI DUP1 PUSH4 0x116191B6 EQ PUSH2 0x136 JUMPI DUP1 PUSH4 0x2E021620 EQ PUSH2 0x160 JUMPI DUP1 PUSH4 0x6352211E EQ PUSH2 0x19C JUMPI JUMPDEST PUSH0 DUP1 REVERT JUMPDEST CALLVALUE DUP1 ISZERO PUSH2 0x117 JUMPI PUSH0 DUP1 REVERT JUMPDEST POP PUSH2 0x120 PUSH2 0x47A JUMP JUMPDEST PUSH1 0x40 MLOAD PUSH2 0x12D SWAP2 SWAP1 PUSH2 0x1610 JUMP JUMPDEST PUSH1 0x40 MLOAD DUP1 SWAP2 SUB SWAP1 RETURN JUMPDEST CALLVALUE DUP1 ISZERO PUSH2 0x141 JUMPI PUSH0 DUP1 REVERT JUMPDEST POP PUSH2 0x14A PUSH2 0x505 JUMP JUMPDEST PUSH1 0x40 MLOAD PUSH2 0x157 SWAP2 SWAP1 PUSH2 0x16AA JUMP JUMPDEST PUSH1 0x40 MLOAD DUP1 SWAP2 SUB SWAP1 RETURN JUMPDEST CALLVALUE DUP1 ISZERO PUSH2 0x16B JUMPI PUSH0 DUP1 REVERT JUMPDEST POP PUSH2 0x186 PUSH1 0x4 DUP1 CALLDATASIZE SUB DUP2 ADD SWAP1 PUSH2 0x181 SWAP2 SWAP1 PUSH2 0x173E JUMP JUMPDEST PUSH2 0x52A JUMP JUMPDEST PUSH1 0x40 MLOAD PUSH2 0x193 SWAP2 SWAP1 PUSH2 0x1796 JUMP JUMPDEST PUSH1 0x40 MLOAD DUP1 SWAP2 SUB SWAP1 RETURN JUMPDEST CALLVALUE DUP1 ISZERO PUSH2 0x1A7 JUMPI PUSH0 DUP1 REVERT JUMPDEST POP PUSH2 0x1C2 PUSH1 0x4 DUP1 CALLDATASIZE SUB DUP2 ADD SWAP1 PUSH2 0x1BD SWAP2 SWAP1 PUSH2 0x17AF JUMP JUMPDEST PUSH2 0x554 JUMP JUMPDEST PUSH1 0x40 MLOAD PUSH2 0x1CF SWAP2 SWAP1 PUSH2 0x17FA JUMP JUMPDEST PUSH1 0x40 MLOAD DUP1 SWAP2 SUB SWAP1 RETURN JUMPDEST CALLVALUE DUP1 ISZERO PUSH2 0x1E3 JUMPI PUSH0 DUP1 REVERT JUMPDEST POP PUSH2 0x1FE PUSH1 0x4 DUP1 CALLDATASIZE SUB DUP2 ADD SWAP1 PUSH2 0x1F9 SWAP2 SWAP1 PUSH2 0x17AF JUMP JUMPDEST PUSH2 0x600 JUMP JUMPDEST PUSH1 0x40 MLOAD PUSH2 0x20B SWAP2 SWAP1 PUSH2 0x1610 JUMP JUMPDEST PUSH1 0x40 MLOAD DUP1 SWAP2 SUB SWAP1 RETURN JUMPDEST CALLVALUE DUP1 ISZERO PUSH2 0x21F JUMPI PUSH0 DUP1 REVERT JUMPDEST POP PUSH2 0x23A PUSH1 0x4 DUP1 CALLDATASIZE SUB DUP2 ADD SWAP1 PUSH2 0x235 SWAP2 SWAP1 PUSH2 0x173E JUMP JUMPDEST PUSH2 0x69B JUMP JUMPDEST PUSH1 0x40 MLOAD PUSH2 0x247 SWAP2 SWAP1 PUSH2 0x1796 JUMP JUMPDEST PUSH1 0x40 MLOAD DUP1 SWAP2 SUB SWAP1 RETURN JUMPDEST CALLVALUE DUP1 ISZERO PUSH2 0x25B JUMPI PUSH0 DUP1 REVERT JUMPDEST POP PUSH2 0x276 PUSH1 0x4 DUP1 CALLDATASIZE SUB DUP2 ADD SWAP1 PUSH2 0x271 SWAP2 SWAP1 PUSH2 0x183D JUMP JUMPDEST PUSH2 0x6D9 JUMP JUMPDEST PUSH1 0x40 MLOAD PUSH2 0x283 SWAP2 SWAP1 PUSH2 0x1877 JUMP JUMPDEST PUSH1 0x40 MLOAD DUP1 SWAP2 SUB SWAP1 RETURN JUMPDEST CALLVALUE DUP1 ISZERO PUSH2 0x297 JUMPI PUSH0 DUP1 REVERT JUMPDEST POP PUSH2 0x2A0 PUSH2 0x78D JUMP JUMPDEST PUSH1 0x40 MLOAD PUSH2 0x2AD SWAP2 SWAP1 PUSH2 0x17FA JUMP JUMPDEST PUSH1 0x40 MLOAD DUP1 SWAP2 SUB SWAP1 RETURN JUMPDEST CALLVALUE DUP1 ISZERO PUSH2 0x2C1 JUMPI PUSH0 DUP1 REVERT JUMPDEST POP PUSH2 0x2CA PUSH2 0x7B5 JUMP JUMPDEST PUSH1 0x40 MLOAD PUSH2 0x2D7 SWAP2 SWAP1 PUSH2 0x1610 JUMP JUMPDEST PUSH1 0x40 MLOAD DUP1 SWAP2 SUB SWAP1 RETURN JUMPDEST CALLVALUE DUP1 ISZERO PUSH2 0x2EB JUMPI PUSH0 DUP1 REVERT JUMPDEST POP PUSH2 0x2F4 PUSH2 0x841 JUMP JUMPDEST PUSH1 0x40 MLOAD PUSH2 0x301 SWAP2 SWAP1 PUSH2 0x17FA JUMP JUMPDEST PUSH1 0x40 MLOAD DUP1 SWAP2 SUB SWAP1 RETURN JUMPDEST CALLVALUE DUP1 ISZERO PUSH2 0x315 JUMPI PUSH0 DUP1 REVERT JUMPDEST POP PUSH2 0x330 PUSH1 0x4 DUP1 CALLDATASIZE SUB DUP2 ADD SWAP1 PUSH2 0x32B SWAP2 SWAP1 PUSH2 0x183D JUMP JUMPDEST PUSH2 0x866 JUMP JUMPDEST STOP JUMPDEST PUSH2 0x34C PUSH1 0x4 DUP1 CALLDATASIZE SUB DUP2 ADD SWAP1 PUSH2 0x347 SWAP2 SWAP1 PUSH2 0x18F1 JUMP JUMPDEST PUSH2 0x925 JUMP JUMPDEST STOP JUMPDEST CALLVALUE DUP1 ISZERO PUSH2 0x359 JUMPI PUSH0 DUP1 REVERT JUMPDEST POP PUSH2 0x374 PUSH1 0x4 DUP1 CALLDATASIZE SUB DUP2 ADD SWAP1 PUSH2 0x36F SWAP2 SWAP1 PUSH2 0x1975 JUMP JUMPDEST PUSH2 0xC36 JUMP JUMPDEST STOP JUMPDEST CALLVALUE DUP1 ISZERO PUSH2 0x381 JUMPI PUSH0 DUP1 REVERT JUMPDEST POP PUSH2 0x39C PUSH1 0x4 DUP1 CALLDATASIZE SUB DUP2 ADD SWAP1 PUSH2 0x397 SWAP2 SWAP1 PUSH2 0x17AF JUMP JUMPDEST PUSH2 0xD55 JUMP JUMPDEST PUSH1 0x40 MLOAD PUSH2 0x3A9 SWAP2 SWAP1 PUSH2 0x1610 JUMP JUMPDEST PUSH1 0x40 MLOAD DUP1 SWAP2 SUB SWAP1 RETURN JUMPDEST CALLVALUE DUP1 ISZERO PUSH2 0x3BD JUMPI PUSH0 DUP1 REVERT JUMPDEST POP PUSH2 0x3D8 PUSH1 0x4 DUP1 CALLDATASIZE SUB DUP2 ADD SWAP1 PUSH2 0x3D3 SWAP2 SWAP1 PUSH2 0x1ADB JUMP JUMPDEST PUSH2 0xE6C JUMP JUMPDEST PUSH1 0x40 MLOAD PUSH2 0x3E5 SWAP2 SWAP1 PUSH2 0x1877 JUMP JUMPDEST PUSH1 0x40 MLOAD DUP1 SWAP2 SUB SWAP1 RETURN JUMPDEST CALLVALUE DUP1 ISZERO PUSH2 0x3F9 JUMPI PUSH0 DUP1 REVERT JUMPDEST POP PUSH2 0x414 PUSH1 0x4 DUP1 CALLDATASIZE SUB DUP2 ADD SWAP1 PUSH2 0x40F SWAP2 SWAP1 PUSH2 0x1B35 JUMP JUMPDEST PUSH2 0xF42 JUMP JUMPDEST PUSH1 0x40 MLOAD PUSH2 0x421 SWAP2 SWAP1 PUSH2 0x17FA JUMP JUMPDEST PUSH1 0x40 MLOAD DUP1 SWAP2 SUB SWAP1 RETURN JUMPDEST CALLVALUE DUP1 ISZERO PUSH2 0x435 JUMPI PUSH0 DUP1 REVERT JUMPDEST POP PUSH2 0x450 PUSH1 0x4 DUP1 CALLDATASIZE SUB DUP2 ADD SWAP1 PUSH2 0x44B SWAP2 SWAP1 PUSH2 0x183D JUMP JUMPDEST PUSH2 0xF72 JUMP JUMPDEST STOP JUMPDEST CALLVALUE DUP1 ISZERO PUSH2 0x45D JUMPI PUSH0 DUP1 REVERT JUMPDEST POP PUSH2 0x478 PUSH1 0x4 DUP1 CALLDATASIZE SUB DUP2 ADD SWAP1 PUSH2 0x473 SWAP2 SWAP1 PUSH2 0x1B60 JUMP JUMPDEST PUSH2 0x1068 JUMP JUMPDEST STOP JUMPDEST PUSH0 DUP1 SLOAD PUSH2 0x486 SWAP1 PUSH2 0x1BF9 JUMP JUMPDEST DUP1 PUSH1 0x1F ADD PUSH1 0x20 DUP1 SWAP2 DIV MUL PUSH1 0x20 ADD PUSH1 0x40 MLOAD SWAP1 DUP2 ADD PUSH1 0x40 MSTORE DUP1 SWAP3 SWAP2 SWAP1 DUP2 DUP2 MSTORE PUSH1 0x20 ADD DUP3 DUP1 SLOAD PUSH2 0x4B2 SWAP1 PUSH2 0x1BF9 JUMP JUMPDEST DUP1 ISZERO PUSH2 0x4FD JUMPI DUP1 PUSH1 0x1F LT PUSH2 0x4D4 JUMPI PUSH2 0x100 DUP1 DUP4 SLOAD DIV MUL DUP4 MSTORE SWAP2 PUSH1 0x20 ADD SWAP2 PUSH2 0x4FD JUMP JUMPDEST DUP3 ADD SWAP2 SWAP1 PUSH0 MSTORE PUSH1 0x20 PUSH0 KECCAK256 SWAP1 JUMPDEST DUP2 SLOAD DUP2 MSTORE SWAP1 PUSH1 0x1 ADD SWAP1 PUSH1 0x20 ADD DUP1 DUP4 GT PUSH2 0x4E0 JUMPI DUP3 SWAP1 SUB PUSH1 0x1F AND DUP3 ADD SWAP2 JUMPDEST POP POP POP POP POP DUP2 JUMP JUMPDEST PUSH1 0x6 PUSH0 SWAP1 SLOAD SWAP1 PUSH2 0x100 EXP SWAP1 DIV PUSH20 0xFFFFFFFFFFFFFFFFFFFFFFFFFFFFFFFFFFFFFFFF AND DUP2 JUMP JUMPDEST PUSH1 0x9 PUSH1 0x20 MSTORE DUP2 PUSH0 MSTORE PUSH1 0x40 PUSH0 KECCAK256 PUSH1 0x20 MSTORE DUP1 PUSH0 MSTORE PUSH1 0x40 PUSH0 KECCAK256 PUSH0 SWAP2 POP SWAP2 POP SWAP1 SLOAD SWAP1 PUSH2 0x100 EXP SWAP1 DIV PUSH1 0xFF AND DUP2 JUMP JUMPDEST PUSH0 DUP1 PUSH1 0x2 PUSH0 DUP5 DUP2 MSTORE PUSH1 0x20 ADD SWAP1 DUP2 MSTORE PUSH1 0x20 ADD PUSH0 KECCAK256 PUSH0 SWAP1 SLOAD SWAP1 PUSH2 0x100 EXP SWAP1 DIV PUSH20 0xFFFFFFFFFFFFFFFFFFFFFFFFFFFFFFFFFFFFFFFF AND SWAP1 POP PUSH0 PUSH20 0xFFFFFFFFFFFFFFFFFFFFFFFFFFFFFFFFFFFFFFFF AND DUP2 PUSH20 0xFFFFFFFFFFFFFFFFFFFFFFFFFFFFFFFFFFFFFFFF AND SUB PUSH2 0x5F7 JUMPI PUSH1 0x40 MLOAD PUSH32 0x8C379A000000000000000000000000000000000000000000000000000000000 DUP2 MSTORE PUSH1 0x4 ADD PUSH2 0x5EE SWAP1 PUSH2 0x1C73 JUMP JUMPDEST PUSH1 0x40 MLOAD DUP1 SWAP2 SUB SWAP1 REVERT JUMPDEST DUP1 SWAP2 POP POP SWAP2 SWAP1 POP JUMP JUMPDEST PUSH1 0x8 PUSH1 0x20 MSTORE DUP1 PUSH0 MSTORE PUSH1 0x40 PUSH0 KECCAK256 PUSH0 SWAP2 POP SWAP1 POP DUP1 SLOAD PUSH2 0x61C SWAP1 PUSH2 0x1BF9 JUMP JUMPDEST DUP1 PUSH1 0x1F ADD PUSH1 0x20 DUP1 SWAP2 DIV MUL PUSH1 0x20 ADD PUSH1 0x40 MLOAD SWAP1 DUP2 ADD PUSH1 0x40 MSTORE DUP1 SWAP3 SWAP2 SWAP1 DUP2 DUP2 MSTORE PUSH1 0x20 ADD DUP3 DUP1 SLOAD PUSH2 0x648 SWAP1 PUSH2 0x1BF9 JUMP JUMPDEST DUP1 ISZERO PUSH2 0x693 JUMPI DUP1 PUSH1 0x1F LT PUSH2 0x66A JUMPI PUSH2 0x100 DUP1 DUP4 SLOAD DIV MUL DUP4 MSTORE SWAP2 PUSH1 0x20 ADD SWAP2 PUSH2 0x693 JUMP JUMPDEST DUP3 ADD SWAP2 SWAP1 PUSH0 MSTORE PUSH1 0x20 PUSH0 KECCAK256 SWAP1 JUMPDEST DUP2 SLOAD DUP2 MSTORE SWAP1 PUSH1 0x1 ADD SWAP1 PUSH1 0x20 ADD DUP1 DUP4 GT PUSH2 0x676 JUMPI DUP3 SWAP1 SUB PUSH1 0x1F AND DUP3 ADD SWAP2 JUMPDEST POP POP POP POP POP DUP2 JUMP JUMPDEST PUSH0 PUSH1 0x9 PUSH0 DUP5 DUP2 MSTORE PUSH1 0x20 ADD SWAP1 DUP2 MSTORE PUSH1 0x20 ADD PUSH0 KECCAK256 PUSH0 DUP4 PUSH2 0xFFFF AND PUSH2 0xFFFF AND DUP2 MSTORE PUSH1 0x20 ADD SWAP1 DUP2 MSTORE PUSH1 0x20 ADD PUSH0 KECCAK256 PUSH0 SWAP1 SLOAD SWAP1 PUSH2 0x100 EXP SWAP1 DIV PUSH1 0xFF AND SWAP1 POP SWAP3 SWAP2 POP POP JUMP JUMPDEST PUSH0 DUP1 PUSH20 0xFFFFFFFFFFFFFFFFFFFFFFFFFFFFFFFFFFFFFFFF AND DUP3 PUSH20 0xFFFFFFFFFFFFFFFFFFFFFFFFFFFFFFFFFFFFFFFF AND SUB PUSH2 0x748 JUMPI PUSH1 0x40 MLOAD PUSH32 0x8C379A000000000000000000000000000000000000000000000000000000000 DUP2 MSTORE PUSH1 0x4 ADD PUSH2 0x73F SWAP1 PUSH2 0x1CDB JUMP JUMPDEST PUSH1 0x40 MLOAD DUP1 SWAP2 SUB SWAP1 REVERT JUMPDEST PUSH1 0x3 PUSH0 DUP4 PUSH20 0xFFFFFFFFFFFFFFFFFFFFFFFFFFFFFFFFFFFFFFFF AND PUSH20 0xFFFFFFFFFFFFFFFFFFFFFFFFFFFFFFFFFFFFFFFF AND DUP2 MSTORE PUSH1 0x20 ADD SWAP1 DUP2 MSTORE PUSH1 0x20 ADD PUSH0 KECCAK256 SLOAD SWAP1 POP SWAP2 SWAP1 POP JUMP JUMPDEST PUSH0 PUSH1 0x4 PUSH0 SWAP1 SLOAD SWAP1 PUSH2 0x100 EXP SWAP1 DIV PUSH20 0xFFFFFFFFFFFFFFFFFFFFFFFFFFFFFFFFFFFFFFFF AND SWAP1 POP SWAP1 JUMP JUMPDEST PUSH1 0x1 DUP1 SLOAD PUSH2 0x7C2 SWAP1 PUSH2 0x1BF9 JUMP JUMPDEST DUP1 PUSH1 0x1F ADD PUSH1 0x20 DUP1 SWAP2 DIV MUL PUSH1 0x20 ADD PUSH1 0x40 MLOAD SWAP1 DUP2 ADD PUSH1 0x40 MSTORE DUP1 SWAP3 SWAP2 SWAP1 DUP2 DUP2 MSTORE PUSH1 0x20 ADD DUP3 DUP1 SLOAD PUSH2 0x7EE SWAP1 PUSH2 0x1BF9 JUMP JUMPDEST DUP1 ISZERO PUSH2 0x839 JUMPI DUP1 PUSH1 0x1F LT PUSH2 0x810 JUMPI PUSH2 0x100 DUP1 DUP4 SLOAD DIV MUL DUP4 MSTORE SWAP2 PUSH1 0x20 ADD SWAP2 PUSH2 0x839 JUMP JUMPDEST DUP3 ADD SWAP2 SWAP1 PUSH0 MSTORE PUSH1 0x20 PUSH0 KECCAK256 SWAP1 JUMPDEST DUP2 SLOAD DUP2 MSTORE SWAP1 PUSH1 0x1 ADD SWAP1 PUSH1 0x20 ADD DUP1 DUP4 GT PUSH2 0x81C JUMPI DUP3 SWAP1 SUB PUSH1 0x1F AND DUP3 ADD SWAP2 JUMPDEST POP POP POP POP POP DUP2 JUMP JUMPDEST PUSH1 0x7 PUSH0 SWAP1 SLOAD SWAP1 PUSH2 0x100 EXP SWAP1 DIV PUSH20 0xFFFFFFFFFFFFFFFFFFFFFFFFFFFFFFFFFFFFFFFF AND DUP2 JUMP JUMPDEST PUSH2 0x86E PUSH2 0x1174 JUMP JUMPDEST PUSH20 0xFFFFFFFFFFFFFFFFFFFFFFFFFFFFFFFFFFFFFFFF AND PUSH2 0x88C PUSH2 0x78D JUMP JUMPDEST PUSH20 0xFFFFFFFFFFFFFFFFFFFFFFFFFFFFFFFFFFFFFFFF AND EQ PUSH2 0x8E2 JUMPI PUSH1 0x40 MLOAD PUSH32 0x8C379A000000000000000000000000000000000000000000000000000000000 DUP2 MSTORE PUSH1 0x4 ADD PUSH2 0x8D9 SWAP1 PUSH2 0x1D43 JUMP JUMPDEST PUSH1 0x40 MLOAD DUP1 SWAP2 SUB SWAP1 REVERT JUMPDEST DUP1 PUSH1 0x7 PUSH0 PUSH2 0x100 EXP DUP2 SLOAD DUP2 PUSH20 0xFFFFFFFFFFFFFFFFFFFFFFFFFFFFFFFFFFFFFFFF MUL NOT AND SWAP1 DUP4 PUSH20 0xFFFFFFFFFFFFFFFFFFFFFFFFFFFFFFFFFFFFFFFF AND MUL OR SWAP1 SSTORE POP POP JUMP JUMPDEST CALLER PUSH20 0xFFFFFFFFFFFFFFFFFFFFFFFFFFFFFFFFFFFFFFFF AND PUSH2 0x945 DUP7 PUSH2 0x554 JUMP JUMPDEST PUSH20 0xFFFFFFFFFFFFFFFFFFFFFFFFFFFFFFFFFFFFFFFF AND EQ PUSH2 0x99B JUMPI PUSH1 0x40 MLOAD PUSH32 0x8C379A000000000000000000000000000000000000000000000000000000000 DUP2 MSTORE PUSH1 0x4 ADD PUSH2 0x992 SWAP1 PUSH2 0x1DAB JUMP JUMPDEST PUSH1 0x40 MLOAD DUP1 SWAP2 SUB SWAP1 REVERT JUMPDEST PUSH0 PUSH20 0xFFFFFFFFFFFFFFFFFFFFFFFFFFFFFFFFFFFFFFFF AND PUSH1 0xA PUSH0 DUP7 PUSH2 0xFFFF AND PUSH2 0xFFFF AND DUP2 MSTORE PUSH1 0x20 ADD SWAP1 DUP2 MSTORE PUSH1 0x20 ADD PUSH0 KECCAK256 PUSH0 SWAP1 SLOAD SWAP1 PUSH2 0x100 EXP SWAP1 DIV PUSH20 0xFFFFFFFFFFFFFFFFFFFFFFFFFFFFFFFFFFFFFFFF AND PUSH20 0xFFFFFFFFFFFFFFFFFFFFFFFFFFFFFFFFFFFFFFFF AND SUB PUSH2 0xA41 JUMPI PUSH1 0x40 MLOAD PUSH32 0x8C379A000000000000000000000000000000000000000000000000000000000 DUP2 MSTORE PUSH1 0x4 ADD PUSH2 0xA38 SWAP1 PUSH2 0x1E13 JUMP JUMPDEST PUSH1 0x40 MLOAD DUP1 SWAP2 SUB SWAP1 REVERT JUMPDEST PUSH2 0xA4A DUP6 PUSH2 0x117B JUMP JUMPDEST PUSH0 PUSH1 0x9 PUSH0 DUP8 DUP2 MSTORE PUSH1 0x20 ADD SWAP1 DUP2 MSTORE PUSH1 0x20 ADD PUSH0 KECCAK256 PUSH0 DUP1 PUSH2 0xFFFF AND DUP2 MSTORE PUSH1 0x20 ADD SWAP1 DUP2 MSTORE PUSH1 0x20 ADD PUSH0 KECCAK256 PUSH0 PUSH2 0x100 EXP DUP2 SLOAD DUP2 PUSH1 0xFF MUL NOT AND SWAP1 DUP4 ISZERO ISZERO MUL OR SWAP1 SSTORE POP PUSH0 PUSH1 0x7 PUSH0 SWAP1 SLOAD SWAP1 PUSH2 0x100 EXP SWAP1 DIV PUSH20 0xFFFFFFFFFFFFFFFFFFFFFFFFFFFFFFFFFFFFFFFF AND PUSH20 0xFFFFFFFFFFFFFFFFFFFFFFFFFFFFFFFFFFFFFFFF AND CALLVALUE DUP8 DUP8 DUP8 DUP8 DUP8 PUSH1 0x40 MLOAD PUSH1 0x24 ADD PUSH2 0xAD8 SWAP6 SWAP5 SWAP4 SWAP3 SWAP2 SWAP1 PUSH2 0x1E7C JUMP JUMPDEST PUSH1 0x40 MLOAD PUSH1 0x20 DUP2 DUP4 SUB SUB DUP2 MSTORE SWAP1 PUSH1 0x40 MSTORE PUSH32 0xB1D31D9800000000000000000000000000000000000000000000000000000000 PUSH28 0xFFFFFFFFFFFFFFFFFFFFFFFFFFFFFFFFFFFFFFFFFFFFFFFFFFFFFFFF NOT AND PUSH1 0x20 DUP3 ADD DUP1 MLOAD PUSH28 0xFFFFFFFFFFFFFFFFFFFFFFFFFFFFFFFFFFFFFFFFFFFFFFFFFFFFFFFF DUP4 DUP2 DUP4 AND OR DUP4 MSTORE POP POP POP POP PUSH1 0x40 MLOAD PUSH2 0xB62 SWAP2 SWAP1 PUSH2 0x1F0C JUMP JUMPDEST PUSH0 PUSH1 0x40 MLOAD DUP1 DUP4 SUB DUP2 DUP6 DUP8 GAS CALL SWAP3 POP POP POP RETURNDATASIZE DUP1 PUSH0 DUP2 EQ PUSH2 0xB9C JUMPI PUSH1 0x40 MLOAD SWAP2 POP PUSH1 0x1F NOT PUSH1 0x3F RETURNDATASIZE ADD AND DUP3 ADD PUSH1 0x40 MSTORE RETURNDATASIZE DUP3 MSTORE RETURNDATASIZE PUSH0 PUSH1 0x20 DUP5 ADD RETURNDATACOPY PUSH2 0xBA1 JUMP JUMPDEST PUSH1 0x60 SWAP2 POP JUMPDEST POP POP SWAP1 POP DUP1 PUSH2 0xBE5 JUMPI PUSH1 0x40 MLOAD PUSH32 0x8C379A000000000000000000000000000000000000000000000000000000000 DUP2 MSTORE PUSH1 0x4 ADD PUSH2 0xBDC SWAP1 PUSH2 0x1F6C JUMP JUMPDEST PUSH1 0x40 MLOAD DUP1 SWAP2 SUB SWAP1 REVERT JUMPDEST DUP4 PUSH20 0xFFFFFFFFFFFFFFFFFFFFFFFFFFFFFFFFFFFFFFFF AND DUP6 PUSH2 0xFFFF AND DUP8 PUSH32 0xA56C1C782BBC87CBABDED955A12158699C1B27917E82FBB40F468644BF1B83FE PUSH1 0x40 MLOAD PUSH1 0x40 MLOAD DUP1 SWAP2 SUB SWAP1 LOG4 POP POP POP POP POP POP JUMP JUMPDEST PUSH2 0xC3E PUSH2 0x1174 JUMP JUMPDEST PUSH20 0xFFFFFFFFFFFFFFFFFFFFFFFFFFFFFFFFFFFFFFFF AND PUSH2 0xC5C PUSH2 0x78D JUMP JUMPDEST PUSH20 0xFFFFFFFFFFFFFFFFFFFFFFFFFFFFFFFFFFFFFFFF AND EQ PUSH2 0xCB2 JUMPI PUSH1 0x40 MLOAD PUSH32 0x8C379A000000000000000000000000000000000000000000000000000000000 DUP2 MSTORE PUSH1 0x4 ADD PUSH2 0xCA9 SWAP1 PUSH2 0x1D43 JUMP JUMPDEST PUSH1 0x40 MLOAD DUP1 SWAP2 SUB SWAP1 REVERT JUMPDEST DUP1 PUSH1 0xA PUSH0 DUP5 PUSH2 0xFFFF AND PUSH2 0xFFFF AND DUP2 MSTORE PUSH1 0x20 ADD SWAP1 DUP2 MSTORE PUSH1 0x20 ADD PUSH0 KECCAK256 PUSH0 PUSH2 0x100 EXP DUP2 SLOAD DUP2 PUSH20 0xFFFFFFFFFFFFFFFFFFFFFFFFFFFFFFFFFFFFFFFF MUL NOT AND SWAP1 DUP4 PUSH20 0xFFFFFFFFFFFFFFFFFFFFFFFFFFFFFFFFFFFFFFFF AND MUL OR SWAP1 SSTORE POP DUP1 PUSH20 0xFFFFFFFFFFFFFFFFFFFFFFFFFFFFFFFFFFFFFFFF AND DUP3 PUSH2 0xFFFF AND PUSH32 0x69689B6795F3E82B6C7A420B4D2B8039ADA3158B345F25E089D05808E874CE03 PUSH1 0x40 MLOAD PUSH1 0x40 MLOAD DUP1 SWAP2 SUB SWAP1 LOG3 POP POP JUMP JUMPDEST PUSH1 0x60 PUSH0 PUSH20 0xFFFFFFFFFFFFFFFFFFFFFFFFFFFFFFFFFFFFFFFF AND PUSH2 0xD77 DUP4 PUSH2 0x126D JUMP JUMPDEST PUSH20 0xFFFFFFFFFFFFFFFFFFFFFFFFFFFFFFFFFFFFFFFF AND SUB PUSH2 0xDCD JUMPI PUSH1 0x40 MLOAD PUSH32 0x8C379A000000000000000000000000000000000000000000000000000000000 DUP2 MSTORE PUSH1 0x4 ADD PUSH2 0xDC4 SWAP1 PUSH2 0x1FD4 JUMP JUMPDEST PUSH1 0x40 MLOAD DUP1 SWAP2 SUB SWAP1 REVERT JUMPDEST PUSH1 0x8 PUSH0 DUP4 DUP2 MSTORE PUSH1 0x20 ADD SWAP1 DUP2 MSTORE PUSH1 0x20 ADD PUSH0 KECCAK256 DUP1 SLOAD PUSH2 0xDE9 SWAP1 PUSH2 0x1BF9 JUMP JUMPDEST DUP1 PUSH1 0x1F ADD PUSH1 0x20 DUP1 SWAP2 DIV MUL PUSH1 0x20 ADD PUSH1 0x40 MLOAD SWAP1 DUP2 ADD PUSH1 0x40 MSTORE DUP1 SWAP3 SWAP2 SWAP1 DUP2 DUP2 MSTORE PUSH1 0x20 ADD DUP3 DUP1 SLOAD PUSH2 0xE15 SWAP1 PUSH2 0x1BF9 JUMP JUMPDEST DUP1 ISZERO PUSH2 0xE60 JUMPI DUP1 PUSH1 0x1F LT PUSH2 0xE37 JUMPI PUSH2 0x100 DUP1 DUP4 SLOAD DIV MUL DUP4 MSTORE SWAP2 PUSH1 0x20 ADD SWAP2 PUSH2 0xE60 JUMP JUMPDEST DUP3 ADD SWAP2 SWAP1 PUSH0 MSTORE PUSH1 0x20 PUSH0 KECCAK256 SWAP1 JUMPDEST DUP2 SLOAD DUP2 MSTORE SWAP1 PUSH1 0x1 ADD SWAP1 PUSH1 0x20 ADD DUP1 DUP4 GT PUSH2 0xE43 JUMPI DUP3 SWAP1 SUB PUSH1 0x1F AND DUP3 ADD SWAP2 JUMPDEST POP POP POP POP POP SWAP1 POP SWAP2 SWAP1 POP JUMP JUMPDEST PUSH0 DUP1 PUSH2 0xE78 PUSH1 0x5 PUSH2 0x12A6 JUMP JUMPDEST SWAP1 POP PUSH2 0xE84 PUSH1 0x5 PUSH2 0x12B2 JUMP JUMPDEST PUSH2 0xE8E DUP5 DUP3 PUSH2 0x12CF JUMP JUMPDEST DUP3 PUSH1 0x8 PUSH0 DUP4 DUP2 MSTORE PUSH1 0x20 ADD SWAP1 DUP2 MSTORE PUSH1 0x20 ADD PUSH0 KECCAK256 SWAP1 DUP2 PUSH2 0xEAC SWAP2 SWAP1 PUSH2 0x2186 JUMP JUMPDEST POP PUSH1 0x1 PUSH1 0x9 PUSH0 DUP4 DUP2 MSTORE PUSH1 0x20 ADD SWAP1 DUP2 MSTORE PUSH1 0x20 ADD PUSH0 KECCAK256 PUSH0 DUP1 PUSH2 0xFFFF AND DUP2 MSTORE PUSH1 0x20 ADD SWAP1 DUP2 MSTORE PUSH1 0x20 ADD PUSH0 KECCAK256 PUSH0 PUSH2 0x100 EXP DUP2 SLOAD DUP2 PUSH1 0xFF MUL NOT AND SWAP1 DUP4 ISZERO ISZERO MUL OR SWAP1 SSTORE POP DUP4 PUSH20 0xFFFFFFFFFFFFFFFFFFFFFFFFFFFFFFFFFFFFFFFF AND DUP2 PUSH32 0x6BECD955C918828F6E985541ACBF49CC842C9E9BD569FFFC7698E721EF13575 DUP6 PUSH1 0x40 MLOAD PUSH2 0xF30 SWAP2 SWAP1 PUSH2 0x1610 JUMP JUMPDEST PUSH1 0x40 MLOAD DUP1 SWAP2 SUB SWAP1 LOG3 DUP1 SWAP2 POP POP SWAP3 SWAP2 POP POP JUMP JUMPDEST PUSH1 0xA PUSH1 0x20 MSTORE DUP1 PUSH0 MSTORE PUSH1 0x40 PUSH0 KECCAK256 PUSH0 SWAP2 POP SLOAD SWAP1 PUSH2 0x100 EXP SWAP1 DIV PUSH20 0xFFFFFFFFFFFFFFFFFFFFFFFFFFFFFFFFFFFFFFFF AND DUP2 JUMP JUMPDEST PUSH2 0xF7A PUSH2 0x1174 JUMP JUMPDEST PUSH20 0xFFFFFFFFFFFFFFFFFFFFFFFFFFFFFFFFFFFFFFFF AND PUSH2 0xF98 PUSH2 0x78D JUMP JUMPDEST PUSH20 0xFFFFFFFFFFFFFFFFFFFFFFFFFFFFFFFFFFFFFFFF AND EQ PUSH2 0xFEE JUMPI PUSH1 0x40 MLOAD PUSH32 0x8C379A000000000000000000000000000000000000000000000000000000000 DUP2 MSTORE PUSH1 0x4 ADD PUSH2 0xFE5 SWAP1 PUSH2 0x1D43 JUMP JUMPDEST PUSH1 0x40 MLOAD DUP1 SWAP2 SUB SWAP1 REVERT JUMPDEST PUSH0 PUSH20 0xFFFFFFFFFFFFFFFFFFFFFFFFFFFFFFFFFFFFFFFF AND DUP2 PUSH20 0xFFFFFFFFFFFFFFFFFFFFFFFFFFFFFFFFFFFFFFFF AND SUB PUSH2 0x105C JUMPI PUSH1 0x40 MLOAD PUSH32 0x8C379A000000000000000000000000000000000000000000000000000000000 DUP2 MSTORE PUSH1 0x4 ADD PUSH2 0x1053 SWAP1 PUSH2 0x22C5 JUMP JUMPDEST PUSH1 0x40 MLOAD DUP1 SWAP2 SUB SWAP1 REVERT JUMPDEST PUSH2 0x1065 DUP2 PUSH2 0x14DD JUMP JUMPDEST POP JUMP JUMPDEST PUSH1 0x7 PUSH0 SWAP1 SLOAD SWAP1 PUSH2 0x100 EXP SWAP1 DIV PUSH20 0xFFFFFFFFFFFFFFFFFFFFFFFFFFFFFFFFFFFFFFFF AND PUSH20 0xFFFFFFFFFFFFFFFFFFFFFFFFFFFFFFFFFFFFFFFF AND CALLER PUSH20 0xFFFFFFFFFFFFFFFFFFFFFFFFFFFFFFFFFFFFFFFF AND EQ PUSH2 0x10F7 JUMPI PUSH1 0x40 MLOAD PUSH32 0x8C379A000000000000000000000000000000000000000000000000000000000 DUP2 MSTORE PUSH1 0x4 ADD PUSH2 0x10EE SWAP1 PUSH2 0x232D JUMP JUMPDEST PUSH1 0x40 MLOAD DUP1 SWAP2 SUB SWAP1 REVERT JUMPDEST PUSH2 0x1101 DUP3 DUP5 PUSH2 0x12CF JUMP JUMPDEST DUP1 PUSH1 0x8 PUSH0 DUP6 DUP2 MSTORE PUSH1 0x20 ADD SWAP1 DUP2 MSTORE PUSH1 0x20 ADD PUSH0 KECCAK256 SWAP1 DUP2 PUSH2 0x111F SWAP2 SWAP1 PUSH2 0x2186 JUMP JUMPDEST POP DUP2 PUSH20 0xFFFFFFFFFFFFFFFFFFFFFFFFFFFFFFFFFFFFFFFF AND DUP4 PUSH32 0x6BECD955C918828F6E985541ACBF49CC842C9E9BD569FFFC7698E721EF13575 DUP4 PUSH1 0x40 MLOAD PUSH2 0x1167 SWAP2 SWAP1 PUSH2 0x1610 JUMP JUMPDEST PUSH1 0x40 MLOAD DUP1 SWAP2 SUB SWAP1 LOG3 POP POP POP JUMP JUMPDEST PUSH0 CALLER SWAP1 POP SWAP1 JUMP JUMPDEST PUSH0 PUSH2 0x1185 DUP3 PUSH2 0x554 JUMP JUMPDEST SWAP1 POP PUSH1 0x1 PUSH1 0x3 PUSH0 DUP4 PUSH20 0xFFFFFFFFFFFFFFFFFFFFFFFFFFFFFFFFFFFFFFFF AND PUSH20 0xFFFFFFFFFFFFFFFFFFFFFFFFFFFFFFFFFFFFFFFF AND DUP2 MSTORE PUSH1 0x20 ADD SWAP1 DUP2 MSTORE PUSH1 0x20 ADD PUSH0 KECCAK256 PUSH0 DUP3 DUP3 SLOAD PUSH2 0x11D4 SWAP2 SWAP1 PUSH2 0x2378 JUMP JUMPDEST SWAP3 POP POP DUP2 SWAP1 SSTORE POP PUSH1 0x2 PUSH0 DUP4 DUP2 MSTORE PUSH1 0x20 ADD SWAP1 DUP2 MSTORE PUSH1 0x20 ADD PUSH0 KECCAK256 PUSH0 PUSH2 0x100 EXP DUP2 SLOAD SWAP1 PUSH20 0xFFFFFFFFFFFFFFFFFFFFFFFFFFFFFFFFFFFFFFFF MUL NOT AND SWAP1 SSTORE DUP2 PUSH0 PUSH20 0xFFFFFFFFFFFFFFFFFFFFFFFFFFFFFFFFFFFFFFFF AND DUP3 PUSH20 0xFFFFFFFFFFFFFFFFFFFFFFFFFFFFFFFFFFFFFFFF AND PUSH32 0xDDF252AD1BE2C89B69C2B068FC378DAA952BA7F163C4A11628F55A4DF523B3EF PUSH1 0x40 MLOAD PUSH1 0x40 MLOAD DUP1 SWAP2 SUB SWAP1 LOG4 POP POP JUMP JUMPDEST PUSH0 PUSH1 0x2 PUSH0 DUP4 DUP2 MSTORE PUSH1 0x20 ADD SWAP1 DUP2 MSTORE PUSH1 0x20 ADD PUSH0 KECCAK256 PUSH0 SWAP1 SLOAD SWAP1 PUSH2 0x100 EXP SWAP1 DIV PUSH20 0xFFFFFFFFFFFFFFFFFFFFFFFFFFFFFFFFFFFFFFFF AND SWAP1 POP SWAP2 SWAP1 POP JUMP JUMPDEST PUSH0 DUP2 PUSH0 ADD SLOAD SWAP1 POP SWAP2 SWAP1 POP JUMP JUMPDEST PUSH1 0x1 DUP2 PUSH0 ADD PUSH0 DUP3 DUP3 SLOAD PUSH2 0x12C5 SWAP2 SWAP1 PUSH2 0x23AB JUMP JUMPDEST SWAP3 POP POP DUP2 SWAP1 SSTORE POP POP JUMP JUMPDEST PUSH0 PUSH20 0xFFFFFFFFFFFFFFFFFFFFFFFFFFFFFFFFFFFFFFFF AND DUP3 PUSH20 0xFFFFFFFFFFFFFFFFFFFFFFFFFFFFFFFFFFFFFFFF AND SUB PUSH2 0x133D JUMPI PUSH1 0x40 MLOAD PUSH32 0x8C379A000000000000000000000000000000000000000000000000000000000 DUP2 MSTORE PUSH1 0x4 ADD PUSH2 0x1334 SWAP1 PUSH2 0x1CDB JUMP JUMPDEST PUSH1 0x40 MLOAD DUP1 SWAP2 SUB SWAP1 REVERT JUMPDEST PUSH0 PUSH20 0xFFFFFFFFFFFFFFFFFFFFFFFFFFFFFFFFFFFFFFFF AND PUSH1 0x2 PUSH0 DUP4 DUP2 MSTORE PUSH1 0x20 ADD SWAP1 DUP2 MSTORE PUSH1 0x20 ADD PUSH0 KECCAK256 PUSH0 SWAP1 SLOAD SWAP1 PUSH2 0x100 EXP SWAP1 DIV PUSH20 0xFFFFFFFFFFFFFFFFFFFFFFFFFFFFFFFFFFFFFFFF AND PUSH20 0xFFFFFFFFFFFFFFFFFFFFFFFFFFFFFFFFFFFFFFFF AND EQ PUSH2 0x13DB JUMPI PUSH1 0x40 MLOAD PUSH32 0x8C379A000000000000000000000000000000000000000000000000000000000 DUP2 MSTORE PUSH1 0x4 ADD PUSH2 0x13D2 SWAP1 PUSH2 0x2428 JUMP JUMPDEST PUSH1 0x40 MLOAD DUP1 SWAP2 SUB SWAP1 REVERT JUMPDEST PUSH1 0x1 PUSH1 0x3 PUSH0 DUP5 PUSH20 0xFFFFFFFFFFFFFFFFFFFFFFFFFFFFFFFFFFFFFFFF AND PUSH20 0xFFFFFFFFFFFFFFFFFFFFFFFFFFFFFFFFFFFFFFFF AND DUP2 MSTORE PUSH1 0x20 ADD SWAP1 DUP2 MSTORE PUSH1 0x20 ADD PUSH0 KECCAK256 PUSH0 DUP3 DUP3 SLOAD PUSH2 0x1428 SWAP2 SWAP1 PUSH2 0x23AB JUMP JUMPDEST SWAP3 POP POP DUP2 SWAP1 SSTORE POP DUP2 PUSH1 0x2 PUSH0 DUP4 DUP2 MSTORE PUSH1 0x20 ADD SWAP1 DUP2 MSTORE PUSH1 0x20 ADD PUSH0 KECCAK256 PUSH0 PUSH2 0x100 EXP DUP2 SLOAD DUP2 PUSH20 0xFFFFFFFFFFFFFFFFFFFFFFFFFFFFFFFFFFFFFFFF MUL NOT AND SWAP1 DUP4 PUSH20 0xFFFFFFFFFFFFFFFFFFFFFFFFFFFFFFFFFFFFFFFF AND MUL OR SWAP1 SSTORE POP DUP1 DUP3 PUSH20 0xFFFFFFFFFFFFFFFFFFFFFFFFFFFFFFFFFFFFFFFF AND PUSH0 PUSH20 0xFFFFFFFFFFFFFFFFFFFFFFFFFFFFFFFFFFFFFFFF AND PUSH32 0xDDF252AD1BE2C89B69C2B068FC378DAA952BA7F163C4A11628F55A4DF523B3EF PUSH1 0x40 MLOAD PUSH1 0x40 MLOAD DUP1 SWAP2 SUB SWAP1 LOG4 POP POP JUMP JUMPDEST PUSH0 PUSH1 0x4 PUSH0 SWAP1 SLOAD SWAP1 PUSH2 0x100 EXP SWAP1 DIV PUSH20 0xFFFFFFFFFFFFFFFFFFFFFFFFFFFFFFFFFFFFFFFF AND SWAP1 POP DUP2 PUSH1 0x4 PUSH0 PUSH2 0x100 EXP DUP2 SLOAD DUP2 PUSH20 0xFFFFFFFFFFFFFFFFFFFFFFFFFFFFFFFFFFFFFFFF MUL NOT AND SWAP1 DUP4 PUSH20 0xFFFFFFFFFFFFFFFFFFFFFFFFFFFFFFFFFFFFFFFF AND MUL OR SWAP1 SSTORE POP DUP2 PUSH20 0xFFFFFFFFFFFFFFFFFFFFFFFFFFFFFFFFFFFFFFFF AND DUP2 PUSH20 0xFFFFFFFFFFFFFFFFFFFFFFFFFFFFFFFFFFFFFFFF AND PUSH32 0x8BE0079C531659141344CD1FD0A4F28419497F9722A3DAAFE3B4186F6B6457E0 PUSH1 0x40 MLOAD PUSH1 0x40 MLOAD DUP1 SWAP2 SUB SWAP1 LOG3 POP POP JUMP JUMPDEST PUSH0 DUP2 MLOAD SWAP1 POP SWAP2 SWAP1 POP JUMP JUMPDEST PUSH0 DUP3 DUP3 MSTORE PUSH1 0x20 DUP3 ADD SWAP1 POP SWAP3 SWAP2 POP POP JUMP JUMPDEST DUP3 DUP2 DUP4 MCOPY PUSH0 DUP4 DUP4 ADD MSTORE POP POP POP JUMP JUMPDEST PUSH0 PUSH1 0x1F NOT PUSH1 0x1F DUP4 ADD AND SWAP1 POP SWAP2 SWAP1 POP JUMP JUMPDEST PUSH0 PUSH2 0x15E2 DUP3 PUSH2 0x15A0 JUMP JUMPDEST PUSH2 0x15EC DUP2 DUP6 PUSH2 0x15AA JUMP JUMPDEST SWAP4 POP PUSH2 0x15FC DUP2 DUP6 PUSH1 0x20 DUP7 ADD PUSH2 0x15BA JUMP JUMPDEST PUSH2 0x1605 DUP2 PUSH2 0x15C8 JUMP JUMPDEST DUP5 ADD SWAP2 POP POP SWAP3 SWAP2 POP POP JUMP JUMPDEST PUSH0 PUSH1 0x20 DUP3 ADD SWAP1 POP DUP2 DUP2 SUB PUSH0 DUP4 ADD MSTORE PUSH2 0x1628 DUP2 DUP5 PUSH2 0x15D8 JUMP JUMPDEST SWAP1 POP SWAP3 SWAP2 POP POP JUMP JUMPDEST PUSH0 PUSH20 0xFFFFFFFFFFFFFFFFFFFFFFFFFFFFFFFFFFFFFFFF DUP3 AND SWAP1 POP SWAP2 SWAP1 POP JUMP JUMPDEST PUSH0 DUP2 SWAP1 POP SWAP2 SWAP1 POP JUMP JUMPDEST PUSH0 PUSH2 0x1672 PUSH2 0x166D PUSH2 0x1668 DUP5 PUSH2 0x1630 JUMP JUMPDEST PUSH2 0x164F JUMP JUMPDEST PUSH2 0x1630 JUMP JUMPDEST SWAP1 POP SWAP2 SWAP1 POP JUMP JUMPDEST PUSH0 PUSH2 0x1683 DUP3 PUSH2 0x1658 JUMP JUMPDEST SWAP1 POP SWAP2 SWAP1 POP JUMP JUMPDEST PUSH0 PUSH2 0x1694 DUP3 PUSH2 0x1679 JUMP JUMPDEST SWAP1 POP SWAP2 SWAP1 POP JUMP JUMPDEST PUSH2 0x16A4 DUP2 PUSH2 0x168A JUMP JUMPDEST DUP3 MSTORE POP POP JUMP JUMPDEST PUSH0 PUSH1 0x20 DUP3 ADD SWAP1 POP PUSH2 0x16BD PUSH0 DUP4 ADD DUP5 PUSH2 0x169B JUMP JUMPDEST SWAP3 SWAP2 POP POP JUMP JUMPDEST PUSH0 PUSH1 0x40 MLOAD SWAP1 POP SWAP1 JUMP JUMPDEST PUSH0 DUP1 REVERT JUMPDEST PUSH0 DUP1 REVERT JUMPDEST PUSH0 DUP2 SWAP1 POP SWAP2 SWAP1 POP JUMP JUMPDEST PUSH2 0x16E6 DUP2 PUSH2 0x16D4 JUMP JUMPDEST DUP2 EQ PUSH2 0x16F0 JUMPI PUSH0 DUP1 REVERT JUMPDEST POP JUMP JUMPDEST PUSH0 DUP2 CALLDATALOAD SWAP1 POP PUSH2 0x1701 DUP2 PUSH2 0x16DD JUMP JUMPDEST SWAP3 SWAP2 POP POP JUMP JUMPDEST PUSH0 PUSH2 0xFFFF DUP3 AND SWAP1 POP SWAP2 SWAP1 POP JUMP JUMPDEST PUSH2 0x171D DUP2 PUSH2 0x1707 JUMP JUMPDEST DUP2 EQ PUSH2 0x1727 JUMPI PUSH0 DUP1 REVERT JUMPDEST POP JUMP JUMPDEST PUSH0 DUP2 CALLDATALOAD SWAP1 POP PUSH2 0x1738 DUP2 PUSH2 0x1714 JUMP JUMPDEST SWAP3 SWAP2 POP POP JUMP JUMPDEST PUSH0 DUP1 PUSH1 0x40 DUP4 DUP6 SUB SLT ISZERO PUSH2 0x1754 JUMPI PUSH2 0x1753 PUSH2 0x16CC JUMP JUMPDEST JUMPDEST PUSH0 PUSH2 0x1761 DUP6 DUP3 DUP7 ADD PUSH2 0x16F3 JUMP JUMPDEST SWAP3 POP POP PUSH1 0x20 PUSH2 0x1772 DUP6 DUP3 DUP7 ADD PUSH2 0x172A JUMP JUMPDEST SWAP2 POP POP SWAP3 POP SWAP3 SWAP1 POP JUMP JUMPDEST PUSH0 DUP2 ISZERO ISZERO SWAP1 POP SWAP2 SWAP1 POP JUMP JUMPDEST PUSH2 0x1790 DUP2 PUSH2 0x177C JUMP JUMPDEST DUP3 MSTORE POP POP JUMP JUMPDEST PUSH0 PUSH1 0x20 DUP3 ADD SWAP1 POP PUSH2 0x17A9 PUSH0 DUP4 ADD DUP5 PUSH2 0x1787 JUMP JUMPDEST SWAP3 SWAP2 POP POP JUMP JUMPDEST PUSH0 PUSH1 0x20 DUP3 DUP5 SUB SLT ISZERO PUSH2 0x17C4 JUMPI PUSH2 0x17C3 PUSH2 0x16CC JUMP JUMPDEST JUMPDEST PUSH0 PUSH2 0x17D1 DUP5 DUP3 DUP6 ADD PUSH2 0x16F3 JUMP JUMPDEST SWAP2 POP POP SWAP3 SWAP2 POP POP JUMP JUMPDEST PUSH0 PUSH2 0x17E4 DUP3 PUSH2 0x1630 JUMP JUMPDEST SWAP1 POP SWAP2 SWAP1 POP JUMP JUMPDEST PUSH2 0x17F4 DUP2 PUSH2 0x17DA JUMP JUMPDEST DUP3 MSTORE POP POP JUMP JUMPDEST PUSH0 PUSH1 0x20 DUP3 ADD SWAP1 POP PUSH2 0x180D PUSH0 DUP4 ADD DUP5 PUSH2 0x17EB JUMP JUMPDEST SWAP3 SWAP2 POP POP JUMP JUMPDEST PUSH2 0x181C DUP2 PUSH2 0x17DA JUMP JUMPDEST DUP2 EQ PUSH2 0x1826 JUMPI PUSH0 DUP1 REVERT JUMPDEST POP JUMP JUMPDEST PUSH0 DUP2 CALLDATALOAD SWAP1 POP PUSH2 0x1837 DUP2 PUSH2 0x1813 JUMP JUMPDEST SWAP3 SWAP2 POP POP JUMP JUMPDEST PUSH0 PUSH1 0x20 DUP3 DUP5 SUB SLT ISZERO PUSH2 0x1852 JUMPI PUSH2 0x1851 PUSH2 0x16CC JUMP JUMPDEST JUMPDEST PUSH0 PUSH2 0x185F DUP5 DUP3 DUP6 ADD PUSH2 0x1829 JUMP JUMPDEST SWAP2 POP POP SWAP3 SWAP2 POP POP JUMP JUMPDEST PUSH2 0x1871 DUP2 PUSH2 0x16D4 JUMP JUMPDEST DUP3 MSTORE POP POP JUMP JUMPDEST PUSH0 PUSH1 0x20 DUP3 ADD SWAP1 POP PUSH2 0x188A PUSH0 DUP4 ADD DUP5 PUSH2 0x1868 JUMP JUMPDEST SWAP3 SWAP2 POP POP JUMP JUMPDEST PUSH0 DUP1 REVERT JUMPDEST PUSH0 DUP1 REVERT JUMPDEST PUSH0 DUP1 REVERT JUMPDEST PUSH0 DUP1 DUP4 PUSH1 0x1F DUP5 ADD SLT PUSH2 0x18B1 JUMPI PUSH2 0x18B0 PUSH2 0x1890 JUMP JUMPDEST JUMPDEST DUP3 CALLDATALOAD SWAP1 POP PUSH8 0xFFFFFFFFFFFFFFFF DUP2 GT ISZERO PUSH2 0x18CE JUMPI PUSH2 0x18CD PUSH2 0x1894 JUMP JUMPDEST JUMPDEST PUSH1 0x20 DUP4 ADD SWAP2 POP DUP4 PUSH1 0x1 DUP3 MUL DUP4 ADD GT ISZERO PUSH2 0x18EA JUMPI PUSH2 0x18E9 PUSH2 0x1898 JUMP JUMPDEST JUMPDEST SWAP3 POP SWAP3 SWAP1 POP JUMP JUMPDEST PUSH0 DUP1 PUSH0 DUP1 PUSH0 PUSH1 0x80 DUP7 DUP9 SUB SLT ISZERO PUSH2 0x190A JUMPI PUSH2 0x1909 PUSH2 0x16CC JUMP JUMPDEST JUMPDEST PUSH0 PUSH2 0x1917 DUP9 DUP3 DUP10 ADD PUSH2 0x16F3 JUMP JUMPDEST SWAP6 POP POP PUSH1 0x20 PUSH2 0x1928 DUP9 DUP3 DUP10 ADD PUSH2 0x172A JUMP JUMPDEST SWAP5 POP POP PUSH1 0x40 PUSH2 0x1939 DUP9 DUP3 DUP10 ADD PUSH2 0x1829 JUMP JUMPDEST SWAP4 POP POP PUSH1 0x60 DUP7 ADD CALLDATALOAD PUSH8 0xFFFFFFFFFFFFFFFF DUP2 GT ISZERO PUSH2 0x195A JUMPI PUSH2 0x1959 PUSH2 0x16D0 JUMP JUMPDEST JUMPDEST PUSH2 0x1966 DUP9 DUP3 DUP10 ADD PUSH2 0x189C JUMP JUMPDEST SWAP3 POP SWAP3 POP POP SWAP3 SWAP6 POP SWAP3 SWAP6 SWAP1 SWAP4 POP JUMP JUMPDEST PUSH0 DUP1 PUSH1 0x40 DUP4 DUP6 SUB SLT ISZERO PUSH2 0x198B JUMPI PUSH2 0x198A PUSH2 0x16CC JUMP JUMPDEST JUMPDEST PUSH0 PUSH2 0x1998 DUP6 DUP3 DUP7 ADD PUSH2 0x172A JUMP JUMPDEST SWAP3 POP POP PUSH1 0x20 PUSH2 0x19A9 DUP6 DUP3 DUP7 ADD PUSH2 0x1829 JUMP JUMPDEST SWAP2 POP POP SWAP3 POP SWAP3 SWAP1 POP JUMP JUMPDEST PUSH0 DUP1 REVERT JUMPDEST PUSH32 0x4E487B7100000000000000000000000000000000000000000000000000000000 PUSH0 MSTORE PUSH1 0x41 PUSH1 0x4 MSTORE PUSH1 0x24 PUSH0 REVERT JUMPDEST PUSH2 0x19ED DUP3 PUSH2 0x15C8 JUMP JUMPDEST DUP2 ADD DUP2 DUP2 LT PUSH8 0xFFFFFFFFFFFFFFFF DUP3 GT OR ISZERO PUSH2 0x1A0C JUMPI PUSH2 0x1A0B PUSH2 0x19B7 JUMP JUMPDEST JUMPDEST DUP1 PUSH1 0x40 MSTORE POP POP POP JUMP JUMPDEST PUSH0 PUSH2 0x1A1E PUSH2 0x16C3 JUMP JUMPDEST SWAP1 POP PUSH2 0x1A2A DUP3 DUP3 PUSH2 0x19E4 JUMP JUMPDEST SWAP2 SWAP1 POP JUMP JUMPDEST PUSH0 PUSH8 0xFFFFFFFFFFFFFFFF DUP3 GT ISZERO PUSH2 0x1A49 JUMPI PUSH2 0x1A48 PUSH2 0x19B7 JUMP JUMPDEST JUMPDEST PUSH2 0x1A52 DUP3 PUSH2 0x15C8 JUMP JUMPDEST SWAP1 POP PUSH1 0x20 DUP2 ADD SWAP1 POP SWAP2 SWAP1 POP JUMP JUMPDEST DUP3 DUP2 DUP4 CALLDATACOPY PUSH0 DUP4 DUP4 ADD MSTORE POP POP POP JUMP JUMPDEST PUSH0 PUSH2 0x1A7F PUSH2 0x1A7A DUP5 PUSH2 0x1A2F JUMP JUMPDEST PUSH2 0x1A15 JUMP JUMPDEST SWAP1 POP DUP3 DUP2 MSTORE PUSH1 0x20 DUP2 ADD DUP5 DUP5 DUP5 ADD GT ISZERO PUSH2 0x1A9B JUMPI PUSH2 0x1A9A PUSH2 0x19B3 JUMP JUMPDEST JUMPDEST PUSH2 0x1AA6 DUP5 DUP3 DUP6 PUSH2 0x1A5F JUMP JUMPDEST POP SWAP4 SWAP3 POP POP POP JUMP JUMPDEST PUSH0 DUP3 PUSH1 0x1F DUP4 ADD SLT PUSH2 0x1AC2 JUMPI PUSH2 0x1AC1 PUSH2 0x1890 JUMP JUMPDEST JUMPDEST DUP2 CALLDATALOAD PUSH2 0x1AD2 DUP5 DUP3 PUSH1 0x20 DUP7 ADD PUSH2 0x1A6D JUMP JUMPDEST SWAP2 POP POP SWAP3 SWAP2 POP POP JUMP JUMPDEST PUSH0 DUP1 PUSH1 0x40 DUP4 DUP6 SUB SLT ISZERO PUSH2 0x1AF1 JUMPI PUSH2 0x1AF0 PUSH2 0x16CC JUMP JUMPDEST JUMPDEST PUSH0 PUSH2 0x1AFE DUP6 DUP3 DUP7 ADD PUSH2 0x1829 JUMP JUMPDEST SWAP3 POP POP PUSH1 0x20 DUP4 ADD CALLDATALOAD PUSH8 0xFFFFFFFFFFFFFFFF DUP2 GT ISZERO PUSH2 0x1B1F JUMPI PUSH2 0x1B1E PUSH2 0x16D0 JUMP JUMPDEST JUMPDEST PUSH2 0x1B2B DUP6 DUP3 DUP7 ADD PUSH2 0x1AAE JUMP JUMPDEST SWAP2 POP POP SWAP3 POP SWAP3 SWAP1 POP JUMP JUMPDEST PUSH0 PUSH1 0x20 DUP3 DUP5 SUB SLT ISZERO PUSH2 0x1B4A JUMPI PUSH2 0x1B49 PUSH2 0x16CC JUMP JUMPDEST JUMPDEST PUSH0 PUSH2 0x1B57 DUP5 DUP3 DUP6 ADD PUSH2 0x172A JUMP JUMPDEST SWAP2 POP POP SWAP3 SWAP2 POP POP JUMP JUMPDEST PUSH0 DUP1 PUSH0 PUSH1 0x60 DUP5 DUP7 SUB SLT ISZERO PUSH2 0x1B77 JUMPI PUSH2 0x1B76 PUSH2 0x16CC JUMP JUMPDEST JUMPDEST PUSH0 PUSH2 0x1B84 DUP7 DUP3 DUP8 ADD PUSH2 0x16F3 JUMP JUMPDEST SWAP4 POP POP PUSH1 0x20 PUSH2 0x1B95 DUP7 DUP3 DUP8 ADD PUSH2 0x1829 JUMP JUMPDEST SWAP3 POP POP PUSH1 0x40 DUP5 ADD CALLDATALOAD PUSH8 0xFFFFFFFFFFFFFFFF DUP2 GT ISZERO PUSH2 0x1BB6 JUMPI PUSH2 0x1BB5 PUSH2 0x16D0 JUMP JUMPDEST JUMPDEST PUSH2 0x1BC2 DUP7 DUP3 DUP8 ADD PUSH2 0x1AAE JUMP JUMPDEST SWAP2 POP POP SWAP3 POP SWAP3 POP SWAP3 JUMP JUMPDEST PUSH32 0x4E487B7100000000000000000000000000000000000000000000000000000000 PUSH0 MSTORE PUSH1 0x22 PUSH1 0x4 MSTORE PUSH1 0x24 PUSH0 REVERT JUMPDEST PUSH0 PUSH1 0x2 DUP3 DIV SWAP1 POP PUSH1 0x1 DUP3 AND DUP1 PUSH2 0x1C10 JUMPI PUSH1 0x7F DUP3 AND SWAP2 POP JUMPDEST PUSH1 0x20 DUP3 LT DUP2 SUB PUSH2 0x1C23 JUMPI PUSH2 0x1C22 PUSH2 0x1BCC JUMP JUMPDEST JUMPDEST POP SWAP2 SWAP1 POP JUMP JUMPDEST PUSH32 0x4E6F74206D696E74656400000000000000000000000000000000000000000000 PUSH0 DUP3 ADD MSTORE POP JUMP JUMPDEST PUSH0 PUSH2 0x1C5D PUSH1 0xA DUP4 PUSH2 0x15AA JUMP JUMPDEST SWAP2 POP PUSH2 0x1C68 DUP3 PUSH2 0x1C29 JUMP JUMPDEST PUSH1 0x20 DUP3 ADD SWAP1 POP SWAP2 SWAP1 POP JUMP JUMPDEST PUSH0 PUSH1 0x20 DUP3 ADD SWAP1 POP DUP2 DUP2 SUB PUSH0 DUP4 ADD MSTORE PUSH2 0x1C8A DUP2 PUSH2 0x1C51 JUMP JUMPDEST SWAP1 POP SWAP2 SWAP1 POP JUMP JUMPDEST PUSH32 0x5A65726F20616464726573730000000000000000000000000000000000000000 PUSH0 DUP3 ADD MSTORE POP JUMP JUMPDEST PUSH0 PUSH2 0x1CC5 PUSH1 0xC DUP4 PUSH2 0x15AA JUMP JUMPDEST SWAP2 POP PUSH2 0x1CD0 DUP3 PUSH2 0x1C91 JUMP JUMPDEST PUSH1 0x20 DUP3 ADD SWAP1 POP SWAP2 SWAP1 POP JUMP JUMPDEST PUSH0 PUSH1 0x20 DUP3 ADD SWAP1 POP DUP2 DUP2 SUB PUSH0 DUP4 ADD MSTORE PUSH2 0x1CF2 DUP2 PUSH2 0x1CB9 JUMP JUMPDEST SWAP1 POP SWAP2 SWAP1 POP JUMP JUMPDEST PUSH32 0x4F776E61626C653A2063616C6C6572206973206E6F7420746865206F776E6572 PUSH0 DUP3 ADD MSTORE POP JUMP JUMPDEST PUSH0 PUSH2 0x1D2D PUSH1 0x20 DUP4 PUSH2 0x15AA JUMP JUMPDEST SWAP2 POP PUSH2 0x1D38 DUP3 PUSH2 0x1CF9 JUMP JUMPDEST PUSH1 0x20 DUP3 ADD SWAP1 POP SWAP2 SWAP1 POP JUMP JUMPDEST PUSH0 PUSH1 0x20 DUP3 ADD SWAP1 POP DUP2 DUP2 SUB PUSH0 DUP4 ADD MSTORE PUSH2 0x1D5A DUP2 PUSH2 0x1D21 JUMP JUMPDEST SWAP1 POP SWAP2 SWAP1 POP JUMP JUMPDEST PUSH32 0x4E6F7420746F6B656E206F776E65720000000000000000000000000000000000 PUSH0 DUP3 ADD MSTORE POP JUMP JUMPDEST PUSH0 PUSH2 0x1D95 PUSH1 0xF DUP4 PUSH2 0x15AA JUMP JUMPDEST SWAP2 POP PUSH2 0x1DA0 DUP3 PUSH2 0x1D61 JUMP JUMPDEST PUSH1 0x20 DUP3 ADD SWAP1 POP SWAP2 SWAP1 POP JUMP JUMPDEST PUSH0 PUSH1 0x20 DUP3 ADD SWAP1 POP DUP2 DUP2 SUB PUSH0 DUP4 ADD MSTORE PUSH2 0x1DC2 DUP2 PUSH2 0x1D89 JUMP JUMPDEST SWAP1 POP SWAP2 SWAP1 POP JUMP JUMPDEST PUSH32 0x436861696E206E6F7420636F6E6E656374656400000000000000000000000000 PUSH0 DUP3 ADD MSTORE POP JUMP JUMPDEST PUSH0 PUSH2 0x1DFD PUSH1 0x13 DUP4 PUSH2 0x15AA JUMP JUMPDEST SWAP2 POP PUSH2 0x1E08 DUP3 PUSH2 0x1DC9 JUMP JUMPDEST PUSH1 0x20 DUP3 ADD SWAP1 POP SWAP2 SWAP1 POP JUMP JUMPDEST PUSH0 PUSH1 0x20 DUP3 ADD SWAP1 POP DUP2 DUP2 SUB PUSH0 DUP4 ADD MSTORE PUSH2 0x1E2A DUP2 PUSH2 0x1DF1 JUMP JUMPDEST SWAP1 POP SWAP2 SWAP1 POP JUMP JUMPDEST PUSH2 0x1E3A DUP2 PUSH2 0x1707 JUMP JUMPDEST DUP3 MSTORE POP POP JUMP JUMPDEST PUSH0 DUP3 DUP3 MSTORE PUSH1 0x20 DUP3 ADD SWAP1 POP SWAP3 SWAP2 POP POP JUMP JUMPDEST PUSH0 PUSH2 0x1E5B DUP4 DUP6 PUSH2 0x1E40 JUMP JUMPDEST SWAP4 POP PUSH2 0x1E68 DUP4 DUP6 DUP5 PUSH2 0x1A5F JUMP JUMPDEST PUSH2 0x1E71 DUP4 PUSH2 0x15C8 JUMP JUMPDEST DUP5 ADD SWAP1 POP SWAP4 SWAP3 POP POP POP JUMP JUMPDEST PUSH0 PUSH1 0x80 DUP3 ADD SWAP1 POP PUSH2 0x1E8F PUSH0 DUP4 ADD DUP9 PUSH2 0x1868 JUMP JUMPDEST PUSH2 0x1E9C PUSH1 0x20 DUP4 ADD DUP8 PUSH2 0x1E31 JUMP JUMPDEST PUSH2 0x1EA9 PUSH1 0x40 DUP4 ADD DUP7 PUSH2 0x17EB JUMP JUMPDEST DUP2 DUP2 SUB PUSH1 0x60 DUP4 ADD MSTORE PUSH2 0x1EBC DUP2 DUP5 DUP7 PUSH2 0x1E50 JUMP JUMPDEST SWAP1 POP SWAP7 SWAP6 POP POP POP POP POP POP JUMP JUMPDEST PUSH0 DUP2 MLOAD SWAP1 POP SWAP2 SWAP1 POP JUMP JUMPDEST PUSH0 DUP2 SWAP1 POP SWAP3 SWAP2 POP POP JUMP JUMPDEST PUSH0 PUSH2 0x1EE6 DUP3 PUSH2 0x1EC8 JUMP JUMPDEST PUSH2 0x1EF0 DUP2 DUP6 PUSH2 0x1ED2 JUMP JUMPDEST SWAP4 POP PUSH2 0x1F00 DUP2 DUP6 PUSH1 0x20 DUP7 ADD PUSH2 0x15BA JUMP JUMPDEST DUP1 DUP5 ADD SWAP2 POP POP SWAP3 SWAP2 POP POP JUMP JUMPDEST PUSH0 PUSH2 0x1F17 DUP3 DUP5 PUSH2 0x1EDC JUMP JUMPDEST SWAP2 POP DUP2 SWAP1 POP SWAP3 SWAP2 POP POP JUMP JUMPDEST PUSH32 0x4272696467652063616C6C206661696C65640000000000000000000000000000 PUSH0 DUP3 ADD MSTORE POP JUMP JUMPDEST PUSH0 PUSH2 0x1F56 PUSH1 0x12 DUP4 PUSH2 0x15AA JUMP JUMPDEST SWAP2 POP PUSH2 0x1F61 DUP3 PUSH2 0x1F22 JUMP JUMPDEST PUSH1 0x20 DUP3 ADD SWAP1 POP SWAP2 SWAP1 POP JUMP JUMPDEST PUSH0 PUSH1 0x20 DUP3 ADD SWAP1 POP DUP2 DUP2 SUB PUSH0 DUP4 ADD MSTORE PUSH2 0x1F83 DUP2 PUSH2 0x1F4A JUMP JUMPDEST SWAP1 POP SWAP2 SWAP1 POP JUMP JUMPDEST PUSH32 0x546F6B656E20646F6573206E6F74206578697374000000000000000000000000 PUSH0 DUP3 ADD MSTORE POP JUMP JUMPDEST PUSH0 PUSH2 0x1FBE PUSH1 0x14 DUP4 PUSH2 0x15AA JUMP JUMPDEST SWAP2 POP PUSH2 0x1FC9 DUP3 PUSH2 0x1F8A JUMP JUMPDEST PUSH1 0x20 DUP3 ADD SWAP1 POP SWAP2 SWAP1 POP JUMP JUMPDEST PUSH0 PUSH1 0x20 DUP3 ADD SWAP1 POP DUP2 DUP2 SUB PUSH0 DUP4 ADD MSTORE PUSH2 0x1FEB DUP2 PUSH2 0x1FB2 JUMP JUMPDEST SWAP1 POP SWAP2 SWAP1 POP JUMP JUMPDEST PUSH0 DUP2 SWAP1 POP DUP2 PUSH0 MSTORE PUSH1 0x20 PUSH0 KECCAK256 SWAP1 POP SWAP2 SWAP1 POP JUMP JUMPDEST PUSH0 PUSH1 0x20 PUSH1 0x1F DUP4 ADD DIV SWAP1 POP SWAP2 SWAP1 POP JUMP JUMPDEST PUSH0 DUP3 DUP3 SHL SWAP1 POP SWAP3 SWAP2 POP POP JUMP JUMPDEST PUSH0 PUSH1 0x8 DUP4 MUL PUSH2 0x204E PUSH32 0xFFFFFFFFFFFFFFFFFFFFFFFFFFFFFFFFFFFFFFFFFFFFFFFFFFFFFFFFFFFFFFFF DUP3 PUSH2 0x2013 JUMP JUMPDEST PUSH2 0x2058 DUP7 DUP4 PUSH2 0x2013 JUMP JUMPDEST SWAP6 POP DUP1 NOT DUP5 AND SWAP4 POP DUP1 DUP7 AND DUP5 OR SWAP3 POP POP POP SWAP4 SWAP3 POP POP POP JUMP JUMPDEST PUSH0 PUSH2 0x208A PUSH2 0x2085 PUSH2 0x2080 DUP5 PUSH2 0x16D4 JUMP JUMPDEST PUSH2 0x164F JUMP JUMPDEST PUSH2 0x16D4 JUMP JUMPDEST SWAP1 POP SWAP2 SWAP1 POP JUMP JUMPDEST PUSH0 DUP2 SWAP1 POP SWAP2 SWAP1 POP JUMP JUMPDEST PUSH2 0x20A3 DUP4 PUSH2 0x2070 JUMP JUMPDEST PUSH2 0x20B7 PUSH2 0x20AF DUP3 PUSH2 0x2091 JUMP JUMPDEST DUP5 DUP5 SLOAD PUSH2 0x201F JUMP JUMPDEST DUP3 SSTORE POP POP POP POP JUMP JUMPDEST PUSH0 SWAP1 JUMP JUMPDEST PUSH2 0x20CB PUSH2 0x20BF JUMP JUMPDEST PUSH2 0x20D6 DUP2 DUP5 DUP5 PUSH2 0x209A JUMP JUMPDEST POP POP POP JUMP JUMPDEST JUMPDEST DUP2 DUP2 LT ISZERO PUSH2 0x20F9 JUMPI PUSH2 0x20EE PUSH0 DUP3 PUSH2 0x20C3 JUMP JUMPDEST PUSH1 0x1 DUP2 ADD SWAP1 POP PUSH2 0x20DC JUMP JUMPDEST POP POP JUMP JUMPDEST PUSH1 0x1F DUP3 GT ISZERO PUSH2 0x213E JUMPI PUSH2 0x210F DUP2 PUSH2 0x1FF2 JUMP JUMPDEST PUSH2 0x2118 DUP5 PUSH2 0x2004 JUMP JUMPDEST DUP2 ADD PUSH1 0x20 DUP6 LT ISZERO PUSH2 0x2127 JUMPI DUP2 SWAP1 POP JUMPDEST PUSH2 0x213B PUSH2 0x2133 DUP6 PUSH2 0x2004 JUMP JUMPDEST DUP4 ADD DUP3 PUSH2 0x20DB JUMP JUMPDEST POP POP JUMPDEST POP POP POP JUMP JUMPDEST PUSH0 DUP3 DUP3 SHR SWAP1 POP SWAP3 SWAP2 POP POP JUMP JUMPDEST PUSH0 PUSH2 0x215E PUSH0 NOT DUP5 PUSH1 0x8 MUL PUSH2 0x2143 JUMP JUMPDEST NOT DUP1 DUP4 AND SWAP2 POP POP SWAP3 SWAP2 POP POP JUMP JUMPDEST PUSH0 PUSH2 0x2176 DUP4 DUP4 PUSH2 0x214F JUMP JUMPDEST SWAP2 POP DUP3 PUSH1 0x2 MUL DUP3 OR SWAP1 POP SWAP3 SWAP2 POP POP JUMP JUMPDEST PUSH2 0x218F DUP3 PUSH2 0x15A0 JUMP JUMPDEST PUSH8 0xFFFFFFFFFFFFFFFF DUP2 GT ISZERO PUSH2 0x21A8 JUMPI PUSH2 0x21A7 PUSH2 0x19B7 JUMP JUMPDEST JUMPDEST PUSH2 0x21B2 DUP3 SLOAD PUSH2 0x1BF9 JUMP JUMPDEST PUSH2 0x21BD DUP3 DUP3 DUP6 PUSH2 0x20FD JUMP JUMPDEST PUSH0 PUSH1 0x20 SWAP1 POP PUSH1 0x1F DUP4 GT PUSH1 0x1 DUP2 EQ PUSH2 0x21EE JUMPI PUSH0 DUP5 ISZERO PUSH2 0x21DC JUMPI DUP3 DUP8 ADD MLOAD SWAP1 POP JUMPDEST PUSH2 0x21E6 DUP6 DUP3 PUSH2 0x216B JUMP JUMPDEST DUP7 SSTORE POP PUSH2 0x224D JUMP JUMPDEST PUSH1 0x1F NOT DUP5 AND PUSH2 0x21FC DUP7 PUSH2 0x1FF2 JUMP JUMPDEST PUSH0 JUMPDEST DUP3 DUP2 LT ISZERO PUSH2 0x2223 JUMPI DUP5 DUP10 ADD MLOAD DUP3 SSTORE PUSH1 0x1 DUP3 ADD SWAP2 POP PUSH1 0x20 DUP6 ADD SWAP5 POP PUSH1 0x20 DUP2 ADD SWAP1 POP PUSH2 0x21FE JUMP JUMPDEST DUP7 DUP4 LT ISZERO PUSH2 0x2240 JUMPI DUP5 DUP10 ADD MLOAD PUSH2 0x223C PUSH1 0x1F DUP10 AND DUP3 PUSH2 0x214F JUMP JUMPDEST DUP4 SSTORE POP JUMPDEST PUSH1 0x1 PUSH1 0x2 DUP9 MUL ADD DUP9 SSTORE POP POP POP JUMPDEST POP POP POP POP POP POP JUMP JUMPDEST PUSH32 0x4F776E61626C653A206E6577206F776E6572206973207A65726F206164647265 PUSH0 DUP3 ADD MSTORE PUSH32 0x7373000000000000000000000000000000000000000000000000000000000000 PUSH1 0x20 DUP3 ADD MSTORE POP JUMP JUMPDEST PUSH0 PUSH2 0x22AF PUSH1 0x22 DUP4 PUSH2 0x15AA JUMP JUMPDEST SWAP2 POP PUSH2 0x22BA DUP3 PUSH2 0x2255 JUMP JUMPDEST PUSH1 0x40 DUP3 ADD SWAP1 POP SWAP2 SWAP1 POP JUMP JUMPDEST PUSH0 PUSH1 0x20 DUP3 ADD SWAP1 POP DUP2 DUP2 SUB PUSH0 DUP4 ADD MSTORE PUSH2 0x22DC DUP2 PUSH2 0x22A3 JUMP JUMPDEST SWAP1 POP SWAP2 SWAP1 POP JUMP JUMPDEST PUSH32 0x4F6E6C79206272696467652063616E2063616C6C000000000000000000000000 PUSH0 DUP3 ADD MSTORE POP JUMP JUMPDEST PUSH0 PUSH2 0x2317 PUSH1 0x14 DUP4 PUSH2 0x15AA JUMP JUMPDEST SWAP2 POP PUSH2 0x2322 DUP3 PUSH2 0x22E3 JUMP JUMPDEST PUSH1 0x20 DUP3 ADD SWAP1 POP SWAP2 SWAP1 POP JUMP JUMPDEST PUSH0 PUSH1 0x20 DUP3 ADD SWAP1 POP DUP2 DUP2 SUB PUSH0 DUP4 ADD MSTORE PUSH2 0x2344 DUP2 PUSH2 0x230B JUMP JUMPDEST SWAP1 POP SWAP2 SWAP1 POP JUMP JUMPDEST PUSH32 0x4E487B7100000000000000000000000000000000000000000000000000000000 PUSH0 MSTORE PUSH1 0x11 PUSH1 0x4 MSTORE PUSH1 0x24 PUSH0 REVERT JUMPDEST PUSH0 PUSH2 0x2382 DUP3 PUSH2 0x16D4 JUMP JUMPDEST SWAP2 POP PUSH2 0x238D DUP4 PUSH2 0x16D4 JUMP JUMPDEST SWAP3 POP DUP3 DUP3 SUB SWAP1 POP DUP2 DUP2 GT ISZERO PUSH2 0x23A5 JUMPI PUSH2 0x23A4 PUSH2 0x234B JUMP JUMPDEST JUMPDEST SWAP3 SWAP2 POP POP JUMP JUMPDEST PUSH0 PUSH2 0x23B5 DUP3 PUSH2 0x16D4 JUMP JUMPDEST SWAP2 POP PUSH2 0x23C0 DUP4 PUSH2 0x16D4 JUMP JUMPDEST SWAP3 POP DUP3 DUP3 ADD SWAP1 POP DUP1 DUP3 GT ISZERO PUSH2 0x23D8 JUMPI PUSH2 0x23D7 PUSH2 0x234B JUMP JUMPDEST JUMPDEST SWAP3 SWAP2 POP POP JUMP JUMPDEST PUSH32 0x416C7265616479206D696E746564000000000000000000000000000000000000 PUSH0 DUP3 ADD MSTORE POP JUMP JUMPDEST PUSH0 PUSH2 0x2412 PUSH1 0xE DUP4 PUSH2 0x15AA JUMP JUMPDEST SWAP2 POP PUSH2 0x241D DUP3 PUSH2 0x23DE JUMP JUMPDEST PUSH1 0x20 DUP3 ADD SWAP1 POP SWAP2 SWAP1 POP JUMP JUMPDEST PUSH0 PUSH1 0x20 DUP3 ADD SWAP1 POP DUP2 DUP2 SUB PUSH0 DUP4 ADD MSTORE PUSH2 0x243F DUP2 PUSH2 0x2406 JUMP JUMPDEST SWAP1 POP SWAP2 SWAP1 POP JUMP INVALID LOG2 PUSH5 0x6970667358 0x22 SLT KECCAK256 JUMPI MSTORE SWAP10 0x21 0xCD 0x4F 0xB4 0x4C ADDRESS PUSH15 0xF35E24ABFAB93BA70F6A1B2BB7084B JUMPDEST LT PUSH7 0x2A54274C64736F PUSH13 0x634300081A0033000000000000 "
				},
				"gasEstimates": {
					"creation": {
						"codeDepositCost": "1868000",
						"executionCost": "infinite",
						"totalCost": "infinite"
					},
					"external": {
						"balanceOf(address)": "2931",
						"bridgeNFT(uint256,uint16,address,bytes)": "infinite",
						"connectedContracts(uint16)": "2899",
						"gateway()": "infinite",
						"isTokenOnChain(uint256,uint16)": "3120",
						"mint(address,string)": "infinite",
						"name()": "infinite",
						"owner()": "2604",
						"ownerOf(uint256)": "3031",
						"receiveMintedNFT(uint256,address,string)": "infinite",
						"setConnected(uint16,address)": "28851",
						"setUniversalNFTBridge(address)": "26997",
						"symbol()": "infinite",
						"tokenOnChain(uint256,uint16)": "3097",
						"tokenURI(uint256)": "infinite",
						"tokenURIs(uint256)": "infinite",
						"transferOwnership(address)": "30795",
						"universalNFTBridge()": "2531"
					}
				},
				"methodIdentifiers": {
					"balanceOf(address)": "70a08231",
					"bridgeNFT(uint256,uint16,address,bytes)": "b1d31d98",
					"connectedContracts(uint16)": "d5021e5f",
					"gateway()": "116191b6",
					"isTokenOnChain(uint256,uint16)": "6fafb558",
					"mint(address,string)": "d0def521",
					"name()": "06fdde03",
					"owner()": "8da5cb5b",
					"ownerOf(uint256)": "6352211e",
					"receiveMintedNFT(uint256,address,string)": "f4edf36d",
					"setConnected(uint16,address)": "c02169f2",
					"setUniversalNFTBridge(address)": "a866365c",
					"symbol()": "95d89b41",
					"tokenOnChain(uint256,uint16)": "2e021620",
					"tokenURI(uint256)": "c87b56dd",
					"tokenURIs(uint256)": "6c8b703f",
					"transferOwnership(address)": "f2fde38b",
					"universalNFTBridge()": "a5cecdc9"
				}
			},
			"storageLayout": {
				"storage": [
					{
						"astId": 131,
						"contract": "contracts/UniversalNFT.sol:UniversalNFT",
						"label": "name",
						"offset": 0,
						"slot": "0",
						"type": "t_string_storage"
					},
					{
						"astId": 133,
						"contract": "contracts/UniversalNFT.sol:UniversalNFT",
						"label": "symbol",
						"offset": 0,
						"slot": "1",
						"type": "t_string_storage"
					},
					{
						"astId": 137,
						"contract": "contracts/UniversalNFT.sol:UniversalNFT",
						"label": "_owners",
						"offset": 0,
						"slot": "2",
						"type": "t_mapping(t_uint256,t_address)"
					},
					{
						"astId": 141,
						"contract": "contracts/UniversalNFT.sol:UniversalNFT",
						"label": "_balances",
						"offset": 0,
						"slot": "3",
						"type": "t_mapping(t_address,t_uint256)"
					},
					{
						"astId": 39,
						"contract": "contracts/UniversalNFT.sol:UniversalNFT",
						"label": "_owner",
						"offset": 0,
						"slot": "4",
						"type": "t_address"
					},
					{
						"astId": 345,
						"contract": "contracts/UniversalNFT.sol:UniversalNFT",
						"label": "_tokenIdCounter",
						"offset": 0,
						"slot": "5",
						"type": "t_struct(Counter)306_storage"
					},
					{
						"astId": 348,
						"contract": "contracts/UniversalNFT.sol:UniversalNFT",
						"label": "gateway",
						"offset": 0,
						"slot": "6",
						"type": "t_contract(IGateway)15"
					},
					{
						"astId": 350,
						"contract": "contracts/UniversalNFT.sol:UniversalNFT",
						"label": "universalNFTBridge",
						"offset": 0,
						"slot": "7",
						"type": "t_address"
					},
					{
						"astId": 354,
						"contract": "contracts/UniversalNFT.sol:UniversalNFT",
						"label": "tokenURIs",
						"offset": 0,
						"slot": "8",
						"type": "t_mapping(t_uint256,t_string_storage)"
					},
					{
						"astId": 360,
						"contract": "contracts/UniversalNFT.sol:UniversalNFT",
						"label": "tokenOnChain",
						"offset": 0,
						"slot": "9",
						"type": "t_mapping(t_uint256,t_mapping(t_uint16,t_bool))"
					},
					{
						"astId": 364,
						"contract": "contracts/UniversalNFT.sol:UniversalNFT",
						"label": "connectedContracts",
						"offset": 0,
						"slot": "10",
						"type": "t_mapping(t_uint16,t_address)"
					}
				],
				"types": {
					"t_address": {
						"encoding": "inplace",
						"label": "address",
						"numberOfBytes": "20"
					},
					"t_bool": {
						"encoding": "inplace",
						"label": "bool",
						"numberOfBytes": "1"
					},
					"t_contract(IGateway)15": {
						"encoding": "inplace",
						"label": "contract IGateway",
						"numberOfBytes": "20"
					},
					"t_mapping(t_address,t_uint256)": {
						"encoding": "mapping",
						"key": "t_address",
						"label": "mapping(address => uint256)",
						"numberOfBytes": "32",
						"value": "t_uint256"
					},
					"t_mapping(t_uint16,t_address)": {
						"encoding": "mapping",
						"key": "t_uint16",
						"label": "mapping(uint16 => address)",
						"numberOfBytes": "32",
						"value": "t_address"
					},
					"t_mapping(t_uint16,t_bool)": {
						"encoding": "mapping",
						"key": "t_uint16",
						"label": "mapping(uint16 => bool)",
						"numberOfBytes": "32",
						"value": "t_bool"
					},
					"t_mapping(t_uint256,t_address)": {
						"encoding": "mapping",
						"key": "t_uint256",
						"label": "mapping(uint256 => address)",
						"numberOfBytes": "32",
						"value": "t_address"
					},
					"t_mapping(t_uint256,t_mapping(t_uint16,t_bool))": {
						"encoding": "mapping",
						"key": "t_uint256",
						"label": "mapping(uint256 => mapping(uint16 => bool))",
						"numberOfBytes": "32",
						"value": "t_mapping(t_uint16,t_bool)"
					},
					"t_mapping(t_uint256,t_string_storage)": {
						"encoding": "mapping",
						"key": "t_uint256",
						"label": "mapping(uint256 => string)",
						"numberOfBytes": "32",
						"value": "t_string_storage"
					},
					"t_string_storage": {
						"encoding": "bytes",
						"label": "string",
						"numberOfBytes": "32"
					},
					"t_struct(Counter)306_storage": {
						"encoding": "inplace",
						"label": "struct Counters.Counter",
						"members": [
							{
								"astId": 305,
								"contract": "contracts/UniversalNFT.sol:UniversalNFT",
								"label": "_value",
								"offset": 0,
								"slot": "0",
								"type": "t_uint256"
							}
						],
						"numberOfBytes": "32"
					},
					"t_uint16": {
						"encoding": "inplace",
						"label": "uint16",
						"numberOfBytes": "2"
					},
					"t_uint256": {
						"encoding": "inplace",
						"label": "uint256",
						"numberOfBytes": "32"
					}
				}
			},
			"userdoc": {
				"kind": "user",
				"methods": {},
				"version": 1
			}
		}
	}
}