{
	"data": {
		"bytecode": {
			"linkReferences": {},
			"object": "608060405234801561000f575f80fd5b50604051610dfb380380610dfb83398181016040528101906100319190610115565b815f806101000a81548173ffffffffffffffffffffffffffffffffffffffff021916908373ffffffffffffffffffffffffffffffffffffffff1602179055508060015f6101000a81548173ffffffffffffffffffffffffffffffffffffffff021916908373ffffffffffffffffffffffffffffffffffffffff1602179055505050610153565b5f80fd5b5f73ffffffffffffffffffffffffffffffffffffffff82169050919050565b5f6100e4826100bb565b9050919050565b6100f4816100da565b81146100fe575f80fd5b50565b5f8151905061010f816100eb565b92915050565b5f806040838503121561012b5761012a6100b7565b5b5f61013885828601610101565b925050602061014985828601610101565b9150509250929050565b610c9b806101605f395ff3fe608060405260043610610054575f3560e01c8063116191b61461005857806359c490481461008257806367ce86d3146100aa578063852ea390146100d2578063b1d31d98146100fa578063c1f5804e14610116575b5f80fd5b348015610063575f80fd5b5061006c610140565b6040516100799190610509565b60405180910390f35b34801561008d575f80fd5b506100a860048036038101906100a39190610602565b610163565b005b3480156100b5575f80fd5b506100d060048036038101906100cb9190610602565b610253565b005b3480156100dd575f80fd5b506100f860048036038101906100f39190610602565b61028e565b005b610114600480360381019061010f91906106aa565b6102c9565b005b348015610121575f80fd5b5061012a61046a565b604051610137919061073d565b60405180910390f35b5f8054906101000a900473ffffffffffffffffffffffffffffffffffffffff1681565b5f805f848481019061017591906108c9565b92509250925060015f9054906101000a900473ffffffffffffffffffffffffffffffffffffffff1673ffffffffffffffffffffffffffffffffffffffff1663f4edf36d8484846040518463ffffffff1660e01b81526004016101d9939291906109a4565b5f604051808303815f87803b1580156101f0575f80fd5b505af1158015610202573d5f803e3d5ffd5b505050508173ffffffffffffffffffffffffffffffffffffffff16837f5707d3dccf03ce703999d13d73fcffd1215df3f703f3cae034ecdb4904f80a7e60405160405180910390a350505050505050565b7f5c625dc5573f4b6db82438baef13d036d42ef2f378d5cf47519389d8ab4161f860405161028090610a2a565b60405180910390a150505050565b7f5c625dc5573f4b6db82438baef13d036d42ef2f378d5cf47519389d8ab4161f86040516102bb90610a92565b60405180910390a150505050565b60015f9054906101000a900473ffffffffffffffffffffffffffffffffffffffff1673ffffffffffffffffffffffffffffffffffffffff163373ffffffffffffffffffffffffffffffffffffffff1614610358576040517f08c379a000000000000000000000000000000000000000000000000000000000815260040161034f90610afa565b60405180910390fd5b5f8054906101000a900473ffffffffffffffffffffffffffffffffffffffff1673ffffffffffffffffffffffffffffffffffffffff1663924336d13460015f9054906101000a900473ffffffffffffffffffffffffffffffffffffffff16878686346207a1206040518863ffffffff1660e01b81526004016103df96959493929190610bbd565b5f604051808303818588803b1580156103f6575f80fd5b505af1158015610408573d5f803e3d5ffd5b50505050508273ffffffffffffffffffffffffffffffffffffffff168461ffff16867fc206add3064993e4ed912ed13e5759d78a222e1d928a3f662c331438d4bbdf17858560405161045b929190610c43565b60405180910390a45050505050565b60015f9054906101000a900473ffffffffffffffffffffffffffffffffffffffff1681565b5f73ffffffffffffffffffffffffffffffffffffffff82169050919050565b5f819050919050565b5f6104d16104cc6104c78461048f565b6104ae565b61048f565b9050919050565b5f6104e2826104b7565b9050919050565b5f6104f3826104d8565b9050919050565b610503816104e9565b82525050565b5f60208201905061051c5f8301846104fa565b92915050565b5f604051905090565b5f80fd5b5f80fd5b5f61053d8261048f565b9050919050565b61054d81610533565b8114610557575f80fd5b50565b5f8135905061056881610544565b92915050565b5f819050919050565b6105808161056e565b811461058a575f80fd5b50565b5f8135905061059b81610577565b92915050565b5f80fd5b5f80fd5b5f80fd5b5f8083601f8401126105c2576105c16105a1565b5b8235905067ffffffffffffffff8111156105df576105de6105a5565b5b6020830191508360018202830111156105fb576105fa6105a9565b5b9250929050565b5f805f806060858703121561061a5761061961052b565b5b5f6106278782880161055a565b94505060206106388782880161058d565b935050604085013567ffffffffffffffff8111156106595761065861052f565b5b610665878288016105ad565b925092505092959194509250565b5f61ffff82169050919050565b61068981610673565b8114610693575f80fd5b50565b5f813590506106a481610680565b92915050565b5f805f805f608086880312156106c3576106c261052b565b5b5f6106d08882890161058d565b95505060206106e188828901610696565b94505060406106f28882890161055a565b935050606086013567ffffffffffffffff8111156107135761071261052f565b5b61071f888289016105ad565b92509250509295509295909350565b61073781610533565b82525050565b5f6020820190506107505f83018461072e565b92915050565b5f6107608261048f565b9050919050565b61077081610756565b811461077a575f80fd5b50565b5f8135905061078b81610767565b92915050565b5f80fd5b5f601f19601f8301169050919050565b7f4e487b71000000000000000000000000000000000000000000000000000000005f52604160045260245ffd5b6107db82610795565b810181811067ffffffffffffffff821117156107fa576107f96107a5565b5b80604052505050565b5f61080c610522565b905061081882826107d2565b919050565b5f67ffffffffffffffff821115610837576108366107a5565b5b61084082610795565b9050602081019050919050565b828183375f83830152505050565b5f61086d6108688461081d565b610803565b90508281526020810184848401111561088957610888610791565b5b61089484828561084d565b509392505050565b5f82601f8301126108b0576108af6105a1565b5b81356108c084826020860161085b565b91505092915050565b5f805f606084860312156108e0576108df61052b565b5b5f6108ed8682870161058d565b93505060206108fe8682870161077d565b925050604084013567ffffffffffffffff81111561091f5761091e61052f565b5b61092b8682870161089c565b9150509250925092565b61093e8161056e565b82525050565b5f81519050919050565b5f82825260208201905092915050565b8281835e5f83830152505050565b5f61097682610944565b610980818561094e565b935061099081856020860161095e565b61099981610795565b840191505092915050565b5f6060820190506109b75f830186610935565b6109c4602083018561072e565b81810360408301526109d6818461096c565b9050949350505050565b7f43726f73732d636861696e206d657373616765207265766572746564000000005f82015250565b5f610a14601c8361094e565b9150610a1f826109e0565b602082019050919050565b5f6020820190508181035f830152610a4181610a08565b9050919050565b7f43726f73732d636861696e207472616e73616374696f6e2061626f72746564005f82015250565b5f610a7c601f8361094e565b9150610a8782610a48565b602082019050919050565b5f6020820190508181035f830152610aa981610a70565b9050919050565b7f4f6e6c79204e465420636f6e74726163742063616e2063616c6c0000000000005f82015250565b5f610ae4601a8361094e565b9150610aef82610ab0565b602082019050919050565b5f6020820190508181035f830152610b1181610ad8565b9050919050565b5f610b32610b2d610b2884610673565b6104ae565b61056e565b9050919050565b610b4281610b18565b82525050565b5f82825260208201905092915050565b5f610b638385610b48565b9350610b7083858461084d565b610b7983610795565b840190509392505050565b5f819050919050565b5f610ba7610ba2610b9d84610b84565b6104ae565b61056e565b9050919050565b610bb781610b8d565b82525050565b5f60a082019050610bd05f83018961072e565b610bdd6020830188610b39565b8181036040830152610bf0818688610b58565b9050610bff6060830185610935565b610c0c6080830184610bae565b979650505050505050565b5f610c22838561094e565b9350610c2f83858461084d565b610c3883610795565b840190509392505050565b5f6020820190508181035f830152610c5c818486610c17565b9050939250505056fea2646970667358221220176df5033261424896405e548c62d5555ef0962848d182371639083f10183b8964736f6c634300081a0033",
			"opcodes": "PUSH1 0x80 PUSH1 0x40 MSTORE CALLVALUE DUP1 ISZERO PUSH2 0xF JUMPI PUSH0 DUP1 REVERT JUMPDEST POP PUSH1 0x40 MLOAD PUSH2 0xDFB CODESIZE SUB DUP1 PUSH2 0xDFB DUP4 CODECOPY DUP2 DUP2 ADD PUSH1 0x40 MSTORE DUP2 ADD SWAP1 PUSH2 0x31 SWAP2 SWAP1 PUSH2 0x115 JUMP JUMPDEST DUP2 PUSH0 DUP1 PUSH2 0x100 EXP DUP2 SLOAD DUP2 PUSH20 0xFFFFFFFFFFFFFFFFFFFFFFFFFFFFFFFFFFFFFFFF MUL NOT AND SWAP1 DUP4 PUSH20 0xFFFFFFFFFFFFFFFFFFFFFFFFFFFFFFFFFFFFFFFF AND MUL OR SWAP1 SSTORE POP DUP1 PUSH1 0x1 PUSH0 PUSH2 0x100 EXP DUP2 SLOAD DUP2 PUSH20 0xFFFFFFFFFFFFFFFFFFFFFFFFFFFFFFFFFFFFFFFF MUL NOT AND SWAP1 DUP4 PUSH20 0xFFFFFFFFFFFFFFFFFFFFFFFFFFFFFFFFFFFFFFFF AND MUL OR SWAP1 SSTORE POP POP POP PUSH2 0x153 JUMP JUMPDEST PUSH0 DUP1 REVERT JUMPDEST PUSH0 PUSH20 0xFFFFFFFFFFFFFFFFFFFFFFFFFFFFFFFFFFFFFFFF DUP3 AND SWAP1 POP SWAP2 SWAP1 POP JUMP JUMPDEST PUSH0 PUSH2 0xE4 DUP3 PUSH2 0xBB JUMP JUMPDEST SWAP1 POP SWAP2 SWAP1 POP JUMP JUMPDEST PUSH2 0xF4 DUP2 PUSH2 0xDA JUMP JUMPDEST DUP2 EQ PUSH2 0xFE JUMPI PUSH0 DUP1 REVERT JUMPDEST POP JUMP JUMPDEST PUSH0 DUP2 MLOAD SWAP1 POP PUSH2 0x10F DUP2 PUSH2 0xEB JUMP JUMPDEST SWAP3 SWAP2 POP POP JUMP JUMPDEST PUSH0 DUP1 PUSH1 0x40 DUP4 DUP6 SUB SLT ISZERO PUSH2 0x12B JUMPI PUSH2 0x12A PUSH2 0xB7 JUMP JUMPDEST JUMPDEST PUSH0 PUSH2 0x138 DUP6 DUP3 DUP7 ADD PUSH2 0x101 JUMP JUMPDEST SWAP3 POP POP PUSH1 0x20 PUSH2 0x149 DUP6 DUP3 DUP7 ADD PUSH2 0x101 JUMP JUMPDEST SWAP2 POP POP SWAP3 POP SWAP3 SWAP1 POP JUMP JUMPDEST PUSH2 0xC9B DUP1 PUSH2 0x160 PUSH0 CODECOPY PUSH0 RETURN INVALID PUSH1 0x80 PUSH1 0x40 MSTORE PUSH1 0x4 CALLDATASIZE LT PUSH2 0x54 JUMPI PUSH0 CALLDATALOAD PUSH1 0xE0 SHR DUP1 PUSH4 0x116191B6 EQ PUSH2 0x58 JUMPI DUP1 PUSH4 0x59C49048 EQ PUSH2 0x82 JUMPI DUP1 PUSH4 0x67CE86D3 EQ PUSH2 0xAA JUMPI DUP1 PUSH4 0x852EA390 EQ PUSH2 0xD2 JUMPI DUP1 PUSH4 0xB1D31D98 EQ PUSH2 0xFA JUMPI DUP1 PUSH4 0xC1F5804E EQ PUSH2 0x116 JUMPI JUMPDEST PUSH0 DUP1 REVERT JUMPDEST CALLVALUE DUP1 ISZERO PUSH2 0x63 JUMPI PUSH0 DUP1 REVERT JUMPDEST POP PUSH2 0x6C PUSH2 0x140 JUMP JUMPDEST PUSH1 0x40 MLOAD PUSH2 0x79 SWAP2 SWAP1 PUSH2 0x509 JUMP JUMPDEST PUSH1 0x40 MLOAD DUP1 SWAP2 SUB SWAP1 RETURN JUMPDEST CALLVALUE DUP1 ISZERO PUSH2 0x8D JUMPI PUSH0 DUP1 REVERT JUMPDEST POP PUSH2 0xA8 PUSH1 0x4 DUP1 CALLDATASIZE SUB DUP2 ADD SWAP1 PUSH2 0xA3 SWAP2 SWAP1 PUSH2 0x602 JUMP JUMPDEST PUSH2 0x163 JUMP JUMPDEST STOP JUMPDEST CALLVALUE DUP1 ISZERO PUSH2 0xB5 JUMPI PUSH0 DUP1 REVERT JUMPDEST POP PUSH2 0xD0 PUSH1 0x4 DUP1 CALLDATASIZE SUB DUP2 ADD SWAP1 PUSH2 0xCB SWAP2 SWAP1 PUSH2 0x602 JUMP JUMPDEST PUSH2 0x253 JUMP JUMPDEST STOP JUMPDEST CALLVALUE DUP1 ISZERO PUSH2 0xDD JUMPI PUSH0 DUP1 REVERT JUMPDEST POP PUSH2 0xF8 PUSH1 0x4 DUP1 CALLDATASIZE SUB DUP2 ADD SWAP1 PUSH2 0xF3 SWAP2 SWAP1 PUSH2 0x602 JUMP JUMPDEST PUSH2 0x28E JUMP JUMPDEST STOP JUMPDEST PUSH2 0x114 PUSH1 0x4 DUP1 CALLDATASIZE SUB DUP2 ADD SWAP1 PUSH2 0x10F SWAP2 SWAP1 PUSH2 0x6AA JUMP JUMPDEST PUSH2 0x2C9 JUMP JUMPDEST STOP JUMPDEST CALLVALUE DUP1 ISZERO PUSH2 0x121 JUMPI PUSH0 DUP1 REVERT JUMPDEST POP PUSH2 0x12A PUSH2 0x46A JUMP JUMPDEST PUSH1 0x40 MLOAD PUSH2 0x137 SWAP2 SWAP1 PUSH2 0x73D JUMP JUMPDEST PUSH1 0x40 MLOAD DUP1 SWAP2 SUB SWAP1 RETURN JUMPDEST PUSH0 DUP1 SLOAD SWAP1 PUSH2 0x100 EXP SWAP1 DIV PUSH20 0xFFFFFFFFFFFFFFFFFFFFFFFFFFFFFFFFFFFFFFFF AND DUP2 JUMP JUMPDEST PUSH0 DUP1 PUSH0 DUP5 DUP5 DUP2 ADD SWAP1 PUSH2 0x175 SWAP2 SWAP1 PUSH2 0x8C9 JUMP JUMPDEST SWAP3 POP SWAP3 POP SWAP3 POP PUSH1 0x1 PUSH0 SWAP1 SLOAD SWAP1 PUSH2 0x100 EXP SWAP1 DIV PUSH20 0xFFFFFFFFFFFFFFFFFFFFFFFFFFFFFFFFFFFFFFFF AND PUSH20 0xFFFFFFFFFFFFFFFFFFFFFFFFFFFFFFFFFFFFFFFF AND PUSH4 0xF4EDF36D DUP5 DUP5 DUP5 PUSH1 0x40 MLOAD DUP5 PUSH4 0xFFFFFFFF AND PUSH1 0xE0 SHL DUP2 MSTORE PUSH1 0x4 ADD PUSH2 0x1D9 SWAP4 SWAP3 SWAP2 SWAP1 PUSH2 0x9A4 JUMP JUMPDEST PUSH0 PUSH1 0x40 MLOAD DUP1 DUP4 SUB DUP2 PUSH0 DUP8 DUP1 EXTCODESIZE ISZERO DUP1 ISZERO PUSH2 0x1F0 JUMPI PUSH0 DUP1 REVERT JUMPDEST POP GAS CALL ISZERO DUP1 ISZERO PUSH2 0x202 JUMPI RETURNDATASIZE PUSH0 DUP1 RETURNDATACOPY RETURNDATASIZE PUSH0 REVERT JUMPDEST POP POP POP POP DUP2 PUSH20 0xFFFFFFFFFFFFFFFFFFFFFFFFFFFFFFFFFFFFFFFF AND DUP4 PUSH32 0x5707D3DCCF03CE703999D13D73FCFFD1215DF3F703F3CAE034ECDB4904F80A7E PUSH1 0x40 MLOAD PUSH1 0x40 MLOAD DUP1 SWAP2 SUB SWAP1 LOG3 POP POP POP POP POP POP POP JUMP JUMPDEST PUSH32 0x5C625DC5573F4B6DB82438BAEF13D036D42EF2F378D5CF47519389D8AB4161F8 PUSH1 0x40 MLOAD PUSH2 0x280 SWAP1 PUSH2 0xA2A JUMP JUMPDEST PUSH1 0x40 MLOAD DUP1 SWAP2 SUB SWAP1 LOG1 POP POP POP POP JUMP JUMPDEST PUSH32 0x5C625DC5573F4B6DB82438BAEF13D036D42EF2F378D5CF47519389D8AB4161F8 PUSH1 0x40 MLOAD PUSH2 0x2BB SWAP1 PUSH2 0xA92 JUMP JUMPDEST PUSH1 0x40 MLOAD DUP1 SWAP2 SUB SWAP1 LOG1 POP POP POP POP JUMP JUMPDEST PUSH1 0x1 PUSH0 SWAP1 SLOAD SWAP1 PUSH2 0x100 EXP SWAP1 DIV PUSH20 0xFFFFFFFFFFFFFFFFFFFFFFFFFFFFFFFFFFFFFFFF AND PUSH20 0xFFFFFFFFFFFFFFFFFFFFFFFFFFFFFFFFFFFFFFFF AND CALLER PUSH20 0xFFFFFFFFFFFFFFFFFFFFFFFFFFFFFFFFFFFFFFFF AND EQ PUSH2 0x358 JUMPI PUSH1 0x40 MLOAD PUSH32 0x8C379A000000000000000000000000000000000000000000000000000000000 DUP2 MSTORE PUSH1 0x4 ADD PUSH2 0x34F SWAP1 PUSH2 0xAFA JUMP JUMPDEST PUSH1 0x40 MLOAD DUP1 SWAP2 SUB SWAP1 REVERT JUMPDEST PUSH0 DUP1 SLOAD SWAP1 PUSH2 0x100 EXP SWAP1 DIV PUSH20 0xFFFFFFFFFFFFFFFFFFFFFFFFFFFFFFFFFFFFFFFF AND PUSH20 0xFFFFFFFFFFFFFFFFFFFFFFFFFFFFFFFFFFFFFFFF AND PUSH4 0x924336D1 CALLVALUE PUSH1 0x1 PUSH0 SWAP1 SLOAD SWAP1 PUSH2 0x100 EXP SWAP1 DIV PUSH20 0xFFFFFFFFFFFFFFFFFFFFFFFFFFFFFFFFFFFFFFFF AND DUP8 DUP7 DUP7 CALLVALUE PUSH3 0x7A120 PUSH1 0x40 MLOAD DUP9 PUSH4 0xFFFFFFFF AND PUSH1 0xE0 SHL DUP2 MSTORE PUSH1 0x4 ADD PUSH2 0x3DF SWAP7 SWAP6 SWAP5 SWAP4 SWAP3 SWAP2 SWAP1 PUSH2 0xBBD JUMP JUMPDEST PUSH0 PUSH1 0x40 MLOAD DUP1 DUP4 SUB DUP2 DUP6 DUP9 DUP1 EXTCODESIZE ISZERO DUP1 ISZERO PUSH2 0x3F6 JUMPI PUSH0 DUP1 REVERT JUMPDEST POP GAS CALL ISZERO DUP1 ISZERO PUSH2 0x408 JUMPI RETURNDATASIZE PUSH0 DUP1 RETURNDATACOPY RETURNDATASIZE PUSH0 REVERT JUMPDEST POP POP POP POP POP DUP3 PUSH20 0xFFFFFFFFFFFFFFFFFFFFFFFFFFFFFFFFFFFFFFFF AND DUP5 PUSH2 0xFFFF AND DUP7 PUSH32 0xC206ADD3064993E4ED912ED13E5759D78A222E1D928A3F662C331438D4BBDF17 DUP6 DUP6 PUSH1 0x40 MLOAD PUSH2 0x45B SWAP3 SWAP2 SWAP1 PUSH2 0xC43 JUMP JUMPDEST PUSH1 0x40 MLOAD DUP1 SWAP2 SUB SWAP1 LOG4 POP POP POP POP POP JUMP JUMPDEST PUSH1 0x1 PUSH0 SWAP1 SLOAD SWAP1 PUSH2 0x100 EXP SWAP1 DIV PUSH20 0xFFFFFFFFFFFFFFFFFFFFFFFFFFFFFFFFFFFFFFFF AND DUP2 JUMP JUMPDEST PUSH0 PUSH20 0xFFFFFFFFFFFFFFFFFFFFFFFFFFFFFFFFFFFFFFFF DUP3 AND SWAP1 POP SWAP2 SWAP1 POP JUMP JUMPDEST PUSH0 DUP2 SWAP1 POP SWAP2 SWAP1 POP JUMP JUMPDEST PUSH0 PUSH2 0x4D1 PUSH2 0x4CC PUSH2 0x4C7 DUP5 PUSH2 0x48F JUMP JUMPDEST PUSH2 0x4AE JUMP JUMPDEST PUSH2 0x48F JUMP JUMPDEST SWAP1 POP SWAP2 SWAP1 POP JUMP JUMPDEST PUSH0 PUSH2 0x4E2 DUP3 PUSH2 0x4B7 JUMP JUMPDEST SWAP1 POP SWAP2 SWAP1 POP JUMP JUMPDEST PUSH0 PUSH2 0x4F3 DUP3 PUSH2 0x4D8 JUMP JUMPDEST SWAP1 POP SWAP2 SWAP1 POP JUMP JUMPDEST PUSH2 0x503 DUP2 PUSH2 0x4E9 JUMP JUMPDEST DUP3 MSTORE POP POP JUMP JUMPDEST PUSH0 PUSH1 0x20 DUP3 ADD SWAP1 POP PUSH2 0x51C PUSH0 DUP4 ADD DUP5 PUSH2 0x4FA JUMP JUMPDEST SWAP3 SWAP2 POP POP JUMP JUMPDEST PUSH0 PUSH1 0x40 MLOAD SWAP1 POP SWAP1 JUMP JUMPDEST PUSH0 DUP1 REVERT JUMPDEST PUSH0 DUP1 REVERT JUMPDEST PUSH0 PUSH2 0x53D DUP3 PUSH2 0x48F JUMP JUMPDEST SWAP1 POP SWAP2 SWAP1 POP JUMP JUMPDEST PUSH2 0x54D DUP2 PUSH2 0x533 JUMP JUMPDEST DUP2 EQ PUSH2 0x557 JUMPI PUSH0 DUP1 REVERT JUMPDEST POP JUMP JUMPDEST PUSH0 DUP2 CALLDATALOAD SWAP1 POP PUSH2 0x568 DUP2 PUSH2 0x544 JUMP JUMPDEST SWAP3 SWAP2 POP POP JUMP JUMPDEST PUSH0 DUP2 SWAP1 POP SWAP2 SWAP1 POP JUMP JUMPDEST PUSH2 0x580 DUP2 PUSH2 0x56E JUMP JUMPDEST DUP2 EQ PUSH2 0x58A JUMPI PUSH0 DUP1 REVERT JUMPDEST POP JUMP JUMPDEST PUSH0 DUP2 CALLDATALOAD SWAP1 POP PUSH2 0x59B DUP2 PUSH2 0x577 JUMP JUMPDEST SWAP3 SWAP2 POP POP JUMP JUMPDEST PUSH0 DUP1 REVERT JUMPDEST PUSH0 DUP1 REVERT JUMPDEST PUSH0 DUP1 REVERT JUMPDEST PUSH0 DUP1 DUP4 PUSH1 0x1F DUP5 ADD SLT PUSH2 0x5C2 JUMPI PUSH2 0x5C1 PUSH2 0x5A1 JUMP JUMPDEST JUMPDEST DUP3 CALLDATALOAD SWAP1 POP PUSH8 0xFFFFFFFFFFFFFFFF DUP2 GT ISZERO PUSH2 0x5DF JUMPI PUSH2 0x5DE PUSH2 0x5A5 JUMP JUMPDEST JUMPDEST PUSH1 0x20 DUP4 ADD SWAP2 POP DUP4 PUSH1 0x1 DUP3 MUL DUP4 ADD GT ISZERO PUSH2 0x5FB JUMPI PUSH2 0x5FA PUSH2 0x5A9 JUMP JUMPDEST JUMPDEST SWAP3 POP SWAP3 SWAP1 POP JUMP JUMPDEST PUSH0 DUP1 PUSH0 DUP1 PUSH1 0x60 DUP6 DUP8 SUB SLT ISZERO PUSH2 0x61A JUMPI PUSH2 0x619 PUSH2 0x52B JUMP JUMPDEST JUMPDEST PUSH0 PUSH2 0x627 DUP8 DUP3 DUP9 ADD PUSH2 0x55A JUMP JUMPDEST SWAP5 POP POP PUSH1 0x20 PUSH2 0x638 DUP8 DUP3 DUP9 ADD PUSH2 0x58D JUMP JUMPDEST SWAP4 POP POP PUSH1 0x40 DUP6 ADD CALLDATALOAD PUSH8 0xFFFFFFFFFFFFFFFF DUP2 GT ISZERO PUSH2 0x659 JUMPI PUSH2 0x658 PUSH2 0x52F JUMP JUMPDEST JUMPDEST PUSH2 0x665 DUP8 DUP3 DUP9 ADD PUSH2 0x5AD JUMP JUMPDEST SWAP3 POP SWAP3 POP POP SWAP3 SWAP6 SWAP2 SWAP5 POP SWAP3 POP JUMP JUMPDEST PUSH0 PUSH2 0xFFFF DUP3 AND SWAP1 POP SWAP2 SWAP1 POP JUMP JUMPDEST PUSH2 0x689 DUP2 PUSH2 0x673 JUMP JUMPDEST DUP2 EQ PUSH2 0x693 JUMPI PUSH0 DUP1 REVERT JUMPDEST POP JUMP JUMPDEST PUSH0 DUP2 CALLDATALOAD SWAP1 POP PUSH2 0x6A4 DUP2 PUSH2 0x680 JUMP JUMPDEST SWAP3 SWAP2 POP POP JUMP JUMPDEST PUSH0 DUP1 PUSH0 DUP1 PUSH0 PUSH1 0x80 DUP7 DUP9 SUB SLT ISZERO PUSH2 0x6C3 JUMPI PUSH2 0x6C2 PUSH2 0x52B JUMP JUMPDEST JUMPDEST PUSH0 PUSH2 0x6D0 DUP9 DUP3 DUP10 ADD PUSH2 0x58D JUMP JUMPDEST SWAP6 POP POP PUSH1 0x20 PUSH2 0x6E1 DUP9 DUP3 DUP10 ADD PUSH2 0x696 JUMP JUMPDEST SWAP5 POP POP PUSH1 0x40 PUSH2 0x6F2 DUP9 DUP3 DUP10 ADD PUSH2 0x55A JUMP JUMPDEST SWAP4 POP POP PUSH1 0x60 DUP7 ADD CALLDATALOAD PUSH8 0xFFFFFFFFFFFFFFFF DUP2 GT ISZERO PUSH2 0x713 JUMPI PUSH2 0x712 PUSH2 0x52F JUMP JUMPDEST JUMPDEST PUSH2 0x71F DUP9 DUP3 DUP10 ADD PUSH2 0x5AD JUMP JUMPDEST SWAP3 POP SWAP3 POP POP SWAP3 SWAP6 POP SWAP3 SWAP6 SWAP1 SWAP4 POP JUMP JUMPDEST PUSH2 0x737 DUP2 PUSH2 0x533 JUMP JUMPDEST DUP3 MSTORE POP POP JUMP JUMPDEST PUSH0 PUSH1 0x20 DUP3 ADD SWAP1 POP PUSH2 0x750 PUSH0 DUP4 ADD DUP5 PUSH2 0x72E JUMP JUMPDEST SWAP3 SWAP2 POP POP JUMP JUMPDEST PUSH0 PUSH2 0x760 DUP3 PUSH2 0x48F JUMP JUMPDEST SWAP1 POP SWAP2 SWAP1 POP JUMP JUMPDEST PUSH2 0x770 DUP2 PUSH2 0x756 JUMP JUMPDEST DUP2 EQ PUSH2 0x77A JUMPI PUSH0 DUP1 REVERT JUMPDEST POP JUMP JUMPDEST PUSH0 DUP2 CALLDATALOAD SWAP1 POP PUSH2 0x78B DUP2 PUSH2 0x767 JUMP JUMPDEST SWAP3 SWAP2 POP POP JUMP JUMPDEST PUSH0 DUP1 REVERT JUMPDEST PUSH0 PUSH1 0x1F NOT PUSH1 0x1F DUP4 ADD AND SWAP1 POP SWAP2 SWAP1 POP JUMP JUMPDEST PUSH32 0x4E487B7100000000000000000000000000000000000000000000000000000000 PUSH0 MSTORE PUSH1 0x41 PUSH1 0x4 MSTORE PUSH1 0x24 PUSH0 REVERT JUMPDEST PUSH2 0x7DB DUP3 PUSH2 0x795 JUMP JUMPDEST DUP2 ADD DUP2 DUP2 LT PUSH8 0xFFFFFFFFFFFFFFFF DUP3 GT OR ISZERO PUSH2 0x7FA JUMPI PUSH2 0x7F9 PUSH2 0x7A5 JUMP JUMPDEST JUMPDEST DUP1 PUSH1 0x40 MSTORE POP POP POP JUMP JUMPDEST PUSH0 PUSH2 0x80C PUSH2 0x522 JUMP JUMPDEST SWAP1 POP PUSH2 0x818 DUP3 DUP3 PUSH2 0x7D2 JUMP JUMPDEST SWAP2 SWAP1 POP JUMP JUMPDEST PUSH0 PUSH8 0xFFFFFFFFFFFFFFFF DUP3 GT ISZERO PUSH2 0x837 JUMPI PUSH2 0x836 PUSH2 0x7A5 JUMP JUMPDEST JUMPDEST PUSH2 0x840 DUP3 PUSH2 0x795 JUMP JUMPDEST SWAP1 POP PUSH1 0x20 DUP2 ADD SWAP1 POP SWAP2 SWAP1 POP JUMP JUMPDEST DUP3 DUP2 DUP4 CALLDATACOPY PUSH0 DUP4 DUP4 ADD MSTORE POP POP POP JUMP JUMPDEST PUSH0 PUSH2 0x86D PUSH2 0x868 DUP5 PUSH2 0x81D JUMP JUMPDEST PUSH2 0x803 JUMP JUMPDEST SWAP1 POP DUP3 DUP2 MSTORE PUSH1 0x20 DUP2 ADD DUP5 DUP5 DUP5 ADD GT ISZERO PUSH2 0x889 JUMPI PUSH2 0x888 PUSH2 0x791 JUMP JUMPDEST JUMPDEST PUSH2 0x894 DUP5 DUP3 DUP6 PUSH2 0x84D JUMP JUMPDEST POP SWAP4 SWAP3 POP POP POP JUMP JUMPDEST PUSH0 DUP3 PUSH1 0x1F DUP4 ADD SLT PUSH2 0x8B0 JUMPI PUSH2 0x8AF PUSH2 0x5A1 JUMP JUMPDEST JUMPDEST DUP2 CALLDATALOAD PUSH2 0x8C0 DUP5 DUP3 PUSH1 0x20 DUP7 ADD PUSH2 0x85B JUMP JUMPDEST SWAP2 POP POP SWAP3 SWAP2 POP POP JUMP JUMPDEST PUSH0 DUP1 PUSH0 PUSH1 0x60 DUP5 DUP7 SUB SLT ISZERO PUSH2 0x8E0 JUMPI PUSH2 0x8DF PUSH2 0x52B JUMP JUMPDEST JUMPDEST PUSH0 PUSH2 0x8ED DUP7 DUP3 DUP8 ADD PUSH2 0x58D JUMP JUMPDEST SWAP4 POP POP PUSH1 0x20 PUSH2 0x8FE DUP7 DUP3 DUP8 ADD PUSH2 0x77D JUMP JUMPDEST SWAP3 POP POP PUSH1 0x40 DUP5 ADD CALLDATALOAD PUSH8 0xFFFFFFFFFFFFFFFF DUP2 GT ISZERO PUSH2 0x91F JUMPI PUSH2 0x91E PUSH2 0x52F JUMP JUMPDEST JUMPDEST PUSH2 0x92B DUP7 DUP3 DUP8 ADD PUSH2 0x89C JUMP JUMPDEST SWAP2 POP POP SWAP3 POP SWAP3 POP SWAP3 JUMP JUMPDEST PUSH2 0x93E DUP2 PUSH2 0x56E JUMP JUMPDEST DUP3 MSTORE POP POP JUMP JUMPDEST PUSH0 DUP2 MLOAD SWAP1 POP SWAP2 SWAP1 POP JUMP JUMPDEST PUSH0 DUP3 DUP3 MSTORE PUSH1 0x20 DUP3 ADD SWAP1 POP SWAP3 SWAP2 POP POP JUMP JUMPDEST DUP3 DUP2 DUP4 MCOPY PUSH0 DUP4 DUP4 ADD MSTORE POP POP POP JUMP JUMPDEST PUSH0 PUSH2 0x976 DUP3 PUSH2 0x944 JUMP JUMPDEST PUSH2 0x980 DUP2 DUP6 PUSH2 0x94E JUMP JUMPDEST SWAP4 POP PUSH2 0x990 DUP2 DUP6 PUSH1 0x20 DUP7 ADD PUSH2 0x95E JUMP JUMPDEST PUSH2 0x999 DUP2 PUSH2 0x795 JUMP JUMPDEST DUP5 ADD SWAP2 POP POP SWAP3 SWAP2 POP POP JUMP JUMPDEST PUSH0 PUSH1 0x60 DUP3 ADD SWAP1 POP PUSH2 0x9B7 PUSH0 DUP4 ADD DUP7 PUSH2 0x935 JUMP JUMPDEST PUSH2 0x9C4 PUSH1 0x20 DUP4 ADD DUP6 PUSH2 0x72E JUMP JUMPDEST DUP2 DUP2 SUB PUSH1 0x40 DUP4 ADD MSTORE PUSH2 0x9D6 DUP2 DUP5 PUSH2 0x96C JUMP JUMPDEST SWAP1 POP SWAP5 SWAP4 POP POP POP POP JUMP JUMPDEST PUSH32 0x43726F73732D636861696E206D65737361676520726576657274656400000000 PUSH0 DUP3 ADD MSTORE POP JUMP JUMPDEST PUSH0 PUSH2 0xA14 PUSH1 0x1C DUP4 PUSH2 0x94E JUMP JUMPDEST SWAP2 POP PUSH2 0xA1F DUP3 PUSH2 0x9E0 JUMP JUMPDEST PUSH1 0x20 DUP3 ADD SWAP1 POP SWAP2 SWAP1 POP JUMP JUMPDEST PUSH0 PUSH1 0x20 DUP3 ADD SWAP1 POP DUP2 DUP2 SUB PUSH0 DUP4 ADD MSTORE PUSH2 0xA41 DUP2 PUSH2 0xA08 JUMP JUMPDEST SWAP1 POP SWAP2 SWAP1 POP JUMP JUMPDEST PUSH32 0x43726F73732D636861696E207472616E73616374696F6E2061626F7274656400 PUSH0 DUP3 ADD MSTORE POP JUMP JUMPDEST PUSH0 PUSH2 0xA7C PUSH1 0x1F DUP4 PUSH2 0x94E JUMP JUMPDEST SWAP2 POP PUSH2 0xA87 DUP3 PUSH2 0xA48 JUMP JUMPDEST PUSH1 0x20 DUP3 ADD SWAP1 POP SWAP2 SWAP1 POP JUMP JUMPDEST PUSH0 PUSH1 0x20 DUP3 ADD SWAP1 POP DUP2 DUP2 SUB PUSH0 DUP4 ADD MSTORE PUSH2 0xAA9 DUP2 PUSH2 0xA70 JUMP JUMPDEST SWAP1 POP SWAP2 SWAP1 POP JUMP JUMPDEST PUSH32 0x4F6E6C79204E465420636F6E74726163742063616E2063616C6C000000000000 PUSH0 DUP3 ADD MSTORE POP JUMP JUMPDEST PUSH0 PUSH2 0xAE4 PUSH1 0x1A DUP4 PUSH2 0x94E JUMP JUMPDEST SWAP2 POP PUSH2 0xAEF DUP3 PUSH2 0xAB0 JUMP JUMPDEST PUSH1 0x20 DUP3 ADD SWAP1 POP SWAP2 SWAP1 POP JUMP JUMPDEST PUSH0 PUSH1 0x20 DUP3 ADD SWAP1 POP DUP2 DUP2 SUB PUSH0 DUP4 ADD MSTORE PUSH2 0xB11 DUP2 PUSH2 0xAD8 JUMP JUMPDEST SWAP1 POP SWAP2 SWAP1 POP JUMP JUMPDEST PUSH0 PUSH2 0xB32 PUSH2 0xB2D PUSH2 0xB28 DUP5 PUSH2 0x673 JUMP JUMPDEST PUSH2 0x4AE JUMP JUMPDEST PUSH2 0x56E JUMP JUMPDEST SWAP1 POP SWAP2 SWAP1 POP JUMP JUMPDEST PUSH2 0xB42 DUP2 PUSH2 0xB18 JUMP JUMPDEST DUP3 MSTORE POP POP JUMP JUMPDEST PUSH0 DUP3 DUP3 MSTORE PUSH1 0x20 DUP3 ADD SWAP1 POP SWAP3 SWAP2 POP POP JUMP JUMPDEST PUSH0 PUSH2 0xB63 DUP4 DUP6 PUSH2 0xB48 JUMP JUMPDEST SWAP4 POP PUSH2 0xB70 DUP4 DUP6 DUP5 PUSH2 0x84D JUMP JUMPDEST PUSH2 0xB79 DUP4 PUSH2 0x795 JUMP JUMPDEST DUP5 ADD SWAP1 POP SWAP4 SWAP3 POP POP POP JUMP JUMPDEST PUSH0 DUP2 SWAP1 POP SWAP2 SWAP1 POP JUMP JUMPDEST PUSH0 PUSH2 0xBA7 PUSH2 0xBA2 PUSH2 0xB9D DUP5 PUSH2 0xB84 JUMP JUMPDEST PUSH2 0x4AE JUMP JUMPDEST PUSH2 0x56E JUMP JUMPDEST SWAP1 POP SWAP2 SWAP1 POP JUMP JUMPDEST PUSH2 0xBB7 DUP2 PUSH2 0xB8D JUMP JUMPDEST DUP3 MSTORE POP POP JUMP JUMPDEST PUSH0 PUSH1 0xA0 DUP3 ADD SWAP1 POP PUSH2 0xBD0 PUSH0 DUP4 ADD DUP10 PUSH2 0x72E JUMP JUMPDEST PUSH2 0xBDD PUSH1 0x20 DUP4 ADD DUP9 PUSH2 0xB39 JUMP JUMPDEST DUP2 DUP2 SUB PUSH1 0x40 DUP4 ADD MSTORE PUSH2 0xBF0 DUP2 DUP7 DUP9 PUSH2 0xB58 JUMP JUMPDEST SWAP1 POP PUSH2 0xBFF PUSH1 0x60 DUP4 ADD DUP6 PUSH2 0x935 JUMP JUMPDEST PUSH2 0xC0C PUSH1 0x80 DUP4 ADD DUP5 PUSH2 0xBAE JUMP JUMPDEST SWAP8 SWAP7 POP POP POP POP POP POP POP JUMP JUMPDEST PUSH0 PUSH2 0xC22 DUP4 DUP6 PUSH2 0x94E JUMP JUMPDEST SWAP4 POP PUSH2 0xC2F DUP4 DUP6 DUP5 PUSH2 0x84D JUMP JUMPDEST PUSH2 0xC38 DUP4 PUSH2 0x795 JUMP JUMPDEST DUP5 ADD SWAP1 POP SWAP4 SWAP3 POP POP POP JUMP JUMPDEST PUSH0 PUSH1 0x20 DUP3 ADD SWAP1 POP DUP2 DUP2 SUB PUSH0 DUP4 ADD MSTORE PUSH2 0xC5C DUP2 DUP5 DUP7 PUSH2 0xC17 JUMP JUMPDEST SWAP1 POP SWAP4 SWAP3 POP POP POP JUMP INVALID LOG2 PUSH5 0x6970667358 0x22 SLT KECCAK256 OR PUSH14 0xF5033261424896405E548C62D555 MCOPY CREATE SWAP7 0x28 BASEFEE 0xD1 DUP3 CALLDATACOPY AND CODECOPY ADDMOD EXTCODEHASH LT XOR EXTCODESIZE DUP10 PUSH5 0x736F6C6343 STOP ADDMOD BYTE STOP CALLER "
		},
		"gasEstimates": {
			"creation": {
				"codeDepositCost": "645400",
				"executionCost": "infinite",
				"totalCost": "infinite"
			},
			"external": {
				"bridgeNFT(uint256,uint16,address,bytes)": "infinite",
				"gateway()": "infinite",
				"onAbort(address,uint256,bytes)": "2700",
				"onCall(address,uint256,bytes)": "infinite",
				"onRevert(address,uint256,bytes)": "2678",
				"universalNFT()": "2596"
			}
		},
		"methodIdentifiers": {
			"bridgeNFT(uint256,uint16,address,bytes)": "b1d31d98",
			"gateway()": "116191b6",
			"onAbort(address,uint256,bytes)": "852ea390",
			"onCall(address,uint256,bytes)": "59c49048",
			"onRevert(address,uint256,bytes)": "67ce86d3",
			"universalNFT()": "c1f5804e"
		}
	},
	"abi": [
		{
			"inputs": [
				{
					"internalType": "address",
					"name": "_gateway",
					"type": "address"
				},
				{
					"internalType": "address",
					"name": "_universalNFT",
					"type": "address"
				}
			],
			"stateMutability": "nonpayable",
			"type": "constructor"
		},
		{
			"anonymous": false,
			"inputs": [
				{
					"indexed": false,
					"internalType": "string",
					"name": "reason",
					"type": "string"
				}
			],
			"name": "BridgeError",
			"type": "event"
		},
		{
			"anonymous": false,
			"inputs": [
				{
					"indexed": true,
					"internalType": "uint256",
					"name": "tokenId",
					"type": "uint256"
				},
				{
					"indexed": true,
					"internalType": "address",
					"name": "recipient",
					"type": "address"
				}
			],
			"name": "CrossChainReceived",
			"type": "event"
		},
		{
			"anonymous": false,
			"inputs": [
				{
					"indexed": true,
					"internalType": "uint256",
					"name": "tokenId",
					"type": "uint256"
				},
				{
					"indexed": true,
					"internalType": "uint16",
					"name": "destinationChain",
					"type": "uint16"
				},
				{
					"indexed": true,
					"internalType": "address",
					"name": "recipient",
					"type": "address"
				},
				{
					"indexed": false,
					"internalType": "string",
					"name": "metadataURI",
					"type": "string"
				}
			],
			"name": "CrossChainSend",
			"type": "event"
		},
		{
			"inputs": [
				{
					"internalType": "uint256",
					"name": "tokenId",
					"type": "uint256"
				},
				{
					"internalType": "uint16",
					"name": "destinationChain",
					"type": "uint16"
				},
				{
					"internalType": "address",
					"name": "recipient",
					"type": "address"
				},
				{
					"internalType": "bytes",
					"name": "message",
					"type": "bytes"
				}
			],
			"name": "bridgeNFT",
			"outputs": [],
			"stateMutability": "payable",
			"type": "function"
		},
		{
			"inputs": [],
			"name": "gateway",
			"outputs": [
				{
					"internalType": "contract IGateway",
					"name": "",
					"type": "address"
				}
			],
			"stateMutability": "view",
			"type": "function"
		},
		{
			"inputs": [
				{
					"internalType": "address",
					"name": "zrc20",
					"type": "address"
				},
				{
					"internalType": "uint256",
					"name": "amount",
					"type": "uint256"
				},
				{
					"internalType": "bytes",
					"name": "message",
					"type": "bytes"
				}
			],
			"name": "onAbort",
			"outputs": [],
			"stateMutability": "nonpayable",
			"type": "function"
		},
		{
			"inputs": [
				{
					"internalType": "address",
					"name": "zrc20",
					"type": "address"
				},
				{
					"internalType": "uint256",
					"name": "amount",
					"type": "uint256"
				},
				{
					"internalType": "bytes",
					"name": "message",
					"type": "bytes"
				}
			],
			"name": "onCall",
			"outputs": [],
			"stateMutability": "nonpayable",
			"type": "function"
		},
		{
			"inputs": [
				{
					"internalType": "address",
					"name": "zrc20",
					"type": "address"
				},
				{
					"internalType": "uint256",
					"name": "amount",
					"type": "uint256"
				},
				{
					"internalType": "bytes",
					"name": "message",
					"type": "bytes"
				}
			],
			"name": "onRevert",
			"outputs": [],
			"stateMutability": "nonpayable",
			"type": "function"
		},
		{
			"inputs": [],
			"name": "universalNFT",
			"outputs": [
				{
					"internalType": "address",
					"name": "",
					"type": "address"
				}
			],
			"stateMutability": "view",
			"type": "function"
		}
	]
}